{"contracts/SponsorRegistry.sol":{"SponsorRegistry":{"abi":[{"inputs":[],"stateMutability":"nonpayable","type":"constructor"},{"anonymous":false,"inputs":[{"indexed":true,"internalType":"address","name":"sponsor","type":"address"},{"indexed":false,"internalType":"string","name":"name","type":"string"}],"name":"SponsorAdded","type":"event"},{"anonymous":false,"inputs":[{"indexed":true,"internalType":"address","name":"sponsor","type":"address"}],"name":"SponsorRemoved","type":"event"},{"anonymous":false,"inputs":[{"indexed":true,"internalType":"address","name":"applicant","type":"address"},{"indexed":false,"internalType":"enum SponsorRegistry.RequestStatus","name":"status","type":"uint8"}],"name":"SponsorshipRequestResolved","type":"event"},{"anonymous":false,"inputs":[{"indexed":true,"internalType":"address","name":"applicant","type":"address"},{"indexed":false,"internalType":"bytes","name":"encryptedData","type":"bytes"}],"name":"SponsorshipRequested","type":"event"},{"inputs":[{"internalType":"address","name":"_sponsor","type":"address"},{"internalType":"string","name":"_name","type":"string"}],"name":"addSponsor","outputs":[],"stateMutability":"nonpayable","type":"function"},{"inputs":[{"internalType":"address","name":"_sponsor","type":"address"}],"name":"isVerifiedSponsor","outputs":[{"internalType":"bool","name":"","type":"bool"}],"stateMutability":"view","type":"function"},{"inputs":[],"name":"owner","outputs":[{"internalType":"address","name":"","type":"address"}],"stateMutability":"view","type":"function"},{"inputs":[{"internalType":"address","name":"_applicant","type":"address"}],"name":"rejectSponsorship","outputs":[],"stateMutability":"nonpayable","type":"function"},{"inputs":[{"internalType":"address","name":"_sponsor","type":"address"}],"name":"removeSponsor","outputs":[],"stateMutability":"nonpayable","type":"function"},{"inputs":[{"internalType":"bytes","name":"_encryptedData","type":"bytes"}],"name":"requestSponsorship","outputs":[],"stateMutability":"nonpayable","type":"function"},{"inputs":[{"internalType":"address","name":"","type":"address"}],"name":"requests","outputs":[{"internalType":"bytes","name":"encryptedData","type":"bytes"},{"internalType":"enum SponsorRegistry.RequestStatus","name":"status","type":"uint8"},{"internalType":"uint256","name":"requestedAt","type":"uint256"}],"stateMutability":"view","type":"function"},{"inputs":[{"internalType":"address","name":"","type":"address"}],"name":"sponsors","outputs":[{"internalType":"string","name":"name","type":"string"},{"internalType":"bool","name":"verified","type":"bool"},{"internalType":"uint256","name":"addedAt","type":"uint256"}],"stateMutability":"view","type":"function"},{"inputs":[{"internalType":"address","name":"_newOwner","type":"address"}],"name":"transferOwnership","outputs":[],"stateMutability":"nonpayable","type":"function"}],"evm":{"bytecode":{"linkReferences":{},"object":"60808060405234602757600280546001600160a01b03191633179055610afa908161002c8239f35b5f80fdfe6080806040526004361015610012575f80fd5b5f3560e01c9081636a6449ae146108c85750806374adad1d146107c95780638da5cb5b146107a15780639b1baabd146106d7578063c411267114610494578063cb67dfb31461027d578063d35590c21461018a578063ef784250146101155763f2fde38b1461007f575f80fd5b3461011157602036600319011261011157610098610903565b600254906100b0336001600160a01b038416146109e0565b6001600160a01b03169081156100d0576001600160a01b03191617600255005b60405162461bcd60e51b81526020600482015260196024820152784e6577206f776e6572206973207a65726f206164647265737360381b6044820152606490fd5b5f80fd5b346101115760203660031901126101115761012e610903565b61014360018060a01b036002541633146109e0565b6001600160a01b03165f818152602081905260408120600101805460ff191690557f37fe34a55e61111a88dc57c0e39a21511fb9baf8382601ef19ce83a519877ba29080a2005b34610111576020366003190112610111576001600160a01b036101ab610903565b165f525f60205260405f206040515f9180546101c681610919565b80845290600181169081156102595750600114610220575b506101ee8261020f94038361096c565b600260ff60018301541691015460405193849360608552606085019061098f565b911515602084015260408301520390f35b9250805f5260205f205f905b8482106102435750820160200192506101ee6101de565b600181602092548385880101520191019061022c565b60ff191660208086019190915291151560051b840190910193506101ee90506101de565b34610111576020366003190112610111576004356001600160401b038111610111576102ad9036906004016109b3565b90335f52600160205260ff600160405f2001541660048110156103c05761045657604051906102db82610951565b6102e6368483610a19565b82526020820190600182526040830192428452335f52600160205260405f20905180519060018060401b0382116104425761032b826103258554610919565b85610a5e565b602090601f83116001146103df5761035a92915f91836103d4575b50508160011b915f199060031b1c19161790565b81555b60018101925160048110156103c0577fd40f6686193ad765fd49762371d70cd04a4f1f21d05ee1c4f08f9439c8c8637a946103bb9460029260ff80198354169116179055519101556040519182916020835233956020840191610aad565b0390a2005b634e487b7160e01b5f52602160045260245ffd5b015190508880610346565b90601f19831691845f52815f20925f5b81811061042a5750908460019594939210610412575b505050811b01815561035d565b01515f1960f88460031b161c19169055878080610405565b929360206001819287860151815501950193016103ef565b634e487b7160e01b5f52604160045260245ffd5b60405162461bcd60e51b81526020600482015260166024820152755265717565737420616c72656164792065786973747360501b6044820152606490fd5b34610111576040366003190112610111576104ad610903565b6024356001600160401b038111610111576104cc9036906004016109b3565b906104e260018060a01b036002541633146109e0565b81156106a2576040516104f481610951565b6104ff368484610a19565b8152602081019360018552604082019042825260018060a01b031694855f525f60205260405f20925180519060018060401b0382116104425761054c826105468754610919565b87610a5e565b602090601f831160011461063b57918061057f9260029695945f926106305750508160011b915f199060031b1c19161790565b84555b600184019051151560ff8019835416911617905551910155825f52600160205260ff600160405f200154169160048310156103c05760017fd7eef3af4445425ea784b763ec8f465105b5834c3a84c516c404b68833b0095293146105f8575b6103bb604051928392602084526020840191610aad565b835f526001602052600160405f2001600260ff19825416179055835f516020610ace5f395f51905f52602060405160028152a26105e1565b015190508a80610346565b90601f19831691865f52815f20925f5b81811061068a575091600193918560029897969410610672575b505050811b018455610582565b01515f1960f88460031b161c19169055898080610665565b9293602060018192878601518155019501930161064b565b60405162461bcd60e51b815260206004820152600d60248201526c13985b59481c995c5d5a5c9959609a1b6044820152606490fd5b34610111576020366003190112610111576106f0610903565b61070560018060a01b036002541633146109e0565b6001600160a01b03165f818152600160208190526040909120015460ff1660048110156103c05760010361076757805f526001602052600160405f2001600360ff198254161790555f516020610ace5f395f51905f52602060405160038152a2005b60405162461bcd60e51b8152602060048201526012602482015271139bc81c195b991a5b99c81c995c5d595cdd60721b6044820152606490fd5b34610111575f366003190112610111576002546040516001600160a01b039091168152602090f35b34610111576020366003190112610111576001600160a01b036107ea610903565b165f52600160205260405f20604051905f8282549161080883610919565b80835292600181169081156108a95750600114610868575b61082c9250038361096c565b600260ff60018301541691015461084e6040519360608552606085019061098f565b9060048310156103c0578392602084015260408301520390f35b5090825f5260205f20905f915b81831061088d57505090602061082c92820101610820565b6020919350806001915483858901015201910190918492610875565b6020925061082c94915060ff191682840152151560051b820101610820565b34610111576020366003190112610111576020906001600160a01b036108ec610903565b165f525f825260ff600160405f2001541615158152f35b600435906001600160a01b038216820361011157565b90600182811c92168015610947575b602083101461093357565b634e487b7160e01b5f52602260045260245ffd5b91607f1691610928565b606081019081106001600160401b0382111761044257604052565b601f909101601f19168101906001600160401b0382119082101761044257604052565b805180835260209291819084018484015e5f828201840152601f01601f1916010190565b9181601f84011215610111578235916001600160401b038311610111576020838186019501011161011157565b156109e757565b60405162461bcd60e51b815260206004820152600a60248201526927b7363c9037bbb732b960b11b6044820152606490fd5b9192916001600160401b0382116104425760405191610a42601f8201601f19166020018461096c565b829481845281830111610111578281602093845f960137010152565b601f8211610a6b57505050565b5f5260205f20906020601f840160051c83019310610aa3575b601f0160051c01905b818110610a98575050565b5f8155600101610a8d565b9091508190610a84565b908060209392818452848401375f828201840152601f01601f191601019056fec76b621c9861b343a1c48ceabdde9cfb2bd77578830caea48e153de3d37324f6a164736f6c634300081b000a","opcodes":"PUSH1 0x80 DUP1 PUSH1 0x40 MSTORE CALLVALUE PUSH1 0x27 JUMPI PUSH1 0x2 DUP1 SLOAD PUSH1 0x1 PUSH1 0x1 PUSH1 0xA0 SHL SUB NOT AND CALLER OR SWAP1 SSTORE PUSH2 0xAFA SWAP1 DUP2 PUSH2 0x2C DUP3 CODECOPY RETURN JUMPDEST PUSH0 DUP1 REVERT INVALID PUSH1 0x80 DUP1 PUSH1 0x40 MSTORE PUSH1 0x4 CALLDATASIZE LT ISZERO PUSH2 0x12 JUMPI PUSH0 DUP1 REVERT JUMPDEST PUSH0 CALLDATALOAD PUSH1 0xE0 SHR SWAP1 DUP2 PUSH4 0x6A6449AE EQ PUSH2 0x8C8 JUMPI POP DUP1 PUSH4 0x74ADAD1D EQ PUSH2 0x7C9 JUMPI DUP1 PUSH4 0x8DA5CB5B EQ PUSH2 0x7A1 JUMPI DUP1 PUSH4 0x9B1BAABD EQ PUSH2 0x6D7 JUMPI DUP1 PUSH4 0xC4112671 EQ PUSH2 0x494 JUMPI DUP1 PUSH4 0xCB67DFB3 EQ PUSH2 0x27D JUMPI DUP1 PUSH4 0xD35590C2 EQ PUSH2 0x18A JUMPI DUP1 PUSH4 0xEF784250 EQ PUSH2 0x115 JUMPI PUSH4 0xF2FDE38B EQ PUSH2 0x7F JUMPI PUSH0 DUP1 REVERT JUMPDEST CALLVALUE PUSH2 0x111 JUMPI PUSH1 0x20 CALLDATASIZE PUSH1 0x3 NOT ADD SLT PUSH2 0x111 JUMPI PUSH2 0x98 PUSH2 0x903 JUMP JUMPDEST PUSH1 0x2 SLOAD SWAP1 PUSH2 0xB0 CALLER PUSH1 0x1 PUSH1 0x1 PUSH1 0xA0 SHL SUB DUP5 AND EQ PUSH2 0x9E0 JUMP JUMPDEST PUSH1 0x1 PUSH1 0x1 PUSH1 0xA0 SHL SUB AND SWAP1 DUP2 ISZERO PUSH2 0xD0 JUMPI PUSH1 0x1 PUSH1 0x1 PUSH1 0xA0 SHL SUB NOT AND OR PUSH1 0x2 SSTORE STOP JUMPDEST PUSH1 0x40 MLOAD PUSH3 0x461BCD PUSH1 0xE5 SHL DUP2 MSTORE PUSH1 0x20 PUSH1 0x4 DUP3 ADD MSTORE PUSH1 0x19 PUSH1 0x24 DUP3 ADD MSTORE PUSH25 0x4E6577206F776E6572206973207A65726F2061646472657373 PUSH1 0x38 SHL PUSH1 0x44 DUP3 ADD MSTORE PUSH1 0x64 SWAP1 REVERT JUMPDEST PUSH0 DUP1 REVERT JUMPDEST CALLVALUE PUSH2 0x111 JUMPI PUSH1 0x20 CALLDATASIZE PUSH1 0x3 NOT ADD SLT PUSH2 0x111 JUMPI PUSH2 0x12E PUSH2 0x903 JUMP JUMPDEST PUSH2 0x143 PUSH1 0x1 DUP1 PUSH1 0xA0 SHL SUB PUSH1 0x2 SLOAD AND CALLER EQ PUSH2 0x9E0 JUMP JUMPDEST PUSH1 0x1 PUSH1 0x1 PUSH1 0xA0 SHL SUB AND PUSH0 DUP2 DUP2 MSTORE PUSH1 0x20 DUP2 SWAP1 MSTORE PUSH1 0x40 DUP2 KECCAK256 PUSH1 0x1 ADD DUP1 SLOAD PUSH1 0xFF NOT AND SWAP1 SSTORE PUSH32 0x37FE34A55E61111A88DC57C0E39A21511FB9BAF8382601EF19CE83A519877BA2 SWAP1 DUP1 LOG2 STOP JUMPDEST CALLVALUE PUSH2 0x111 JUMPI PUSH1 0x20 CALLDATASIZE PUSH1 0x3 NOT ADD SLT PUSH2 0x111 JUMPI PUSH1 0x1 PUSH1 0x1 PUSH1 0xA0 SHL SUB PUSH2 0x1AB PUSH2 0x903 JUMP JUMPDEST AND PUSH0 MSTORE PUSH0 PUSH1 0x20 MSTORE PUSH1 0x40 PUSH0 KECCAK256 PUSH1 0x40 MLOAD PUSH0 SWAP2 DUP1 SLOAD PUSH2 0x1C6 DUP2 PUSH2 0x919 JUMP JUMPDEST DUP1 DUP5 MSTORE SWAP1 PUSH1 0x1 DUP2 AND SWAP1 DUP2 ISZERO PUSH2 0x259 JUMPI POP PUSH1 0x1 EQ PUSH2 0x220 JUMPI JUMPDEST POP PUSH2 0x1EE DUP3 PUSH2 0x20F SWAP5 SUB DUP4 PUSH2 0x96C JUMP JUMPDEST PUSH1 0x2 PUSH1 0xFF PUSH1 0x1 DUP4 ADD SLOAD AND SWAP2 ADD SLOAD PUSH1 0x40 MLOAD SWAP4 DUP5 SWAP4 PUSH1 0x60 DUP6 MSTORE PUSH1 0x60 DUP6 ADD SWAP1 PUSH2 0x98F JUMP JUMPDEST SWAP2 ISZERO ISZERO PUSH1 0x20 DUP5 ADD MSTORE PUSH1 0x40 DUP4 ADD MSTORE SUB SWAP1 RETURN JUMPDEST SWAP3 POP DUP1 PUSH0 MSTORE PUSH1 0x20 PUSH0 KECCAK256 PUSH0 SWAP1 JUMPDEST DUP5 DUP3 LT PUSH2 0x243 JUMPI POP DUP3 ADD PUSH1 0x20 ADD SWAP3 POP PUSH2 0x1EE PUSH2 0x1DE JUMP JUMPDEST PUSH1 0x1 DUP2 PUSH1 0x20 SWAP3 SLOAD DUP4 DUP6 DUP9 ADD ADD MSTORE ADD SWAP2 ADD SWAP1 PUSH2 0x22C JUMP JUMPDEST PUSH1 0xFF NOT AND PUSH1 0x20 DUP1 DUP7 ADD SWAP2 SWAP1 SWAP2 MSTORE SWAP2 ISZERO ISZERO PUSH1 0x5 SHL DUP5 ADD SWAP1 SWAP2 ADD SWAP4 POP PUSH2 0x1EE SWAP1 POP PUSH2 0x1DE JUMP JUMPDEST CALLVALUE PUSH2 0x111 JUMPI PUSH1 0x20 CALLDATASIZE PUSH1 0x3 NOT ADD SLT PUSH2 0x111 JUMPI PUSH1 0x4 CALLDATALOAD PUSH1 0x1 PUSH1 0x1 PUSH1 0x40 SHL SUB DUP2 GT PUSH2 0x111 JUMPI PUSH2 0x2AD SWAP1 CALLDATASIZE SWAP1 PUSH1 0x4 ADD PUSH2 0x9B3 JUMP JUMPDEST SWAP1 CALLER PUSH0 MSTORE PUSH1 0x1 PUSH1 0x20 MSTORE PUSH1 0xFF PUSH1 0x1 PUSH1 0x40 PUSH0 KECCAK256 ADD SLOAD AND PUSH1 0x4 DUP2 LT ISZERO PUSH2 0x3C0 JUMPI PUSH2 0x456 JUMPI PUSH1 0x40 MLOAD SWAP1 PUSH2 0x2DB DUP3 PUSH2 0x951 JUMP JUMPDEST PUSH2 0x2E6 CALLDATASIZE DUP5 DUP4 PUSH2 0xA19 JUMP JUMPDEST DUP3 MSTORE PUSH1 0x20 DUP3 ADD SWAP1 PUSH1 0x1 DUP3 MSTORE PUSH1 0x40 DUP4 ADD SWAP3 TIMESTAMP DUP5 MSTORE CALLER PUSH0 MSTORE PUSH1 0x1 PUSH1 0x20 MSTORE PUSH1 0x40 PUSH0 KECCAK256 SWAP1 MLOAD DUP1 MLOAD SWAP1 PUSH1 0x1 DUP1 PUSH1 0x40 SHL SUB DUP3 GT PUSH2 0x442 JUMPI PUSH2 0x32B DUP3 PUSH2 0x325 DUP6 SLOAD PUSH2 0x919 JUMP JUMPDEST DUP6 PUSH2 0xA5E JUMP JUMPDEST PUSH1 0x20 SWAP1 PUSH1 0x1F DUP4 GT PUSH1 0x1 EQ PUSH2 0x3DF JUMPI PUSH2 0x35A SWAP3 SWAP2 PUSH0 SWAP2 DUP4 PUSH2 0x3D4 JUMPI JUMPDEST POP POP DUP2 PUSH1 0x1 SHL SWAP2 PUSH0 NOT SWAP1 PUSH1 0x3 SHL SHR NOT AND OR SWAP1 JUMP JUMPDEST DUP2 SSTORE JUMPDEST PUSH1 0x1 DUP2 ADD SWAP3 MLOAD PUSH1 0x4 DUP2 LT ISZERO PUSH2 0x3C0 JUMPI PUSH32 0xD40F6686193AD765FD49762371D70CD04A4F1F21D05EE1C4F08F9439C8C8637A SWAP5 PUSH2 0x3BB SWAP5 PUSH1 0x2 SWAP3 PUSH1 0xFF DUP1 NOT DUP4 SLOAD AND SWAP2 AND OR SWAP1 SSTORE MLOAD SWAP2 ADD SSTORE PUSH1 0x40 MLOAD SWAP2 DUP3 SWAP2 PUSH1 0x20 DUP4 MSTORE CALLER SWAP6 PUSH1 0x20 DUP5 ADD SWAP2 PUSH2 0xAAD JUMP JUMPDEST SUB SWAP1 LOG2 STOP JUMPDEST PUSH4 0x4E487B71 PUSH1 0xE0 SHL PUSH0 MSTORE PUSH1 0x21 PUSH1 0x4 MSTORE PUSH1 0x24 PUSH0 REVERT JUMPDEST ADD MLOAD SWAP1 POP DUP9 DUP1 PUSH2 0x346 JUMP JUMPDEST SWAP1 PUSH1 0x1F NOT DUP4 AND SWAP2 DUP5 PUSH0 MSTORE DUP2 PUSH0 KECCAK256 SWAP3 PUSH0 JUMPDEST DUP2 DUP2 LT PUSH2 0x42A JUMPI POP SWAP1 DUP5 PUSH1 0x1 SWAP6 SWAP5 SWAP4 SWAP3 LT PUSH2 0x412 JUMPI JUMPDEST POP POP POP DUP2 SHL ADD DUP2 SSTORE PUSH2 0x35D JUMP JUMPDEST ADD MLOAD PUSH0 NOT PUSH1 0xF8 DUP5 PUSH1 0x3 SHL AND SHR NOT AND SWAP1 SSTORE DUP8 DUP1 DUP1 PUSH2 0x405 JUMP JUMPDEST SWAP3 SWAP4 PUSH1 0x20 PUSH1 0x1 DUP2 SWAP3 DUP8 DUP7 ADD MLOAD DUP2 SSTORE ADD SWAP6 ADD SWAP4 ADD PUSH2 0x3EF JUMP JUMPDEST PUSH4 0x4E487B71 PUSH1 0xE0 SHL PUSH0 MSTORE PUSH1 0x41 PUSH1 0x4 MSTORE PUSH1 0x24 PUSH0 REVERT JUMPDEST PUSH1 0x40 MLOAD PUSH3 0x461BCD PUSH1 0xE5 SHL DUP2 MSTORE PUSH1 0x20 PUSH1 0x4 DUP3 ADD MSTORE PUSH1 0x16 PUSH1 0x24 DUP3 ADD MSTORE PUSH22 0x5265717565737420616C726561647920657869737473 PUSH1 0x50 SHL PUSH1 0x44 DUP3 ADD MSTORE PUSH1 0x64 SWAP1 REVERT JUMPDEST CALLVALUE PUSH2 0x111 JUMPI PUSH1 0x40 CALLDATASIZE PUSH1 0x3 NOT ADD SLT PUSH2 0x111 JUMPI PUSH2 0x4AD PUSH2 0x903 JUMP JUMPDEST PUSH1 0x24 CALLDATALOAD PUSH1 0x1 PUSH1 0x1 PUSH1 0x40 SHL SUB DUP2 GT PUSH2 0x111 JUMPI PUSH2 0x4CC SWAP1 CALLDATASIZE SWAP1 PUSH1 0x4 ADD PUSH2 0x9B3 JUMP JUMPDEST SWAP1 PUSH2 0x4E2 PUSH1 0x1 DUP1 PUSH1 0xA0 SHL SUB PUSH1 0x2 SLOAD AND CALLER EQ PUSH2 0x9E0 JUMP JUMPDEST DUP2 ISZERO PUSH2 0x6A2 JUMPI PUSH1 0x40 MLOAD PUSH2 0x4F4 DUP2 PUSH2 0x951 JUMP JUMPDEST PUSH2 0x4FF CALLDATASIZE DUP5 DUP5 PUSH2 0xA19 JUMP JUMPDEST DUP2 MSTORE PUSH1 0x20 DUP2 ADD SWAP4 PUSH1 0x1 DUP6 MSTORE PUSH1 0x40 DUP3 ADD SWAP1 TIMESTAMP DUP3 MSTORE PUSH1 0x1 DUP1 PUSH1 0xA0 SHL SUB AND SWAP5 DUP6 PUSH0 MSTORE PUSH0 PUSH1 0x20 MSTORE PUSH1 0x40 PUSH0 KECCAK256 SWAP3 MLOAD DUP1 MLOAD SWAP1 PUSH1 0x1 DUP1 PUSH1 0x40 SHL SUB DUP3 GT PUSH2 0x442 JUMPI PUSH2 0x54C DUP3 PUSH2 0x546 DUP8 SLOAD PUSH2 0x919 JUMP JUMPDEST DUP8 PUSH2 0xA5E JUMP JUMPDEST PUSH1 0x20 SWAP1 PUSH1 0x1F DUP4 GT PUSH1 0x1 EQ PUSH2 0x63B JUMPI SWAP2 DUP1 PUSH2 0x57F SWAP3 PUSH1 0x2 SWAP7 SWAP6 SWAP5 PUSH0 SWAP3 PUSH2 0x630 JUMPI POP POP DUP2 PUSH1 0x1 SHL SWAP2 PUSH0 NOT SWAP1 PUSH1 0x3 SHL SHR NOT AND OR SWAP1 JUMP JUMPDEST DUP5 SSTORE JUMPDEST PUSH1 0x1 DUP5 ADD SWAP1 MLOAD ISZERO ISZERO PUSH1 0xFF DUP1 NOT DUP4 SLOAD AND SWAP2 AND OR SWAP1 SSTORE MLOAD SWAP2 ADD SSTORE DUP3 PUSH0 MSTORE PUSH1 0x1 PUSH1 0x20 MSTORE PUSH1 0xFF PUSH1 0x1 PUSH1 0x40 PUSH0 KECCAK256 ADD SLOAD AND SWAP2 PUSH1 0x4 DUP4 LT ISZERO PUSH2 0x3C0 JUMPI PUSH1 0x1 PUSH32 0xD7EEF3AF4445425EA784B763EC8F465105B5834C3A84C516C404B68833B00952 SWAP4 EQ PUSH2 0x5F8 JUMPI JUMPDEST PUSH2 0x3BB PUSH1 0x40 MLOAD SWAP3 DUP4 SWAP3 PUSH1 0x20 DUP5 MSTORE PUSH1 0x20 DUP5 ADD SWAP2 PUSH2 0xAAD JUMP JUMPDEST DUP4 PUSH0 MSTORE PUSH1 0x1 PUSH1 0x20 MSTORE PUSH1 0x1 PUSH1 0x40 PUSH0 KECCAK256 ADD PUSH1 0x2 PUSH1 0xFF NOT DUP3 SLOAD AND OR SWAP1 SSTORE DUP4 PUSH0 MLOAD PUSH1 0x20 PUSH2 0xACE PUSH0 CODECOPY PUSH0 MLOAD SWAP1 PUSH0 MSTORE PUSH1 0x20 PUSH1 0x40 MLOAD PUSH1 0x2 DUP2 MSTORE LOG2 PUSH2 0x5E1 JUMP JUMPDEST ADD MLOAD SWAP1 POP DUP11 DUP1 PUSH2 0x346 JUMP JUMPDEST SWAP1 PUSH1 0x1F NOT DUP4 AND SWAP2 DUP7 PUSH0 MSTORE DUP2 PUSH0 KECCAK256 SWAP3 PUSH0 JUMPDEST DUP2 DUP2 LT PUSH2 0x68A JUMPI POP SWAP2 PUSH1 0x1 SWAP4 SWAP2 DUP6 PUSH1 0x2 SWAP9 SWAP8 SWAP7 SWAP5 LT PUSH2 0x672 JUMPI JUMPDEST POP POP POP DUP2 SHL ADD DUP5 SSTORE PUSH2 0x582 JUMP JUMPDEST ADD MLOAD PUSH0 NOT PUSH1 0xF8 DUP5 PUSH1 0x3 SHL AND SHR NOT AND SWAP1 SSTORE DUP10 DUP1 DUP1 PUSH2 0x665 JUMP JUMPDEST SWAP3 SWAP4 PUSH1 0x20 PUSH1 0x1 DUP2 SWAP3 DUP8 DUP7 ADD MLOAD DUP2 SSTORE ADD SWAP6 ADD SWAP4 ADD PUSH2 0x64B JUMP JUMPDEST PUSH1 0x40 MLOAD PUSH3 0x461BCD PUSH1 0xE5 SHL DUP2 MSTORE PUSH1 0x20 PUSH1 0x4 DUP3 ADD MSTORE PUSH1 0xD PUSH1 0x24 DUP3 ADD MSTORE PUSH13 0x13985B59481C995C5D5A5C9959 PUSH1 0x9A SHL PUSH1 0x44 DUP3 ADD MSTORE PUSH1 0x64 SWAP1 REVERT JUMPDEST CALLVALUE PUSH2 0x111 JUMPI PUSH1 0x20 CALLDATASIZE PUSH1 0x3 NOT ADD SLT PUSH2 0x111 JUMPI PUSH2 0x6F0 PUSH2 0x903 JUMP JUMPDEST PUSH2 0x705 PUSH1 0x1 DUP1 PUSH1 0xA0 SHL SUB PUSH1 0x2 SLOAD AND CALLER EQ PUSH2 0x9E0 JUMP JUMPDEST PUSH1 0x1 PUSH1 0x1 PUSH1 0xA0 SHL SUB AND PUSH0 DUP2 DUP2 MSTORE PUSH1 0x1 PUSH1 0x20 DUP2 SWAP1 MSTORE PUSH1 0x40 SWAP1 SWAP2 KECCAK256 ADD SLOAD PUSH1 0xFF AND PUSH1 0x4 DUP2 LT ISZERO PUSH2 0x3C0 JUMPI PUSH1 0x1 SUB PUSH2 0x767 JUMPI DUP1 PUSH0 MSTORE PUSH1 0x1 PUSH1 0x20 MSTORE PUSH1 0x1 PUSH1 0x40 PUSH0 KECCAK256 ADD PUSH1 0x3 PUSH1 0xFF NOT DUP3 SLOAD AND OR SWAP1 SSTORE PUSH0 MLOAD PUSH1 0x20 PUSH2 0xACE PUSH0 CODECOPY PUSH0 MLOAD SWAP1 PUSH0 MSTORE PUSH1 0x20 PUSH1 0x40 MLOAD PUSH1 0x3 DUP2 MSTORE LOG2 STOP JUMPDEST PUSH1 0x40 MLOAD PUSH3 0x461BCD PUSH1 0xE5 SHL DUP2 MSTORE PUSH1 0x20 PUSH1 0x4 DUP3 ADD MSTORE PUSH1 0x12 PUSH1 0x24 DUP3 ADD MSTORE PUSH18 0x139BC81C195B991A5B99C81C995C5D595CDD PUSH1 0x72 SHL PUSH1 0x44 DUP3 ADD MSTORE PUSH1 0x64 SWAP1 REVERT JUMPDEST CALLVALUE PUSH2 0x111 JUMPI PUSH0 CALLDATASIZE PUSH1 0x3 NOT ADD SLT PUSH2 0x111 JUMPI PUSH1 0x2 SLOAD PUSH1 0x40 MLOAD PUSH1 0x1 PUSH1 0x1 PUSH1 0xA0 SHL SUB SWAP1 SWAP2 AND DUP2 MSTORE PUSH1 0x20 SWAP1 RETURN JUMPDEST CALLVALUE PUSH2 0x111 JUMPI PUSH1 0x20 CALLDATASIZE PUSH1 0x3 NOT ADD SLT PUSH2 0x111 JUMPI PUSH1 0x1 PUSH1 0x1 PUSH1 0xA0 SHL SUB PUSH2 0x7EA PUSH2 0x903 JUMP JUMPDEST AND PUSH0 MSTORE PUSH1 0x1 PUSH1 0x20 MSTORE PUSH1 0x40 PUSH0 KECCAK256 PUSH1 0x40 MLOAD SWAP1 PUSH0 DUP3 DUP3 SLOAD SWAP2 PUSH2 0x808 DUP4 PUSH2 0x919 JUMP JUMPDEST DUP1 DUP4 MSTORE SWAP3 PUSH1 0x1 DUP2 AND SWAP1 DUP2 ISZERO PUSH2 0x8A9 JUMPI POP PUSH1 0x1 EQ PUSH2 0x868 JUMPI JUMPDEST PUSH2 0x82C SWAP3 POP SUB DUP4 PUSH2 0x96C JUMP JUMPDEST PUSH1 0x2 PUSH1 0xFF PUSH1 0x1 DUP4 ADD SLOAD AND SWAP2 ADD SLOAD PUSH2 0x84E PUSH1 0x40 MLOAD SWAP4 PUSH1 0x60 DUP6 MSTORE PUSH1 0x60 DUP6 ADD SWAP1 PUSH2 0x98F JUMP JUMPDEST SWAP1 PUSH1 0x4 DUP4 LT ISZERO PUSH2 0x3C0 JUMPI DUP4 SWAP3 PUSH1 0x20 DUP5 ADD MSTORE PUSH1 0x40 DUP4 ADD MSTORE SUB SWAP1 RETURN JUMPDEST POP SWAP1 DUP3 PUSH0 MSTORE PUSH1 0x20 PUSH0 KECCAK256 SWAP1 PUSH0 SWAP2 JUMPDEST DUP2 DUP4 LT PUSH2 0x88D JUMPI POP POP SWAP1 PUSH1 0x20 PUSH2 0x82C SWAP3 DUP3 ADD ADD PUSH2 0x820 JUMP JUMPDEST PUSH1 0x20 SWAP2 SWAP4 POP DUP1 PUSH1 0x1 SWAP2 SLOAD DUP4 DUP6 DUP10 ADD ADD MSTORE ADD SWAP2 ADD SWAP1 SWAP2 DUP5 SWAP3 PUSH2 0x875 JUMP JUMPDEST PUSH1 0x20 SWAP3 POP PUSH2 0x82C SWAP5 SWAP2 POP PUSH1 0xFF NOT AND DUP3 DUP5 ADD MSTORE ISZERO ISZERO PUSH1 0x5 SHL DUP3 ADD ADD PUSH2 0x820 JUMP JUMPDEST CALLVALUE PUSH2 0x111 JUMPI PUSH1 0x20 CALLDATASIZE PUSH1 0x3 NOT ADD SLT PUSH2 0x111 JUMPI PUSH1 0x20 SWAP1 PUSH1 0x1 PUSH1 0x1 PUSH1 0xA0 SHL SUB PUSH2 0x8EC PUSH2 0x903 JUMP JUMPDEST AND PUSH0 MSTORE PUSH0 DUP3 MSTORE PUSH1 0xFF PUSH1 0x1 PUSH1 0x40 PUSH0 KECCAK256 ADD SLOAD AND ISZERO ISZERO DUP2 MSTORE RETURN JUMPDEST PUSH1 0x4 CALLDATALOAD SWAP1 PUSH1 0x1 PUSH1 0x1 PUSH1 0xA0 SHL SUB DUP3 AND DUP3 SUB PUSH2 0x111 JUMPI JUMP JUMPDEST SWAP1 PUSH1 0x1 DUP3 DUP2 SHR SWAP3 AND DUP1 ISZERO PUSH2 0x947 JUMPI JUMPDEST PUSH1 0x20 DUP4 LT EQ PUSH2 0x933 JUMPI JUMP JUMPDEST PUSH4 0x4E487B71 PUSH1 0xE0 SHL PUSH0 MSTORE PUSH1 0x22 PUSH1 0x4 MSTORE PUSH1 0x24 PUSH0 REVERT JUMPDEST SWAP2 PUSH1 0x7F AND SWAP2 PUSH2 0x928 JUMP JUMPDEST PUSH1 0x60 DUP2 ADD SWAP1 DUP2 LT PUSH1 0x1 PUSH1 0x1 PUSH1 0x40 SHL SUB DUP3 GT OR PUSH2 0x442 JUMPI PUSH1 0x40 MSTORE JUMP JUMPDEST PUSH1 0x1F SWAP1 SWAP2 ADD PUSH1 0x1F NOT AND DUP2 ADD SWAP1 PUSH1 0x1 PUSH1 0x1 PUSH1 0x40 SHL SUB DUP3 GT SWAP1 DUP3 LT OR PUSH2 0x442 JUMPI PUSH1 0x40 MSTORE JUMP JUMPDEST DUP1 MLOAD DUP1 DUP4 MSTORE PUSH1 0x20 SWAP3 SWAP2 DUP2 SWAP1 DUP5 ADD DUP5 DUP5 ADD MCOPY PUSH0 DUP3 DUP3 ADD DUP5 ADD MSTORE PUSH1 0x1F ADD PUSH1 0x1F NOT AND ADD ADD SWAP1 JUMP JUMPDEST SWAP2 DUP2 PUSH1 0x1F DUP5 ADD SLT ISZERO PUSH2 0x111 JUMPI DUP3 CALLDATALOAD SWAP2 PUSH1 0x1 PUSH1 0x1 PUSH1 0x40 SHL SUB DUP4 GT PUSH2 0x111 JUMPI PUSH1 0x20 DUP4 DUP2 DUP7 ADD SWAP6 ADD ADD GT PUSH2 0x111 JUMPI JUMP JUMPDEST ISZERO PUSH2 0x9E7 JUMPI JUMP JUMPDEST PUSH1 0x40 MLOAD PUSH3 0x461BCD PUSH1 0xE5 SHL DUP2 MSTORE PUSH1 0x20 PUSH1 0x4 DUP3 ADD MSTORE PUSH1 0xA PUSH1 0x24 DUP3 ADD MSTORE PUSH10 0x27B7363C9037BBB732B9 PUSH1 0xB1 SHL PUSH1 0x44 DUP3 ADD MSTORE PUSH1 0x64 SWAP1 REVERT JUMPDEST SWAP2 SWAP3 SWAP2 PUSH1 0x1 PUSH1 0x1 PUSH1 0x40 SHL SUB DUP3 GT PUSH2 0x442 JUMPI PUSH1 0x40 MLOAD SWAP2 PUSH2 0xA42 PUSH1 0x1F DUP3 ADD PUSH1 0x1F NOT AND PUSH1 0x20 ADD DUP5 PUSH2 0x96C JUMP JUMPDEST DUP3 SWAP5 DUP2 DUP5 MSTORE DUP2 DUP4 ADD GT PUSH2 0x111 JUMPI DUP3 DUP2 PUSH1 0x20 SWAP4 DUP5 PUSH0 SWAP7 ADD CALLDATACOPY ADD ADD MSTORE JUMP JUMPDEST PUSH1 0x1F DUP3 GT PUSH2 0xA6B JUMPI POP POP POP JUMP JUMPDEST PUSH0 MSTORE PUSH1 0x20 PUSH0 KECCAK256 SWAP1 PUSH1 0x20 PUSH1 0x1F DUP5 ADD PUSH1 0x5 SHR DUP4 ADD SWAP4 LT PUSH2 0xAA3 JUMPI JUMPDEST PUSH1 0x1F ADD PUSH1 0x5 SHR ADD SWAP1 JUMPDEST DUP2 DUP2 LT PUSH2 0xA98 JUMPI POP POP JUMP JUMPDEST PUSH0 DUP2 SSTORE PUSH1 0x1 ADD PUSH2 0xA8D JUMP JUMPDEST SWAP1 SWAP2 POP DUP2 SWAP1 PUSH2 0xA84 JUMP JUMPDEST SWAP1 DUP1 PUSH1 0x20 SWAP4 SWAP3 DUP2 DUP5 MSTORE DUP5 DUP5 ADD CALLDATACOPY PUSH0 DUP3 DUP3 ADD DUP5 ADD MSTORE PUSH1 0x1F ADD PUSH1 0x1F NOT AND ADD ADD SWAP1 JUMP INVALID 0xC7 PUSH12 0x621C9861B343A1C48CEABDDE SWAP13 0xFB 0x2B 0xD7 PUSH22 0x78830CAEA48E153DE3D37324F6A164736F6C63430008 SHL STOP EXP "},"methodIdentifiers":{"addSponsor(address,string)":"c4112671","isVerifiedSponsor(address)":"6a6449ae","owner()":"8da5cb5b","rejectSponsorship(address)":"9b1baabd","removeSponsor(address)":"ef784250","requestSponsorship(bytes)":"cb67dfb3","requests(address)":"74adad1d","sponsors(address)":"d35590c2","transferOwnership(address)":"f2fde38b"}}}}}