{
  "_format": "hh-sol-artifact-1",
  "contractName": "SponsorIncentiveVault",
  "sourceName": "contracts/SponsorIncentiveVault.sol",
  "abi": [
    {
      "inputs": [
        {
          "internalType": "address payable",
          "name": "_cETH",
          "type": "address"
        },
        {
          "internalType": "address",
          "name": "_trialManager",
          "type": "address"
        },
        {
          "internalType": "address",
          "name": "_eligibilityEngine",
          "type": "address"
        }
      ],
      "stateMutability": "nonpayable",
      "type": "constructor"
    },
    {
      "inputs": [],
      "name": "ZamaProtocolUnsupported",
      "type": "error"
    },
    {
      "anonymous": false,
      "inputs": [
        {
          "indexed": true,
          "internalType": "uint256",
          "name": "trialId",
          "type": "uint256"
        },
        {
          "indexed": true,
          "internalType": "address",
          "name": "sponsor",
          "type": "address"
        },
        {
          "indexed": false,
          "internalType": "uint256",
          "name": "amount",
          "type": "uint256"
        }
      ],
      "name": "IncentiveFunded",
      "type": "event"
    },
    {
      "anonymous": false,
      "inputs": [
        {
          "indexed": true,
          "internalType": "uint256",
          "name": "trialId",
          "type": "uint256"
        },
        {
          "indexed": false,
          "internalType": "uint256",
          "name": "milestoneIndex",
          "type": "uint256"
        },
        {
          "indexed": false,
          "internalType": "uint256",
          "name": "shareWei",
          "type": "uint256"
        }
      ],
      "name": "MilestoneRewardsDistributed",
      "type": "event"
    },
    {
      "anonymous": false,
      "inputs": [
        {
          "indexed": true,
          "internalType": "uint256",
          "name": "trialId",
          "type": "uint256"
        },
        {
          "indexed": true,
          "internalType": "address",
          "name": "participant",
          "type": "address"
        }
      ],
      "name": "ParticipantRegistered",
      "type": "event"
    },
    {
      "anonymous": false,
      "inputs": [
        {
          "indexed": true,
          "internalType": "address",
          "name": "patient",
          "type": "address"
        },
        {
          "indexed": false,
          "internalType": "uint256",
          "name": "amount",
          "type": "uint256"
        }
      ],
      "name": "RewardClaimed",
      "type": "event"
    },
    {
      "anonymous": false,
      "inputs": [
        {
          "indexed": true,
          "internalType": "uint256",
          "name": "trialId",
          "type": "uint256"
        },
        {
          "indexed": false,
          "internalType": "uint256",
          "name": "participantCount",
          "type": "uint256"
        },
        {
          "indexed": false,
          "internalType": "uint256",
          "name": "shareWei",
          "type": "uint256"
        }
      ],
      "name": "RewardsDistributed",
      "type": "event"
    },
    {
      "inputs": [],
      "name": "automationContract",
      "outputs": [
        {
          "internalType": "address",
          "name": "",
          "type": "address"
        }
      ],
      "stateMutability": "view",
      "type": "function"
    },
    {
      "inputs": [],
      "name": "cETH",
      "outputs": [
        {
          "internalType": "contract ConfidentialETH",
          "name": "",
          "type": "address"
        }
      ],
      "stateMutability": "view",
      "type": "function"
    },
    {
      "inputs": [],
      "name": "confidentialProtocolId",
      "outputs": [
        {
          "internalType": "uint256",
          "name": "",
          "type": "uint256"
        }
      ],
      "stateMutability": "view",
      "type": "function"
    },
    {
      "inputs": [],
      "name": "dataAccessLog",
      "outputs": [
        {
          "internalType": "contract DataAccessLog",
          "name": "",
          "type": "address"
        }
      ],
      "stateMutability": "view",
      "type": "function"
    },
    {
      "inputs": [
        {
          "internalType": "uint256",
          "name": "_trialId",
          "type": "uint256"
        }
      ],
      "name": "distribute",
      "outputs": [],
      "stateMutability": "nonpayable",
      "type": "function"
    },
    {
      "inputs": [
        {
          "internalType": "uint256",
          "name": "_trialId",
          "type": "uint256"
        },
        {
          "internalType": "address",
          "name": "_participant",
          "type": "address"
        },
        {
          "internalType": "uint256",
          "name": "_milestoneIndex",
          "type": "uint256"
        }
      ],
      "name": "distributeMilestoneToParticipant",
      "outputs": [],
      "stateMutability": "nonpayable",
      "type": "function"
    },
    {
      "inputs": [
        {
          "internalType": "uint256",
          "name": "_trialId",
          "type": "uint256"
        },
        {
          "internalType": "uint256",
          "name": "_milestoneIndex",
          "type": "uint256"
        }
      ],
      "name": "distributePartial",
      "outputs": [],
      "stateMutability": "nonpayable",
      "type": "function"
    },
    {
      "inputs": [],
      "name": "eligibilityEngine",
      "outputs": [
        {
          "internalType": "contract EligibilityEngine",
          "name": "",
          "type": "address"
        }
      ],
      "stateMutability": "view",
      "type": "function"
    },
    {
      "inputs": [
        {
          "internalType": "uint256",
          "name": "_trialId",
          "type": "uint256"
        }
      ],
      "name": "fundTrial",
      "outputs": [],
      "stateMutability": "payable",
      "type": "function"
    },
    {
      "inputs": [
        {
          "internalType": "uint256",
          "name": "_trialId",
          "type": "uint256"
        }
      ],
      "name": "getParticipantCount",
      "outputs": [
        {
          "internalType": "uint256",
          "name": "",
          "type": "uint256"
        }
      ],
      "stateMutability": "view",
      "type": "function"
    },
    {
      "inputs": [
        {
          "internalType": "uint256",
          "name": "_trialId",
          "type": "uint256"
        }
      ],
      "name": "getTotalDeposited",
      "outputs": [
        {
          "internalType": "uint256",
          "name": "",
          "type": "uint256"
        }
      ],
      "stateMutability": "view",
      "type": "function"
    },
    {
      "inputs": [
        {
          "internalType": "uint256",
          "name": "_trialId",
          "type": "uint256"
        }
      ],
      "name": "isDistributed",
      "outputs": [
        {
          "internalType": "bool",
          "name": "",
          "type": "bool"
        }
      ],
      "stateMutability": "view",
      "type": "function"
    },
    {
      "inputs": [
        {
          "internalType": "uint256",
          "name": "_trialId",
          "type": "uint256"
        }
      ],
      "name": "isPoolFunded",
      "outputs": [
        {
          "internalType": "bool",
          "name": "",
          "type": "bool"
        }
      ],
      "stateMutability": "view",
      "type": "function"
    },
    {
      "inputs": [
        {
          "internalType": "uint256",
          "name": "",
          "type": "uint256"
        },
        {
          "internalType": "uint256",
          "name": "",
          "type": "uint256"
        }
      ],
      "name": "milestoneDistributed",
      "outputs": [
        {
          "internalType": "bool",
          "name": "",
          "type": "bool"
        }
      ],
      "stateMutability": "view",
      "type": "function"
    },
    {
      "inputs": [],
      "name": "milestoneManager",
      "outputs": [
        {
          "internalType": "contract TrialMilestoneManager",
          "name": "",
          "type": "address"
        }
      ],
      "stateMutability": "view",
      "type": "function"
    },
    {
      "inputs": [],
      "name": "owner",
      "outputs": [
        {
          "internalType": "address",
          "name": "",
          "type": "address"
        }
      ],
      "stateMutability": "view",
      "type": "function"
    },
    {
      "inputs": [
        {
          "internalType": "uint256",
          "name": "",
          "type": "uint256"
        },
        {
          "internalType": "address",
          "name": "",
          "type": "address"
        },
        {
          "internalType": "uint256",
          "name": "",
          "type": "uint256"
        }
      ],
      "name": "participantMilestonePaid",
      "outputs": [
        {
          "internalType": "bool",
          "name": "",
          "type": "bool"
        }
      ],
      "stateMutability": "view",
      "type": "function"
    },
    {
      "inputs": [
        {
          "internalType": "uint256",
          "name": "_trialId",
          "type": "uint256"
        },
        {
          "internalType": "address",
          "name": "_participant",
          "type": "address"
        }
      ],
      "name": "registerParticipant",
      "outputs": [],
      "stateMutability": "nonpayable",
      "type": "function"
    },
    {
      "inputs": [
        {
          "internalType": "address",
          "name": "_automation",
          "type": "address"
        }
      ],
      "name": "setAutomationContract",
      "outputs": [],
      "stateMutability": "nonpayable",
      "type": "function"
    },
    {
      "inputs": [
        {
          "internalType": "address",
          "name": "_dataAccessLog",
          "type": "address"
        }
      ],
      "name": "setDataAccessLog",
      "outputs": [],
      "stateMutability": "nonpayable",
      "type": "function"
    },
    {
      "inputs": [
        {
          "internalType": "address",
          "name": "_milestoneManager",
          "type": "address"
        }
      ],
      "name": "setMilestoneManager",
      "outputs": [],
      "stateMutability": "nonpayable",
      "type": "function"
    },
    {
      "inputs": [],
      "name": "trialManager",
      "outputs": [
        {
          "internalType": "contract TrialManager",
          "name": "",
          "type": "address"
        }
      ],
      "stateMutability": "view",
      "type": "function"
    },
    {
      "stateMutability": "payable",
      "type": "receive"
    }
  ],
  "bytecode": "0x60806040523461027457604051601f6121c238819003918201601f19168301916001600160401b03831184841017610278578084926060946040528339810103126102745780516001600160a01b038116919082900361027457610071604061006a602084016102ab565b92016102ab565b9161007a6102bf565b50466001036101905761008b6102bf565b5061009461028c565b5f81525f60208201525f60408201525b80517f9e7b61f58c47dc699ac88507c4f5bb9f121c03808c5676a8078fe583e464970080546001600160a01b03199081166001600160a01b039384161790915560208301517f9e7b61f58c47dc699ac88507c4f5bb9f121c03808c5676a8078fe583e4649701805483169184169190911790556040928301517f9e7b61f58c47dc699ac88507c4f5bb9f121c03808c5676a8078fe583e464970280548316918416919091179055600680548216331790555f80548216949094179093556001805484169482169490941790935560028054909216939092169290921790915551611ee890816102da8239f35b4662aa36a7036101fb576101a26102bf565b506101ab61028c565b73f0ffdc93b7e186bc2f8cb3daa75d86d1930a433d81527392c920834ec8941d2c77d188936e1f7a6f49c127602082015273be0e383937d564d7ff0bc3b46c51f0bf8d5c311a60408201526100a4565b46617a69036102655761020c6102bf565b5061021561028c565b7350157cffd6bbfa2dece204a89ec419c23ef5755d815273e3a9105a3a932253a70f126eb1e3b589c643dd24602082015273be0e383937d564d7ff0bc3b46c51f0bf8d5c311a60408201526100a4565b6373cac13b60e01b5f5260045ffd5b5f80fd5b634e487b7160e01b5f52604160045260245ffd5b60405190606082016001600160401b0381118382101761027857604052565b51906001600160a01b038216820361027457565b6102c761028c565b905f82525f60208301525f604083015256fe6080604052600436101561001a575b3615610018575f80fd5b005b5f5f3560e01c8062b6cbdf1461185a5780630689d5ed14611832578063079823091461180a5780630b7d662f146117e25780632ea7ca0b146117925780633b1b84ff14611768578063477e74b6146112b25780634f11c6901461128957806355f8cfdd1461126057806362909f0a1461120e5780636f62c3a6146111dc5780637ef4775b146111b057806386ae5fec146111835780638927b030146111605780638da5cb5b1461113757806391c05b0b14610bda578063a1b4d01114610bb3578063b807420c1461073b578063be26085e146105a0578063c32212271461056e578063ef2262121461016a5763f520f24f14610116575061000e565b346101675760203660031901126101675761012f6118a0565b61014460018060a01b036006541633146118f6565b600480546001600160a01b0319166001600160a01b039290921691909117905580f35b80fd5b5034610167576040366003190112610167576024356001600160a01b038116906004359082810361056a57600154604051631a7f3c3360e01b815260048101849052908590829060249082906001600160a01b03165afa90811561055f57859161053d575b50833314908115610526575b50156104e6578184526007602052604084206101f981541515611e37565b60ff6002820154166104a3576003810190845f528160205260ff60405f205416610469576002546040516319a148dd60e21b815290879082906001600160a01b0316818061024b898b60048401611d6e565b03915afa90811561045e5787916103f3575b5060048110156103df576002036103a757600101805490600160401b821015610393578161029391600189969594018155611e77565b81549060031b9087821b9160018060a01b03901b1916179055845f5260205260405f20600160ff1982541617905560018060a01b036004541690816102fc575b5050807f78337b3a0cfc36faafab5a292dc7571f6bd68ba681c22e15c97b1e3469b51a0291a380f35b604051602081019160018060601b03199060601b16825242603482015260348152610328605482611977565b519020813b156103845782916064839260405194859384926306cc173360e41b84526006600485015289602485015260448401525af180156103885761036f575b806102d3565b8161037991611977565b61038457825f610369565b8280fd5b6040513d84823e3d90fd5b634e487b7160e01b87526041600452602487fd5b60405162461bcd60e51b815260206004820152601060248201526f135d5cdd081899481858d8d95c1d195960821b6044820152606490fd5b634e487b7160e01b87526021600452602487fd5b90503d8088833e6104048183611977565b810160408282031261045a578151916004831015610452576020810151906001600160401b03821161045657019080601f8301121561045257815161044b926020016119ae565b505f61025d565b8880fd5b8980fd5b8780fd5b6040513d89823e3d90fd5b60405162461bcd60e51b8152602060048201526012602482015271105b1c9958591e481c9959da5cdd195c995960721b6044820152606490fd5b60405162461bcd60e51b815260206004820152601b60248201527a14d8dc99595b9a5b99c8185b1c9958591e48199a5b985b1a5e9959602a1b6044820152606490fd5b60405162461bcd60e51b81526020600482015260186024820152772ab730baba3437b934bd32b2103a37903932b3b4b9ba32b960411b6044820152606490fd5b608001516001600160a01b0316331490505f6101db565b61055991503d8087833e6105518183611977565b810190611a3a565b5f6101cf565b6040513d87823e3d90fd5b8380fd5b50346101675760ff6040602092610584366118e0565b9082526008855282822090825284522054166040519015158152f35b50602036600319011261016757600154604051631a7f3c3360e01b815260048035908201819052918390829060249082906001600160a01b03165afa908115610730578391610716575b5060808101516001600160a01b031633036106d95760a00151156106a157341561066c578082526007602052604082208054903482018092116106585755604051903482527f67ec3e65bfa1c9be3e784341a3b9746d0e6a0cace395c7ff8df13b58106c272960203393a380f35b634e487b7160e01b84526011600452602484fd5b60405162461bcd60e51b815260206004820152600d60248201526c09aeae6e840e6cadcc8408aa89609b1b6044820152606490fd5b60405162461bcd60e51b815260206004820152601060248201526f547269616c206e6f742061637469766560801b6044820152606490fd5b60405162461bcd60e51b815260206004820152601560248201527413db9b1e481cdc1bdb9cdbdc8818d85b88199d5b99605a1b6044820152606490fd5b61072a91503d8085833e6105518183611977565b5f6105ea565b6040513d85823e3d90fd5b50346101675761074a366118e0565b6005546001600160a01b031633148015610b44575b61076890611beb565b6003546001600160a01b031661077f81151561192f565b82845260086020526040842082855260205260ff604085205416610aff57836024916040519283809263010b152760e61b82528760048301525afa908115610af4576108249161082a918691610ad2575b506107dd81518510611d28565b848652600760205261271060016040882001549384926107fe841515611de0565b878952600760205261ffff602061081a8960408d205494611d87565b5101511690611daf565b04611dc2565b9082158015865b83811061092657505050838552506008602090815260408086208487529091528420805460ff1916600117905560045484906001600160a01b031680610894575b50505f516020611ebc5f395f51905f529160409182519182526020820152a280f35b6040516020810190732820a92a24a0a62fa224a9aa2924a12aaa24a7a760611b8252856034820152426054820152605481526108d1607482611977565b51902090803b15610384576040516306cc173360e41b81529183918391829084908290610902908c60048401611e1e565b03925af180156103885715610872578161091b91611977565b61056a57835f610872565b86885260076020528761093f8260016040842001611e77565b905460039190911b1c6001600160a01b03168484610a22575b806109ef575b61096d575b5050600101610831565b8882526009602090815260408084206001600160a01b038481165f908152918452908290208b86529092528320805460ff1916600117905582541690813b1561038457879160248492604051948593849263aa67c91960e01b845260048401525af18015610388571561096357816109e491611977565b61045a57875f610963565b5088825260096020526040822060018060a01b0382165f5260205260405f2088835260205260ff6040832054161561095e565b506003546040516313981ba960e31b815291925060209082906001600160a01b03168180610a54878f60048401611d6e565b03915afa908115610ac7578a91610a92575b506001880190818911610a7e57908a92911015610958565b634e487b7160e01b8b52601160045260248bfd5b90506020813d8211610abf575b81610aac60209383611977565b81010312610abb57515f610a66565b5f80fd5b3d9150610a9f565b6040513d8c823e3d90fd5b610aee91503d8088833e610ae68183611977565b810190611c28565b5f6107d0565b6040513d86823e3d90fd5b60405162461bcd60e51b815260206004820152601d60248201527f4d696c6573746f6e6520616c72656164792064697374726962757465640000006044820152606490fd5b50600154604051631a7f3c3360e01b815260048101849052908490829060249082906001600160a01b03165afa8015610af457610768918591610b99575b50608001516001600160a01b03163314905061075f565b610bad91503d8087833e6105518183611977565b5f610b82565b5034610167578060031936011261016757546040516001600160a01b039091168152602090f35b50346101675760203660031901126101675760043560018060a01b0360055416331480156110c8575b610c0c90611beb565b600154604051631a7f3c3360e01b815260048101839052908390829060249082906001600160a01b03165afa8015610730576101e09184916110ae575b5001514210611073578082526007602052610c6960408320541515611e37565b808252600760205260ff60026040842001541661102e5780825260076020526001604083200154610c9b811515611de0565b8183526007602052604083205460035482906001600160a01b031680151590869082610fda575b505015610f3d575060035460405163010b152760e61b815260048101859052908590829060249082906001600160a01b03165afa90811561055f578591610f23575b50805115610f0f57612710610824610d299361ffff6020808896015101511690611daf565b835b828110610e2557505b828452600760205260408420600201805460ff1916600117905560045484906001600160a01b031680610d97575b50507f6ae8ee960d83517f7fa993ad7a0e16e33d9655a23ff41eefc62bdb289c7a8e5f9160409182519182526020820152a280f35b60405160208101907529a1a922a2a724a723afa224a9aa2924a12aaa24a7a760511b825242603682015260368152610dd0605682611977565b51902090803b15610384576040516306cc173360e41b81529183918391829084908290610e01908c60048401611e1e565b03925af180156103885715610d625781610e1a91611977565b61056a57835f610d62565b838552600760205284610e3e8260016040842001611e77565b60018060a01b0391549060031b1c1685825260096020526040822060018060a01b0382165f5260205260405f2082805260205260ff60408320541615610e89575b5050600101610d2b565b8582526009602090815260408084206001600160a01b038481165f908152918452908290208580529092528320805460ff1916600117905582541690813b1561038457849160248492604051948593849263aa67c91960e01b845260048401525af180156103885715610e7f5781610f0091611977565b610f0b57845f610e7f565b8480fd5b634e487b7160e01b85526032600452602485fd5b610f3791503d8087833e610ae68183611977565b5f610d04565b610f4691611dc2565b835b828110610f555750610d34565b8460018060a01b038154168582526007602052610f788360016040852001611e77565b905460039190911b1c6001600160a01b0316813b1561038457849160248492604051948593849263aa67c91960e01b845260048401525af1801561038857610fc5575b5050600101610f48565b81610fcf91611977565b610f0b57845f610fbb565b909150602492506040519283809263010b152760e61b82528860048301525afa801561055f5783918691611014575b50511515855f610cc2565b61102891503d8088833e610ae68183611977565b5f611009565b60405162461bcd60e51b815260206004820152601d60248201527f53637265656e696e6720616c72656164792064697374726962757465640000006044820152606490fd5b60405162461bcd60e51b8152602060048201526013602482015272151c9a585b081b9bdd081e595d08195b991959606a1b6044820152606490fd5b6110c291503d8086833e6105518183611977565b5f610c49565b50600154604051631a7f3c3360e01b815260048101839052908390829060249082906001600160a01b03165afa801561073057610c0c91849161111d575b50608001516001600160a01b031633149050610c03565b61113191503d8086833e6105518183611977565b5f611106565b50346101675780600319360112610167576006546040516001600160a01b039091168152602090f35b5034610167578060031936011261016757602061117b611e8c565b604051908152f35b50346101675760203660031901126101675760016040602092600435815260078452200154604051908152f35b503461016757602036600319011261016757604060209160043581526007835220541515604051908152f35b50346101675760203660031901126101675760ff60026040602093600435815260078552200154166040519015158152f35b5034610167576020366003190112610167576112286118a0565b61123d60018060a01b036006541633146118f6565b600580546001600160a01b0319166001600160a01b039290921691909117905580f35b50346101675780600319360112610167576001546040516001600160a01b039091168152602090f35b50346101675780600319360112610167576002546040516001600160a01b039091168152602090f35b5034610abb576112c1366118b6565b6003549091906001600160a01b03166112db81151561192f565b6005546001600160a01b0316331480156116f9575b6112f990611beb565b835f526007602052600360405f200160018060a01b0383165f5260205260ff60405f205416156116b75760405163010b152760e61b815260048101859052905f82602481845afa91821561159c575f9261169b575b5061135b82518510611d28565b602060405180926313981ba960e31b8252818061137c888b60048401611d6e565b03915afa90811561159c575f91611669575b508315908115611640575b50156115ec57835f52600960205260405f2060018060a01b0383165f5260205260405f20835f5260205260ff60405f2054166115a7576127106113f561141792865f52600760205261ffff602061081a8860405f205494611d87565b04845f526007602052600160405f20015490611412821515611de0565b611dc2565b5f8481526009602090815260408083206001600160a01b0380871685529083528184208785529092528220805460ff19166001179055905491929116803b15610abb5760405163aa67c91960e01b81526001600160a01b0383166004820152905f908290602490829087905af1801561159c57611587575b5060045485916001600160a01b0390911690816114ca575b5050505f516020611ebc5f395f51905f529160409182519182526020820152a280f35b60405160208101917f494e444956494455414c5f4d494c4553544f4e455f444953545249425554494f8352602760f91b604083015260018060601b03199060601b1660418201528560558201524260758201526075815261152c609582611977565b51902090803b15610384576040516306cc173360e41b8152918391839182908490829061155d908c60048401611e1e565b03925af1801561038857611572575b806114a7565b8161157c91611977565b61056a57835f61156c565b6115949195505f90611977565b5f935f61148f565b6040513d5f823e3d90fd5b60405162461bcd60e51b815260206004820152601f60248201527f416c7265616479207061696420666f722074686973206d696c6573746f6e65006044820152606490fd5b60405162461bcd60e51b815260206004820152602660248201527f4d696c6573746f6e65206e6f7420636f6d706c6574656420627920706172746960448201526518da5c185b9d60d21b6064820152608490fd5b6001850191508185116116555710155f611399565b634e487b7160e01b5f52601160045260245ffd5b90506020813d602011611693575b8161168460209383611977565b81010312610abb57515f61138e565b3d9150611677565b6116b09192503d805f833e610ae68183611977565b905f61134e565b60405162461bcd60e51b815260206004820152601a60248201527914185c9d1a58da5c185b9d081b9bdd081c9959da5cdd195c995960321b6044820152606490fd5b50600154604051631a7f3c3360e01b815260048101869052905f90829060249082906001600160a01b03165afa801561159c576112f9915f9161174e575b50608001516001600160a01b0316331490506112f0565b61176291503d805f833e6105518183611977565b5f611737565b34610abb576020366003190112610abb576004355f526007602052602060405f2054604051908152f35b34610abb576020366003190112610abb576117ab6118a0565b6117c060018060a01b036006541633146118f6565b600380546001600160a01b0319166001600160a01b0392909216919091179055005b34610abb575f366003190112610abb576003546040516001600160a01b039091168152602090f35b34610abb575f366003190112610abb576004546040516001600160a01b039091168152602090f35b34610abb575f366003190112610abb576005546040516001600160a01b039091168152602090f35b34610abb57611868366118b6565b915f52600960205260405f209060018060a01b03165f5260205260405f20905f52602052602060ff60405f2054166040519015158152f35b600435906001600160a01b0382168203610abb57565b6060906003190112610abb57600435906024356001600160a01b0381168103610abb579060443590565b6040906003190112610abb576004359060243590565b156118fd57565b60405162461bcd60e51b815260206004820152600a60248201526927b7363c9037bbb732b960b11b6044820152606490fd5b1561193657565b60405162461bcd60e51b8152602060048201526019602482015278135a5b195cdd1bdb99481b585b9859d95c881b9bdd081cd95d603a1b6044820152606490fd5b601f909101601f19168101906001600160401b0382119082101761199a57604052565b634e487b7160e01b5f52604160045260245ffd5b9192916001600160401b03821161199a57604051916119d7601f8201601f191660200184611977565b829481845281830111610abb578281602093845f96015e010152565b9080601f83011215610abb578151611a0d926020016119ae565b90565b51908115158203610abb57565b519060ff82168203610abb57565b519061ffff82168203610abb57565b602081830312610abb578051906001600160401b038211610abb570161020081830312610abb576040519161020083016001600160401b0381118482101761199a5760405281516001600160401b038111610abb5781611a9b9184016119f3565b835260208201516001600160401b038111610abb5781611abc9184016119f3565b602084015260408201516001600160401b038111610abb5781611ae09184016119f3565b60408401526060820151906001600160401b038211610abb57611b049183016119f3565b60608301526080810151906001600160a01b0382168203610abb576101e0916080840152611b3460a08201611a10565b60a0840152611b4560c08201611a1d565b60c0840152611b5660e08201611a1d565b60e0840152611b686101008201611a10565b610100840152611b7b6101208201611a2b565b610120840152611b8e6101408201611a1d565b610140840152611ba16101608201611a1d565b610160840152611bb46101808201611a2b565b610180840152611bc76101a08201611a10565b6101a0840152611bda6101c08201611a10565b6101c084015201516101e082015290565b15611bf257565b60405162461bcd60e51b815260206004820152600e60248201526d139bdd08185d5d1a1bdc9a5e995960921b6044820152606490fd5b602081830312610abb578051906001600160401b038211610abb57019080601f83011215610abb578151916001600160401b03831161199a578260051b9160405193611c776020850186611977565b845260208085019383010191818311610abb5760208101935b838510611c9f57505050505090565b84516001600160401b038111610abb5782016060818503601f190112610abb5760405191606083016001600160401b0381118482101761199a576040526020820151926001600160401b038411610abb57606083611d048860208098819801016119f3565b8352611d1260408201611a2b565b8584015201516040820152815201940193611c90565b15611d2f57565b60405162461bcd60e51b8152602060048201526017602482015276092dcecc2d8d2c840dad2d8cae6e8dedcca40d2dcc8caf604b1b6044820152606490fd5b9081526001600160a01b03909116602082015260400190565b8051821015611d9b5760209160051b010190565b634e487b7160e01b5f52603260045260245ffd5b8181029291811591840414171561165557565b8115611dcc570490565b634e487b7160e01b5f52601260045260245ffd5b15611de757565b60405162461bcd60e51b815260206004820152600f60248201526e4e6f207061727469636970616e747360881b6044820152606490fd5b6040909392919360608101946005825260208201520152565b15611e3e57565b60405162461bcd60e51b8152602060048201526011602482015270139bc81a5b98d95b9d1a5d99481c1bdbdb607a1b6044820152606490fd5b8054821015611d9b575f5260205f2001905f90565b46600103611e9957600190565b4662aa36a703611ea95761271190565b617a694614611eb6575f90565b5f199056feab3d35e987d7948966df55f2917cc7abfc0e48b46f79c6b8603de3ee7c95aac7a164736f6c634300081b000a",
  "linkReferences": {},
  "deployedLinkReferences": {}
}