{
  "_format": "hh-sol-artifact-1",
  "contractName": "MedVaultRegistry",
  "sourceName": "contracts/MedVaultRegistry.sol",
  "abi": [
    {
      "inputs": [
        {
          "internalType": "address",
          "name": "_semaphore",
          "type": "address"
        },
        {
          "internalType": "address",
          "name": "_patientRegistry",
          "type": "address"
        },
        {
          "internalType": "address",
          "name": "_eligibilityEngine",
          "type": "address"
        }
      ],
      "stateMutability": "nonpayable",
      "type": "constructor"
    },
    {
      "anonymous": false,
      "inputs": [
        {
          "indexed": true,
          "internalType": "uint256",
          "name": "trialId",
          "type": "uint256"
        },
        {
          "indexed": true,
          "internalType": "uint256",
          "name": "nullifierHash",
          "type": "uint256"
        },
        {
          "indexed": true,
          "internalType": "bytes32",
          "name": "blindedRef",
          "type": "bytes32"
        }
      ],
      "name": "AnonymousApplication",
      "type": "event"
    },
    {
      "anonymous": false,
      "inputs": [
        {
          "indexed": true,
          "internalType": "uint256",
          "name": "trialId",
          "type": "uint256"
        },
        {
          "indexed": true,
          "internalType": "uint256",
          "name": "nullifierHash",
          "type": "uint256"
        },
        {
          "indexed": true,
          "internalType": "bytes32",
          "name": "blindedRef",
          "type": "bytes32"
        },
        {
          "indexed": false,
          "internalType": "bytes32",
          "name": "finalCt",
          "type": "bytes32"
        }
      ],
      "name": "AnonymousApplyStaged",
      "type": "event"
    },
    {
      "anonymous": false,
      "inputs": [
        {
          "indexed": true,
          "internalType": "address",
          "name": "newOwner",
          "type": "address"
        }
      ],
      "name": "OwnershipAccepted",
      "type": "event"
    },
    {
      "anonymous": false,
      "inputs": [
        {
          "indexed": true,
          "internalType": "address",
          "name": "proposedOwner",
          "type": "address"
        }
      ],
      "name": "OwnershipProposed",
      "type": "event"
    },
    {
      "anonymous": false,
      "inputs": [
        {
          "indexed": true,
          "internalType": "uint256",
          "name": "commitment",
          "type": "uint256"
        }
      ],
      "name": "PatientRegistered",
      "type": "event"
    },
    {
      "anonymous": false,
      "inputs": [
        {
          "indexed": true,
          "internalType": "uint256",
          "name": "trialId",
          "type": "uint256"
        },
        {
          "indexed": true,
          "internalType": "address",
          "name": "wallet",
          "type": "address"
        },
        {
          "indexed": false,
          "internalType": "bytes32",
          "name": "blindedRef",
          "type": "bytes32"
        }
      ],
      "name": "WalletLinkedApplication",
      "type": "event"
    },
    {
      "inputs": [],
      "name": "MERKLE_TREE_DURATION",
      "outputs": [
        {
          "internalType": "uint256",
          "name": "",
          "type": "uint256"
        }
      ],
      "stateMutability": "view",
      "type": "function"
    },
    {
      "inputs": [],
      "name": "acceptOwnership",
      "outputs": [],
      "stateMutability": "nonpayable",
      "type": "function"
    },
    {
      "inputs": [
        {
          "internalType": "uint256",
          "name": "trialId",
          "type": "uint256"
        },
        {
          "internalType": "uint256",
          "name": "commitment",
          "type": "uint256"
        },
        {
          "internalType": "uint256",
          "name": "nullifier",
          "type": "uint256"
        }
      ],
      "name": "applyToTrialWithConsent",
      "outputs": [],
      "stateMutability": "nonpayable",
      "type": "function"
    },
    {
      "inputs": [
        {
          "internalType": "uint256",
          "name": "trialId",
          "type": "uint256"
        },
        {
          "components": [
            {
              "internalType": "uint256",
              "name": "merkleTreeDepth",
              "type": "uint256"
            },
            {
              "internalType": "uint256",
              "name": "merkleTreeRoot",
              "type": "uint256"
            },
            {
              "internalType": "uint256",
              "name": "nullifier",
              "type": "uint256"
            },
            {
              "internalType": "uint256",
              "name": "message",
              "type": "uint256"
            },
            {
              "internalType": "uint256",
              "name": "scope",
              "type": "uint256"
            },
            {
              "internalType": "uint256[8]",
              "name": "points",
              "type": "uint256[8]"
            }
          ],
          "internalType": "struct ISemaphore.SemaphoreProof",
          "name": "proof",
          "type": "tuple"
        },
        {
          "internalType": "uint256",
          "name": "commitment",
          "type": "uint256"
        },
        {
          "internalType": "address",
          "name": "permitRecipient",
          "type": "address"
        }
      ],
      "name": "cancelAnonymousApplyStage",
      "outputs": [],
      "stateMutability": "nonpayable",
      "type": "function"
    },
    {
      "inputs": [],
      "name": "eligibilityEngine",
      "outputs": [
        {
          "internalType": "contract IEligibilityEngine",
          "name": "",
          "type": "address"
        }
      ],
      "stateMutability": "view",
      "type": "function"
    },
    {
      "inputs": [
        {
          "internalType": "uint256",
          "name": "trialId",
          "type": "uint256"
        },
        {
          "components": [
            {
              "internalType": "uint256",
              "name": "merkleTreeDepth",
              "type": "uint256"
            },
            {
              "internalType": "uint256",
              "name": "merkleTreeRoot",
              "type": "uint256"
            },
            {
              "internalType": "uint256",
              "name": "nullifier",
              "type": "uint256"
            },
            {
              "internalType": "uint256",
              "name": "message",
              "type": "uint256"
            },
            {
              "internalType": "uint256",
              "name": "scope",
              "type": "uint256"
            },
            {
              "internalType": "uint256[8]",
              "name": "points",
              "type": "uint256[8]"
            }
          ],
          "internalType": "struct ISemaphore.SemaphoreProof",
          "name": "proof",
          "type": "tuple"
        },
        {
          "internalType": "uint256",
          "name": "commitment",
          "type": "uint256"
        },
        {
          "internalType": "address",
          "name": "permitRecipient",
          "type": "address"
        },
        {
          "internalType": "bool",
          "name": "decryptedEligible",
          "type": "bool"
        },
        {
          "internalType": "bytes",
          "name": "decryptSig",
          "type": "bytes"
        }
      ],
      "name": "finalizeAnonymousApply",
      "outputs": [],
      "stateMutability": "nonpayable",
      "type": "function"
    },
    {
      "inputs": [
        {
          "internalType": "address",
          "name": "wallet",
          "type": "address"
        }
      ],
      "name": "getCommitmentForWallet",
      "outputs": [
        {
          "internalType": "uint256",
          "name": "",
          "type": "uint256"
        }
      ],
      "stateMutability": "view",
      "type": "function"
    },
    {
      "inputs": [],
      "name": "getPatientCount",
      "outputs": [
        {
          "internalType": "uint256",
          "name": "",
          "type": "uint256"
        }
      ],
      "stateMutability": "view",
      "type": "function"
    },
    {
      "inputs": [
        {
          "internalType": "uint256",
          "name": "trialId",
          "type": "uint256"
        },
        {
          "internalType": "uint256",
          "name": "nullifierHash",
          "type": "uint256"
        }
      ],
      "name": "hasAppliedToTrial",
      "outputs": [
        {
          "internalType": "bool",
          "name": "",
          "type": "bool"
        }
      ],
      "stateMutability": "view",
      "type": "function"
    },
    {
      "inputs": [],
      "name": "isRegistered",
      "outputs": [
        {
          "internalType": "bool",
          "name": "",
          "type": "bool"
        }
      ],
      "stateMutability": "view",
      "type": "function"
    },
    {
      "inputs": [
        {
          "internalType": "uint256",
          "name": "identityCommitment",
          "type": "uint256"
        }
      ],
      "name": "isRegisteredMember",
      "outputs": [
        {
          "internalType": "bool",
          "name": "",
          "type": "bool"
        }
      ],
      "stateMutability": "view",
      "type": "function"
    },
    {
      "inputs": [],
      "name": "owner",
      "outputs": [
        {
          "internalType": "address",
          "name": "",
          "type": "address"
        }
      ],
      "stateMutability": "view",
      "type": "function"
    },
    {
      "inputs": [],
      "name": "patientGroupId",
      "outputs": [
        {
          "internalType": "uint256",
          "name": "",
          "type": "uint256"
        }
      ],
      "stateMutability": "view",
      "type": "function"
    },
    {
      "inputs": [],
      "name": "patientRegistry",
      "outputs": [
        {
          "internalType": "contract IAnonymousPatientRegistry",
          "name": "",
          "type": "address"
        }
      ],
      "stateMutability": "view",
      "type": "function"
    },
    {
      "inputs": [],
      "name": "pendingOwner",
      "outputs": [
        {
          "internalType": "address",
          "name": "",
          "type": "address"
        }
      ],
      "stateMutability": "view",
      "type": "function"
    },
    {
      "inputs": [
        {
          "internalType": "address",
          "name": "_newOwner",
          "type": "address"
        }
      ],
      "name": "proposeOwnership",
      "outputs": [],
      "stateMutability": "nonpayable",
      "type": "function"
    },
    {
      "inputs": [
        {
          "internalType": "uint256",
          "name": "identityCommitment",
          "type": "uint256"
        },
        {
          "internalType": "address",
          "name": "_viewPermitRecipient",
          "type": "address"
        },
        {
          "components": [
            {
              "internalType": "uint256",
              "name": "ctHash",
              "type": "uint256"
            },
            {
              "internalType": "uint8",
              "name": "securityZone",
              "type": "uint8"
            },
            {
              "internalType": "uint8",
              "name": "utype",
              "type": "uint8"
            },
            {
              "internalType": "bytes",
              "name": "signature",
              "type": "bytes"
            }
          ],
          "internalType": "struct InEuint8",
          "name": "_age",
          "type": "tuple"
        },
        {
          "components": [
            {
              "internalType": "uint256",
              "name": "ctHash",
              "type": "uint256"
            },
            {
              "internalType": "uint8",
              "name": "securityZone",
              "type": "uint8"
            },
            {
              "internalType": "uint8",
              "name": "utype",
              "type": "uint8"
            },
            {
              "internalType": "bytes",
              "name": "signature",
              "type": "bytes"
            }
          ],
          "internalType": "struct InEbool",
          "name": "_gender",
          "type": "tuple"
        },
        {
          "components": [
            {
              "internalType": "uint256",
              "name": "ctHash",
              "type": "uint256"
            },
            {
              "internalType": "uint8",
              "name": "securityZone",
              "type": "uint8"
            },
            {
              "internalType": "uint8",
              "name": "utype",
              "type": "uint8"
            },
            {
              "internalType": "bytes",
              "name": "signature",
              "type": "bytes"
            }
          ],
          "internalType": "struct InEuint16",
          "name": "_weight",
          "type": "tuple"
        },
        {
          "components": [
            {
              "internalType": "uint256",
              "name": "ctHash",
              "type": "uint256"
            },
            {
              "internalType": "uint8",
              "name": "securityZone",
              "type": "uint8"
            },
            {
              "internalType": "uint8",
              "name": "utype",
              "type": "uint8"
            },
            {
              "internalType": "bytes",
              "name": "signature",
              "type": "bytes"
            }
          ],
          "internalType": "struct InEuint8",
          "name": "_height",
          "type": "tuple"
        },
        {
          "components": [
            {
              "internalType": "uint256",
              "name": "ctHash",
              "type": "uint256"
            },
            {
              "internalType": "uint8",
              "name": "securityZone",
              "type": "uint8"
            },
            {
              "internalType": "uint8",
              "name": "utype",
              "type": "uint8"
            },
            {
              "internalType": "bytes",
              "name": "signature",
              "type": "bytes"
            }
          ],
          "internalType": "struct InEbool",
          "name": "_hasDiabetes",
          "type": "tuple"
        },
        {
          "components": [
            {
              "internalType": "uint256",
              "name": "ctHash",
              "type": "uint256"
            },
            {
              "internalType": "uint8",
              "name": "securityZone",
              "type": "uint8"
            },
            {
              "internalType": "uint8",
              "name": "utype",
              "type": "uint8"
            },
            {
              "internalType": "bytes",
              "name": "signature",
              "type": "bytes"
            }
          ],
          "internalType": "struct InEuint16",
          "name": "_hbLevel",
          "type": "tuple"
        },
        {
          "components": [
            {
              "internalType": "uint256",
              "name": "ctHash",
              "type": "uint256"
            },
            {
              "internalType": "uint8",
              "name": "securityZone",
              "type": "uint8"
            },
            {
              "internalType": "uint8",
              "name": "utype",
              "type": "uint8"
            },
            {
              "internalType": "bytes",
              "name": "signature",
              "type": "bytes"
            }
          ],
          "internalType": "struct InEbool",
          "name": "_isSmoker",
          "type": "tuple"
        },
        {
          "components": [
            {
              "internalType": "uint256",
              "name": "ctHash",
              "type": "uint256"
            },
            {
              "internalType": "uint8",
              "name": "securityZone",
              "type": "uint8"
            },
            {
              "internalType": "uint8",
              "name": "utype",
              "type": "uint8"
            },
            {
              "internalType": "bytes",
              "name": "signature",
              "type": "bytes"
            }
          ],
          "internalType": "struct InEbool",
          "name": "_hasHypertension",
          "type": "tuple"
        }
      ],
      "name": "registerPatient",
      "outputs": [],
      "stateMutability": "nonpayable",
      "type": "function"
    },
    {
      "inputs": [],
      "name": "semaphore",
      "outputs": [
        {
          "internalType": "contract ISemaphore",
          "name": "",
          "type": "address"
        }
      ],
      "stateMutability": "view",
      "type": "function"
    },
    {
      "inputs": [
        {
          "internalType": "uint256",
          "name": "trialId",
          "type": "uint256"
        },
        {
          "components": [
            {
              "internalType": "uint256",
              "name": "merkleTreeDepth",
              "type": "uint256"
            },
            {
              "internalType": "uint256",
              "name": "merkleTreeRoot",
              "type": "uint256"
            },
            {
              "internalType": "uint256",
              "name": "nullifier",
              "type": "uint256"
            },
            {
              "internalType": "uint256",
              "name": "message",
              "type": "uint256"
            },
            {
              "internalType": "uint256",
              "name": "scope",
              "type": "uint256"
            },
            {
              "internalType": "uint256[8]",
              "name": "points",
              "type": "uint256[8]"
            }
          ],
          "internalType": "struct ISemaphore.SemaphoreProof",
          "name": "proof",
          "type": "tuple"
        },
        {
          "internalType": "uint256",
          "name": "commitment",
          "type": "uint256"
        },
        {
          "internalType": "address",
          "name": "permitRecipient",
          "type": "address"
        }
      ],
      "name": "stageAnonymousApply",
      "outputs": [],
      "stateMutability": "nonpayable",
      "type": "function"
    },
    {
      "inputs": [
        {
          "internalType": "uint256",
          "name": "",
          "type": "uint256"
        },
        {
          "internalType": "uint256",
          "name": "",
          "type": "uint256"
        }
      ],
      "name": "trialApplications",
      "outputs": [
        {
          "internalType": "bool",
          "name": "",
          "type": "bool"
        }
      ],
      "stateMutability": "view",
      "type": "function"
    },
    {
      "inputs": [
        {
          "internalType": "uint256",
          "name": "newDuration",
          "type": "uint256"
        }
      ],
      "name": "updateMerkleTreeDuration",
      "outputs": [],
      "stateMutability": "nonpayable",
      "type": "function"
    }
  ],
  "bytecode": "0x60808060405234610117576060816117b1803803809161001f828561012e565b8339810103126101175761003281610165565b905f602061004d6040610046838601610165565b9401610165565b82546001600160a01b0319166001600160a01b039095169485178355604051632c88036360e01b815230600482015262278d00602482015290949092839160449183915af1908115610123575f916100ed575b50600155600280546001600160a01b03199081166001600160a01b0393841617909155600380548216939092169290921790556004805490911633179055604051611637908161017a8239f35b90506020813d60201161011b575b816101086020938361012e565b8101031261011757515f6100a0565b5f80fd5b3d91506100fb565b6040513d5f823e3d90fd5b601f909101601f19168101906001600160401b0382119082101761015157604052565b634e487b7160e01b5f52604160045260245ffd5b51906001600160a01b03821682036101175756fe6080806040526004361015610012575f80fd5b5f905f3560e01c9081631260cd6714611270575080632236684414611244578063243cc49514610ea657806327543def14610d79578063277da38f14610d5b578063303efdab146108d357806334d3f6ff146108b55780634f11c6901461088c5780635250c6e214610863578063592f316e146107de578063710bf3221461073357806379ba5097146106925780637a95787d1461049c5780637b5d25341461047557806388902dac146103595780638d23773c146103275780638da5cb5b146102fe57806390d7336c146102735780639c1dfb62146101c8578063c190665b146101305763e30c397814610105575f80fd5b3461012d578060031936011261012d576005546040516001600160a01b039091168152602090f35b80fd5b503461012d578060031936011261012d5760018060a01b038154166020600154602460405180948193631fb8d68360e21b835260048301525afa9081156101bd578291610183575b602082604051908152f35b90506020813d6020116101b5575b8161019e60209383611308565b810103126101b15760209150515f610178565b5080fd5b3d9150610191565b6040513d84823e3d90fd5b503461012d57806101e66101db366112cb565b9082849593946114d5565b818352600860205260408084209101359081845260205261020e60ff604085205416156113e0565b6003546001600160a01b03169161022683151561142c565b823b1561026e576044849283604051958694859363f46a878b60e01b8552600485015260248401525af180156101bd5761025d5750f35b8161026791611308565b61012d5780f35b505050fd5b503461012d57602036600319011261012d5760018060a01b038154166020600154604460405180948193632414275160e21b8352600483015260043560248301525afa9081156101bd57602092916102d1575b506040519015158152f35b6102f19150823d84116102f7575b6102e98183611308565b8101906114bd565b5f6102c6565b503d6102df565b503461012d578060031936011261012d576004546040516001600160a01b039091168152602090f35b503461012d5760ff604060209261033d3661129f565b9082526008855282822090825284522054166040519015158152f35b503461012d57602036600319011261012d5760043561038360018060a01b03600454163314611484565b610e108110610430576301e1338081116103e157815460015483926001600160a01b0390921691823b1561026e5760448492836040519586948593633f3c2dbb60e21b8552600485015260248401525af180156101bd5761025d5750f35b60405162461bcd60e51b815260206004820152602160248201527f4475726174696f6e2061626f7665206d6178696d756d202833363520646179736044820152602960f81b6064820152608490fd5b60405162461bcd60e51b815260206004820152601f60248201527f4475726174696f6e2062656c6f77206d696e696d756d20283120686f757229006044820152606490fd5b503461012d578060031936011261012d57546040516001600160a01b039091168152602090f35b503461012d57606036600319011261012d5760043560243560443590338452600760205260ff604085205416156106555733845260066020528060408520540361061157839083825260086020526040822083835260205261050560ff604084205416156113e0565b8382526008602090815260408084208585529091528220805460ff191660011790556003546001600160a01b03168061058e575b505050604051602081019182528260408201526040815261055b606082611308565b519020906040519182527fb5144410cd0da8013954d13e56ac1ca47b2e32c77c3646cd4ac91e530645653960203393a380f35b60a46020926040519485938492635c2ff45160e11b845260048401528860248401528760448401523360648401523360848401525af18015610606576105d7575b808491610539565b6105f89060203d6020116105ff575b6105f08183611308565b810190611475565b505f6105cf565b503d6105e6565b6040513d86823e3d90fd5b606460405162461bcd60e51b815260206004820152602060248201527f436f6d6d69746d656e7420646f6573206e6f74206d617463682077616c6c65746044820152fd5b60405162461bcd60e51b815260206004820152601560248201527415d85b1b195d081b9bdd081c9959da5cdd195c9959605a1b6044820152606490fd5b503461012d578060031936011261012d576005546001600160a01b03811690338290036106f957600480546001600160a01b03199081168417909155166005557fb27970c1714b28277b78cc17ac2fe9556e7f048cd48358cffe3dc7d547608fdc8280a280f35b60405162461bcd60e51b81526020600482015260126024820152712737ba10383937b837b9b2b21037bbb732b960711b6044820152606490fd5b503461012d57602036600319011261012d5761074d6112b5565b61076260018060a01b03600454163314611484565b6001600160a01b031680156107aa57600580546001600160a01b031916821790557f6ab4d119f23076e8ad491bc65ce85f017fb0591dce08755ba8591059cc51737a8280a280f35b60405162461bcd60e51b815260206004820152600c60248201526b5a65726f206164647265737360a01b6044820152606490fd5b503461012d57602036600319011261012d576001600160a01b036108006112b5565b1680330361081e578160409160209352600683522054604051908152f35b60405162461bcd60e51b815260206004820152601d60248201527f43616e206f6e6c79207175657279206f776e20636f6d6d69746d656e740000006044820152606490fd5b503461012d578060031936011261012d576002546040516001600160a01b039091168152602090f35b503461012d578060031936011261012d576003546040516001600160a01b039091168152602090f35b503461012d578060031936011261012d57602060405162278d008152f35b503461012d5761024036600319011261012d576004356101a03660231901126101b1576101e4356001600160a01b0381166101c435818303610d575761020435801515809103610d5357610224356001600160401b038111610d4f5736602382011215610d4f576004810135936001600160401b038511610d4b573660248684010111610d4b578015610d0b5760018060a01b038854169560015490604051632414275160e21b81528260048201528660248201526020816044818c5afa908115610d00578b91610ce1575b5015610c9157604051916308ade83160e31b835260048301526024356024830152604435604483015260643597886064840152608435928360848201526020816101c48160a435958660a483015261010060c4808401375afa908115610c86578c91610c67575b5015610c28578903610be95760405160208101918783528a604083015260018060601b03199060601b1660608201526610d3d394d1539560ca1b6074820152605b8152610a54607b82611308565b51902003610b8f578760209488825260088652604082208883528652610a8160ff604084205416156113e0565b6003546001600160a01b031693610ae090610a9d86151561142c565b60405198899788968795630a69131960e01b875260048701528d60248701528c60448701526064860152608485015260c060a4850152602460c48501920161134d565b03925af1801561060657610b5c575b5081835260086020526040832081845260205260408320600160ff19825416179055604051602081019082825283604082015260408152610b31606082611308565b519020917f2781aa971870e4ce67772689e03c8f88a41c87389876c835e6beb2ddb4f292688480a480f35b6020813d602011610b87575b81610b7560209383611308565b81010312610b835751610aef565b5f80fd5b3d9150610b68565b60405162461bcd60e51b815260206004820152602c60248201527f50726f6f6620646f6573206e6f7420656e636f646520636f6e73656e7420666f60448201526b1c881d1a1a5cc81d1c9a585b60a21b6064820152608490fd5b60405162461bcd60e51b815260206004820152601760248201527614d8dbdc19481b5a5cdb585d18da0e881d1c9a585b1259604a1b6044820152606490fd5b60405162461bcd60e51b815260206004820152601760248201527624b73b30b634b21029b2b6b0b83437b93290383937b7b360491b6044820152606490fd5b610c80915060203d6020116102f7576102e98183611308565b5f610a06565b6040513d8e823e3d90fd5b60405162461bcd60e51b815260206004820152602260248201527f436f6d6d69746d656e74206e6f74207265676973746572656420696e2067726f604482015261075760f41b6064820152608490fd5b610cfa915060203d6020116102f7576102e98183611308565b5f61099f565b6040513d8d823e3d90fd5b60405162461bcd60e51b8152602060048201526018602482015277125b9d985b1a59081c195c9b5a5d081c9958da5c1a595b9d60421b6044820152606490fd5b8780fd5b8680fd5b8580fd5b8480fd5b503461012d578060031936011261012d576020600154604051908152f35b503461012d576020610d8a366112cb565b610d9b8183858796979895986114d5565b828652600882526040808720940135938487528252610dc160ff604088205416156113e0565b6003546001600160a01b031694608490610ddc87151561142c565b876040519788948593638c7784b360e01b8552600485015287602485015288604485015260018060a01b031660648401525af1928315610606578493610e6e575b507fe469eba31f321d8bebe627bfc87b4538c257f6925eb03365632c70c2275abe8160206040518181019085825284604082015260408152610e60606082611308565b51902094604051908152a480f35b9092506020813d602011610e9e575b81610e8a60209383611308565b81010312610e9a5751915f610e1d565b8380fd5b3d9150610e7d565b5034610b8357610140366003190112610b83576024356001600160a01b038116919060043590839003610b8357604435926001600160401b038411610b835760806003198536030112610b8357606435906001600160401b038211610b835760806003198336030112610b8357608435946001600160401b038611610b835760806003198736030112610b835760a4356001600160401b038111610b835760806003198236030112610b835760c435926001600160401b038411610b835760806003198536030112610b835760e435916001600160401b038311610b835760806003198436030112610b835761010435986001600160401b038a11610b835760806003198b36030112610b8357610124356001600160401b038111610b835760806003198236030112610b8357831561120757335f52600760205260ff60405f2054166111cd57335f52600760205260405f20600160ff19825416179055335f5260066020528860405f205560018060a01b035f54169a6001548c3b15610b8357604051809d8192631783efc360e01b835260048301528c60248301525a925f6044928195f180156111c2576111aa575b8a9b5060018060a09c9b9c1b036002541695863b156111a6578a9889958d956040519c8d9b8c9a8b9963243cc49560e01b8b5260048b015260248a0152604489016101409052610144890190600401906110b09161136d565b8881036003190160648a01526110c89160040161136d565b8781036003190160848901526110e09160040161136d565b8681036003190160a48801526110f89160040161136d565b8581036003190160c48701526111109160040161136d565b8481036003190160e48601526111289160040161136d565b838103600319016101048501526111419160040161136d565b8281036003190161012484015261115a9160040161136d565b03925af180156101bd57611191575b50807f4c5da917c89b368a7c58084e36d80fc37bc7af94d1c6e5fdab59d8c19b9858d991a280f35b8161119b91611308565b6101b157815f611169565b8a80fd5b989950995f6111b891611308565b5f98978a90611057565b6040513d5f823e3d90fd5b60405162461bcd60e51b8152602060048201526012602482015271105b1c9958591e481c9959da5cdd195c995960721b6044820152606490fd5b60405162461bcd60e51b815260206004820152601560248201527416995c9bc81c195c9b5a5d081c9958da5c1a595b9d605a1b6044820152606490fd5b34610b83575f366003190112610b8357335f526007602052602060ff60405f2054166040519015158152f35b34610b83576020906112813661129f565b905f526008835260405f20905f52825260ff60405f20541615158152f35b6040906003190112610b83576004359060243590565b600435906001600160a01b0382168203610b8357565b90610200600319830112610b83576101a0600435926023190112610b83576024906101c435906101e4356001600160a01b0381168103610b835790565b601f909101601f19168101906001600160401b0382119082101761132b57604052565b634e487b7160e01b5f52604160045260245ffd5b359060ff82168203610b8357565b908060209392818452848401375f828201840152601f01601f1916010190565b8035825260ff61137f6020830161133f565b16602083015260ff6113936040830161133f565b1660408301526060810135601e1982360301811215610b8357016020810190356001600160401b038111610b83578036038213610b83576080838160606113dd960152019161134d565b90565b156113e757565b60405162461bcd60e51b815260206004820152601d60248201527f416c7265616479206170706c69656420746f207468697320747269616c0000006044820152606490fd5b1561143357565b60405162461bcd60e51b815260206004820152601a602482015279115b1a59da589a5b1a5d1e48195b99da5b99481b9bdd081cd95d60321b6044820152606490fd5b90816020910312610b83575190565b1561148b57565b60405162461bcd60e51b815260206004820152600a60248201526927b7363c9037bbb732b960b11b6044820152606490fd5b90816020910312610b8357518015158103610b835790565b90926001600160a01b03811615610d0b5760018060a01b035f541693600154604051632414275160e21b81528160048201528560248201526020816044818a5afa9081156111c2575f9161160b575b5015610c9157604051906308ade83160e31b825260048201528135602482015260208201356044820152604082013560648201526020816101c4816060860135998a608483015261010060a06080890135988960a48601520160c48401375afa9081156111c2575f916115ec575b5015610c28578203610be957604080516020810194855290810192909252606090811b6001600160601b031916908201526610d3d394d1539560ca1b6074820152605b81526115e2607b82611308565b51902003610b8f57565b611605915060203d6020116102f7576102e98183611308565b5f611592565b611624915060203d6020116102f7576102e98183611308565b5f61152456fea164736f6c634300081b000a",
  "linkReferences": {},
  "deployedLinkReferences": {}
}