{
  "_format": "hh-sol-artifact-1",
  "contractName": "SponsorRegistry",
  "sourceName": "contracts/SponsorRegistry.sol",
  "abi": [
    {
      "inputs": [],
      "stateMutability": "nonpayable",
      "type": "constructor"
    },
    {
      "inputs": [
        {
          "internalType": "uint8",
          "name": "got",
          "type": "uint8"
        },
        {
          "internalType": "uint8",
          "name": "expected",
          "type": "uint8"
        }
      ],
      "name": "InvalidEncryptedInput",
      "type": "error"
    },
    {
      "inputs": [
        {
          "internalType": "int32",
          "name": "value",
          "type": "int32"
        }
      ],
      "name": "SecurityZoneOutOfBounds",
      "type": "error"
    },
    {
      "anonymous": false,
      "inputs": [
        {
          "indexed": true,
          "internalType": "address",
          "name": "newOwner",
          "type": "address"
        }
      ],
      "name": "OwnershipAccepted",
      "type": "event"
    },
    {
      "anonymous": false,
      "inputs": [
        {
          "indexed": true,
          "internalType": "address",
          "name": "proposedOwner",
          "type": "address"
        }
      ],
      "name": "OwnershipProposed",
      "type": "event"
    },
    {
      "anonymous": false,
      "inputs": [
        {
          "indexed": true,
          "internalType": "address",
          "name": "sponsor",
          "type": "address"
        },
        {
          "indexed": false,
          "internalType": "string",
          "name": "name",
          "type": "string"
        }
      ],
      "name": "SponsorAdded",
      "type": "event"
    },
    {
      "anonymous": false,
      "inputs": [
        {
          "indexed": true,
          "internalType": "address",
          "name": "sponsor",
          "type": "address"
        }
      ],
      "name": "SponsorRemoved",
      "type": "event"
    },
    {
      "anonymous": false,
      "inputs": [
        {
          "indexed": true,
          "internalType": "address",
          "name": "applicant",
          "type": "address"
        },
        {
          "indexed": false,
          "internalType": "enum SponsorRegistry.RequestStatus",
          "name": "status",
          "type": "uint8"
        }
      ],
      "name": "SponsorshipRequestResolved",
      "type": "event"
    },
    {
      "anonymous": false,
      "inputs": [
        {
          "indexed": true,
          "internalType": "address",
          "name": "applicant",
          "type": "address"
        },
        {
          "indexed": false,
          "internalType": "euint64",
          "name": "encryptedInstitutionId",
          "type": "bytes32"
        }
      ],
      "name": "SponsorshipRequested",
      "type": "event"
    },
    {
      "inputs": [],
      "name": "acceptOwnership",
      "outputs": [],
      "stateMutability": "nonpayable",
      "type": "function"
    },
    {
      "inputs": [
        {
          "internalType": "address",
          "name": "_sponsor",
          "type": "address"
        },
        {
          "internalType": "string",
          "name": "_name",
          "type": "string"
        }
      ],
      "name": "addSponsor",
      "outputs": [],
      "stateMutability": "nonpayable",
      "type": "function"
    },
    {
      "inputs": [
        {
          "internalType": "address",
          "name": "_sponsor",
          "type": "address"
        }
      ],
      "name": "getEncryptedInstitutionId",
      "outputs": [
        {
          "internalType": "euint64",
          "name": "",
          "type": "bytes32"
        }
      ],
      "stateMutability": "view",
      "type": "function"
    },
    {
      "inputs": [
        {
          "internalType": "address",
          "name": "_applicant",
          "type": "address"
        }
      ],
      "name": "getRequestEncryptedId",
      "outputs": [
        {
          "internalType": "euint64",
          "name": "",
          "type": "bytes32"
        }
      ],
      "stateMutability": "view",
      "type": "function"
    },
    {
      "inputs": [
        {
          "internalType": "address",
          "name": "_sponsor",
          "type": "address"
        }
      ],
      "name": "isVerifiedSponsor",
      "outputs": [
        {
          "internalType": "bool",
          "name": "",
          "type": "bool"
        }
      ],
      "stateMutability": "view",
      "type": "function"
    },
    {
      "inputs": [],
      "name": "owner",
      "outputs": [
        {
          "internalType": "address",
          "name": "",
          "type": "address"
        }
      ],
      "stateMutability": "view",
      "type": "function"
    },
    {
      "inputs": [],
      "name": "pendingOwner",
      "outputs": [
        {
          "internalType": "address",
          "name": "",
          "type": "address"
        }
      ],
      "stateMutability": "view",
      "type": "function"
    },
    {
      "inputs": [
        {
          "internalType": "address",
          "name": "_newOwner",
          "type": "address"
        }
      ],
      "name": "proposeOwnership",
      "outputs": [],
      "stateMutability": "nonpayable",
      "type": "function"
    },
    {
      "inputs": [
        {
          "internalType": "address",
          "name": "_applicant",
          "type": "address"
        }
      ],
      "name": "rejectSponsorship",
      "outputs": [],
      "stateMutability": "nonpayable",
      "type": "function"
    },
    {
      "inputs": [
        {
          "internalType": "address",
          "name": "_sponsor",
          "type": "address"
        }
      ],
      "name": "removeSponsor",
      "outputs": [],
      "stateMutability": "nonpayable",
      "type": "function"
    },
    {
      "inputs": [
        {
          "components": [
            {
              "internalType": "uint256",
              "name": "ctHash",
              "type": "uint256"
            },
            {
              "internalType": "uint8",
              "name": "securityZone",
              "type": "uint8"
            },
            {
              "internalType": "uint8",
              "name": "utype",
              "type": "uint8"
            },
            {
              "internalType": "bytes",
              "name": "signature",
              "type": "bytes"
            }
          ],
          "internalType": "struct InEuint64",
          "name": "_encryptedInstitutionId",
          "type": "tuple"
        }
      ],
      "name": "requestSponsorship",
      "outputs": [],
      "stateMutability": "nonpayable",
      "type": "function"
    },
    {
      "inputs": [
        {
          "internalType": "address",
          "name": "",
          "type": "address"
        }
      ],
      "name": "requests",
      "outputs": [
        {
          "internalType": "euint64",
          "name": "encryptedInstitutionId",
          "type": "bytes32"
        },
        {
          "internalType": "enum SponsorRegistry.RequestStatus",
          "name": "status",
          "type": "uint8"
        },
        {
          "internalType": "uint256",
          "name": "requestedAt",
          "type": "uint256"
        },
        {
          "internalType": "bool",
          "name": "hasEncryptedData",
          "type": "bool"
        }
      ],
      "stateMutability": "view",
      "type": "function"
    },
    {
      "inputs": [
        {
          "internalType": "address",
          "name": "",
          "type": "address"
        }
      ],
      "name": "sponsors",
      "outputs": [
        {
          "internalType": "string",
          "name": "name",
          "type": "string"
        },
        {
          "internalType": "bool",
          "name": "verified",
          "type": "bool"
        },
        {
          "internalType": "uint256",
          "name": "addedAt",
          "type": "uint256"
        },
        {
          "internalType": "euint64",
          "name": "encryptedInstitutionId",
          "type": "bytes32"
        }
      ],
      "stateMutability": "view",
      "type": "function"
    }
  ],
  "bytecode": "0x60808060405234602757600380546001600160a01b03191633179055610fbb908161002c8239f35b5f80fdfe6080806040526004361015610012575f80fd5b5f3560e01c90816357b41ec814610d26575080636a6449ae14610ce7578063710bf32214610c3e57806374adad1d14610bd357806379ba509714610b345780638da5cb5b14610b0c57806390a5fd1914610ad45780639b1baabd14610a0a578063a42f601f146106b3578063c41126711461024b578063d35590c21461014c578063e30c3978146101245763ef784250146100ab575f80fd5b34610120576020366003190112610120576100c4610d5a565b6100d960018060a01b03600354163314610e0a565b6001600160a01b03165f818152602081905260408120600101805460ff191690557f37fe34a55e61111a88dc57c0e39a21511fb9baf8382601ef19ce83a519877ba29080a2005b5f80fd5b34610120575f366003190112610120576004546040516001600160a01b039091168152602090f35b34610120576020366003190112610120576001600160a01b0361016d610d5a565b165f525f60205260405f206040515f91805461018881610d70565b808452906001811690811561022757506001146101ee575b506101b0826101d8940383610dc3565b60ff600182015416906003600282015491015490604051948594608086526080860190610de6565b9215156020850152604084015260608301520390f35b9250805f5260205f205f905b8482106102115750820160200192506101b06101a0565b60018160209254838588010152019101906101fa565b60ff191660208086019190915291151560051b840190910193506101b090506101a0565b3461012057604036600319011261012057610264610d5a565b6024356001600160401b03811161012057366023820112156101205760048101356001600160401b0381116101205760248201916024823692010111610120576102b960018060a01b03600354163314610e0a565b801561067e576001600160a01b0383165f8181526001602052604090206003015490939060ff16156105435750825f52600160205260405f20545b60405161030081610da8565b61030b368486610e51565b81526020810160018152604082014281526060830191848352875f525f60205260405f20935180519060018060401b03821161052f5761034b8654610d70565b601f81116104ea575b50602090601f83116001146104805791806003969594926103a1945f92610475575b50508160011b915f1990881b1c19161786555b511515600186019060ff801983541691151516179055565b51600284015551910155835f52600260205260405f2055825f52600160205260ff600160405f200154166004811015610461577fd7eef3af4445425ea784b763ec8f465105b5834c3a84c516c404b68833b009529260016040921461042b575b82825193849260208452816020850152848401375f828201840152601f01601f19168101030190a2005b845f5260016020526001825f2001600260ff19825416179055845f516020610f8f5f395f51905f526020845160028152a2610401565b634e487b7160e01b5f52602160045260245ffd5b015190508c80610376565b90601f19831691875f52815f20925f5b8181106104d257509260019285926103a19660039a999896106104bb575b505050811b018655610389565b01515f19838a1b60f8161c191690558c80806104ae565b92936020600181928786015181550195019301610490565b865f5260205f20601f840160051c81019160208510610525575b601f0160051c01905b81811061051a5750610354565b5f815560010161050d565b9091508190610504565b634e487b7160e01b5f52604160045260245ffd5b6020906040516105538382610dc3565b5f81525f36813760405190610569608083610dc3565b60038252838201606036823782511561066a575f905281516001101561066a576005604083015281516002101561066a576105d984915f60608501526105eb6040519485938493631888debd60e01b855260056004860152601a6024860152608060448601526084850190610f5b565b83810360031901606485015290610f5b565b03815f73ea30c4b8b44078bbf8a6ef5b9f1ec1626c7848d95af192831561065f575f9361062d575b5050610628908261062381610eaf565b610f1e565b6102f4565b9080929350813d8311610658575b6106458183610dc3565b8101031261012057519061062886610613565b503d61063b565b6040513d5f823e3d90fd5b634e487b7160e01b5f52603260045260245ffd5b60405162461bcd60e51b815260206004820152600d60248201526c13985b59481c995c5d5a5c9959609a1b6044820152606490fd5b34610120576020366003190112610120576004356001600160401b038111610120576080600319823603011261012057335f52600160205260ff600160405f2001541660048110156104615780159081156109ff575b50156109c157335f525f60205260ff600160405f200154166109815760405161073181610da8565b8160040135815261074460248301610e43565b906020810191825261075860448401610e43565b60408201908152926064810135906001600160401b0382116101205701366023820112156101205761079660ff913690602460048201359101610e51565b936060830194855251166005810361096a5760ff6020858561083c84876060806040516107c281610da8565b5f81525f898201525f60408201520152519251169251604051926107e584610da8565b83528483019384528560408401600581526060850192835260405197889687966313fce3b160e11b885260406004890152516044880152511660648601525116608484015251608060a484015260c4830190610de6565b33602483015203815f73ea30c4b8b44078bbf8a6ef5b9f1ec1626c7848d95af190811561065f575f91610938575b5061087481610eaf565b61087e3382610f1e565b600354610894906001600160a01b031682610f1e565b6040516108a081610da8565b818152602081019060018252604081014281526060820160018152335f52600160205260405f20925183556001830193519160048310156104615761090a9460039360ff8019835416911617905551600284015551151591019060ff801983541691151516179055565b6040519081527fda33206953d62c2f091f1c76ae7de03f4c68d8839d2222aebc91e66bbd1579ab60203392a2005b90506020813d602011610962575b8161095360209383610dc3565b8101031261012057518161086a565b3d9150610946565b6367cf307160e01b5f52600452600560245260445ffd5b60405162461bcd60e51b815260206004820152601860248201527720b63932b0b23c903b32b934b334b2b21039b837b739b7b960411b6044820152606490fd5b60405162461bcd60e51b81526020600482015260166024820152755265717565737420616c72656164792065786973747360501b6044820152606490fd5b600391501482610709565b3461012057602036600319011261012057610a23610d5a565b610a3860018060a01b03600354163314610e0a565b6001600160a01b03165f818152600160208190526040909120015460ff16600481101561046157600103610a9a57805f526001602052600160405f2001600360ff198254161790555f516020610f8f5f395f51905f52602060405160038152a2005b60405162461bcd60e51b8152602060048201526012602482015271139bc81c195b991a5b99c81c995c5d595cdd60721b6044820152606490fd5b34610120576020366003190112610120576001600160a01b03610af5610d5a565b165f526002602052602060405f2054604051908152f35b34610120575f366003190112610120576003546040516001600160a01b039091168152602090f35b34610120575f366003190112610120576004546001600160a01b0381169033829003610b9957600380546001600160a01b03199081168417909155166004557fb27970c1714b28277b78cc17ac2fe9556e7f048cd48358cffe3dc7d547608fdc5f80a2005b60405162461bcd60e51b81526020600482015260126024820152712737ba10383937b837b9b2b21037bbb732b960711b6044820152606490fd5b34610120576020366003190112610120576001600160a01b03610bf4610d5a565b165f52600160205260405f20805460ff6001830154169160ff6003600283015492015416906040519283526004841015610461576080936020840152604083015215156060820152f35b3461012057602036600319011261012057610c57610d5a565b610c6c60018060a01b03600354163314610e0a565b6001600160a01b03168015610cb357600480546001600160a01b031916821790557f6ab4d119f23076e8ad491bc65ce85f017fb0591dce08755ba8591059cc51737a5f80a2005b60405162461bcd60e51b815260206004820152600c60248201526b5a65726f206164647265737360a01b6044820152606490fd5b34610120576020366003190112610120576001600160a01b03610d08610d5a565b165f525f602052602060ff600160405f200154166040519015158152f35b34610120576020366003190112610120576020906001600160a01b03610d4a610d5a565b165f526001825260405f20548152f35b600435906001600160a01b038216820361012057565b90600182811c92168015610d9e575b6020831014610d8a57565b634e487b7160e01b5f52602260045260245ffd5b91607f1691610d7f565b608081019081106001600160401b0382111761052f57604052565b601f909101601f19168101906001600160401b0382119082101761052f57604052565b805180835260209291819084018484015e5f828201840152601f01601f1916010190565b15610e1157565b60405162461bcd60e51b815260206004820152600a60248201526927b7363c9037bbb732b960b11b6044820152606490fd5b359060ff8216820361012057565b9192916001600160401b03821161052f5760405191610e7a601f8201601f191660200184610dc3565b829481845281830111610120578281602093845f960137010152565b9081526001600160a01b03909116602082015260400190565b73ea30c4b8b44078bbf8a6ef5b9f1ec1626c7848d93b15610120575f610eeb9160405180938192631974142760e21b8352309060048401610e96565b03818373ea30c4b8b44078bbf8a6ef5b9f1ec1626c7848d95af1801561065f57610f125750565b5f610f1c91610dc3565b565b73ea30c4b8b44078bbf8a6ef5b9f1ec1626c7848d93b1561012057604051631974142760e21b8152915f9183918291610eeb919060048401610e96565b90602080835192838152019201905f5b818110610f785750505090565b8251845260209384019390920191600101610f6b56fec76b621c9861b343a1c48ceabdde9cfb2bd77578830caea48e153de3d37324f6a164736f6c634300081b000a",
  "linkReferences": {},
  "deployedLinkReferences": {}
}