{
  "_format": "hh-sol-artifact-1",
  "contractName": "TrialMilestoneManager",
  "sourceName": "contracts/TrialMilestoneManager.sol",
  "abi": [
    {
      "inputs": [
        {
          "internalType": "address",
          "name": "_trialManager",
          "type": "address"
        }
      ],
      "stateMutability": "nonpayable",
      "type": "constructor"
    },
    {
      "anonymous": false,
      "inputs": [
        {
          "indexed": true,
          "internalType": "uint256",
          "name": "trialId",
          "type": "uint256"
        },
        {
          "indexed": true,
          "internalType": "address",
          "name": "patient",
          "type": "address"
        },
        {
          "indexed": false,
          "internalType": "uint256",
          "name": "milestoneIndex",
          "type": "uint256"
        }
      ],
      "name": "MilestoneCompleted",
      "type": "event"
    },
    {
      "anonymous": false,
      "inputs": [
        {
          "indexed": true,
          "internalType": "uint256",
          "name": "trialId",
          "type": "uint256"
        },
        {
          "indexed": false,
          "internalType": "uint256",
          "name": "milestoneCount",
          "type": "uint256"
        }
      ],
      "name": "MilestonesSet",
      "type": "event"
    },
    {
      "anonymous": false,
      "inputs": [
        {
          "indexed": true,
          "internalType": "address",
          "name": "newOwner",
          "type": "address"
        }
      ],
      "name": "OwnershipAccepted",
      "type": "event"
    },
    {
      "anonymous": false,
      "inputs": [
        {
          "indexed": true,
          "internalType": "address",
          "name": "proposedOwner",
          "type": "address"
        }
      ],
      "name": "OwnershipProposed",
      "type": "event"
    },
    {
      "anonymous": false,
      "inputs": [
        {
          "indexed": true,
          "internalType": "address",
          "name": "oldManager",
          "type": "address"
        },
        {
          "indexed": true,
          "internalType": "address",
          "name": "newManager",
          "type": "address"
        }
      ],
      "name": "TrialManagerUpdated",
      "type": "event"
    },
    {
      "inputs": [],
      "name": "acceptOwnership",
      "outputs": [],
      "stateMutability": "nonpayable",
      "type": "function"
    },
    {
      "inputs": [
        {
          "internalType": "uint256",
          "name": "_trialId",
          "type": "uint256"
        },
        {
          "internalType": "address",
          "name": "_patient",
          "type": "address"
        },
        {
          "internalType": "uint256",
          "name": "_milestoneIndex",
          "type": "uint256"
        }
      ],
      "name": "completeMilestone",
      "outputs": [],
      "stateMutability": "nonpayable",
      "type": "function"
    },
    {
      "inputs": [
        {
          "internalType": "uint256",
          "name": "_trialId",
          "type": "uint256"
        }
      ],
      "name": "getMilestones",
      "outputs": [
        {
          "components": [
            {
              "internalType": "string",
              "name": "name",
              "type": "string"
            },
            {
              "internalType": "uint16",
              "name": "weightBps",
              "type": "uint16"
            },
            {
              "internalType": "uint256",
              "name": "deadline",
              "type": "uint256"
            }
          ],
          "internalType": "struct TrialMilestoneManager.Milestone[]",
          "name": "",
          "type": "tuple[]"
        }
      ],
      "stateMutability": "view",
      "type": "function"
    },
    {
      "inputs": [
        {
          "internalType": "uint256",
          "name": "_trialId",
          "type": "uint256"
        },
        {
          "internalType": "address",
          "name": "_patient",
          "type": "address"
        }
      ],
      "name": "getParticipantProgress",
      "outputs": [
        {
          "internalType": "uint256",
          "name": "",
          "type": "uint256"
        }
      ],
      "stateMutability": "view",
      "type": "function"
    },
    {
      "inputs": [],
      "name": "owner",
      "outputs": [
        {
          "internalType": "address",
          "name": "",
          "type": "address"
        }
      ],
      "stateMutability": "view",
      "type": "function"
    },
    {
      "inputs": [
        {
          "internalType": "uint256",
          "name": "",
          "type": "uint256"
        },
        {
          "internalType": "address",
          "name": "",
          "type": "address"
        }
      ],
      "name": "participantProgress",
      "outputs": [
        {
          "internalType": "uint256",
          "name": "",
          "type": "uint256"
        }
      ],
      "stateMutability": "view",
      "type": "function"
    },
    {
      "inputs": [],
      "name": "pendingOwner",
      "outputs": [
        {
          "internalType": "address",
          "name": "",
          "type": "address"
        }
      ],
      "stateMutability": "view",
      "type": "function"
    },
    {
      "inputs": [
        {
          "internalType": "address",
          "name": "_newOwner",
          "type": "address"
        }
      ],
      "name": "proposeOwnership",
      "outputs": [],
      "stateMutability": "nonpayable",
      "type": "function"
    },
    {
      "inputs": [
        {
          "internalType": "uint256",
          "name": "_trialId",
          "type": "uint256"
        },
        {
          "internalType": "string[]",
          "name": "_names",
          "type": "string[]"
        },
        {
          "internalType": "uint16[]",
          "name": "_weights",
          "type": "uint16[]"
        },
        {
          "internalType": "uint256[]",
          "name": "_deadlines",
          "type": "uint256[]"
        }
      ],
      "name": "setMilestones",
      "outputs": [],
      "stateMutability": "nonpayable",
      "type": "function"
    },
    {
      "inputs": [
        {
          "internalType": "address",
          "name": "_newTrialManager",
          "type": "address"
        }
      ],
      "name": "setTrialManager",
      "outputs": [],
      "stateMutability": "nonpayable",
      "type": "function"
    },
    {
      "inputs": [
        {
          "internalType": "address",
          "name": "_vault",
          "type": "address"
        }
      ],
      "name": "setVault",
      "outputs": [],
      "stateMutability": "nonpayable",
      "type": "function"
    },
    {
      "inputs": [],
      "name": "trialManager",
      "outputs": [
        {
          "internalType": "contract TrialManager",
          "name": "",
          "type": "address"
        }
      ],
      "stateMutability": "view",
      "type": "function"
    },
    {
      "inputs": [],
      "name": "vault",
      "outputs": [
        {
          "internalType": "contract ISponsorIncentiveVault",
          "name": "",
          "type": "address"
        }
      ],
      "stateMutability": "view",
      "type": "function"
    }
  ],
  "bytecode": "0x608034607d57601f61136038819003918201601f19168301916001600160401b03831184841017608157808492602094604052833981010312607d57516001600160a01b03811690819003607d57600280546001600160a01b031990811633179091555f80549091169190911790556040516112ca90816100968239f35b5f80fd5b634e487b7160e01b5f52604160045260245ffdfe6080806040526004361015610012575f80fd5b5f3560e01c90816310e2a0ef146108945750806342c549c0146106be57806355f8cfdd146106975780636817031b1461063f578063710bf322146105c557806379ba5097146105265780637c7b01b1146102215780638da5cb5b146101f95780639cc0dd48146101b55780639ecd577d146101b5578063d60229ce146100ff578063e30c3978146100d75763fbfa77cf146100ab575f80fd5b346100d3575f3660031901126100d3576001546040516001600160a01b039091168152602090f35b5f80fd5b346100d3575f3660031901126100d3576003546040516001600160a01b039091168152602090f35b346100d35760203660031901126100d357610118610f11565b61012d60018060a01b03600254163314611249565b6001600160a01b0316801561017e575f80546001600160a01b03198116831782556001600160a01b0316907f6138d219bf8146ffd8bb38b913ea1b87df130bed0d4c41f5cd93678e09a5d3939080a3005b60405162461bcd60e51b815260206004820152600f60248201526e496e76616c6964206164647265737360881b6044820152606490fd5b346100d35760403660031901126100d3576101ce610f27565b6004355f52600560205260405f209060018060a01b03165f52602052602060405f2054604051908152f35b346100d3575f3660031901126100d3576002546040516001600160a01b039091168152602090f35b346100d35760603660031901126100d35760043561023d610f27565b5f8054604051631a7f3c3360e01b8152600481018590526044359493929091829060249082906001600160a01b03165afa801561048757610294915f91610504575b50608001516001600160a01b031633146111b7565b815f52600460205260ff600160405f20015416156104c757815f52600460205260405f2054831015610492576001546001600160a01b03168015159081610407575b50156103c357815f52600560205260405f2060018060a01b0382165f5260205260405f205483036103745760018301808411610360577f785f24b6a98eafa7fd61a09cf31775b7bbc039cc966c9c6fad18743e13a9e1ea91602091845f526005835260405f2060018060a01b0383165f52835260405f205560405194855260018060a01b031693a3005b634e487b7160e01b5f52601160045260245ffd5b60405162461bcd60e51b815260206004820152602160248201527f4d75737420636f6d706c657465206d696c6573746f6e657320696e206f7264656044820152603960f91b6064820152608490fd5b60405162461bcd60e51b815260206004820152601c60248201527b139bdd0818481c9959da5cdd195c9959081c185c9d1a58da5c185b9d60221b6044820152606490fd5b60405163cb84e53760e01b8152600481018590526001600160a01b03841660248201529150602090829060449082905afa908115610487575f9161044d575b50846102d6565b90506020813d60201161047f575b8161046860209383610f58565b810103126100d35761047990610fdc565b84610446565b3d915061045b565b6040513d5f823e3d90fd5b60405162461bcd60e51b815260206004820152600d60248201526c092dcecc2d8d2c840d2dcc8caf609b1b6044820152606490fd5b60405162461bcd60e51b8152602060048201526015602482015274151c9a585b081b9bdd081a5b9a5d1a585b1a5e9959605a1b6044820152606490fd5b61052091503d805f833e6105188183610f58565b810190611006565b8561027f565b346100d3575f3660031901126100d3576003546001600160a01b038116903382900361058b57600280546001600160a01b03199081168417909155166003557fb27970c1714b28277b78cc17ac2fe9556e7f048cd48358cffe3dc7d547608fdc5f80a2005b60405162461bcd60e51b81526020600482015260126024820152712737ba10383937b837b9b2b21037bbb732b960711b6044820152606490fd5b346100d35760203660031901126100d3576105de610f11565b6105f360018060a01b03600254163314611249565b6001600160a01b0316610607811515611282565b600380546001600160a01b031916821790557f6ab4d119f23076e8ad491bc65ce85f017fb0591dce08755ba8591059cc51737a5f80a2005b346100d35760203660031901126100d357610658610f11565b61066d60018060a01b03600254163314611249565b6001600160a01b0316610681811515611282565b600180546001600160a01b031916919091179055005b346100d3575f3660031901126100d3575f546040516001600160a01b039091168152602090f35b346100d35760203660031901126100d3576004355f52600460205260405f2080549060018060401b038211610880576040519161070160208260051b0184610f58565b808352602083019081925f5260205f205f925b8284106107b757848660405191829160208301906020845251809152604083019060408160051b85010192915f905b82821061075257505050500390f35b9193600191939550602060808192603f198a82030186528260408a518051606085528051938491826060880152018686015e5f85848601015261ffff86820151168685015201516040830152601f801991011601019601920192018594939192610743565b6040516107c381610f3d565b6040515f84546107d281611211565b808452906001811690811561085d5750600114610826575b5092600392826108006020946001970382610f58565b815261ffff85870154168382015260028601546040820152815201920193019290610714565b5f868152602081209092505b818310610847575050810160200160036107ea565b6001816020925483868801015201920191610832565b60ff191660208086019190915291151560051b84019091019150600390506107ea565b634e487b7160e01b5f52604160045260245ffd5b346100d35760803660031901126100d3576004356024356001600160401b0381116100d3576108c7903690600401610ee1565b90926044356001600160401b0381116100d3576108e8903690600401610ee1565b94906064356001600160401b0381116100d357610909903690600401610ee1565b94909360018060a01b035f541690631a7f3c3360e01b81528760048201525f81602481855afa801561048757610954915f91610ec75750608001516001600160a01b031633146111b7565b865f52600460205260ff600160405f20015416610e8c5781151580610e81575b15610e435787821480610e3a575b15610e03575f60249160405192838092631a7f3c3360e01b82528b60048301525afa908115610487575f91610de9575b505f9691965b868110610cb957505036839003601e1901905f805b88821015610c155761ffff6109eb6109e6848d896111f2565b611202565b1681018091116103605790825f52600460205260405f208160051b870135858112156100d35787018035906001600160401b0382116100d357602081019282360384136100d3578a91610a4f8f8e610a496109e68a8f9481956111f2565b956111f2565b359360405195610a5e87610f3d565b610a6782610f7b565b92610a756040519485610f58565b82845260208336920101116100d357815f926020928386013783010152845261ffff602085019216825260408401928352805490600160401b8210156108805760018201808255821015610c01575f52600360205f20910201925180519060018060401b03821161088057610aea8554611211565b601f8111610bbc575b50602090601f8311600114610b51579180600294926001989796945f92610b46575b50505f19600383901b1c191690871b1784555b61ffff86850191511661ffff198254161790555191015501906109cd565b015190505f80610b15565b90601f19831691865f52815f20925f5b818110610ba457509260019897969491928993836002989610610b8c575b505050811b018455610b28565b01515f1960f88460031b161c191690555f8080610b7f565b92936020600181928786015181550195019301610b61565b855f5260205f20601f840160051c81019160208510610bf7575b601f0160051c01905b818110610bec5750610af3565b5f8155600101610bdf565b9091508190610bd6565b634e487b7160e01b5f52603260045260245ffd5b88612710849203610c665760207f2e9056f01b5d8ca8b767cc6ea4fe48ef23db5f57dbee3f3be6b52cbc4b75786991835f5260048252600160405f2001600160ff19825416179055604051908152a2005b60405162461bcd60e51b815260206004820152602560248201527f546f74616c20776569676874206d757374206265203130303030206270732028604482015264313030252960d81b6064820152608490fd5b96919642610cc88289896111f2565b351115610da757610cda8188886111f2565b356101e083015110610d635780610cf7575b6001019691966109b8565b610d028188886111f2565b355f19820182811161036057610d199089896111f2565b3510610cec5760405162461bcd60e51b815260206004820152601c60248201527b111958591b1a5b995cc81b5d5cdd081899481cd95c5d595b9d1a585b60221b6044820152606490fd5b606460405162461bcd60e51b815260206004820152602060248201527f446561646c696e652063616e6e6f742065786365656420747269616c20656e646044820152fd5b60405162461bcd60e51b815260206004820152601a602482015279446561646c696e65206d75737420626520696e2066757475726560301b6044820152606490fd5b610dfd91503d805f833e6105188183610f58565b886109b2565b60405162461bcd60e51b815260206004820152600f60248201526e098cadccee8d040dad2e6dac2e8c6d608b1b6044820152606490fd5b50858214610982565b60405162461bcd60e51b81526020600482015260166024820152750c4b4d081b5a5b195cdd1bdb995cc8185b1b1bddd95960521b6044820152606490fd5b506004821115610974565b60405162461bcd60e51b8152602060048201526013602482015272105b1c9958591e481a5b9a5d1a585b1a5e9959606a1b6044820152606490fd5b610edb91503d805f833e6105188183610f58565b8a61027f565b9181601f840112156100d3578235916001600160401b0383116100d3576020808501948460051b0101116100d357565b600435906001600160a01b03821682036100d357565b602435906001600160a01b03821682036100d357565b606081019081106001600160401b0382111761088057604052565b601f909101601f19168101906001600160401b0382119082101761088057604052565b6001600160401b03811161088057601f01601f191660200190565b81601f820112156100d357805190610fad82610f7b565b92610fbb6040519485610f58565b828452602083830101116100d357815f9260208093018386015e8301015290565b519081151582036100d357565b519060ff821682036100d357565b519061ffff821682036100d357565b6020818303126100d3578051906001600160401b0382116100d35701610200818303126100d3576040519161020083016001600160401b038111848210176108805760405281516001600160401b0381116100d35781611067918401610f96565b835260208201516001600160401b0381116100d35781611088918401610f96565b602084015260408201516001600160401b0381116100d357816110ac918401610f96565b60408401526060820151906001600160401b0382116100d3576110d0918301610f96565b60608301526080810151906001600160a01b03821682036100d3576101e091608084015261110060a08201610fdc565b60a084015261111160c08201610fe9565b60c084015261112260e08201610fe9565b60e08401526111346101008201610fdc565b6101008401526111476101208201610ff7565b61012084015261115a6101408201610fe9565b61014084015261116d6101608201610fe9565b6101608401526111806101808201610ff7565b6101808401526111936101a08201610fdc565b6101a08401526111a66101c08201610fdc565b6101c084015201516101e082015290565b156111be57565b60405162461bcd60e51b815260206004820152600c60248201526b27b7363c9039b837b739b7b960a11b6044820152606490fd5b9190811015610c015760051b0190565b3561ffff811681036100d35790565b90600182811c9216801561123f575b602083101461122b57565b634e487b7160e01b5f52602260045260245ffd5b91607f1691611220565b1561125057565b60405162461bcd60e51b815260206004820152600a60248201526927b7363c9037bbb732b960b11b6044820152606490fd5b1561128957565b60405162461bcd60e51b815260206004820152600c60248201526b5a65726f206164647265737360a01b6044820152606490fdfea164736f6c634300081b000a",
  "linkReferences": {},
  "deployedLinkReferences": {}
}