{
  "_format": "hh-sol-artifact-1",
  "contractName": "TrialManager",
  "sourceName": "contracts/TrialManager.sol",
  "abi": [
    {
      "inputs": [
        {
          "internalType": "address",
          "name": "_sponsorRegistry",
          "type": "address"
        }
      ],
      "stateMutability": "nonpayable",
      "type": "constructor"
    },
    {
      "inputs": [],
      "name": "DurationTooLong",
      "type": "error"
    },
    {
      "inputs": [],
      "name": "InvalidRegistryContract",
      "type": "error"
    },
    {
      "inputs": [],
      "name": "SponsorNotVerified",
      "type": "error"
    },
    {
      "inputs": [],
      "name": "TrialDoesNotExist",
      "type": "error"
    },
    {
      "anonymous": false,
      "inputs": [
        {
          "indexed": true,
          "internalType": "address",
          "name": "newOwner",
          "type": "address"
        }
      ],
      "name": "OwnershipAccepted",
      "type": "event"
    },
    {
      "anonymous": false,
      "inputs": [
        {
          "indexed": true,
          "internalType": "address",
          "name": "proposedOwner",
          "type": "address"
        }
      ],
      "name": "OwnershipProposed",
      "type": "event"
    },
    {
      "anonymous": false,
      "inputs": [
        {
          "indexed": true,
          "internalType": "address",
          "name": "sponsor",
          "type": "address"
        },
        {
          "indexed": false,
          "internalType": "string",
          "name": "name",
          "type": "string"
        }
      ],
      "name": "SponsorNameUpdated",
      "type": "event"
    },
    {
      "anonymous": false,
      "inputs": [
        {
          "indexed": true,
          "internalType": "address",
          "name": "newRegistry",
          "type": "address"
        }
      ],
      "name": "SponsorRegistryUpdated",
      "type": "event"
    },
    {
      "anonymous": false,
      "inputs": [
        {
          "indexed": true,
          "internalType": "uint256",
          "name": "trialId",
          "type": "uint256"
        },
        {
          "indexed": true,
          "internalType": "address",
          "name": "sponsor",
          "type": "address"
        },
        {
          "indexed": false,
          "internalType": "string",
          "name": "name",
          "type": "string"
        },
        {
          "indexed": false,
          "internalType": "uint256",
          "name": "endTime",
          "type": "uint256"
        }
      ],
      "name": "TrialCreated",
      "type": "event"
    },
    {
      "anonymous": false,
      "inputs": [
        {
          "indexed": true,
          "internalType": "uint256",
          "name": "trialId",
          "type": "uint256"
        }
      ],
      "name": "TrialDeactivated",
      "type": "event"
    },
    {
      "inputs": [],
      "name": "MAX_TRIAL_DURATION",
      "outputs": [
        {
          "internalType": "uint256",
          "name": "",
          "type": "uint256"
        }
      ],
      "stateMutability": "view",
      "type": "function"
    },
    {
      "inputs": [],
      "name": "acceptOwnership",
      "outputs": [],
      "stateMutability": "nonpayable",
      "type": "function"
    },
    {
      "inputs": [],
      "name": "automationContract",
      "outputs": [
        {
          "internalType": "address",
          "name": "",
          "type": "address"
        }
      ],
      "stateMutability": "view",
      "type": "function"
    },
    {
      "inputs": [
        {
          "internalType": "string",
          "name": "_name",
          "type": "string"
        },
        {
          "internalType": "string",
          "name": "_phase",
          "type": "string"
        },
        {
          "internalType": "string",
          "name": "_location",
          "type": "string"
        },
        {
          "internalType": "string",
          "name": "_compensation",
          "type": "string"
        },
        {
          "internalType": "uint8",
          "name": "_minAge",
          "type": "uint8"
        },
        {
          "internalType": "uint8",
          "name": "_maxAge",
          "type": "uint8"
        },
        {
          "internalType": "bool",
          "name": "_requiresDiabetes",
          "type": "bool"
        },
        {
          "internalType": "uint16",
          "name": "_minHb",
          "type": "uint16"
        },
        {
          "internalType": "uint8",
          "name": "_genderReq",
          "type": "uint8"
        },
        {
          "internalType": "uint8",
          "name": "_minHeight",
          "type": "uint8"
        },
        {
          "internalType": "uint16",
          "name": "_maxWeight",
          "type": "uint16"
        },
        {
          "internalType": "bool",
          "name": "_requiresNonSmoker",
          "type": "bool"
        },
        {
          "internalType": "bool",
          "name": "_requiresNormalBP",
          "type": "bool"
        },
        {
          "internalType": "uint256",
          "name": "_duration",
          "type": "uint256"
        }
      ],
      "name": "createTrial",
      "outputs": [
        {
          "internalType": "uint256",
          "name": "",
          "type": "uint256"
        }
      ],
      "stateMutability": "nonpayable",
      "type": "function"
    },
    {
      "inputs": [
        {
          "internalType": "uint256",
          "name": "_trialId",
          "type": "uint256"
        }
      ],
      "name": "deactivateTrial",
      "outputs": [],
      "stateMutability": "nonpayable",
      "type": "function"
    },
    {
      "inputs": [
        {
          "internalType": "uint256",
          "name": "_trialId",
          "type": "uint256"
        }
      ],
      "name": "getTrial",
      "outputs": [
        {
          "components": [
            {
              "internalType": "string",
              "name": "name",
              "type": "string"
            },
            {
              "internalType": "string",
              "name": "phase",
              "type": "string"
            },
            {
              "internalType": "string",
              "name": "location",
              "type": "string"
            },
            {
              "internalType": "string",
              "name": "compensation",
              "type": "string"
            },
            {
              "internalType": "address",
              "name": "sponsor",
              "type": "address"
            },
            {
              "internalType": "bool",
              "name": "active",
              "type": "bool"
            },
            {
              "internalType": "uint8",
              "name": "minAge",
              "type": "uint8"
            },
            {
              "internalType": "uint8",
              "name": "maxAge",
              "type": "uint8"
            },
            {
              "internalType": "bool",
              "name": "requiresDiabetes",
              "type": "bool"
            },
            {
              "internalType": "uint16",
              "name": "minHb",
              "type": "uint16"
            },
            {
              "internalType": "uint8",
              "name": "genderRequirement",
              "type": "uint8"
            },
            {
              "internalType": "uint8",
              "name": "minHeight",
              "type": "uint8"
            },
            {
              "internalType": "uint16",
              "name": "maxWeight",
              "type": "uint16"
            },
            {
              "internalType": "bool",
              "name": "requiresNonSmoker",
              "type": "bool"
            },
            {
              "internalType": "bool",
              "name": "requiresNormalBP",
              "type": "bool"
            },
            {
              "internalType": "uint256",
              "name": "endTime",
              "type": "uint256"
            }
          ],
          "internalType": "struct TrialManager.Trial",
          "name": "",
          "type": "tuple"
        }
      ],
      "stateMutability": "view",
      "type": "function"
    },
    {
      "inputs": [],
      "name": "owner",
      "outputs": [
        {
          "internalType": "address",
          "name": "",
          "type": "address"
        }
      ],
      "stateMutability": "view",
      "type": "function"
    },
    {
      "inputs": [],
      "name": "pendingOwner",
      "outputs": [
        {
          "internalType": "address",
          "name": "",
          "type": "address"
        }
      ],
      "stateMutability": "view",
      "type": "function"
    },
    {
      "inputs": [
        {
          "internalType": "address",
          "name": "_newOwner",
          "type": "address"
        }
      ],
      "name": "proposeOwnership",
      "outputs": [],
      "stateMutability": "nonpayable",
      "type": "function"
    },
    {
      "inputs": [
        {
          "internalType": "address",
          "name": "_automation",
          "type": "address"
        }
      ],
      "name": "setAutomationContract",
      "outputs": [],
      "stateMutability": "nonpayable",
      "type": "function"
    },
    {
      "inputs": [
        {
          "internalType": "string",
          "name": "_name",
          "type": "string"
        }
      ],
      "name": "setSponsorName",
      "outputs": [],
      "stateMutability": "nonpayable",
      "type": "function"
    },
    {
      "inputs": [
        {
          "internalType": "address",
          "name": "_registry",
          "type": "address"
        }
      ],
      "name": "setSponsorRegistry",
      "outputs": [],
      "stateMutability": "nonpayable",
      "type": "function"
    },
    {
      "inputs": [
        {
          "internalType": "address",
          "name": "",
          "type": "address"
        }
      ],
      "name": "sponsorNames",
      "outputs": [
        {
          "internalType": "string",
          "name": "",
          "type": "string"
        }
      ],
      "stateMutability": "view",
      "type": "function"
    },
    {
      "inputs": [],
      "name": "sponsorRegistry",
      "outputs": [
        {
          "internalType": "address",
          "name": "",
          "type": "address"
        }
      ],
      "stateMutability": "view",
      "type": "function"
    },
    {
      "inputs": [],
      "name": "trialCounter",
      "outputs": [
        {
          "internalType": "uint256",
          "name": "",
          "type": "uint256"
        }
      ],
      "stateMutability": "view",
      "type": "function"
    },
    {
      "inputs": [
        {
          "internalType": "uint256",
          "name": "",
          "type": "uint256"
        }
      ],
      "name": "trials",
      "outputs": [
        {
          "internalType": "string",
          "name": "name",
          "type": "string"
        },
        {
          "internalType": "string",
          "name": "phase",
          "type": "string"
        },
        {
          "internalType": "string",
          "name": "location",
          "type": "string"
        },
        {
          "internalType": "string",
          "name": "compensation",
          "type": "string"
        },
        {
          "internalType": "address",
          "name": "sponsor",
          "type": "address"
        },
        {
          "internalType": "bool",
          "name": "active",
          "type": "bool"
        },
        {
          "internalType": "uint8",
          "name": "minAge",
          "type": "uint8"
        },
        {
          "internalType": "uint8",
          "name": "maxAge",
          "type": "uint8"
        },
        {
          "internalType": "bool",
          "name": "requiresDiabetes",
          "type": "bool"
        },
        {
          "internalType": "uint16",
          "name": "minHb",
          "type": "uint16"
        },
        {
          "internalType": "uint8",
          "name": "genderRequirement",
          "type": "uint8"
        },
        {
          "internalType": "uint8",
          "name": "minHeight",
          "type": "uint8"
        },
        {
          "internalType": "uint16",
          "name": "maxWeight",
          "type": "uint16"
        },
        {
          "internalType": "bool",
          "name": "requiresNonSmoker",
          "type": "bool"
        },
        {
          "internalType": "bool",
          "name": "requiresNormalBP",
          "type": "bool"
        },
        {
          "internalType": "uint256",
          "name": "endTime",
          "type": "uint256"
        }
      ],
      "stateMutability": "view",
      "type": "function"
    }
  ],
  "bytecode": "0x6080806040523461017f5760208161184e803803809161001f8285610183565b83398101031261017f57516001600160a01b0381169081810361017f576001600255811561014b575f8091604051602081019063353224d760e11b825283602482015260248152610071604482610183565b51915afa3d15610143573d906001600160401b03821161012f57604051916100a3601f8201601f191660200184610183565b82523d5f602084013e5b15908115610122575b5061011357600480546001600160a01b03191682179055604051907fcf510e9fe5c9585bfe354aa0373c8fb628bc210ad55e63bbb8088827b9b1dd295f80a2600580546001600160a01b031916331790556116a790816101a78239f35b63ced2d3b560e01b5f5260045ffd5b602091505114155f6100b6565b634e487b7160e01b5f52604160045260245ffd5b6060906100ad565b60405162461bcd60e51b815260206004820152600c60248201526b5a65726f206164647265737360a01b6044820152606490fd5b5f80fd5b601f909101601f19168101906001600160401b0382119082101761012f5760405256fe610140806040526004361015610013575f80fd5b5f3560e01c9081630689d5ed1461137a575080631a7f3c33146110e15780633cdb7bf71461084a5780633ef3e1ee146107765780634425260e1461075857806362909f0a146106fc578063710bf3221461067e57806379ba5097146105df5780638da5cb5b146105b7578063c11262491461059a578063c839b35e14610411578063cb133cd2146103bd578063cf36002d1461027b578063dbf011c314610253578063dd1f5416146100f95763e30c3978146100cd575f80fd5b346100f5575f3660031901126100f5576006546040516001600160a01b039091168152602090f35b5f80fd5b346100f55760203660031901126100f557600435805f525f602052600560405f2001541561024457805f525f60205260018060a01b03600460405f2001541633148015610230575b156101d9575f818152602081905260409020600401805460ff60a01b191690556003546001600160a01b03168061019a575b507f265bfcb9efd040d32949da8f32fed7724df27b042f3aabb08c52b981e10f0ccd5f80a2005b5f8091604051826020820191637919674960e11b8352866024820152602481526101c5604482611442565b51925af1506101d2611520565b5081610173565b60405162461bcd60e51b815260206004820152602960248201527f4f6e6c792073706f6e736f72206f72206175746f6d6174696f6e2063616e206460448201526865616374697661746560b81b6064820152608490fd5b506003546001600160a01b03163314610141565b63abb34bc760e01b5f5260045ffd5b346100f5575f3660031901126100f5576004546040516001600160a01b039091168152602090f35b346100f55760203660031901126100f5576004355f525f6020526102f560405f206102a581611465565b906102b260018201611465565b61031f6102c160028401611465565b6103116102d060038601611465565b916103036005600488015497015495604051998a996102008b526102008b019061139d565b9089820360208b015261139d565b90878203604089015261139d565b90858203606087015261139d565b9160018060a01b038116608085015260ff8160a01c16151560a085015260ff8160a81c1660c085015260ff8160b01c1660e085015260ff8160b81c16151561010085015261ffff8160c01c1661012085015260ff8160d01c1661014085015260ff8160d81c1661016085015261ffff8160e01c1661018085015260ff8160f01c1615156101a085015260f81c15156101c08401526101e08301520390f35b346100f55760203660031901126100f5576004356001600160a01b038116908190036100f5575f52600160205261040d6103f960405f20611465565b60405191829160208352602083019061139d565b0390f35b346100f55760203660031901126100f5576004356001600160401b0381116100f5576104419036906004016113c1565b801561055e57335f908152600160205260409020916001600160401b03821161054a576104788261047285546113ee565b85611585565b5f92601f83116001146104d557906104c5916104ac84805f51602061167b5f395f51905f5296975f916104ca575b506115d4565b90555b60405191829160208352339560208401916115e6565b0390a2005b9050840135886104a6565b601f198316815f5260205f20905f5b81811061053257509084955f51602061167b5f395f51905f52956104c595949310610519575b5050600185811b0190556104af565b8301355f19600388901b60f8161c19169055858061050a565b848701358355602096870196600190930192016104e4565b634e487b7160e01b5f52604160045260245ffd5b60405162461bcd60e51b81526020600482015260146024820152734e616d652063616e6e6f7420626520656d70747960601b6044820152606490fd5b346100f5575f3660031901126100f5576020600254604051908152f35b346100f5575f3660031901126100f5576005546040516001600160a01b039091168152602090f35b346100f5575f3660031901126100f5576006546001600160a01b038116903382900361064457600580546001600160a01b03199081168417909155166006557fb27970c1714b28277b78cc17ac2fe9556e7f048cd48358cffe3dc7d547608fdc5f80a2005b60405162461bcd60e51b81526020600482015260126024820152712737ba10383937b837b9b2b21037bbb732b960711b6044820152606490fd5b346100f55760203660031901126100f5576004356001600160a01b038116908190036100f5576106b960018060a01b03600554163314611606565b6106c481151561163f565b600680546001600160a01b031916821790557f6ab4d119f23076e8ad491bc65ce85f017fb0591dce08755ba8591059cc51737a5f80a2005b346100f55760203660031901126100f5576004356001600160a01b038116908190036100f55761073760018060a01b03600554163314611606565b61074281151561163f565b600380546001600160a01b031916919091179055005b346100f5575f3660031901126100f557602060405163096601808152f35b346100f55760203660031901126100f5576004356001600160a01b038116908181036100f5575f80916107b460018060a01b03600554163314611606565b604051602081019063353224d760e11b8252836024820152602481526107db604482611442565b51915afa6107e7611520565b901590811561083d575b5061082e57600480546001600160a01b031916821790557fcf510e9fe5c9585bfe354aa0373c8fb628bc210ad55e63bbb8088827b9b1dd295f80a2005b63ced2d3b560e01b5f5260045ffd5b60209150511415826107f1565b346100f5576101c03660031901126100f5576004356001600160401b0381116100f55761087b9036906004016113c1565b60c052610120526024356001600160401b0381116100f5576108a19036906004016113c1565b610100919091526044356001600160401b0381116100f5576108c79036906004016113c1565b9091906064356001600160401b0381116100f5576108e99036906004016113c1565b9190926084359360ff851685036100f55760a4359360ff851685036100f55760c4359081151582036100f55760e43561ffff811681036100f557610104359260ff841684036100f557610124359560ff871687036100f557610144359861ffff8a168a036100f557610164359b8c15158d036100f5576101843560a081905280151590036100f55760ff821660ff8d1610156110a85760c05115611073576101a4351561103a5763096601806101a4351161102b5762066eee4603610f95575b60025460e08190525f1914610f8157600160e051016002556101a43542014211610f815761ffff9b610a3460ff9b998e98610a268e9c958d9896610a188a986040516080526109f9608051611426565b610a093660c0516101205161154f565b6080515236906101005161154f565b60206080510152369161154f565b60406080510152369161154f565b6060608051015233608080510152600160a060805101521660c060805101521660e060805101521515610100608051015216610120608051015216610140608051015216610160608051015216610180608051015215156101a0608051015260a05115156101c060805101526101a43542016101e0608051015260e0515f525f60205260405f206080515180519060018060401b03821161054a57610add8261047285546113ee565b602090601f8311600114610f1a57610aff92915f9183610dc8575b50506115d4565b81555b608051602001518051906001600160401b03821161054a57610b3482610b2b60018601546113ee565b60018601611585565b602090601f8311600114610ead57610b5592915f9183610dc85750506115d4565b60018201555b608051604001518051906001600160401b03821161054a57610b8d82610b8460028601546113ee565b60028601611585565b602090601f8311600114610e4057610bae92915f9183610dc85750506115d4565b60028201555b608051606001518051906001600160401b03821161054a57610be682610bdd60038601546113ee565b60038601611585565b602090601f8311600114610dd357610c0792915f9183610dc85750506115d4565b60038201555b608080519081015160a08281015160c08085015160e080870151610100880151610120808a01516101408b01516101608c01516101808d01516101a08e01516101c08f015160ff60f01b91151560f01b919091169b1515909c1b60ff60a01b166001600160a01b039d909d169c909c1760a89890981b60ff60a81b169790971760b09590951b60ff60b01b169490941760ff60b81b93151560b81b939093169290921791861b61ffff60c01b169190911760d09290921b60ff60d01b169190911760d89390931b60ff60d81b169290921795901b61ffff60e01b16949094179190911791151560f81b6001600160f81b0319169190911760048501556101e09092015160059093019290925560408051818152915192519192610d3392918401916115e6565b6101a435420160208301527f9ca2d4b65e8a9369dc7f8c5935d639fef1b5e4d7f07d4d3ecf9fc679648d0e0133928060e051930390a36003546001600160a01b031680610d87575b602060405160e0518152f35b5f809160405182602082019163d4e748bd60e01b835260e051602482015260248152610db4604482611442565b51925af150610dc1611520565b5080610d7b565b015190508480610af8565b9190600384015f52805f20905f935b601f1984168510610e25576001945083601f19811610610e0d575b505050811b016003820155610c0d565b01515f1960f88460031b161c19169055838080610dfd565b81810151835560209485019460019093019290910190610de2565b9190600284015f52805f20905f935b601f1984168510610e92576001945083601f19811610610e7a575b505050811b016002820155610bb4565b01515f1960f88460031b161c19169055838080610e6a565b81810151835560209485019460019093019290910190610e4f565b9190600184015f52805f20905f935b601f1984168510610eff576001945083601f19811610610ee7575b505050811b016001820155610b5b565b01515f1960f88460031b161c19169055838080610ed7565b81810151835560209485019460019093019290910190610ebc565b9190835f52805f20905f935b601f1984168510610f66576001945083601f19811610610f4e575b505050811b018155610b02565b01515f1960f88460031b161c19169055838080610f41565b81810151835560209485019460019093019290910190610f26565b634e487b7160e01b5f52601160045260245ffd5b5f8060018060a01b0360045416604051602081019063353224d760e11b825233602482015260248152610fc9604482611442565b51915afa610fd5611520565b901590811561101e575b8115610ffb575b50156109a957631d9e948560e01b5f5260045ffd5b90506020818051810103126100f557602001518015908115036100f5578e610fe6565b8051602014159150610fdf565b634a94fa8360e11b5f5260045ffd5b60405162461bcd60e51b8152602060048201526011602482015270111d5c985d1a5bdb881c995c5d5a5c9959607a1b6044820152606490fd5b60405162461bcd60e51b815260206004820152600d60248201526c13985b59481c995c5d5a5c9959609a1b6044820152606490fd5b60405162461bcd60e51b8152602060048201526011602482015270496e76616c6964206167652072616e676560781b6044820152606490fd5b346100f55760203660031901126100f5575f6101e060405161110281611426565b6060815260606020820152606060408201526060808201528260808201528260a08201528260c08201528260e08201528261010082015282610120820152826101408201528261016082015282610180820152826101a0820152826101c082015201526004355f525f60205260405f2060056040519161118183611426565b61118a81611465565b835261119860018201611465565b60208401526111a960028201611465565b60408401526111ba60038201611465565b6060840152600481015460018060a01b038116608085015260ff8160a01c16151560a085015260ff8160a81c1660c085015260ff8160b01c1660e085015260ff8160b81c16151561010085015261ffff8160c01c1661012085015260ff8160d01c1661014085015260ff8160d81c1661016085015261ffff8160e01c1661018085015260ff8160f01c1615156101a085015260f81c15156101c084015201546101e08201526040518091602082526101e06112ce6112b86112a261128c8551610200602089015261022088019061139d565b6020860151878203601f1901604089015261139d565b6040850151868203601f1901606088015261139d565b6060840151858203601f1901608087015261139d565b9160018060a01b0360808201511660a085015260a0810151151560c085015260ff60c08201511660e085015260ff60e082015116610100850152610100810151151561012085015261ffff6101208201511661014085015260ff6101408201511661016085015260ff6101608201511661018085015261ffff610180820151166101a08501526101a081015115156101c08501526101c081015115158285015201516102008301520390f35b346100f5575f3660031901126100f5576003546001600160a01b03168152602090f35b805180835260209291819084018484015e5f828201840152601f01601f1916010190565b9181601f840112156100f5578235916001600160401b0383116100f557602083818601950101116100f557565b90600182811c9216801561141c575b602083101461140857565b634e487b7160e01b5f52602260045260245ffd5b91607f16916113fd565b61020081019081106001600160401b0382111761054a57604052565b601f909101601f19168101906001600160401b0382119082101761054a57604052565b9060405191825f825492611478846113ee565b80845293600181169081156114e3575060011461149f575b5061149d92500383611442565b565b90505f9291925260205f20905f915b8183106114c757505090602061149d928201015f611490565b60209193508060019154838589010152019101909184926114ae565b90506020925061149d94915060ff191682840152151560051b8201015f611490565b6001600160401b03811161054a57601f01601f191660200190565b3d1561154a573d9061153182611505565b9161153f6040519384611442565b82523d5f602084013e565b606090565b92919261155b82611505565b916115696040519384611442565b8294818452818301116100f5578281602093845f960137010152565b601f821161159257505050565b5f5260205f20906020601f840160051c830193106115ca575b601f0160051c01905b8181106115bf575050565b5f81556001016115b4565b90915081906115ab565b8160011b915f199060031b1c19161790565b908060209392818452848401375f828201840152601f01601f1916010190565b1561160d57565b60405162461bcd60e51b815260206004820152600a60248201526927b7363c9037bbb732b960b11b6044820152606490fd5b1561164657565b60405162461bcd60e51b815260206004820152600c60248201526b5a65726f206164647265737360a01b6044820152606490fdfe7dc7380605ea4d9ed8aa475df8774c4549fc8a2db87b58580ec96de0e6d2cce9a164736f6c634300081b000a",
  "linkReferences": {},
  "deployedLinkReferences": {}
}