{
  "_format": "hh-sol-artifact-1",
  "contractName": "PatientRegistry",
  "sourceName": "contracts/PatientRegistry.sol",
  "abi": [
    {
      "inputs": [],
      "stateMutability": "nonpayable",
      "type": "constructor"
    },
    {
      "inputs": [],
      "name": "ZamaProtocolUnsupported",
      "type": "error"
    },
    {
      "anonymous": false,
      "inputs": [
        {
          "indexed": true,
          "internalType": "address",
          "name": "patient",
          "type": "address"
        },
        {
          "indexed": false,
          "internalType": "uint256",
          "name": "timestamp",
          "type": "uint256"
        }
      ],
      "name": "ProfileUpdated",
      "type": "event"
    },
    {
      "inputs": [],
      "name": "authorizedEngine",
      "outputs": [
        {
          "internalType": "address",
          "name": "",
          "type": "address"
        }
      ],
      "stateMutability": "view",
      "type": "function"
    },
    {
      "inputs": [],
      "name": "confidentialProtocolId",
      "outputs": [
        {
          "internalType": "uint256",
          "name": "",
          "type": "uint256"
        }
      ],
      "stateMutability": "view",
      "type": "function"
    },
    {
      "inputs": [],
      "name": "dataAccessLog",
      "outputs": [
        {
          "internalType": "contract DataAccessLog",
          "name": "",
          "type": "address"
        }
      ],
      "stateMutability": "view",
      "type": "function"
    },
    {
      "inputs": [
        {
          "internalType": "address",
          "name": "_patient",
          "type": "address"
        }
      ],
      "name": "getPatient",
      "outputs": [
        {
          "components": [
            {
              "internalType": "euint8",
              "name": "age",
              "type": "bytes32"
            },
            {
              "internalType": "ebool",
              "name": "gender",
              "type": "bytes32"
            },
            {
              "internalType": "euint16",
              "name": "weight",
              "type": "bytes32"
            },
            {
              "internalType": "euint8",
              "name": "height",
              "type": "bytes32"
            },
            {
              "internalType": "ebool",
              "name": "hasDiabetes",
              "type": "bytes32"
            },
            {
              "internalType": "euint16",
              "name": "hbLevel",
              "type": "bytes32"
            },
            {
              "internalType": "ebool",
              "name": "isSmoker",
              "type": "bytes32"
            },
            {
              "internalType": "ebool",
              "name": "hasHypertension",
              "type": "bytes32"
            },
            {
              "internalType": "bool",
              "name": "exists",
              "type": "bool"
            }
          ],
          "internalType": "struct PatientRegistry.Patient",
          "name": "",
          "type": "tuple"
        }
      ],
      "stateMutability": "nonpayable",
      "type": "function"
    },
    {
      "inputs": [],
      "name": "owner",
      "outputs": [
        {
          "internalType": "address",
          "name": "",
          "type": "address"
        }
      ],
      "stateMutability": "view",
      "type": "function"
    },
    {
      "inputs": [
        {
          "internalType": "address",
          "name": "_engine",
          "type": "address"
        }
      ],
      "name": "setAuthorizedEngine",
      "outputs": [],
      "stateMutability": "nonpayable",
      "type": "function"
    },
    {
      "inputs": [
        {
          "internalType": "address",
          "name": "_log",
          "type": "address"
        }
      ],
      "name": "setDataAccessLog",
      "outputs": [],
      "stateMutability": "nonpayable",
      "type": "function"
    },
    {
      "inputs": [
        {
          "internalType": "externalEuint8",
          "name": "_age",
          "type": "bytes32"
        },
        {
          "internalType": "bytes",
          "name": "_ageProof",
          "type": "bytes"
        },
        {
          "internalType": "externalEbool",
          "name": "_gender",
          "type": "bytes32"
        },
        {
          "internalType": "bytes",
          "name": "_genderProof",
          "type": "bytes"
        },
        {
          "internalType": "externalEuint16",
          "name": "_weight",
          "type": "bytes32"
        },
        {
          "internalType": "bytes",
          "name": "_weightProof",
          "type": "bytes"
        },
        {
          "internalType": "externalEuint8",
          "name": "_height",
          "type": "bytes32"
        },
        {
          "internalType": "bytes",
          "name": "_heightProof",
          "type": "bytes"
        },
        {
          "internalType": "externalEbool",
          "name": "_hasDiabetes",
          "type": "bytes32"
        },
        {
          "internalType": "bytes",
          "name": "_diabetesProof",
          "type": "bytes"
        },
        {
          "internalType": "externalEuint16",
          "name": "_hbLevel",
          "type": "bytes32"
        },
        {
          "internalType": "bytes",
          "name": "_hbProof",
          "type": "bytes"
        },
        {
          "internalType": "externalEbool",
          "name": "_isSmoker",
          "type": "bytes32"
        },
        {
          "internalType": "bytes",
          "name": "_isSmokerProof",
          "type": "bytes"
        },
        {
          "internalType": "externalEbool",
          "name": "_hasHypertension",
          "type": "bytes32"
        },
        {
          "internalType": "bytes",
          "name": "_hasHypertensionProof",
          "type": "bytes"
        }
      ],
      "name": "submitEncryptedProfile",
      "outputs": [],
      "stateMutability": "nonpayable",
      "type": "function"
    }
  ],
  "bytecode": "0x6080604052346101e957610011610220565b504660010361010557610022610220565b5061002b6101ed565b5f81525f60208201525f60408201525b80517f9e7b61f58c47dc699ac88507c4f5bb9f121c03808c5676a8078fe583e464970080546001600160a01b03199081166001600160a01b039384161790915560208301517f9e7b61f58c47dc699ac88507c4f5bb9f121c03808c5676a8078fe583e4649701805483169184169190911790556040928301517f9e7b61f58c47dc699ac88507c4f5bb9f121c03808c5676a8078fe583e4649702805483169190931617909155600380548216339081179091556001805490921617905551610d31908161023b8239f35b4662aa36a70361017057610117610220565b506101206101ed565b73f0ffdc93b7e186bc2f8cb3daa75d86d1930a433d81527392c920834ec8941d2c77d188936e1f7a6f49c127602082015273be0e383937d564d7ff0bc3b46c51f0bf8d5c311a604082015261003b565b46617a69036101da57610181610220565b5061018a6101ed565b7350157cffd6bbfa2dece204a89ec419c23ef5755d815273e3a9105a3a932253a70f126eb1e3b589c643dd24602082015273be0e383937d564d7ff0bc3b46c51f0bf8d5c311a604082015261003b565b6373cac13b60e01b5f5260045ffd5b5f80fd5b60405190606082016001600160401b0381118382101761020c57604052565b634e487b7160e01b5f52604160045260245ffd5b6102286101ed565b905f82525f60208301525f604083015256fe6080806040526004361015610012575f80fd5b5f905f3560e01c9081630798230914610883575080634b5f8736146108325780638927b030146108105780638da5cb5b146107e8578063b5368e2014610594578063e69d8964146100f6578063ea813beb146100cd5763f520f24f14610076575f80fd5b346100ca5760203660031901126100ca576004356001600160a01b038116908190036100c8576100b160018060a01b036003541633146108d3565b600280546001600160a01b03191691909117905580f35b505b80fd5b50346100ca57806003193601126100ca576001546040516001600160a01b039091168152602090f35b50346104e6576102003660031901126104e6576024356001600160401b0381116104e6576101289036906004016108a6565b6064356001600160401b0381116104e6576101479036906004016108a6565b9060a4356001600160401b0381116104e6576101679036906004016108a6565b949060e4356001600160401b0381116104e6576101889036906004016108a6565b95610124356001600160401b0381116104e6576101a99036906004016108a6565b959092610164356001600160401b0381116104e6576101cc9036906004016108a6565b9490916101a4356001600160401b0381116104e6576101ef9036906004016108a6565b9790946101e4356001600160401b0381116104e6576102129036906004016108a6565b9a909736906102209261095f565b61022c90600435610a4c565b9b36906102389261095f565b61024490604435610b4f565b9c36906102509261095f565b61025c90608435610c16565b9a36906102689261095f565b6102749060c435610a4c565b9736906102809261095f565b61028d9061010435610b4f565b9336906102999261095f565b6102a69061014435610c16565b9336906102b29261095f565b6102bf9061018435610b4f565b9336906102cb9261095f565b6102d8906101c435610b4f565b936102e330876109ec565b6102ed30896109ec565b6102f730886109ec565b61030130826109ec565b61030b30836109ec565b61031530846109ec565b61031f30856109ec565b61032930866109ec565b61033333876109ec565b61033d33896109ec565b61034733886109ec565b61035133826109ec565b61035b33836109ec565b61036533846109ec565b61036f33856109ec565b61037933866109ec565b600154600897906001600160a01b0316806104ea575b506040519661039d8861090c565b87526020870198895260408701908152606087019182526080870192835260a0870193845260c0870194855260e0870195865261010087019860018a52335f525f60205260405f2097518855516001880155516002870155516003860155516004850155516005840155516006830155516007820155019051151560ff8019835416911617905560018060a01b036002541680610465575b506040514281527f03754aecf8745159503d95ad9d4b5e5ec503371279ddc036d4ac93cd953f9de260203392a280f35b60405160208101903360601b82524260348201526034815261048860548261093c565b519020813b156104e6575f916064839260405194859384926306cc173360e41b845282600485015282602485015260448401525af180156104db5715610435576104d491505f9061093c565b5f5f610435565b6040513d5f823e3d90fd5b5f80fd5b6104f490886109ec565b60015461050a906001600160a01b03168a6109ec565b600154610520906001600160a01b0316826109ec565b600154610536906001600160a01b0316836109ec565b60015461054c906001600160a01b0316846109ec565b600154610562906001600160a01b0316856109ec565b600154610578906001600160a01b0316866109ec565b60015461058e906001600160a01b0316876109ec565b5f61038f565b346104e65760203660031901126104e6576004356001600160a01b038116908190036104e6575f6101006040516105ca8161090c565b8281528260208201528260408201528260608201528260808201528260a08201528260c08201528260e0820152015280331480156107d4575b1561079f575f525f60205261012060405f20604051906106228261090c565b8054908183526001810154602084019081526002820154604085019081526003830154606086019081526004840154906080870191825260058501549260a0880193845260068601549460c0890195865260ff600860078901549860e08c01998a52015416976101008a01981515808a5260018060a01b0360015416908133149081610797575b506106ed575b5050604051985189525160208901525160408801525160608701525160808601525160a08501525160c08401525160e0830152511515610100820152f35b6106f6916109ec565b61070c815160018060a01b0360015416906109ec565b610722825160018060a01b0360015416906109ec565b610738835160018060a01b0360015416906109ec565b61074e845160018060a01b0360015416906109ec565b610764855160018060a01b0360015416906109ec565b61077a865160018060a01b0360015416906109ec565b610790875160018060a01b0360015416906109ec565b8a806106af565b90508d6106a9565b60405162461bcd60e51b815260206004820152600d60248201526c1058d8d95cdcc819195b9a5959609a1b6044820152606490fd5b506001546001600160a01b03163314610603565b346104e6575f3660031901126104e6576003546040516001600160a01b039091168152602090f35b346104e6575f3660031901126104e657602061082a6109a4565b604051908152f35b346104e65760203660031901126104e6576004356001600160a01b038116908190036104e65761086d60018060a01b036003541633146108d3565b600180546001600160a01b031916919091179055005b346104e6575f3660031901126104e6576002546001600160a01b03168152602090f35b9181601f840112156104e6578235916001600160401b0383116104e657602083818601950101116104e657565b156108da57565b60405162461bcd60e51b815260206004820152600a60248201526927b7363c9037bbb732b960b11b6044820152606490fd5b61012081019081106001600160401b0382111761092857604052565b634e487b7160e01b5f52604160045260245ffd5b601f909101601f19168101906001600160401b0382119082101761092857604052565b9192916001600160401b0382116109285760405191610988601f8201601f19166020018461093c565b8294818452818301116104e6578281602093845f960137010152565b466001036109b157600190565b4662aa36a7036109c15761271190565b617a6946146109ce575f90565b5f1990565b9081526001600160a01b03909116602082015260400190565b5f516020610d055f395f51905f52546001600160a01b031691823b156104e657610a2f925f9283604051809681958294635ca4b5b160e11b8452600484016109d3565b03925af180156104db57610a405750565b5f610a4a9161093c565b565b6020929183915f516020610ce55f395f51905f5254905f604051968794859363045fc19560e11b855260048501523360248501526080604485015280519182918260848701520160a485015e8160a482850101526002606484015260a4835a601f909301601f191681010301936001600160a01b031690f19182156104db575f92610b1b575b505f516020610d055f395f51905f525482906001600160a01b0316803b156104e657604051630f8e573b60e21b8152915f918391829084908290610a2f903390600484016109d3565b9091506020813d602011610b47575b81610b376020938361093c565b810103126104e65751905f610ad2565b3d9150610b2a565b60209291839160018060a01b035f516020610ce55f395f51905f525416905f60a460405180988196829563045fc19560e11b84526004840152336024840152608060448401528051918291826084860152018484015e83838284010152836064830152601f801991011681010301925af19182156104db575f92610b1b57505f516020610d055f395f51905f525482906001600160a01b0316803b156104e657604051630f8e573b60e21b8152915f918391829084908290610a2f903390600484016109d3565b6020929183915f516020610ce55f395f51905f5254905f604051968794859363045fc19560e11b855260048501523360248501526080604485015280519182918260848701520160a485015e8160a482850101526003606484015260a4835a601f909301601f191681010301936001600160a01b031690f19182156104db575f92610b1b57505f516020610d055f395f51905f525482906001600160a01b0316803b156104e657604051630f8e573b60e21b8152915f918391829084908290610a2f903390600484016109d356fe9e7b61f58c47dc699ac88507c4f5bb9f121c03808c5676a8078fe583e46497019e7b61f58c47dc699ac88507c4f5bb9f121c03808c5676a8078fe583e4649700a164736f6c634300081b000a",
  "linkReferences": {},
  "deployedLinkReferences": {}
}