{
  "_format": "hh-sol-artifact-1",
  "contractName": "AnonymousPatientRegistry",
  "sourceName": "contracts/AnonymousPatientRegistry.sol",
  "abi": [
    {
      "inputs": [],
      "stateMutability": "nonpayable",
      "type": "constructor"
    },
    {
      "inputs": [
        {
          "internalType": "uint8",
          "name": "got",
          "type": "uint8"
        },
        {
          "internalType": "uint8",
          "name": "expected",
          "type": "uint8"
        }
      ],
      "name": "InvalidEncryptedInput",
      "type": "error"
    },
    {
      "anonymous": false,
      "inputs": [
        {
          "indexed": true,
          "internalType": "uint256",
          "name": "commitment",
          "type": "uint256"
        },
        {
          "indexed": true,
          "internalType": "address",
          "name": "accessor",
          "type": "address"
        },
        {
          "indexed": false,
          "internalType": "uint256",
          "name": "timestamp",
          "type": "uint256"
        }
      ],
      "name": "DataAccessed",
      "type": "event"
    },
    {
      "anonymous": false,
      "inputs": [
        {
          "indexed": true,
          "internalType": "address",
          "name": "newOwner",
          "type": "address"
        }
      ],
      "name": "OwnershipAccepted",
      "type": "event"
    },
    {
      "anonymous": false,
      "inputs": [
        {
          "indexed": true,
          "internalType": "address",
          "name": "proposedOwner",
          "type": "address"
        }
      ],
      "name": "OwnershipProposed",
      "type": "event"
    },
    {
      "anonymous": false,
      "inputs": [
        {
          "indexed": true,
          "internalType": "uint256",
          "name": "commitment",
          "type": "uint256"
        },
        {
          "indexed": false,
          "internalType": "uint256",
          "name": "timestamp",
          "type": "uint256"
        }
      ],
      "name": "PatientRegistered",
      "type": "event"
    },
    {
      "inputs": [],
      "name": "acceptOwnership",
      "outputs": [],
      "stateMutability": "nonpayable",
      "type": "function"
    },
    {
      "inputs": [],
      "name": "authorizedEngine",
      "outputs": [
        {
          "internalType": "address",
          "name": "",
          "type": "address"
        }
      ],
      "stateMutability": "view",
      "type": "function"
    },
    {
      "inputs": [],
      "name": "authorizedRegistry",
      "outputs": [
        {
          "internalType": "address",
          "name": "",
          "type": "address"
        }
      ],
      "stateMutability": "view",
      "type": "function"
    },
    {
      "inputs": [
        {
          "internalType": "uint256",
          "name": "_commitment",
          "type": "uint256"
        }
      ],
      "name": "checkRegistration",
      "outputs": [
        {
          "internalType": "bool",
          "name": "",
          "type": "bool"
        }
      ],
      "stateMutability": "view",
      "type": "function"
    },
    {
      "inputs": [],
      "name": "dataAccessLog",
      "outputs": [
        {
          "internalType": "contract DataAccessLog",
          "name": "",
          "type": "address"
        }
      ],
      "stateMutability": "view",
      "type": "function"
    },
    {
      "inputs": [
        {
          "internalType": "uint256",
          "name": "_commitment",
          "type": "uint256"
        }
      ],
      "name": "getPatient",
      "outputs": [
        {
          "components": [
            {
              "internalType": "euint8",
              "name": "age",
              "type": "bytes32"
            },
            {
              "internalType": "ebool",
              "name": "gender",
              "type": "bytes32"
            },
            {
              "internalType": "euint16",
              "name": "weight",
              "type": "bytes32"
            },
            {
              "internalType": "euint8",
              "name": "height",
              "type": "bytes32"
            },
            {
              "internalType": "ebool",
              "name": "hasDiabetes",
              "type": "bytes32"
            },
            {
              "internalType": "euint16",
              "name": "hbLevel",
              "type": "bytes32"
            },
            {
              "internalType": "ebool",
              "name": "isSmoker",
              "type": "bytes32"
            },
            {
              "internalType": "ebool",
              "name": "hasHypertension",
              "type": "bytes32"
            },
            {
              "internalType": "bool",
              "name": "exists",
              "type": "bool"
            }
          ],
          "internalType": "struct AnonymousPatientRegistry.EncryptedPatient",
          "name": "",
          "type": "tuple"
        }
      ],
      "stateMutability": "nonpayable",
      "type": "function"
    },
    {
      "inputs": [],
      "name": "getPatientCount",
      "outputs": [
        {
          "internalType": "uint256",
          "name": "",
          "type": "uint256"
        }
      ],
      "stateMutability": "view",
      "type": "function"
    },
    {
      "inputs": [
        {
          "internalType": "uint256",
          "name": "_commitment",
          "type": "uint256"
        }
      ],
      "name": "getPatientProfile",
      "outputs": [
        {
          "components": [
            {
              "internalType": "euint8",
              "name": "age",
              "type": "bytes32"
            },
            {
              "internalType": "ebool",
              "name": "gender",
              "type": "bytes32"
            },
            {
              "internalType": "euint16",
              "name": "weight",
              "type": "bytes32"
            },
            {
              "internalType": "euint8",
              "name": "height",
              "type": "bytes32"
            },
            {
              "internalType": "ebool",
              "name": "hasDiabetes",
              "type": "bytes32"
            },
            {
              "internalType": "euint16",
              "name": "hbLevel",
              "type": "bytes32"
            },
            {
              "internalType": "ebool",
              "name": "isSmoker",
              "type": "bytes32"
            },
            {
              "internalType": "ebool",
              "name": "hasHypertension",
              "type": "bytes32"
            },
            {
              "internalType": "bool",
              "name": "exists",
              "type": "bool"
            }
          ],
          "internalType": "struct AnonymousPatientRegistry.EncryptedPatient",
          "name": "",
          "type": "tuple"
        }
      ],
      "stateMutability": "view",
      "type": "function"
    },
    {
      "inputs": [],
      "name": "owner",
      "outputs": [
        {
          "internalType": "address",
          "name": "",
          "type": "address"
        }
      ],
      "stateMutability": "view",
      "type": "function"
    },
    {
      "inputs": [],
      "name": "pendingOwner",
      "outputs": [
        {
          "internalType": "address",
          "name": "",
          "type": "address"
        }
      ],
      "stateMutability": "view",
      "type": "function"
    },
    {
      "inputs": [
        {
          "internalType": "address",
          "name": "_newOwner",
          "type": "address"
        }
      ],
      "name": "proposeOwnership",
      "outputs": [],
      "stateMutability": "nonpayable",
      "type": "function"
    },
    {
      "inputs": [
        {
          "internalType": "uint256",
          "name": "_commitment",
          "type": "uint256"
        },
        {
          "internalType": "address",
          "name": "_permitRecipient",
          "type": "address"
        },
        {
          "components": [
            {
              "internalType": "uint256",
              "name": "ctHash",
              "type": "uint256"
            },
            {
              "internalType": "uint8",
              "name": "securityZone",
              "type": "uint8"
            },
            {
              "internalType": "uint8",
              "name": "utype",
              "type": "uint8"
            },
            {
              "internalType": "bytes",
              "name": "signature",
              "type": "bytes"
            }
          ],
          "internalType": "struct InEuint8",
          "name": "_age",
          "type": "tuple"
        },
        {
          "components": [
            {
              "internalType": "uint256",
              "name": "ctHash",
              "type": "uint256"
            },
            {
              "internalType": "uint8",
              "name": "securityZone",
              "type": "uint8"
            },
            {
              "internalType": "uint8",
              "name": "utype",
              "type": "uint8"
            },
            {
              "internalType": "bytes",
              "name": "signature",
              "type": "bytes"
            }
          ],
          "internalType": "struct InEbool",
          "name": "_gender",
          "type": "tuple"
        },
        {
          "components": [
            {
              "internalType": "uint256",
              "name": "ctHash",
              "type": "uint256"
            },
            {
              "internalType": "uint8",
              "name": "securityZone",
              "type": "uint8"
            },
            {
              "internalType": "uint8",
              "name": "utype",
              "type": "uint8"
            },
            {
              "internalType": "bytes",
              "name": "signature",
              "type": "bytes"
            }
          ],
          "internalType": "struct InEuint16",
          "name": "_weight",
          "type": "tuple"
        },
        {
          "components": [
            {
              "internalType": "uint256",
              "name": "ctHash",
              "type": "uint256"
            },
            {
              "internalType": "uint8",
              "name": "securityZone",
              "type": "uint8"
            },
            {
              "internalType": "uint8",
              "name": "utype",
              "type": "uint8"
            },
            {
              "internalType": "bytes",
              "name": "signature",
              "type": "bytes"
            }
          ],
          "internalType": "struct InEuint8",
          "name": "_height",
          "type": "tuple"
        },
        {
          "components": [
            {
              "internalType": "uint256",
              "name": "ctHash",
              "type": "uint256"
            },
            {
              "internalType": "uint8",
              "name": "securityZone",
              "type": "uint8"
            },
            {
              "internalType": "uint8",
              "name": "utype",
              "type": "uint8"
            },
            {
              "internalType": "bytes",
              "name": "signature",
              "type": "bytes"
            }
          ],
          "internalType": "struct InEbool",
          "name": "_hasDiabetes",
          "type": "tuple"
        },
        {
          "components": [
            {
              "internalType": "uint256",
              "name": "ctHash",
              "type": "uint256"
            },
            {
              "internalType": "uint8",
              "name": "securityZone",
              "type": "uint8"
            },
            {
              "internalType": "uint8",
              "name": "utype",
              "type": "uint8"
            },
            {
              "internalType": "bytes",
              "name": "signature",
              "type": "bytes"
            }
          ],
          "internalType": "struct InEuint16",
          "name": "_hbLevel",
          "type": "tuple"
        },
        {
          "components": [
            {
              "internalType": "uint256",
              "name": "ctHash",
              "type": "uint256"
            },
            {
              "internalType": "uint8",
              "name": "securityZone",
              "type": "uint8"
            },
            {
              "internalType": "uint8",
              "name": "utype",
              "type": "uint8"
            },
            {
              "internalType": "bytes",
              "name": "signature",
              "type": "bytes"
            }
          ],
          "internalType": "struct InEbool",
          "name": "_isSmoker",
          "type": "tuple"
        },
        {
          "components": [
            {
              "internalType": "uint256",
              "name": "ctHash",
              "type": "uint256"
            },
            {
              "internalType": "uint8",
              "name": "securityZone",
              "type": "uint8"
            },
            {
              "internalType": "uint8",
              "name": "utype",
              "type": "uint8"
            },
            {
              "internalType": "bytes",
              "name": "signature",
              "type": "bytes"
            }
          ],
          "internalType": "struct InEbool",
          "name": "_hasHypertension",
          "type": "tuple"
        }
      ],
      "name": "registerPatient",
      "outputs": [],
      "stateMutability": "nonpayable",
      "type": "function"
    },
    {
      "inputs": [
        {
          "internalType": "address",
          "name": "_engine",
          "type": "address"
        }
      ],
      "name": "setAuthorizedEngine",
      "outputs": [],
      "stateMutability": "nonpayable",
      "type": "function"
    },
    {
      "inputs": [
        {
          "internalType": "address",
          "name": "_registry",
          "type": "address"
        }
      ],
      "name": "setAuthorizedRegistry",
      "outputs": [],
      "stateMutability": "nonpayable",
      "type": "function"
    },
    {
      "inputs": [
        {
          "internalType": "address",
          "name": "_log",
          "type": "address"
        }
      ],
      "name": "setDataAccessLog",
      "outputs": [],
      "stateMutability": "nonpayable",
      "type": "function"
    }
  ],
  "bytecode": "0x60808060405234602757600580546001600160a01b031916331790556112aa908161002c8239f35b5f80fdfe6080806040526004361015610012575f80fd5b5f905f3560e01c9081630798230914610cd757508063090741a014610c7f578063211a6edc14610bda578063243cc495146106145780632d7306e0146105eb5780634b5f873614610534578063710bf322146104b857806379ba5097146104175780637d3a6796146101e75780638da5cb5b146101be57806397a67ed91461018f578063c190665b14610171578063e30c397814610148578063ea813beb1461011f5763f520f24f146100c3575f80fd5b3461011c57602036600319011261011c576100dc610cfa565b6100f160018060a01b03600554163314610d70565b6001600160a01b0316610105811515610da9565b600480546001600160a01b03191691909117905580f35b80fd5b503461011c578060031936011261011c576003546040516001600160a01b039091168152602090f35b503461011c578060031936011261011c576006546040516001600160a01b039091168152602090f35b503461011c578060031936011261011c576020600754604051908152f35b503461011c57602036600319011261011c5760ff60406020926004358152600184522054166040519015158152f35b503461011c578060031936011261011c576005546040516001600160a01b039091168152602090f35b503461011c57602036600319011261011c57600435610204610e52565b506003546001600160a01b031690338290036103d9578083528260205260408320916040519261023384610de4565b8054845283600182015460208201908152600283015460408301908152600384015494606084019586526004850154906080850191825260058601549160a0860192835260068701549460c087019586526102a960ff600860078b01549a60e08b019b8c520154161515806101008a0152610e95565b82610395575b50506004546001600160a01b0316965086955061030f945050505050575b61030b8383604051904282527f0d77ddc4b48d5c31cc7d90b1119b4acfe8ddacd1c8426e0d515eaf828b6eae6660203393a360405191829182610d10565b0390f35b8390604051602081019084825242604082015260408152610331606082610e2f565b51902090803b15610386576064839260405194859384926306cc173360e41b84526002600485015282602485015260448401525af1801561038a57156102cd5761037c848092610e2f565b61038657826102cd565b8280fd5b6040513d86823e3d90fd5b6103cb986103b86103b8966103b86103b8946103b86103b8986103b89d51611171565b516003546001600160a01b031690611171565b5f80838180808080806102af565b60405162461bcd60e51b81526020600482015260166024820152754f6e6c7920617574686f72697a656420656e67696e6560501b6044820152606490fd5b503461011c578060031936011261011c576006546001600160a01b038116903382900361047e57600580546001600160a01b03199081168417909155166006557fb27970c1714b28277b78cc17ac2fe9556e7f048cd48358cffe3dc7d547608fdc8280a280f35b60405162461bcd60e51b81526020600482015260126024820152712737ba10383937b837b9b2b21037bbb732b960711b6044820152606490fd5b503461011c57602036600319011261011c576104d2610cfa565b6104e760018060a01b03600554163314610d70565b6001600160a01b03166104fb811515610da9565b600680546001600160a01b031916821790557f6ab4d119f23076e8ad491bc65ce85f017fb0591dce08755ba8591059cc51737a8280a280f35b503461011c57602036600319011261011c5761054e610cfa565b61056360018060a01b03600554163314610d70565b6001600160a01b0316610577811515610da9565b60075461059557600380546001600160a01b03191691909117905580f35b60405162461bcd60e51b815260206004820152602860248201527f43616e6e6f74206368616e676520656e67696e6520616674657220726567697360448201526774726174696f6e7360c01b6064820152608490fd5b503461011c578060031936011261011c576002546040516001600160a01b039091168152602090f35b5034610a5657610140366003190112610a56576004356024356001600160a01b03811690818103610a5657604435906001600160401b038211610a565760806003198336030112610a5657606435906001600160401b038211610a565760806003198336030112610a5657608435936001600160401b038511610a565760806003198636030112610a565760a435936001600160401b038511610a565760806003198636030112610a565760c4356001600160401b038111610a565760806003198236030112610a565760e435906001600160401b038211610a565760806003198336030112610a565761010435926001600160401b038411610a565760806003198536030112610a565761012435946001600160401b038611610a565760806003198736030112610a56576002546001600160a01b03163303610b9a5715610b5d57895f52600160205260ff60405f205416610b1857610779903690600401610efd565b61078290610faa565b95610791903690600401610efd565b61079a90611018565b976107a9903690600401610efd565b6107b29061107e565b966107c1903690600401610efd565b6107ca90610faa565b906107d9903690600401610efd565b6107e290611018565b916107f1903690600401610efd565b6107fa9061107e565b92610809903690600401610efd565b61081290611018565b93610821903690600401610efd565b61082a90611018565b9461083487611102565b61083d89611102565b61084688611102565b61084f82611102565b61085883611102565b61086184611102565b61086a85611102565b61087386611102565b61087d8188611171565b610887818a611171565b6108918189611171565b61089b8183611171565b6108a58184611171565b6108af8185611171565b6108b98186611171565b6108c39086611171565b600354600897906001600160a01b031680610a6e575b50604051966108e788610de4565b87526020870198895260408701908152606087019182526080870192835260a0870193845260c0870194855260e0870195865261010087019860018a528a5f525f60205260405f2097518855516001880155516002870155516003860155516004850155516005840155516006830155516007820155019051151560ff80198354169116179055805f52600160205260405f20600160ff198254161790556007545f198114610a5a576001016007556004546001600160a01b0316806109d6575b507f3349423a6fe6b6d3e501044ee2cbe8d3d8cf2c8cd9f64c55dac54ded27347d7d6020604051428152a280f35b6040516020810190838252426040820152604081526109f6606082610e2f565b519020813b15610a56575f916064839260405194859384926306cc173360e41b845282600485015282602485015260448401525af18015610a4b57156109a857610a439192505f90610e2f565b5f905f6109a8565b6040513d5f823e3d90fd5b5f80fd5b634e487b7160e01b5f52601160045260245ffd5b610a789088611171565b600354610a8e906001600160a01b03168a611171565b600354610aa4906001600160a01b031682611171565b600354610aba906001600160a01b031683611171565b600354610ad0906001600160a01b031684611171565b600354610ae6906001600160a01b031685611171565b600354610afc906001600160a01b031686611171565b600354610b12906001600160a01b031687611171565b5f6108d9565b60405162461bcd60e51b815260206004820152601d60248201527f436f6d6d69746d656e7420616c726561647920726567697374657265640000006044820152606490fd5b60405162461bcd60e51b815260206004820152601560248201527416995c9bc81c195c9b5a5d081c9958da5c1a595b9d605a1b6044820152606490fd5b60405162461bcd60e51b81526020600482015260186024820152774f6e6c7920617574686f72697a656420726567697374727960401b6044820152606490fd5b34610a56576020366003190112610a5657610bf3610e52565b506004355f525f60205261030b60405f20610c7360ff600860405193610c1885610de4565b8054855260018101546020860152600281015460408601526003810154606086015260048101546080860152600581015460a0860152600681015460c0860152600781015460e0860152015416151580610100840152610e95565b60405191829182610d10565b34610a56576020366003190112610a5657610c98610cfa565b610cad60018060a01b03600554163314610d70565b6001600160a01b0316610cc1811515610da9565b600280546001600160a01b031916919091179055005b34610a56575f366003190112610a56576004546001600160a01b03168152602090f35b600435906001600160a01b0382168203610a5657565b91909161010080610120830194805184526020810151602085015260408101516040850152606081015160608501526080810151608085015260a081015160a085015260c081015160c085015260e081015160e085015201511515910152565b15610d7757565b60405162461bcd60e51b815260206004820152600a60248201526927b7363c9037bbb732b960b11b6044820152606490fd5b15610db057565b60405162461bcd60e51b815260206004820152600c60248201526b5a65726f206164647265737360a01b6044820152606490fd5b61012081019081106001600160401b03821117610e0057604052565b634e487b7160e01b5f52604160045260245ffd5b608081019081106001600160401b03821117610e0057604052565b601f909101601f19168101906001600160401b03821190821017610e0057604052565b60405190610e5f82610de4565b5f610100838281528260208201528260408201528260608201528260808201528260a08201528260c08201528260e08201520152565b15610e9c57565b60405162461bcd60e51b815260206004820152602560248201527f50617469656e74206e6f7420666f756e6420666f72207468697320636f6d6d696044820152641d1b595b9d60da1b6064820152608490fd5b359060ff82168203610a5657565b9190608083820312610a5657604051610f1581610e14565b809380358252610f2760208201610eef565b6020830152610f3860408201610eef565b60408301526060810135906001600160401b038211610a5657019082601f83011215610a565781356001600160401b038111610e005760405193610f86601f8301601f191660200186610e2f565b81855260208285010111610a56576020815f92826060960183880137850101520152565b60ff604082015116600281036110015750610ffe90610fc76111ae565b50805190606060ff6020830151169101519060405192610fe684610e14565b835260208301526002604083015260608201526111d2565b90565b6367cf307160e01b5f52600452600260245260445ffd5b60ff604082015116806110685750610ffe906110326111ae565b50805190606060ff602083015116910151906040519261105184610e14565b835260208301525f604083015260608201526111d2565b6367cf307160e01b5f526004525f60245260445ffd5b60ff604082015116600381036110d25750610ffe9061109b6111ae565b50805190606060ff60208301511691015190604051926110ba84610e14565b835260208301526003604083015260608201526111d2565b6367cf307160e01b5f52600452600360245260445ffd5b9081526001600160a01b03909116602082015260400190565b73ea30c4b8b44078bbf8a6ef5b9f1ec1626c7848d93b15610a56575f61113e9160405180938192631974142760e21b83523090600484016110e9565b03818373ea30c4b8b44078bbf8a6ef5b9f1ec1626c7848d95af18015610a4b576111655750565b5f61116f91610e2f565b565b73ea30c4b8b44078bbf8a6ef5b9f1ec1626c7848d93b15610a5657604051631974142760e21b8152915f918391829161113e9190600484016110e9565b604051906111bb82610e14565b606080835f81525f60208201525f60408201520152565b6020606060e4829360405194859384926313fce3b160e11b8452604060048501528051604485015260ff8382015116606485015260ff60408201511660848501520151608060a484015280519182918260c4860152018484015e5f838284010152336024830152601f801991011681010301815f73ea30c4b8b44078bbf8a6ef5b9f1ec1626c7848d95af1908115610a4b575f9161126e575090565b90506020813d602011611295575b8161128960209383610e2f565b81010312610a56575190565b3d915061127c56fea164736f6c634300081b000a",
  "linkReferences": {},
  "deployedLinkReferences": {}
}