{
  "_format": "hh-sol-artifact-1",
  "contractName": "ConsentManager",
  "sourceName": "contracts/ConsentManager.sol",
  "abi": [
    {
      "inputs": [
        {
          "internalType": "uint8",
          "name": "got",
          "type": "uint8"
        },
        {
          "internalType": "uint8",
          "name": "expected",
          "type": "uint8"
        }
      ],
      "name": "InvalidEncryptedInput",
      "type": "error"
    },
    {
      "inputs": [
        {
          "internalType": "int32",
          "name": "value",
          "type": "int32"
        }
      ],
      "name": "SecurityZoneOutOfBounds",
      "type": "error"
    },
    {
      "anonymous": false,
      "inputs": [
        {
          "indexed": true,
          "internalType": "address",
          "name": "patient",
          "type": "address"
        },
        {
          "indexed": false,
          "internalType": "uint256",
          "name": "newEpoch",
          "type": "uint256"
        }
      ],
      "name": "ConsentEpochRevoked",
      "type": "event"
    },
    {
      "anonymous": false,
      "inputs": [
        {
          "indexed": true,
          "internalType": "address",
          "name": "patient",
          "type": "address"
        },
        {
          "indexed": true,
          "internalType": "uint256",
          "name": "trialId",
          "type": "uint256"
        }
      ],
      "name": "ConsentGranted",
      "type": "event"
    },
    {
      "anonymous": false,
      "inputs": [
        {
          "indexed": true,
          "internalType": "address",
          "name": "patient",
          "type": "address"
        },
        {
          "indexed": true,
          "internalType": "uint256",
          "name": "trialId",
          "type": "uint256"
        },
        {
          "indexed": false,
          "internalType": "ebool",
          "name": "oldConsent",
          "type": "bytes32"
        }
      ],
      "name": "ConsentRevoked",
      "type": "event"
    },
    {
      "anonymous": false,
      "inputs": [
        {
          "indexed": true,
          "internalType": "address",
          "name": "patient",
          "type": "address"
        },
        {
          "indexed": true,
          "internalType": "uint256",
          "name": "trialId",
          "type": "uint256"
        },
        {
          "indexed": false,
          "internalType": "ebool",
          "name": "consent",
          "type": "bytes32"
        }
      ],
      "name": "EncryptedConsentGranted",
      "type": "event"
    },
    {
      "inputs": [],
      "name": "eligibilityEngine",
      "outputs": [
        {
          "internalType": "address",
          "name": "",
          "type": "address"
        }
      ],
      "stateMutability": "view",
      "type": "function"
    },
    {
      "inputs": [
        {
          "internalType": "address",
          "name": "_patient",
          "type": "address"
        },
        {
          "internalType": "uint256",
          "name": "_trialId",
          "type": "uint256"
        }
      ],
      "name": "getActiveConsent",
      "outputs": [
        {
          "internalType": "ebool",
          "name": "",
          "type": "bytes32"
        }
      ],
      "stateMutability": "nonpayable",
      "type": "function"
    },
    {
      "inputs": [
        {
          "internalType": "address",
          "name": "_patient",
          "type": "address"
        },
        {
          "internalType": "uint256",
          "name": "_trialId",
          "type": "uint256"
        }
      ],
      "name": "getEncryptedConsent",
      "outputs": [
        {
          "internalType": "ebool",
          "name": "",
          "type": "bytes32"
        }
      ],
      "stateMutability": "view",
      "type": "function"
    },
    {
      "inputs": [
        {
          "internalType": "address",
          "name": "_patient",
          "type": "address"
        }
      ],
      "name": "getPatientConsentEpoch",
      "outputs": [
        {
          "internalType": "uint256",
          "name": "",
          "type": "uint256"
        }
      ],
      "stateMutability": "view",
      "type": "function"
    },
    {
      "inputs": [
        {
          "internalType": "uint256",
          "name": "_trialId",
          "type": "uint256"
        },
        {
          "components": [
            {
              "internalType": "uint256",
              "name": "ctHash",
              "type": "uint256"
            },
            {
              "internalType": "uint8",
              "name": "securityZone",
              "type": "uint8"
            },
            {
              "internalType": "uint8",
              "name": "utype",
              "type": "uint8"
            },
            {
              "internalType": "bytes",
              "name": "signature",
              "type": "bytes"
            }
          ],
          "internalType": "struct InEbool",
          "name": "_consent",
          "type": "tuple"
        }
      ],
      "name": "grantConsent",
      "outputs": [],
      "stateMutability": "nonpayable",
      "type": "function"
    },
    {
      "inputs": [
        {
          "internalType": "uint256",
          "name": "_trialId",
          "type": "uint256"
        },
        {
          "internalType": "uint256",
          "name": "",
          "type": "uint256"
        }
      ],
      "name": "grantConsent",
      "outputs": [],
      "stateMutability": "nonpayable",
      "type": "function"
    },
    {
      "inputs": [
        {
          "internalType": "address",
          "name": "_patient",
          "type": "address"
        },
        {
          "internalType": "uint256",
          "name": "_trialId",
          "type": "uint256"
        }
      ],
      "name": "hasConsentRecord",
      "outputs": [
        {
          "internalType": "bool",
          "name": "",
          "type": "bool"
        }
      ],
      "stateMutability": "view",
      "type": "function"
    },
    {
      "inputs": [
        {
          "internalType": "address",
          "name": "",
          "type": "address"
        }
      ],
      "name": "patientConsentEpoch",
      "outputs": [
        {
          "internalType": "uint256",
          "name": "",
          "type": "uint256"
        }
      ],
      "stateMutability": "view",
      "type": "function"
    },
    {
      "inputs": [],
      "name": "revokeAllConsent",
      "outputs": [],
      "stateMutability": "nonpayable",
      "type": "function"
    },
    {
      "inputs": [
        {
          "internalType": "uint256",
          "name": "_trialId",
          "type": "uint256"
        }
      ],
      "name": "revokeConsent",
      "outputs": [],
      "stateMutability": "nonpayable",
      "type": "function"
    },
    {
      "inputs": [
        {
          "internalType": "address",
          "name": "_engine",
          "type": "address"
        }
      ],
      "name": "setEligibilityEngine",
      "outputs": [],
      "stateMutability": "nonpayable",
      "type": "function"
    }
  ],
  "bytecode": "0x60808060405234601557610b36908161001a8239f35b5f80fdfe6080806040526004361015610012575f80fd5b5f3560e01c90816316a0042c1461063e5750806334be3826146105c45780634780b241146103935780634f11c6901461036c57806360c4f5ab146103285780636fb75d4c146100955780638990622c146102735780639fd05e141461022a578063b6bdbf78146101ba578063eae292a0146100d15763f806db8e14610095575f80fd5b346100cd5760203660031901126100cd576001600160a01b036100b6610799565b165f526003602052602060405f2054604051908152f35b5f80fd5b346100cd5760403660031901126100cd57600435806100ee610a21565b6100f781610814565b6101013382610875565b61010a816108ab565b335f52600160205260405f20825f526020528060405f2055335f52600260205260405f20825f5260205260405f20600160ff19825416179055335f52600360205260405f2054335f52600460205260405f20835f5260205260405f20556040519081527fc5481e706974d35838bec995740680c106b65b6e114f7444e7940a4d17aa3aa060203392a3337ffa2079192eb4ccb7613c7caeba634279b187c2f49dafc0c4819bbc5f878ac3055f80a3005b346100cd5760203660031901126100cd576001600160a01b036101db610799565b1680156101f7575f80546001600160a01b031916919091179055005b60405162461bcd60e51b815260206004820152600b60248201526a5a65726f20656e67696e6560a81b6044820152606490fd5b346100cd5760403660031901126100cd576001600160a01b0361024b610799565b165f52600260205260405f206024355f52602052602060ff60405f2054166040519015158152f35b346100cd5760403660031901126100cd57602061030d610291610799565b6103086024359160018060a01b031691825f526001855260405f20815f52855261030260405f205493805f526002875260405f20835f5287526102da60ff60405f2054166109d4565b92815f526004885260405f20905f52875260405f2054905f526003875260405f2054146109d4565b926108c8565b6108c8565b61031681610814565b6103203382610875565b604051908152f35b346100cd5760403660031901126100cd576001600160a01b03610349610799565b165f52600160205260405f206024355f52602052602060405f2054604051908152f35b346100cd575f3660031901126100cd575f546040516001600160a01b039091168152602090f35b346100cd5760403660031901126100cd576004356024356001600160401b0381116100cd57608060031982360301126100cd576040516103d2816107af565b816004013581526103e5602483016107ed565b90602081019182526103f9604484016107ed565b60408201908152926064810135906001600160401b0382116100cd5701366023820112156100cd576004810135936001600160401b0385116105b0576040519461044d601f8201601f1916602001876107ca565b80865236602484830101116100cd576020815f92602460ff9601838a0137870101526060830194855251168061059a57509160e46020928360ff8096606080604051610498816107af565b5f81525f868201525f60408201520152519251169351604051926104bb846107af565b835281830194855286604084015f81526060850192835260405198899788966313fce3b160e11b885260406004890152516044880152511660648601525116608484015251608060a484015280519182918260c4860152018484015e5f838284010152336024830152601f801991011681010301815f5f516020610b0a5f395f51905f525af1801561058f5782915f9161055a575b506100f781610814565b9150506020813d602011610587575b81610576602093836107ca565b810103126100cd5781905183610550565b3d9150610569565b6040513d5f823e3d90fd5b6367cf307160e01b5f526004525f60245260445ffd5b634e487b7160e01b5f52604160045260245ffd5b346100cd575f3660031901126100cd57335f52600360205260405f2080545f19811461062a576001019055335f52600360205260405f20546040519081527fd7b97e3d09a1fb771ac86141c26fb82d890e12b76c1a3d092b33a7a4e49d834060203392a2005b634e487b7160e01b5f52601160045260245ffd5b346100cd5760203660031901126100cd576004358091335f52600160205260405f20825f5260205260405f205481527fa448379e0917c6826618fdd912df1dea73519ee829a6a0374c1ab16af10f78a860203392a36020610703816040516106a682826107ca565b5f81525f368137604051906106bc6080836107ca565b60038252606036848401375f6106d183610ac8565b525f6106dc83610ae9565b525f6106e783610af9565b52604051631888debd60e01b8152938492839260048401610a93565b03815f5f516020610b0a5f395f51905f525af190811561058f575f9161076c575b5061072e81610814565b6107383382610875565b335f526001825260405f20835f52825260405f2055335f526002815260405f20915f525260405f2060ff1981541690555f80f35b90508181813d8311610792575b61078381836107ca565b810103126100cd575183610724565b503d610779565b600435906001600160a01b03821682036100cd57565b608081019081106001600160401b038211176105b057604052565b601f909101601f19168101906001600160401b038211908210176105b057604052565b359060ff821682036100cd57565b9081526001600160a01b03909116602082015260400190565b5f516020610b0a5f395f51905f523b156100cd575f6108499160405180938192631974142760e21b83523090600484016107fb565b0381835f516020610b0a5f395f51905f525af1801561058f576108695750565b5f610873916107ca565b565b5f516020610b0a5f395f51905f523b156100cd57604051631974142760e21b8152915f91839182916108499190600484016107fb565b5f546001600160a01b0316806108bf575050565b61087391610875565b9081156109c4575b80156109b6575b604051916108e66060846107ca565b6002835260403660208501376108fb83610ac8565b5261090582610ae9565b52602090816109556040519261091b83856107ca565b5f84525f3681376109676040519485938493631888debd60e01b85525f6004860152600a6024860152608060448601526084850190610a60565b83810360031901606485015290610a60565b03815f5f516020610b0a5f395f51905f525af191821561058f575f9261098c57505090565b90809250813d83116109af575b6109a381836107ca565b810103126100cd575190565b503d610999565b506109bf610a21565b6108d7565b90506109ce610a21565b906108d0565b5f90610a19575b610967602080926040516109ef83826107ca565b5f81525f36813760405191610a056080846107ca565b60038352606036858501376106d183610ac8565b5060016109db565b602061096781604051610a3482826107ca565b5f81525f36813760405190610a4a6080836107ca565b600382526060368484013760016106d183610ac8565b90602080835192838152019201905f5b818110610a7d5750505090565b8251845260209384019390920191600101610a70565b9091610ab7610ac5935f8452601a6020850152608060408501526080840190610a60565b916060818403910152610a60565b90565b805115610ad55760200190565b634e487b7160e01b5f52603260045260245ffd5b805160011015610ad55760400190565b805160021015610ad5576060019056fe000000000000000000000000ea30c4b8b44078bbf8a6ef5b9f1ec1626c7848d9a164736f6c634300081b000a",
  "linkReferences": {},
  "deployedLinkReferences": {}
}