{
  "_format": "hh-sol-artifact-1",
  "contractName": "ConsentManager",
  "sourceName": "contracts/ConsentManager.sol",
  "abi": [
    {
      "anonymous": false,
      "inputs": [
        {
          "indexed": true,
          "internalType": "address",
          "name": "patient",
          "type": "address"
        },
        {
          "indexed": false,
          "internalType": "uint256",
          "name": "newConsentEpoch",
          "type": "uint256"
        }
      ],
      "name": "AllConsentRevoked",
      "type": "event"
    },
    {
      "anonymous": false,
      "inputs": [
        {
          "indexed": true,
          "internalType": "address",
          "name": "patient",
          "type": "address"
        },
        {
          "indexed": true,
          "internalType": "uint256",
          "name": "trialId",
          "type": "uint256"
        },
        {
          "indexed": false,
          "internalType": "uint256",
          "name": "consentEpoch",
          "type": "uint256"
        },
        {
          "indexed": false,
          "internalType": "uint256",
          "name": "expiresAt",
          "type": "uint256"
        }
      ],
      "name": "ConsentGranted",
      "type": "event"
    },
    {
      "anonymous": false,
      "inputs": [
        {
          "indexed": true,
          "internalType": "address",
          "name": "patient",
          "type": "address"
        },
        {
          "indexed": true,
          "internalType": "uint256",
          "name": "trialId",
          "type": "uint256"
        }
      ],
      "name": "ConsentRevoked",
      "type": "event"
    },
    {
      "inputs": [
        {
          "internalType": "address",
          "name": "",
          "type": "address"
        }
      ],
      "name": "consentEpoch",
      "outputs": [
        {
          "internalType": "uint256",
          "name": "",
          "type": "uint256"
        }
      ],
      "stateMutability": "view",
      "type": "function"
    },
    {
      "inputs": [
        {
          "internalType": "uint256",
          "name": "_trialId",
          "type": "uint256"
        },
        {
          "internalType": "uint256",
          "name": "_durationSeconds",
          "type": "uint256"
        }
      ],
      "name": "grantConsent",
      "outputs": [],
      "stateMutability": "nonpayable",
      "type": "function"
    },
    {
      "inputs": [
        {
          "internalType": "address",
          "name": "_patient",
          "type": "address"
        },
        {
          "internalType": "uint256",
          "name": "_trialId",
          "type": "uint256"
        }
      ],
      "name": "hasConsent",
      "outputs": [
        {
          "internalType": "bool",
          "name": "",
          "type": "bool"
        }
      ],
      "stateMutability": "view",
      "type": "function"
    },
    {
      "inputs": [],
      "name": "revokeAllConsent",
      "outputs": [],
      "stateMutability": "nonpayable",
      "type": "function"
    },
    {
      "inputs": [
        {
          "internalType": "uint256",
          "name": "_trialId",
          "type": "uint256"
        }
      ],
      "name": "revokeConsent",
      "outputs": [],
      "stateMutability": "nonpayable",
      "type": "function"
    },
    {
      "inputs": [
        {
          "internalType": "address",
          "name": "",
          "type": "address"
        },
        {
          "internalType": "uint256",
          "name": "",
          "type": "uint256"
        }
      ],
      "name": "trialConsentEpoch",
      "outputs": [
        {
          "internalType": "uint256",
          "name": "",
          "type": "uint256"
        }
      ],
      "stateMutability": "view",
      "type": "function"
    },
    {
      "inputs": [
        {
          "internalType": "address",
          "name": "",
          "type": "address"
        },
        {
          "internalType": "uint256",
          "name": "",
          "type": "uint256"
        }
      ],
      "name": "trialConsentExpiresAt",
      "outputs": [
        {
          "internalType": "uint256",
          "name": "",
          "type": "uint256"
        }
      ],
      "stateMutability": "view",
      "type": "function"
    }
  ],
  "bytecode": "0x608080604052346015576103d7908161001a8239f35b5f80fdfe60806040526004361015610011575f80fd5b5f3560e01c806316a0042c146102b7578063215ce7491461027357806334be3826146101f0578063663334f8146101bf578063a1a413da1461017b578063c7bf7b62146101445763eae292a014610066575f80fd5b3461014057604036600319011261014057600435602435335f525f60205260405f20541561012d575b335f525f60205260405f205490335f52600160205260405f20835f526020528160405f20555f9080610108575b50335f52600260205260405f20835f526020528060405f205560405191825260208201527f40a80b947513029f241f800862172a13e7cf15afc59f4d0b57f94428cfec7fd360403392a3005b90504201804211610119575f6100bc565b634e487b7160e01b5f52601160045260245ffd5b335f525f602052600160405f205561008f565b5f80fd5b34610140576020366003190112610140576001600160a01b03610165610322565b165f525f602052602060405f2054604051908152f35b34610140576040366003190112610140576001600160a01b0361019c610322565b165f52600160205260405f206024355f52602052602060405f2054604051908152f35b346101405760403660031901126101405760206101e66101dd610322565b60243590610338565b6040519015158152f35b34610140575f36600319011261014057335f525f60205260405f205480155f14610253575060015b335f525f6020528060405f20556040519081527fef08a9a662e2e2bfb2fa79b794e3722027788f7701ce6053bb392e68d617158e60203392a2005b600181018091111561021857634e487b7160e01b5f52601160045260245ffd5b34610140576040366003190112610140576001600160a01b03610294610322565b165f52600260205260405f206024355f52602052602060405f2054604051908152f35b3461014057602036600319011261014057600435335f52600160205260405f20815f526020525f6040812055335f52600260205260405f20815f526020525f6040812055337f988f76ef7977a3c8ed258b6edb689399775fa491cc7367bb03d44d8d55af79a85f80a3005b600435906001600160a01b038216820361014057565b60018060a01b0316805f52600160205260405f20825f5260205260405f2054815f525f60205260405f205480156103c25781159182156103b7575b50506103b1575f52600260205260405f20905f5260205260405f205480151590816103a7575b506103a357600190565b5f90565b905042115f610399565b50505f90565b141590505f80610373565b505050505f9056fea164736f6c634300081b000a",
  "linkReferences": {},
  "deployedLinkReferences": {}
}