{
  "_format": "hh-sol-artifact-1",
  "contractName": "DataAccessLog",
  "sourceName": "contracts/DataAccessLog.sol",
  "abi": [
    {
      "inputs": [],
      "stateMutability": "nonpayable",
      "type": "constructor"
    },
    {
      "anonymous": false,
      "inputs": [
        {
          "indexed": true,
          "internalType": "enum DataAccessLog.ActionType",
          "name": "action",
          "type": "uint8"
        },
        {
          "indexed": true,
          "internalType": "uint256",
          "name": "trialId",
          "type": "uint256"
        },
        {
          "indexed": true,
          "internalType": "bytes32",
          "name": "patientHash",
          "type": "bytes32"
        }
      ],
      "name": "ActionLogged",
      "type": "event"
    },
    {
      "anonymous": false,
      "inputs": [
        {
          "indexed": true,
          "internalType": "enum DataAccessLog.ActionType",
          "name": "action",
          "type": "uint8"
        },
        {
          "indexed": true,
          "internalType": "uint256",
          "name": "trialId",
          "type": "uint256"
        },
        {
          "indexed": true,
          "internalType": "bytes32",
          "name": "patientHash",
          "type": "bytes32"
        },
        {
          "indexed": false,
          "internalType": "uint256",
          "name": "timestamp",
          "type": "uint256"
        },
        {
          "indexed": false,
          "internalType": "address",
          "name": "performer",
          "type": "address"
        },
        {
          "indexed": false,
          "internalType": "uint256",
          "name": "logHeadPosition",
          "type": "uint256"
        }
      ],
      "name": "DetailedActionLogged",
      "type": "event"
    },
    {
      "anonymous": false,
      "inputs": [
        {
          "indexed": true,
          "internalType": "uint256",
          "name": "logHead",
          "type": "uint256"
        }
      ],
      "name": "LogBufferWrapped",
      "type": "event"
    },
    {
      "anonymous": false,
      "inputs": [
        {
          "indexed": true,
          "internalType": "address",
          "name": "newOwner",
          "type": "address"
        }
      ],
      "name": "OwnershipAccepted",
      "type": "event"
    },
    {
      "anonymous": false,
      "inputs": [
        {
          "indexed": true,
          "internalType": "address",
          "name": "proposedOwner",
          "type": "address"
        }
      ],
      "name": "OwnershipProposed",
      "type": "event"
    },
    {
      "inputs": [],
      "name": "MAX_LOG_ENTRIES",
      "outputs": [
        {
          "internalType": "uint256",
          "name": "",
          "type": "uint256"
        }
      ],
      "stateMutability": "view",
      "type": "function"
    },
    {
      "inputs": [],
      "name": "acceptOwnership",
      "outputs": [],
      "stateMutability": "nonpayable",
      "type": "function"
    },
    {
      "inputs": [
        {
          "internalType": "uint256",
          "name": "_index",
          "type": "uint256"
        }
      ],
      "name": "getLog",
      "outputs": [
        {
          "components": [
            {
              "internalType": "enum DataAccessLog.ActionType",
              "name": "action",
              "type": "uint8"
            },
            {
              "internalType": "uint256",
              "name": "trialId",
              "type": "uint256"
            },
            {
              "internalType": "bytes32",
              "name": "patientHash",
              "type": "bytes32"
            },
            {
              "internalType": "uint256",
              "name": "timestamp",
              "type": "uint256"
            },
            {
              "internalType": "address",
              "name": "performer",
              "type": "address"
            }
          ],
          "internalType": "struct DataAccessLog.LogEntry",
          "name": "",
          "type": "tuple"
        }
      ],
      "stateMutability": "view",
      "type": "function"
    },
    {
      "inputs": [],
      "name": "getLogCount",
      "outputs": [
        {
          "internalType": "uint256",
          "name": "",
          "type": "uint256"
        }
      ],
      "stateMutability": "view",
      "type": "function"
    },
    {
      "inputs": [
        {
          "internalType": "address",
          "name": "",
          "type": "address"
        }
      ],
      "name": "isAuthorizedLogger",
      "outputs": [
        {
          "internalType": "bool",
          "name": "",
          "type": "bool"
        }
      ],
      "stateMutability": "view",
      "type": "function"
    },
    {
      "inputs": [
        {
          "internalType": "enum DataAccessLog.ActionType",
          "name": "_action",
          "type": "uint8"
        },
        {
          "internalType": "uint256",
          "name": "_trialId",
          "type": "uint256"
        },
        {
          "internalType": "bytes32",
          "name": "_patientHash",
          "type": "bytes32"
        }
      ],
      "name": "logAction",
      "outputs": [],
      "stateMutability": "nonpayable",
      "type": "function"
    },
    {
      "inputs": [
        {
          "internalType": "uint256",
          "name": "",
          "type": "uint256"
        }
      ],
      "name": "logs",
      "outputs": [
        {
          "internalType": "enum DataAccessLog.ActionType",
          "name": "action",
          "type": "uint8"
        },
        {
          "internalType": "uint256",
          "name": "trialId",
          "type": "uint256"
        },
        {
          "internalType": "bytes32",
          "name": "patientHash",
          "type": "bytes32"
        },
        {
          "internalType": "uint256",
          "name": "timestamp",
          "type": "uint256"
        },
        {
          "internalType": "address",
          "name": "performer",
          "type": "address"
        }
      ],
      "stateMutability": "view",
      "type": "function"
    },
    {
      "inputs": [],
      "name": "owner",
      "outputs": [
        {
          "internalType": "address",
          "name": "",
          "type": "address"
        }
      ],
      "stateMutability": "view",
      "type": "function"
    },
    {
      "inputs": [],
      "name": "pendingOwner",
      "outputs": [
        {
          "internalType": "address",
          "name": "",
          "type": "address"
        }
      ],
      "stateMutability": "view",
      "type": "function"
    },
    {
      "inputs": [
        {
          "internalType": "address",
          "name": "_newOwner",
          "type": "address"
        }
      ],
      "name": "proposeOwnership",
      "outputs": [],
      "stateMutability": "nonpayable",
      "type": "function"
    },
    {
      "inputs": [
        {
          "internalType": "address",
          "name": "_logger",
          "type": "address"
        },
        {
          "internalType": "bool",
          "name": "_status",
          "type": "bool"
        }
      ],
      "name": "setAuthorizedLogger",
      "outputs": [],
      "stateMutability": "nonpayable",
      "type": "function"
    }
  ],
  "bytecode": "0x60808060405234604257600380546001600160a01b031916339081179091555f908152600260205260409020805460ff1916600117905561075190816100478239f35b5f80fdfe60806040526004361015610011575f80fd5b5f3560e01c80633206b2c614610547578063618033db1461052a5780636cc17330146103585780636ffaa6d11461033c578063710bf3221461029357806379ba5097146101f45780638da5cb5b146101cc578063a4260ce31461016c578063e1437f0f1461012f578063e30c3978146101075763e79899bd14610092575f80fd5b3461010357602036600319011261010357600435600154811015610103576100bb60a091610640565b5060ff8154169060018101549060028101546003820154916004600180881b0391015416926100ed6040518096610609565b6020850152604084015260608301526080820152f35b5f80fd5b34610103575f366003190112610103576004546040516001600160a01b039091168152602090f35b34610103576020366003190112610103576001600160a01b0361015061062a565b165f526002602052602060ff60405f2054166040519015158152f35b346101035760403660031901126101035761018561062a565b60243590811515809203610103576101a860018060a01b0360035416331461070b565b60018060a01b03165f52600260205260405f209060ff801983541691161790555f80f35b34610103575f366003190112610103576003546040516001600160a01b039091168152602090f35b34610103575f366003190112610103576004546001600160a01b038116903382900361025957600380546001600160a01b03199081168417909155166004557fb27970c1714b28277b78cc17ac2fe9556e7f048cd48358cffe3dc7d547608fdc5f80a2005b60405162461bcd60e51b81526020600482015260126024820152712737ba10383937b837b9b2b21037bbb732b960711b6044820152606490fd5b34610103576020366003190112610103576102ac61062a565b6102c160018060a01b0360035416331461070b565b6001600160a01b0316801561030857600480546001600160a01b031916821790557f6ab4d119f23076e8ad491bc65ce85f017fb0591dce08755ba8591059cc51737a5f80a2005b60405162461bcd60e51b815260206004820152600c60248201526b5a65726f206164647265737360a01b6044820152606490fd5b34610103575f3660031901126101035760206040516127108152f35b346101035760603660031901126101035760043560078110156101035760243560443591335f52600260205260ff60405f205416156104ed57610399610670565b6103a3828261068f565b826020820152836040820152426060820152336080820152612710600154105f146104655760015490600160401b821015610451576103eb8260016103f19401600155610640565b9061069b565b7f1cc2c52bbdc458d65d9611e9f1cde2d0154760df4669f3fb583923608a64c46160606040518585857fa977f1ceb6cc9b2201a49c0caabbf8a7fe6848331b5545eefc719445369045175f80a45f544282523360208301526040820152a4005b634e487b7160e01b5f52604160045260245ffd5b5f549061271082069182156104aa575b506103eb61048292610640565b5f545f198114610496576001015f556103f1565b634e487b7160e01b5f52601160045260245ffd5b61271090046001810180911161049657610482926103eb917f51d2a2ac310765a9fe16ef6a51ebf3e5214365650c5b893cc8bf900bfabb0b535f80a29250610475565b60405162461bcd60e51b81526020600482015260156024820152742737ba1030baba3437b934bd32b2103637b3b3b2b960591b6044820152606490fd5b34610103575f366003190112610103576020600154604051908152f35b34610103576020366003190112610103575f6080610563610670565b828152826020820152826040820152826060820152015260a0610587600435610640565b50610590610670565b9061059f60ff8254168361068f565b60018101549060208301918252600281015460408401908152600382015491606085019283526004600180881b039101541692608085019384526105e7604051809651610609565b516020850152516040840152516060830152515f196001841b01166080820152f35b9060078210156106165752565b634e487b7160e01b5f52602160045260245ffd5b600435906001600160a01b038216820361010357565b60015481101561065c5760015f52600560205f20910201905f90565b634e487b7160e01b5f52603260045260245ffd5b6040519060a082016001600160401b0381118382101761045157604052565b60078210156106165752565b906106f85781519060078210156106165760049160ff801983541691161781556020830151600182015560408301516002820155606083015160038201550190608060018060a01b039101511660018060a01b0319825416179055565b634e487b7160e01b5f525f60045260245ffd5b1561071257565b60405162461bcd60e51b815260206004820152600a60248201526927b7363c9037bbb732b960b11b6044820152606490fdfea164736f6c634300081b000a",
  "linkReferences": {},
  "deployedLinkReferences": {}
}