{
  "_format": "hh-sol-artifact-1",
  "contractName": "EncryptedConsentGate",
  "sourceName": "contracts/EncryptedConsentGate.sol",
  "abi": [
    {
      "inputs": [
        {
          "internalType": "address",
          "name": "_eligibilityEngine",
          "type": "address"
        },
        {
          "internalType": "address",
          "name": "_consentManager",
          "type": "address"
        }
      ],
      "stateMutability": "nonpayable",
      "type": "constructor"
    },
    {
      "inputs": [
        {
          "internalType": "int32",
          "name": "value",
          "type": "int32"
        }
      ],
      "name": "SecurityZoneOutOfBounds",
      "type": "error"
    },
    {
      "anonymous": false,
      "inputs": [
        {
          "indexed": true,
          "internalType": "address",
          "name": "computer",
          "type": "address"
        }
      ],
      "name": "ComputerAuthorized",
      "type": "event"
    },
    {
      "anonymous": false,
      "inputs": [
        {
          "indexed": true,
          "internalType": "address",
          "name": "computer",
          "type": "address"
        }
      ],
      "name": "ComputerDeauthorized",
      "type": "event"
    },
    {
      "anonymous": false,
      "inputs": [
        {
          "indexed": true,
          "internalType": "uint256",
          "name": "trialId",
          "type": "uint256"
        },
        {
          "indexed": true,
          "internalType": "bytes32",
          "name": "resultId",
          "type": "bytes32"
        },
        {
          "indexed": false,
          "internalType": "ebool",
          "name": "gatedResult",
          "type": "bytes32"
        }
      ],
      "name": "GateComputed",
      "type": "event"
    },
    {
      "anonymous": false,
      "inputs": [
        {
          "indexed": true,
          "internalType": "address",
          "name": "newOwner",
          "type": "address"
        }
      ],
      "name": "OwnershipAccepted",
      "type": "event"
    },
    {
      "anonymous": false,
      "inputs": [
        {
          "indexed": true,
          "internalType": "address",
          "name": "proposedOwner",
          "type": "address"
        }
      ],
      "name": "OwnershipProposed",
      "type": "event"
    },
    {
      "inputs": [],
      "name": "acceptOwnership",
      "outputs": [],
      "stateMutability": "nonpayable",
      "type": "function"
    },
    {
      "inputs": [
        {
          "internalType": "address",
          "name": "_computer",
          "type": "address"
        }
      ],
      "name": "authorizeComputer",
      "outputs": [],
      "stateMutability": "nonpayable",
      "type": "function"
    },
    {
      "inputs": [
        {
          "internalType": "address",
          "name": "",
          "type": "address"
        }
      ],
      "name": "authorizedComputers",
      "outputs": [
        {
          "internalType": "bool",
          "name": "",
          "type": "bool"
        }
      ],
      "stateMutability": "view",
      "type": "function"
    },
    {
      "inputs": [
        {
          "internalType": "uint256",
          "name": "_trialId",
          "type": "uint256"
        },
        {
          "internalType": "bytes32",
          "name": "_uniqueId",
          "type": "bytes32"
        },
        {
          "internalType": "ebool",
          "name": "_eligible",
          "type": "bytes32"
        },
        {
          "internalType": "ebool",
          "name": "_consented",
          "type": "bytes32"
        }
      ],
      "name": "computeGate",
      "outputs": [
        {
          "internalType": "ebool",
          "name": "",
          "type": "bytes32"
        }
      ],
      "stateMutability": "nonpayable",
      "type": "function"
    },
    {
      "inputs": [
        {
          "internalType": "uint256",
          "name": "_trialId",
          "type": "uint256"
        },
        {
          "internalType": "bytes32",
          "name": "_uniqueId",
          "type": "bytes32"
        },
        {
          "internalType": "address",
          "name": "_patient",
          "type": "address"
        },
        {
          "internalType": "ebool",
          "name": "_eligible",
          "type": "bytes32"
        }
      ],
      "name": "computeGateWithActiveConsent",
      "outputs": [
        {
          "internalType": "ebool",
          "name": "",
          "type": "bytes32"
        }
      ],
      "stateMutability": "nonpayable",
      "type": "function"
    },
    {
      "inputs": [],
      "name": "consentManager",
      "outputs": [
        {
          "internalType": "contract ConsentManager",
          "name": "",
          "type": "address"
        }
      ],
      "stateMutability": "view",
      "type": "function"
    },
    {
      "inputs": [
        {
          "internalType": "address",
          "name": "_computer",
          "type": "address"
        }
      ],
      "name": "deauthorizeComputer",
      "outputs": [],
      "stateMutability": "nonpayable",
      "type": "function"
    },
    {
      "inputs": [],
      "name": "eligibilityEngine",
      "outputs": [
        {
          "internalType": "contract EligibilityEngine",
          "name": "",
          "type": "address"
        }
      ],
      "stateMutability": "view",
      "type": "function"
    },
    {
      "inputs": [
        {
          "internalType": "uint256",
          "name": "_trialId",
          "type": "uint256"
        },
        {
          "internalType": "bytes32",
          "name": "_uniqueId",
          "type": "bytes32"
        }
      ],
      "name": "gateExists",
      "outputs": [
        {
          "internalType": "bool",
          "name": "",
          "type": "bool"
        }
      ],
      "stateMutability": "view",
      "type": "function"
    },
    {
      "inputs": [
        {
          "internalType": "uint256",
          "name": "_trialId",
          "type": "uint256"
        },
        {
          "internalType": "bytes32",
          "name": "_uniqueId",
          "type": "bytes32"
        }
      ],
      "name": "getGatedResult",
      "outputs": [
        {
          "internalType": "ebool",
          "name": "",
          "type": "bytes32"
        }
      ],
      "stateMutability": "view",
      "type": "function"
    },
    {
      "inputs": [
        {
          "internalType": "uint256",
          "name": "",
          "type": "uint256"
        },
        {
          "internalType": "bytes32",
          "name": "",
          "type": "bytes32"
        }
      ],
      "name": "hasGatedResult",
      "outputs": [
        {
          "internalType": "bool",
          "name": "",
          "type": "bool"
        }
      ],
      "stateMutability": "view",
      "type": "function"
    },
    {
      "inputs": [],
      "name": "owner",
      "outputs": [
        {
          "internalType": "address",
          "name": "",
          "type": "address"
        }
      ],
      "stateMutability": "view",
      "type": "function"
    },
    {
      "inputs": [],
      "name": "pendingOwner",
      "outputs": [
        {
          "internalType": "address",
          "name": "",
          "type": "address"
        }
      ],
      "stateMutability": "view",
      "type": "function"
    },
    {
      "inputs": [
        {
          "internalType": "address",
          "name": "_newOwner",
          "type": "address"
        }
      ],
      "name": "proposeOwnership",
      "outputs": [],
      "stateMutability": "nonpayable",
      "type": "function"
    },
    {
      "inputs": [
        {
          "internalType": "uint256",
          "name": "_trialId",
          "type": "uint256"
        },
        {
          "internalType": "address",
          "name": "_sponsor",
          "type": "address"
        }
      ],
      "name": "setTrialSponsor",
      "outputs": [],
      "stateMutability": "nonpayable",
      "type": "function"
    },
    {
      "inputs": [
        {
          "internalType": "uint256",
          "name": "",
          "type": "uint256"
        }
      ],
      "name": "trialSponsor",
      "outputs": [
        {
          "internalType": "address",
          "name": "",
          "type": "address"
        }
      ],
      "stateMutability": "view",
      "type": "function"
    },
    {
      "inputs": [
        {
          "internalType": "uint256",
          "name": "_trialId",
          "type": "uint256"
        },
        {
          "internalType": "bytes32",
          "name": "_uniqueId",
          "type": "bytes32"
        }
      ],
      "name": "verifyGatePassed",
      "outputs": [
        {
          "internalType": "ebool",
          "name": "",
          "type": "bytes32"
        }
      ],
      "stateMutability": "view",
      "type": "function"
    }
  ],
  "bytecode": "0x608034609057601f610d2138819003918201601f19168301916001600160401b038311848410176094578084926040948552833981010312609057604b602060458360a8565b920160a8565b60028054336001600160a01b0319918216179091555f80546001600160a01b0394851690831617905560018054929093169116179055604051610c6590816100bc8239f35b5f80fd5b634e487b7160e01b5f52604160045260245ffd5b51906001600160a01b038216820360905756fe6080806040526004361015610012575f80fd5b5f3560e01c9081631e5888af14610796575080632dd8a419146105ae5780632e0b0e711461052f5780634f11c690146105085780635a8122501461026b578063677678c6146103ef578063710bf32214610375578063781a54471461034157806379ba5097146102a2578063882bd59a1461027057806389a9cc901461026b5780638a85ad0f146102025780638da5cb5b146101da578063bd1a5b2e14610168578063ca18e14d1461012b578063e30c3978146101035763e75bb266146100d7575f80fd5b346100ff575f3660031901126100ff576001546040516001600160a01b039091168152602090f35b5f80fd5b346100ff575f3660031901126100ff576003546040516001600160a01b039091168152602090f35b346100ff5760203660031901126100ff576001600160a01b0361014c6107db565b165f526006602052602060ff60405f2054166040519015158152f35b346100ff5760203660031901126100ff576101816107db565b61019660018060a01b036002541633146108ea565b6001600160a01b03165f818152600660205260408120805460ff191690557fafe306e1a6564c1c83aaeecb2e15985f0aa0b39ae43576bff6c325b232883e9d9080a2005b346100ff575f3660031901126100ff576002546040516001600160a01b039091168152602090f35b346100ff5760403660031901126100ff576024356001600160a01b038116908190036100ff5761023d60018060a01b036002541633146108ea565b610248811515610923565b6004355f90815260076020526040902080546001600160a01b0319169091179055005b6107f1565b346100ff5760203660031901126100ff576004355f526007602052602060018060a01b0360405f205416604051908152f35b346100ff575f3660031901126100ff576003546001600160a01b038116903382900361030757600280546001600160a01b03199081168417909155166003557fb27970c1714b28277b78cc17ac2fe9556e7f048cd48358cffe3dc7d547608fdc5f80a2005b60405162461bcd60e51b81526020600482015260126024820152712737ba10383937b837b9b2b21037bbb732b960711b6044820152606490fd5b346100ff5761034f366107c5565b905f52600560205260405f20905f52602052602060ff60405f2054166040519015158152f35b346100ff5760203660031901126100ff5761038e6107db565b6103a360018060a01b036002541633146108ea565b6001600160a01b03166103b7811515610923565b600380546001600160a01b031916821790557f6ab4d119f23076e8ad491bc65ce85f017fb0591dce08755ba8591059cc51737a5f80a2005b346100ff5760803660031901126100ff57602060043560243560018060a01b0360025416331480156104f1575b61042590610820565b815f526005835260405f20815f52835261044660ff60405f2054161561085d565b6104546064356044356109e6565b9161045e83610977565b5f8181526007855260409020546001600160a01b03166104cc575b805f526004845260405f20825f5284528260405f2055805f526005845260405f20825f52845260405f20600160ff198254161790555f516020610c395f395f51905f5284604051858152a3604051908152f35b5f8181526007855260409020546104ec906001600160a01b031684610af9565b610479565b50335f90815260068452604090205460ff1661041c565b346100ff575f3660031901126100ff575f546040516001600160a01b039091168152602090f35b346100ff5760203660031901126100ff576105486107db565b61055d60018060a01b036002541633146108ea565b6001600160a01b0316610571811515610923565b805f52600660205260405f20600160ff198254161790557fb9bf3cff81288f96dfab8741ccf96588b8fc6a94e906c24d049b9092715a3ab05f80a2005b346100ff5760803660031901126100ff576044356001600160a01b0381169060043590602435908390036100ff5760205f9360018060a01b036002541633148015610781575b6105fd90610820565b8385526005825260408520838652825261061e60ff6040872054161561085d565b600154604051632264188b60e21b81526004810192909252602482018590529094859160449183916001600160a01b03165af1918215610776575f92610741575b6020935061066c83610977565b610678836064356109e6565b9261068284610977565b61068b81610977565b5f8281526007865260409020546001600160a01b03166106fa575b50805f526004845260405f20825f5284528260405f2055805f526005845260405f20825f52845260405f20600160ff198254161790555f516020610c395f395f51905f5284604051858152a3604051908152f35b5f82815260078652604090205461073b919061071f906001600160a01b031686610af9565b5f8381526007875260409020546001600160a01b031690610af9565b846106a6565b91506020833d60201161076e575b8161075c602093836108b3565b810103126100ff57602092519161065f565b3d915061074f565b6040513d5f823e3d90fd5b5033855260068252604085205460ff166105f4565b346100ff576020906107a7366107c5565b905f526005835260405f20905f52825260ff60405f20541615158152f35b60409060031901126100ff576004359060243590565b600435906001600160a01b03821682036100ff57565b346100ff576107ff366107c5565b905f52600460205260405f20905f52602052602060405f2054604051908152f35b1561082757565b60405162461bcd60e51b815260206004820152600e60248201526d139bdd08185d5d1a1bdc9a5e995960921b6044820152606490fd5b1561086457565b60405162461bcd60e51b815260206004820152602160248201527f4761746520616c726561647920636f6d707574656420666f72207468697320496044820152601160fa1b6064820152608490fd5b601f909101601f19168101906001600160401b038211908210176108d657604052565b634e487b7160e01b5f52604160045260245ffd5b156108f157565b60405162461bcd60e51b815260206004820152600a60248201526927b7363c9037bbb732b960b11b6044820152606490fd5b1561092a57565b60405162461bcd60e51b815260206004820152600c60248201526b5a65726f206164647265737360a01b6044820152606490fd5b9081526001600160a01b03909116602082015260400190565b73ea30c4b8b44078bbf8a6ef5b9f1ec1626c7848d93b156100ff575f6109b39160405180938192631974142760e21b835230906004840161095e565b03818373ea30c4b8b44078bbf8a6ef5b9f1ec1626c7848d95af18015610776576109da5750565b5f6109e4916108b3565b565b908115610ae9575b8015610adb575b60405191610a046060846108b3565b600283526040366020850137610a1983610c1b565b52610a2382610c28565b5260209081610a7360405192610a3983856108b3565b5f84525f368137610a856040519485938493631888debd60e01b85525f6004860152600a6024860152608060448601526084850190610b36565b83810360031901606485015290610b36565b03815f73ea30c4b8b44078bbf8a6ef5b9f1ec1626c7848d95af1918215610776575f92610ab157505090565b90809250813d8311610ad4575b610ac881836108b3565b810103126100ff575190565b503d610abe565b50610ae4610b69565b6109f5565b9050610af3610b69565b906109ee565b73ea30c4b8b44078bbf8a6ef5b9f1ec1626c7848d93b156100ff57604051631974142760e21b8152915f91839182916109b391906004840161095e565b90602080835192838152019201905f5b818110610b535750505090565b8251845260209384019390920191600101610b46565b6020604051610b7882826108b3565b5f81525f368137604051610b8d6080826108b3565b60038152606036848301376001610ba382610c1b565b525f610bae82610c28565b52805160021015610c0757610a8591815f6060869401526040519384928392631888debd60e01b8452610bf960048501925f8452601a88850152608060408501526080840190610b36565b916060818403910152610b36565b634e487b7160e01b5f52603260045260245ffd5b805115610c075760200190565b805160011015610c07576040019056fed2cd4f34cb7fa9a30a95c8e26b1d5cb58dedb227aeba6ae388c7274760c719d5a164736f6c634300081b000a",
  "linkReferences": {},
  "deployedLinkReferences": {}
}