{
  "_format": "hh-sol-artifact-1",
  "contractName": "HonkVerifier",
  "sourceName": "contracts/HonkVerifier.sol",
  "abi": [
    {
      "inputs": [],
      "name": "PublicInputsLengthWrong",
      "type": "error"
    },
    {
      "inputs": [],
      "name": "SumcheckFailed",
      "type": "error"
    },
    {
      "inputs": [
        {
          "internalType": "bytes",
          "name": "proof",
          "type": "bytes"
        },
        {
          "internalType": "bytes32[]",
          "name": "publicInputs",
          "type": "bytes32[]"
        }
      ],
      "name": "verify",
      "outputs": [
        {
          "internalType": "bool",
          "name": "",
          "type": "bool"
        }
      ],
      "stateMutability": "view",
      "type": "function"
    }
  ],
  "bytecode": "0x6080604052348015600e575f5ffd5b50613f718061001c5f395ff3fe608060405234801561000f575f5ffd5b5060043610610029575f3560e01c8063ea50d0e41461002d575b5f5ffd5b61004061003b366004613caf565b610054565b604051901515815260200160405180910390f35b5f5f61005e61012d565b90505f61006b8787610142565b604083015190915084146100925760405163fa06659360e01b815260040160405180910390fd5b5f6100a38287878660400151610745565b90506100f08686808060200260200160405190810160405280939291908181526020018383602002808284375f9201919091525050505060608301516080840151865160408701516107cb565b6101008201525f6101018383610899565b905080610121576040516313f8744360e31b815260040160405180910390fd5b98975050505050505050565b6101356138f6565b61013d610955565b905090565b61014a613a73565b610152613a73565b61015f60205f8587613d73565b61016891613d9a565b8152610178604060208587613d73565b61018191613d9a565b6020820152610194606060408587613d73565b61019d91613d9a565b604080830191909152805160808082019092529081906101c09060608789613d73565b6101c991613d9a565b81526020016101dc60a060808789613d73565b6101e591613d9a565b81526020016101f860c060a08789613d73565b61020191613d9a565b815260200161021460e060c08789613d73565b61021d91613d9a565b9052606082015260408051608081019091528061023f61010060e08789613d73565b61024891613d9a565b815260200161025d6101206101008789613d73565b61026691613d9a565b815260200161027b6101406101208789613d73565b61028491613d9a565b81526020016102996101606101408789613d73565b6102a291613d9a565b9052608080830191909152604080519182019052806102c76101806101608789613d73565b6102d091613d9a565b81526020016102e56101a06101808789613d73565b6102ee91613d9a565b81526020016103036101c06101a08789613d73565b61030c91613d9a565b81526020016103216101e06101c08789613d73565b61032a91613d9a565b905260a082015260408051608081019091528061034d6102006101e08789613d73565b61035691613d9a565b815260200161036b6102206102008789613d73565b61037491613d9a565b81526020016103896102406102208789613d73565b61039291613d9a565b81526020016103a76102606102408789613d73565b6103b091613d9a565b90526101008201526040805160808101909152806103d46102806102608789613d73565b6103dd91613d9a565b81526020016103f26102a06102808789613d73565b6103fb91613d9a565b81526020016104106102c06102a08789613d73565b61041991613d9a565b815260200161042e6102e06102c08789613d73565b61043791613d9a565b905261012082015260408051608081019091528061045b6103006102e08789613d73565b61046491613d9a565b81526020016104796103206103008789613d73565b61048291613d9a565b81526020016104976103406103208789613d73565b6104a091613d9a565b81526020016104b56103606103408789613d73565b6104be91613d9a565b905260c08201526040805160808101909152806104e16103806103608789613d73565b6104ea91613d9a565b81526020016104ff6103a06103808789613d73565b61050891613d9a565b815260200161051d6103c06103a08789613d73565b61052691613d9a565b815260200161053b6103e06103c08789613d73565b61054491613d9a565b90526101408201526040805160808101909152806105686104006103e08789613d73565b61057191613d9a565b81526020016105866104206104008789613d73565b61058f91613d9a565b81526020016105a46104406104208789613d73565b6105ad91613d9a565b81526020016105c26104606104408789613d73565b6105cb91613d9a565b905260e08201526104605f5b601c811015610698575f60086105ee836020613dcb565b6105f89190613dcb565b6106029084613de2565b90505f5b600881101561068e575f61061b826020613dcb565b6106259084613de2565b90505f610633826020613de2565b905061065261064482848c8e613d73565b61064d91613d9a565b61125b565b87610160015186601c811061066957610669613df5565b6020020151846008811061067f5761067f613df5565b60200201525050600101610606565b50506001016105d7565b506106a56008601c613dcb565b6106b0906020613dcb565b6106ba9082613de2565b90505f5b602c811015610722575f6106d3826020613dcb565b6106dd9084613de2565b90505f6106eb826020613de2565b90506106fc61064482848a8c613d73565b85610180015184602c811061071357610713613df5565b602002015250506001016106be565b5061072f602c6020613dcb565b6107399082613de2565b50909150505b92915050565b61074d613b0e565b5f61075a86868686611273565b60408601919091526020850191909152908352905061077981876116c1565b6080850191909152606084019190915290506107958187611794565b60a084019190915290506107a881611912565b60c084019190915290506107bc8682611973565b5060e083015250949350505050565b5f600180826107ef876107ea8a6107e561064d8a8c613de2565b611a47565b611a60565b90505f61080d886108088b6107e561064d8b6001613de2565b611a79565b90505f5b6003811015610880575f61083d8c838151811061083057610830613df5565b602002602001015161125b565b905061084d866107e58684611a60565b955061085d856107e58584611a60565b9450610869848c611a60565b9350610875838c611a79565b925050600101610811565b5061088b8484611aa8565b9a9950505050505050505050565b5f806001815b600a811015610938575f86610160015182601c81106108c0576108c0613df5565b602002015190505f6108d28286611abd565b9050806108f2576040516313f8744360e31b815260040160405180910390fd5b5f8760e0015184601c811061090957610909613df5565b6020020151905061091a8382611ae0565b955061092888868387611d03565b945050505080600101905061089f565b505f610945868684611d3f565b90508281145b9695505050505050565b61095d6138f6565b50604080516103c0810182526104008152600a602080830191909152600382840152825180840184527eb3190e8000007fffeb507b6000005642b3190f4000007fffb3190f6000007f81527f0df5c83cda07df85a921bc7d287946ac0a62503694c70b9416105c9d058f0e1c818301526060830152825180840184527f0d1506490689541e98f1f8d4f86bd0a174158b3edebb3f8fba495d6776c81dd481527f04bf67642f9cb5cae25d0d4541963a373b4b9b6192164d131ff93ca1d838e612818301526080830152825180840184527f0b463bd213fb00a0599415b7c3cf9fdd1a338671e020bb8823c4b13f82d88c7881527f0b14e66c907346d262d51d12d0a28bd88de73a60dd9641f4acfa45fadef355588183015260a0830152825180840184527f04becec1e7ddace2ecf6b30ded5c6239350589cc159fb98bda73713b714f934b81527f13543c17ae32a3aa6d2c245614c0d26e32310494abf6947fbd8e1bda11d6758a8183015260c0830152825180840184527f1a9f3d944f111c5bb7094456f42d290ace26f7fd3a3460fdcc33f80c3e4a447481527f022fa748d992f2b84b4b629ae1c6e41b59218726148a87d8022789a5662a85868183015260e0830152825180840184527f09714c9f0a891065bb52d6c304ef5c2558e742a33072e9e1b79518b91e585bda81527f1e7b4ba2b47e469c3ae87ff3a7b618eaf952e741382a1787bd64c6c1e5d63aa581830152610100830152825180840184527f1422471438e8eedb1508693bfec7521ea239a5f49e80bd2e3cd5c9c017c0377181527f0218658427fc06849baeb81a98ef3f0079973e160c09ac639403f9e6ace1d78281830152610120830152825180840184527f2f07f55920eaef9737be4551afce180ab936103785b00e61653507de883b702881527f28fec5858febaa2e518c10630fb87a81b91e81264880a30d3b439f39c67c892e81830152610140830152825180840184527f26cb7850464cb69e3c10a450b0f2bc806033837db5abd2ec4779f747c5acb56d81527f25a402873e6d505817c8ff2fd2f416f4c81407185739975f30ec3f3970a389d381830152610160830152825180840184527f2ae9500b69741a7ebb15f977dd4860ec9580ace8f1df1a4e68455bf3f203584d81527f0ca676a1ba42884a6ac90783f5b1f00c8e60283444ec398ae112fcf9186e8fad81830152610180830152825180840184527f073d8149467481a0dfdb33d0070e8666cf835c47ce426059a1971eb11a7b9a1181527f025e79c24bf540f3e5b7318fb4f0d6a2a903fb43f4b19fb14310f1cd07370fd8818301526101a0830152825180840184527f3001b38352ded01e73f671c170f9477897164fa2c7e3d244d84b2af3e5c0301281527f163c3833f7d890ba3533f58352aa4bb3dc5f486772cf53eefb3b0793235f8662818301526101c0830152825180840184527f0b3e4c9269d8d66f23cd9e2211ff0723d0d971771adb8b7989dfa691dc87b3a881527f2a509f70ce7874b337ab59c7d115462f9d735d72c77ee5eda28b665a9f52ffc8818301526101e0830152825180840184527f0cc648f97c66aa0e92a60d36e530caa41b8c19b3a51b21a28421237ab040e92b81527f0e14fc0f25de3c78857461e17438a34b1da35c5d4bcfb2533ce7396660d5aef181830152610200830152825180840184527f2b8c2308345553c877bdfc7f9cc53e668743c98e96efd9212f129e316fe67f5181527f0db517943039e3580dbc643856f8b69986c0f13ad052e9f869fd9fcd6010656381830152610220830152825180840184527f192a18aa1479c6626f1a61c2fbd0ec97dcaa4812a9c0c5280a8b287219b72b0781527f1d146424c349f6274be4a87759e2be2a75a91b6a4065c12380603c908bbc60d681830152610240830152825180840184527f220b1a60cb1ac67aaa1e7d0f4901d25ddc609b00f81099d12be2fd9da8a1f9b981527f0a4b6aa2995c5a1e67304c09ff0cef0ab77df45c1228d537242f12c5510198f181830152610260830152825180840184527f0339ad46d037199db9541f73c57f89924706a88a0213231d27f2bdee567f158081527f2903e281ab7d37f44003395d7d3780ee82be14f8525571210cb2b066e6988a4c81830152610280830152825180840184527f1be70756bf0bee42deb402d5f533eca8dce97580013477589767e56e89ec644281527f0c0cbb27026ce412b028915c76dddb624c0d08421b39c1d6ae71895dd004e293818301526102a0830152825180840184527f16a9b0de1414dce2fe1893d43915e4f8ce1bbe143600c904c1d57c4e5cdd0c8b81527f0467202acf7fa51350a62b32fe6ad11b554d5c296accd4b069496203696244fd818301526102c0830152825180840184527f2d0fec46f14c67ecc45ffe344975f2b93d7b04ee884a9697a5067bbead79662d81527f0fdc92d1776ab0420b13ec1bb45868e733d956a20dae500c3880313175476e9d818301526102e0830152825180840184527f24a1917c40b3c64fb01eb52f3c382538088ebe89cac97e595ac4c39e0ee4e1cb81527f1d6150d9dc971d7823ef94227c8cfcc28126b17a41ffab50bc11bc7deea1c35081830152610300830152825180840184527f0c1516f2bfb319a04bec8fffda098bff3b136169a0d486eedce0f270b4fbcd3581527f1dd45ef1d22bdb25df8cfd84ca1c4ba045cea845475af3511ab513931db4421c81830152610320830152825180840184527f15a841940fa8ff3c4aa4627d883ff97f42293b19e10aeba4adc5ffb0aa8a14a481527f1bb2379128e51ba96a5d97b0ae7e464b42e83bb1dfb357b9422b022d30b96a8381830152610340830152825180840184527f035d60b4c16bc8b1f53edb885fb70d273ba24f00cb37def0932360e808c6373281527f07adf2244b3f7005b051c9572b12f4791e8f96d3a953b009f37526f958d9e5b081830152610360830152825180840184527f0c44db7f7ade1790d76b7e2b33e4dc53c0323a96bea6768049fd27df98a7cd5f81527f1b8a554cfce5e988ff2c829c34389c11ea8ef23e09cc6cb43dd5c1d51ae0db3a8183015261038083015282518084019093527f1737631a3d9cbfac8f5f7492fcfd4f44d0fd2add2f1c6ae587bee7d24f0605728352600160f81b908301526103a081019190915290565b5f61073f5f516020613f1c5f395f51905f5283613e1d565b5f80808080611283600380613de2565b61128e90600c613de2565b6001600160401b038111156112a5576112a5613e30565b6040519080825280602002602001820160405280156112ce578160200160208202803683370190505b509050885f01515f1b815f815181106112e9576112e9613df5565b60200260200101818152505088602001515f1b8160018151811061130f5761130f613df5565b60200260200101818152505088604001515f1b8160028151811061133557611335613df5565b60209081029190910101525f5b60038110156113955788888281811061135d5761135d613df5565b90506020020135828260036113729190613de2565b8151811061138257611382613df5565b6020908102919091010152600101611342565b50606089015151816113a8600380613de2565b815181106113b8576113b8613df5565b60209081029190910181019190915260608a01510151816113da600380613de2565b6113e5906001613de2565b815181106113f5576113f5613df5565b602090810291909101015260608901516040015181611415600380613de2565b611420906002613de2565b8151811061143057611430613df5565b60209081029190910101526060808a015101518161144f600380613de2565b61145a906003613de2565b8151811061146a5761146a613df5565b602090810291909101015260808901515181611487600380613de2565b611492906004613de2565b815181106114a2576114a2613df5565b60209081029190910181019190915260808a01510151816114c4600380613de2565b6114cf906005613de2565b815181106114df576114df613df5565b6020908102919091010152608089015160400151816114ff600380613de2565b61150a906006613de2565b8151811061151a5761151a613df5565b60209081029190910101526080890151606001518161153a600380613de2565b611545906007613de2565b8151811061155557611555613df5565b602090810291909101015260a08901515181611572600380613de2565b61157d906008613de2565b8151811061158d5761158d613df5565b60209081029190910181019190915260a08a01510151816115af600380613de2565b6115ba906009613de2565b815181106115ca576115ca613df5565b602090810291909101015260a089015160400151816115ea600380613de2565b6115f590600a613de2565b8151811061160557611605613df5565b602090810291909101015260a08901516060015181611625600380613de2565b61163090600b613de2565b8151811061164057611640613df5565b60200260200101818152505061167b816040516020016116609190613e44565b6040516020818303038152906040528051906020012061125b565b915061168682611dba565b60408051602081018690529297509095506116a19101611660565b91505f6116ad83611dba565b50959a949950949750909550919350505050565b5f5f5f6116cc613b6c565b8581526101008581018051516020808501919091528151810151604080860191909152825181015160608087019190915292518301516080860152610120808a0180515160a0880152805184015160c080890191909152815184015160e08901529051850151958701959095529389018051519486019490945283518201516101408601528351810151610160860152925190910151610180840152905161177a9161166091849101613e79565b915061178582611dba565b90979096509194509092505050565b61179c613b8b565b5f6117a5613baa565b8481526101408401805151602080840191909152815181015160408085019190915282518101516060808601919091529251830151608085015260e080880180515160a0870152805184015160c08701528051830151918601919091525190920151610100840152905161181f9161166091849101613ead565b915061182a82611dba565b6020850152835260015b61184060026019613ee1565b8110156118c05761185d8360405160200161166091815260200190565b925061186883611dba565b85611874846002613dcb565b6019811061188457611884613df5565b6020020186611894856002613dcb565b61189f906001613de2565b601981106118af576118af613df5565b602002019190915252600101611834565b506118d78260405160200161166091815260200190565b91505f6118e383611dba565b856118f060016019613ef4565b6019811061190057611900613df5565b60200201919091525050509250929050565b61191a613bc9565b5f805b601c81101561196c5761193c8460405160200161166091815260200190565b93505f61194885611dba565b8584601c811061195a5761195a613df5565b6020020191909152505060010161191d565b5090929050565b61197b613bc9565b5f805b601c811015611a3e5761198f613baa565b8481525f5b60088110156119f85786610160015183601c81106119b4576119b4613df5565b602002015181600881106119ca576119ca613df5565b6020020151826119db836001613de2565b600981106119eb576119eb613df5565b6020020152600101611994565b50611a0d816040516020016116609190613ead565b94505f611a1986611dba565b8685601c8110611a2b57611a2b613df5565b602002019190915250505060010161197e565b50909391925050565b5f5f516020613f1c5f395f51905f528284099392505050565b5f5f516020613f1c5f395f51905f528284089392505050565b5f5f516020613f1c5f395f51905f52611a9f835f516020613f1c5f395f51905f52613ef4565b84089392505050565b5f611ab6836107e584611dea565b9392505050565b81515f908190611ad5908560015b6020020151611a60565b929092149392505050565b5f5f6040518061010001604052807f30644e72e131a029b85045b68181585d2833e84879b9709143e1f593efffec5181526020016102d081526020017f30644e72e131a029b85045b68181585d2833e84879b9709143e1f593efffff118152602001609081526020017f30644e72e131a029b85045b68181585d2833e84879b9709143e1f593efffff71815260200160f081526020017f30644e72e131a029b85045b68181585d2833e84879b9709143e1f593effffd3181526020016113b081525090505f6040518061010001604052805f8152602001600181526020016002815260200160038152602001600481526020016005815260200160068152602001600781525090505f600190505f5b6008811015611c1057611c06826107e58884611a79565b9150600101611bef565b50611c19613be8565b5f5b6008811015611c90575f858260088110611c3757611c37613df5565b60200201519050611c62816107e58a888660088110611c5857611c58613df5565b6020020151611a79565b9050611c6d81611dea565b905080838360088110611c8257611c82613df5565b602002015250600101611c1b565b505f5b6008811015611ced575f888260088110611caf57611caf613df5565b60200201519050611cd681848460088110611ccc57611ccc613df5565b6020020151611a47565b9050611ce28782611a60565b965050600101611c93565b50611cf88583611a47565b979650505050505050565b5f5f611d3360016107ea866107e58a60c0015188601c8110611d2757611d27613df5565b60200201516001611a79565b905061094b8582611a47565b6101808301515f90611d4f613c07565b611d5a828286611e53565b611d6682868387611fef565b611d72828683876121d8565b611d7d8282866123d4565b611d888282866125bc565b611d9482868387612905565b611da08286838761319f565b611dac82868387613564565b61094b818660a00151613861565b5f80826001600160801b038116608082901c611dd58261125b565b9450611de08161125b565b9350505050915091565b5f5f8290505f604051602081526020808201526020604082015282606082015260025f516020613f1c5f395f51905f520360808201525f516020613f1c5f395f51905f5260a082015260205f60c08360055afa905080611e48575f5ffd5b50505f519392505050565b5f611e5f8460066138c6565b90505f611e705f6108086002611dea565b90505f611eb0611eaa611e84856003611a79565b6107e5611e9f611e948b5f6138c6565b6107e58c601c6138c6565b6107e58b601b6138c6565b83611a47565b9050611f31611f26611f0d611ef4611edb856107ea611ed08d60026138c6565b6107e58e601b6138c6565b6107ea611ee98c60036138c6565b6107e58d601c6138c6565b6107ea611f028b60046138c6565b6107e58c601d6138c6565b6107ea611f1b8a60056138c6565b6107e58b601e6138c6565b6107ea8860016138c6565b9050611f50816107ea611f45866001611a79565b6107e58a602a6138c6565b9050611f5c8184611a47565b9050611f688185611a47565b8552505f9050611fa2611f98611f8d611f8288601b6138c6565b6107ea89601e6138c6565b6108088860276138c6565b6107ea875f6138c6565b9050611fb3816107e5846002611a79565b9050611fc4816107e5846001611a79565b9050611fd08183611a47565b9050611fdc8184611a47565b9050808460015b60200201525050505050565b5f5f5f61202561201b61200389601b6138c6565b6107ea6120118b60116138c6565b8a60600151611a47565b8760800151611a60565b905061205e816107e561205461203c8b601c6138c6565b6107ea61204a8d60126138c6565b8c60600151611a47565b8960800151611a60565b9050612083816107e56120546120758b601d6138c6565b6107ea61204a8d60136138c6565b90506120a8816107e561205461209a8b601e6138c6565b6107ea61204a8d60146138c6565b92505f90506120cc61201b6120be89601b6138c6565b6107ea6120118b600d6138c6565b90506120f1816107e56120546120e38b601c6138c6565b6107ea61204a8d600e6138c6565b9050612116816107e56120546121088b601d6138c6565b6107ea61204a8d600f6138c6565b905061213b816107e561205461212d8b601e6138c6565b6107ea61204a8d60106138c6565b91505f905061216261215c61215189601f6138c6565b6107ea8a60196138c6565b84611a47565b9050612198816108086121926121798b602b6138c6565b6107ea6121878d601a6138c6565b8c6101000151611a47565b85611a47565b90506121a48185611a47565b6040860152505f6121c76121926121bc89601a6138c6565b6107e58a602b6138c6565b606090950194909452505050505050565b5f5f61223661221e6122066121f16120548a60156138c6565b6107ea6121ff8b60166138c6565b8a51611a47565b6107ea6122148a60176138c6565b8960200151611a47565b6107ea61222c8960186138c6565b8860400151611a47565b91505f61226d61225461224a89601b6138c6565b8860800151611a60565b6107ea6122628a60036138c6565b6107e58b60276138c6565b90505f61229661227e89601c6138c6565b6107ea61228b8b5f6138c6565b6107e58c60286138c6565b90505f6122c06122a78a601d6138c6565b6107ea6122b58c60016138c6565b6107e58d60296138c6565b90506122ff6122e76122d9856107ea868d5f0151611a47565b6107ea848c60200151611a47565b6107ea6122f58c60046138c6565b8b60400151611a47565b93505050505f61231361215c8860206138c6565b90505f61232461215c8960206138c6565b90505f61235c6123436123388b60226138c6565b6107ea8c600a6138c6565b6108086123518c60226138c6565b6107e58d600a6138c6565b90505f61238061237a61236f8789611a47565b6107e58d60206138c6565b83611a79565b905061238c8188611a47565b90505f6123b46123a66123a08d600a6138c6565b87611a47565b6108086123a08e60216138c6565b60808a018390529050808960055b60200201525050505050505050505050565b5f6123e05f6001611a79565b90505f6123ee5f6002611a79565b90505f6123fc5f6003611a79565b90505f61241861240d88601c6138c6565b61080889601b6138c6565b90505f61243461242989601d6138c6565b6108088a601c6138c6565b90505f6124506124458a601e6138c6565b6108088b601d6138c6565b90505f61246c6124618b60276138c6565b6108088c601e6138c6565b90508361247d816107e5818b611a60565b905061248d816107e5878a611a60565b905061249d816107e58789611a60565b90506124ae816107e58d60076138c6565b90506124ba818a611a47565b60c08b015250826124cf816107e5818b611a60565b90506124df816107e5868a611a60565b90506124ef816107e58689611a60565b9050612500816107e58d60076138c6565b905061250c818a611a47565b60e08b01525081612521816107e5818b611a60565b9050612531816107e5858a611a60565b9050612541816107e58589611a60565b9050612552816107e58d60076138c6565b905061255e818a611a47565b6101008b01525080612574816107e5818b611a60565b9050612584816107e5848a611a60565b9050612594816107e58489611a60565b90506125a5816107e58d60076138c6565b90506125b1818a611a47565b9050808a60096123c2565b6125f56040518060e001604052805f81526020015f81526020015f81526020015f81526020015f81526020015f81526020015f81525090565b61260084601c6138c6565b815261260d84601d6138c6565b602082015261261d8460276138c6565b604082015261262d84602a6138c6565b606082015261263d8460296138c6565b608082015261264d8460286138c6565b60a08201525f61265e8560026138c6565b90505f61266b865f6138c6565b90505f61267f8460400151855f0151611a79565b90505f61269485602001518660200151611a47565b606086015190915086905f906126aa9080611a47565b90505f6126c86126c289602001518a60600151611a47565b88611a47565b90505f6126e76126e08a60a001518b60400151611a60565b8a51611a60565b90506126f66123a08288611a47565b905061271d61271761271161270b8487611a79565b88611a79565b84611a60565b83611a60565b905061274561273a61272f8387611a47565b6107e58f60086138c6565b6107e560018a611a79565b6101408c015250505050602085015160808601515f9161276491611a60565b90505f612782612778886060015188611a47565b8860200151611a79565b90505f6127a66127928487611a47565b6107ea6121928b60a001518c5f0151611a79565b90506127ce6127c36127b8838c611a47565b6107e58e60086138c6565b6107e5600189611a79565b6101608b0152505f91506127ef90506127e8836011611a60565b8751611a47565b90505f6127fc8384611a60565b90506128088182611a60565b90505f612816836009611a47565b905061283f61283961215c6128328b60a001518c5f0151611a60565b8b51611a60565b82611a79565b60c089018190525f9061285a906126c29061272f908d611a47565b905061286d8b600a602002015182611a60565b6101408c0152505086515f925061289491506127e89061288d9080611a60565b8851611a60565b90505f6128d46128af836107e58a5f01518b60a00151611a79565b6020890151610808906128c29080611a60565b6107e58b602001518c60800151611a60565b90506128f189600b60200201516107ea6126c261272f858d611a47565b89600b602002015250505050505050505050565b612999604051806102c001604052805f81526020015f81526020015f81526020015f81526020015f81526020015f81526020015f81526020015f81526020015f81526020015f81526020015f81526020015f81526020015f81526020015f81526020015f81526020015f81526020015f81526020015f81526020015f81526020015f81526020015f81526020015f81525090565b6129ce6129b56129aa87601b6138c6565b6107e58860286138c6565b6107ea6129c38860276138c6565b6107e589601c6138c6565b8152612a13612a086129ef6129e488601b6138c6565b6107e589601e6138c6565b6107ea6129fd89601c6138c6565b6107e58a601d6138c6565b6108088760296138c6565b60408201819052612a2890600160441b611a47565b60408201819052612a3e9061080887602a6138c6565b604082018190528151612a519190611a60565b60408201819052612a67906107e58760056138c6565b60408201528051612a7c90600160441b611a47565b808252612a9c906107ea612a918860276138c6565b6107e58960286138c6565b80825260208201819052612ab890610808611f8288601d6138c6565b60208201819052612ace906107e58760046138c6565b6020820152805160608201819052612aeb906107ea87601e6138c6565b60608201819052612b0f90610808612b048860296138c6565b6107ea89602a6138c6565b60608201819052612b24906107e5875f6138c6565b8160600181815250505f612b4d612b4383602001518460400151611a60565b8360600151611a60565b9050612b5e816107e58860036138c6565b9050612b76612b6e8760286138c6565b614000611a47565b60808301819052612b8c906107ea8860276138c6565b60808301819052612b9f90614000611a47565b60808301819052612bb5906107ea88601d6138c6565b60808301819052612bc890614000611a47565b60808301819052612bde906107ea88601c6138c6565b60808301819052612bf190614000611a47565b60808301819052612c07906107ea88601b6138c6565b60808301819052612c1d9061080888601e6138c6565b60808301819052612c33906107e58860056138c6565b6080830152612c46612b6e8760296138c6565b60a08301819052612c5c906107ea8860286138c6565b60a08301819052612c6f90614000611a47565b60a08301819052612c85906107ea8860276138c6565b60a08301819052612c9890614000611a47565b60a08301819052612cae906107ea88601e6138c6565b60a08301819052612cc190614000611a47565b60a08301819052612cd7906107ea88601d6138c6565b60a08301819052612ced9061080888602a6138c6565b60a08301819052612d02906107e5885f6138c6565b60a0830181905260808301515f91612d1a9190611a60565b9050612d2b816107e58960046138c6565b9050612d45612d3b88601d6138c6565b8760400151611a47565b60c08401819052612d5e906107ea6122148a601c6138c6565b60c08401819052612d7e906107ea612d778a601b6138c6565b8951611a47565b60c08401819052612d94906107ea8960016138c6565b60c0840181905260e08401819052612db19061080889601e6138c6565b60c0840152612dc461240d8860276138c6565b610140840152612de3612dd888602a6138c6565b61080889601e6138c6565b610120840152610140830151612e0890612dfd9080611a47565b846101400151611a79565b610280840152610140830151612e4a90612e3f90612e38906107e560015f516020613f1c5f395f51905f52613ef4565b6001611a60565b846101200151611a47565b6101608401819052612e8190612e73906107e5612e688b60026138c6565b6107e58c60036138c6565b6107e56123a08a60096138c6565b6101a0860152610280830151612ea390612e73906107e5612e688b60026138c6565b6101c086015260c0830151612ecb906107e5612ec08a60026138c6565b6107e58b60036138c6565b6101e08401525f612eea612ee089601e6138c6565b8560e00151611a79565b9050612ef96128398283611a47565b6101a0850152612f0d61222c8960296138c6565b6101008501819052612f31906107ea612f278b60286138c6565b8a60200151611a47565b6101008501819052612f4b906107ea6121ff8b60276138c6565b610100850152612f6a612f5f89602a6138c6565b856101000151611a79565b6101008501525f612f7f6124458a60296138c6565b9050612fd3612fad611eaa612e3888610140015160015f516020613f1c5f395f51905f526107e59190613ef4565b6107e5612e3888610100015160015f516020613f1c5f395f51905f526107e59190613ef4565b610180860152610100850151612ff890612fed9080611a47565b866101000151611a79565b6101c086015261018085015161302b90613017906107e58c60066138c6565b6107e56130258c60096138c6565b89611a47565b6101e088015261028085015161304a90613017906107e58c60066138c6565b6102008801526101c085015161306990613017906107e58c60066138c6565b6102208801526101a0850151613084906107e58b60066138c6565b6102008601526130a36130988a60286138c6565b6108088b601c6138c6565b6102208601526101408501516130e290612445906130d790612e38906107e560015f516020613f1c5f395f51905f52613ef4565b876102200151611a47565b61024086018190526101e08601516102608701819052613119916107ea906107e561310e8e60056138c6565b6107e58f60026138c6565b610260860181905260c086015161313c91906107ea906107e561310e8e5f6138c6565b61026086018190526102008601516131549190611a60565b610260860181905261316a906127119086611a60565b6102a08601819052613184906107e56130258c60096138c6565b6102a0860181905287600c6020020152505050505050505050565b6132156040518061022001604052805f81526020015f81526020015f81526020015f81526020015f81526020015f81526020015f81526020015f81526020015f81526020015f81526020015f81526020015f81526020015f81526020015f81526020015f81526020015f81526020015f81525090565b61322e61322386601b6138c6565b6107ea8760026138c6565b815261324961323e86601c6138c6565b6107ea8760036138c6565b602082015261326761325c86601d6138c6565b6107ea8760046138c6565b604082015261328561327a86601e6138c6565b6107ea8760056138c6565b606082015280516132b7906132b0906132a9906132a29080611a47565b8451611a47565b8351611a47565b8251611a47565b608082015260208101516132f5906132eb906132e1906132d79080611a47565b8460200151611a47565b8360200151611a47565b8260200151611a47565b60a08201526040810151613333906133299061331f906133159080611a47565b8460400151611a47565b8360400151611a47565b8260400151611a47565b60c08201526060810151613371906133679061335d906133539080611a47565b8460600151611a47565b8360600151611a47565b8260600151611a47565b60e0820152608081015160a082015161338a9190611a60565b61010082015260c081015160e08201516133a49190611a60565b61012082015260a08101516133c8906133bd9080611a60565b826101200151611a60565b61014082015260e08101516133ec906133e19080611a60565b826101000151611a60565b6101608201526101208101516134029080611a60565b6101e08201819052613423906134189080611a60565b826101600151611a60565b6101e08201526101008101516134399080611a60565b6101a0820181905261345a9061344f9080611a60565b826101400151611a60565b6101a0820181905261016082015161347191611a60565b6101808201526101408101516101e082015161348d9190611a60565b6101c08201526134a1611eaa86600b6138c6565b61020082018190526102408401516101808301516134cc926107ea916107e5906108088b60276138c6565b83601260200201526134fc83601360200201516107ea8361020001516107e5856101a001516108088b60286138c6565b836013602002015261352c83601460200201516107ea8361020001516107e5856101c001516108088b60296138c6565b836014602002015261355c83601560200201516107ea8361020001516107e5856101e001516108088b602a6138c6565b836015611fe3565b6135b66040518061016001604052805f81526020015f81526020015f81526020015f81526020015f81526020015f81526020015f81526020015f81526020015f81526020015f81526020015f81525090565b5f60405180608001604052806135eb7f10dc6e9c006ea38b04b1e03b4bd9490c0d03f98929ca1d7fb56821fd19d3b6e761125b565b81526020016136197f0c28145b6a44df3e0149b3d0a30b3bb599df9756d4dd9b84a86b38cfb45a740b61125b565b81526020016136467e544b8338791518b2c7645a50392798b21f75bb60e3596170067d00141cac1561125b565b81526020016136747f222c01175718386f2e2e82eb122789e352e105a3b8fa852613bc534433ee428b61125b565b9052905061369161368687601b6138c6565b6107ea8860026138c6565b61012083018190526136c5906136ba90612e3f906136af9080611a47565b856101200151611a47565b836101200151611a47565b82526136d286601c6138c6565b60208301526136e286601d6138c6565b60408301526136f286601e6138c6565b60608301528151602083015161371a91612b43916137109190611a60565b8460400151611a60565b608083015261372d61215c87600c6138c6565b610140830152815161374e9061374490835f611ccc565b8360800151611a60565b60a083015261377a84601660200201516107ea8461014001516107e58660a001516108088c60276138c6565b6102c085015260208201516137959061374490836001611ccc565b60c08301526137c184601760200201516107ea8461014001516107e58660c001516108088c60286138c6565b6102e085015260408201516137dc9061374490836002611ccc565b60e083015261380884601860200201516107ea8461014001516107e58660e001516108088c60296138c6565b61030085015260608201516138239061374490836003611ccc565b61010083015261385184601960200201516107ea8461014001516107e58661010001516108088c602a6138c6565b8460196020020152505050505050565b5f61386d818481611acb565b905060015b601a8110156138bf576138b5826107ea8684601a811061389457613894613df5565b6020020151866138a5600187613ef4565b60198110611ccc57611ccc613df5565b9150600101613872565b5092915050565b5f8282602b8111156138da576138da613f07565b602c81106138ea576138ea613df5565b60200201519392505050565b604051806103c001604052805f81526020015f81526020015f815260200161391c613c26565b8152602001613929613c26565b8152602001613936613c26565b8152602001613943613c26565b8152602001613950613c26565b815260200161395d613c26565b815260200161396a613c26565b8152602001613977613c26565b8152602001613984613c26565b8152602001613991613c26565b815260200161399e613c26565b81526020016139ab613c26565b81526020016139b8613c26565b81526020016139c5613c26565b81526020016139d2613c26565b81526020016139df613c26565b81526020016139ec613c26565b81526020016139f9613c26565b8152602001613a06613c26565b8152602001613a13613c26565b8152602001613a20613c26565b8152602001613a2d613c26565b8152602001613a3a613c26565b8152602001613a47613c26565b8152602001613a54613c26565b8152602001613a61613c26565b8152602001613a6e613c26565b905290565b604051806101a001604052805f81526020015f81526020015f8152602001613a99613c3e565b8152602001613aa6613c3e565b8152602001613ab3613c3e565b8152602001613ac0613c3e565b8152602001613acd613c3e565b8152602001613ada613c3e565b8152602001613ae7613c3e565b8152602001613af4613c3e565b8152602001613b01613c62565b8152602001613a6e613c90565b6040518061014001604052805f81526020015f81526020015f81526020015f81526020015f8152602001613b40613b8b565b8152602001613b4d613bc9565b8152602001613b5a613bc9565b81526020015f81526020015f81525090565b604051806101a00160405280600d906020820280368337509192915050565b6040518061032001604052806019906020820280368337509192915050565b6040518061012001604052806009906020820280368337509192915050565b604051806103800160405280601c906020820280368337509192915050565b6040518061010001604052806008906020820280368337509192915050565b604051806103400160405280601a906020820280368337509192915050565b60405180604001604052805f81526020015f81525090565b60405180608001604052805f81526020015f81526020015f81526020015f81525090565b604051806103800160405280601c905b613c7a613be8565b815260200190600190039081613c725790505090565b604051806105800160405280602c906020820280368337509192915050565b5f5f5f5f60408587031215613cc2575f5ffd5b84356001600160401b03811115613cd7575f5ffd5b8501601f81018713613ce7575f5ffd5b80356001600160401b03811115613cfc575f5ffd5b876020828401011115613d0d575f5ffd5b6020918201955093508501356001600160401b03811115613d2c575f5ffd5b8501601f81018713613d3c575f5ffd5b80356001600160401b03811115613d51575f5ffd5b8760208260051b8401011115613d65575f5ffd5b949793965060200194505050565b5f5f85851115613d81575f5ffd5b83861115613d8d575f5ffd5b5050820193919092039150565b8035602083101561073f575f19602084900360031b1b1692915050565b634e487b7160e01b5f52601160045260245ffd5b808202811582820484141761073f5761073f613db7565b8082018082111561073f5761073f613db7565b634e487b7160e01b5f52603260045260245ffd5b634e487b7160e01b5f52601260045260245ffd5b5f82613e2b57613e2b613e09565b500690565b634e487b7160e01b5f52604160045260245ffd5b81515f90829060208501835b82811015613e6e578151845260209384019390910190600101613e50565b509195945050505050565b5f8183825b600d811015613e9d578151835260209283019290910190600101613e7e565b5050506101a08201905092915050565b5f8183825b6009811015613ed1578151835260209283019290910190600101613eb2565b5050506101208201905092915050565b5f82613eef57613eef613e09565b500490565b8181038181111561073f5761073f613db7565b634e487b7160e01b5f52602160045260245ffdfe30644e72e131a029b85045b68181585d2833e84879b9709143e1f593f0000001a2646970667358221220e22b8d2458bfdab913d4d041b86be6e25b342c8c86b9ec2ff8fd5342ca2ac27b64736f6c634300081b0033",
  "linkReferences": {},
  "deployedLinkReferences": {}
}