{
  "_format": "hh-sol-artifact-1",
  "contractName": "MedVaultAutomation",
  "sourceName": "contracts/MedVaultAutomation.sol",
  "abi": [
    {
      "inputs": [
        {
          "internalType": "address",
          "name": "_trialManager",
          "type": "address"
        },
        {
          "internalType": "address payable",
          "name": "_vault",
          "type": "address"
        }
      ],
      "stateMutability": "nonpayable",
      "type": "constructor"
    },
    {
      "anonymous": false,
      "inputs": [
        {
          "indexed": true,
          "internalType": "address",
          "name": "newOwner",
          "type": "address"
        }
      ],
      "name": "OwnershipAccepted",
      "type": "event"
    },
    {
      "anonymous": false,
      "inputs": [
        {
          "indexed": true,
          "internalType": "address",
          "name": "proposedOwner",
          "type": "address"
        }
      ],
      "name": "OwnershipProposed",
      "type": "event"
    },
    {
      "anonymous": false,
      "inputs": [
        {
          "indexed": true,
          "internalType": "uint256",
          "name": "trialId",
          "type": "uint256"
        },
        {
          "indexed": false,
          "internalType": "bool",
          "name": "distributed",
          "type": "bool"
        },
        {
          "indexed": false,
          "internalType": "bool",
          "name": "deactivated",
          "type": "bool"
        }
      ],
      "name": "TrialFinalized",
      "type": "event"
    },
    {
      "inputs": [],
      "name": "acceptOwnership",
      "outputs": [],
      "stateMutability": "nonpayable",
      "type": "function"
    },
    {
      "inputs": [
        {
          "internalType": "uint256",
          "name": "",
          "type": "uint256"
        }
      ],
      "name": "activeTrialIds",
      "outputs": [
        {
          "internalType": "uint256",
          "name": "",
          "type": "uint256"
        }
      ],
      "stateMutability": "view",
      "type": "function"
    },
    {
      "inputs": [],
      "name": "chainlinkForwarder",
      "outputs": [
        {
          "internalType": "address",
          "name": "",
          "type": "address"
        }
      ],
      "stateMutability": "view",
      "type": "function"
    },
    {
      "inputs": [
        {
          "internalType": "bytes",
          "name": "",
          "type": "bytes"
        }
      ],
      "name": "checkUpkeep",
      "outputs": [
        {
          "internalType": "bool",
          "name": "upkeepNeeded",
          "type": "bool"
        },
        {
          "internalType": "bytes",
          "name": "performData",
          "type": "bytes"
        }
      ],
      "stateMutability": "view",
      "type": "function"
    },
    {
      "inputs": [
        {
          "internalType": "uint256",
          "name": "",
          "type": "uint256"
        }
      ],
      "name": "finalized",
      "outputs": [
        {
          "internalType": "bool",
          "name": "",
          "type": "bool"
        }
      ],
      "stateMutability": "view",
      "type": "function"
    },
    {
      "inputs": [
        {
          "internalType": "uint256",
          "name": "_trialId",
          "type": "uint256"
        }
      ],
      "name": "onTrialCreated",
      "outputs": [],
      "stateMutability": "nonpayable",
      "type": "function"
    },
    {
      "inputs": [
        {
          "internalType": "uint256",
          "name": "_trialId",
          "type": "uint256"
        }
      ],
      "name": "onTrialDeactivated",
      "outputs": [],
      "stateMutability": "nonpayable",
      "type": "function"
    },
    {
      "inputs": [],
      "name": "owner",
      "outputs": [
        {
          "internalType": "address",
          "name": "",
          "type": "address"
        }
      ],
      "stateMutability": "view",
      "type": "function"
    },
    {
      "inputs": [],
      "name": "pendingOwner",
      "outputs": [
        {
          "internalType": "address",
          "name": "",
          "type": "address"
        }
      ],
      "stateMutability": "view",
      "type": "function"
    },
    {
      "inputs": [
        {
          "internalType": "bytes",
          "name": "performData",
          "type": "bytes"
        }
      ],
      "name": "performUpkeep",
      "outputs": [],
      "stateMutability": "nonpayable",
      "type": "function"
    },
    {
      "inputs": [
        {
          "internalType": "address",
          "name": "_newOwner",
          "type": "address"
        }
      ],
      "name": "proposeOwnership",
      "outputs": [],
      "stateMutability": "nonpayable",
      "type": "function"
    },
    {
      "inputs": [
        {
          "internalType": "address",
          "name": "_forwarder",
          "type": "address"
        }
      ],
      "name": "setChainlinkForwarder",
      "outputs": [],
      "stateMutability": "nonpayable",
      "type": "function"
    },
    {
      "inputs": [
        {
          "internalType": "address payable",
          "name": "_vault",
          "type": "address"
        }
      ],
      "name": "setVault",
      "outputs": [],
      "stateMutability": "nonpayable",
      "type": "function"
    },
    {
      "inputs": [],
      "name": "trialManager",
      "outputs": [
        {
          "internalType": "contract TrialManager",
          "name": "",
          "type": "address"
        }
      ],
      "stateMutability": "view",
      "type": "function"
    },
    {
      "inputs": [],
      "name": "vault",
      "outputs": [
        {
          "internalType": "contract SponsorIncentiveVault",
          "name": "",
          "type": "address"
        }
      ],
      "stateMutability": "view",
      "type": "function"
    }
  ],
  "bytecode": "0x60803460a157601f610e4738819003918201601f19168301916001600160401b0383118484101760a557808492604094855283398101031260a15780516001600160a01b038116919082900360a157602001516001600160a01b038116919082900360a157600280546001600160a01b031990811633179091555f805482169290921790915560018054909116919091179055604051610d8d90816100ba8239f35b5f80fd5b634e487b7160e01b5f52604160045260245ffdfe6080806040526004361015610012575f80fd5b5f905f3560e01c9081634585e33b146105cf575080634ddaced2146105a057806355f8cfdd146105795780636817031b146105265780636e04ff0d146104d1578063710bf3221461045157806378ed50d61461042857806379ba5097146103875780638da5cb5b1461035e578063933aaaea14610324578063d02c21b1146102c2578063d4e748bd14610239578063e30c397814610210578063f232ce92146100ee5763fbfa77cf146100c3575f80fd5b346100eb57806003193601126100eb576001546040516001600160a01b039091168152602090f35b80fd5b50346100eb5760203660031901126100eb5760043561011760018060a01b038354163314610d40565b808252600760205260408220548061012d578280f35b6006545f1981019081116101fc576101448161092b565b90549060031b1c905f198301908382116101e85781036101af575b505050600654801561019b575f19016101778161092b565b8154905f199060031b1b19169055600655815260076020528060408120555f808280f35b634e487b7160e01b83526031600452602483fd5b816101bc6101d49261092b565b90919082549060031b91821b915f19901b1916179055565b8352600760205260408320555f808061015f565b634e487b7160e01b86526011600452602486fd5b634e487b7160e01b84526011600452602484fd5b50346100eb57806003193601126100eb576003546040516001600160a01b039091168152602090f35b50346100eb5760203660031901126100eb5760043561026260018060a01b038354163314610d40565b8082526007602052604082205415610278575080f35b600654600160401b8110156102ae57816101bc82600161029b940160065561092b565b6006549082526007602052604082205580f35b634e487b7160e01b83526041600452602483fd5b50346100eb5760203660031901126100eb576004356001600160a01b03811690819003610320576102fe60018060a01b03600254163314610bbe565b610309811515610d05565b600580546001600160a01b03191691909117905580f35b5080fd5b50346100eb5760203660031901126100eb57600435906006548210156100eb57602061034f8361092b565b90549060031b1c604051908152f35b50346100eb57806003193601126100eb576002546040516001600160a01b039091168152602090f35b50346100eb57806003193601126100eb576003546001600160a01b03811690338290036103ee57600280546001600160a01b03199081168417909155166003557fb27970c1714b28277b78cc17ac2fe9556e7f048cd48358cffe3dc7d547608fdc8280a280f35b60405162461bcd60e51b81526020600482015260126024820152712737ba10383937b837b9b2b21037bbb732b960711b6044820152606490fd5b50346100eb57806003193601126100eb576005546040516001600160a01b039091168152602090f35b50346100eb5760203660031901126100eb576004356001600160a01b038116908190036103205761048d60018060a01b03600254163314610bbe565b610498811515610d05565b600380546001600160a01b031916821790557f6ab4d119f23076e8ad491bc65ce85f017fb0591dce08755ba8591059cc51737a8280a280f35b50346100eb5760606020916104e5366108dc565b50506104ef610bf7565b939091604051948593151584526040838501528051928391826040870152018585015e828201840152601f01601f19168101030190f35b50346100eb5760203660031901126100eb576004356001600160a01b038116908190036103205761056260018060a01b03600254163314610bbe565b600180546001600160a01b03191691909117905580f35b50346100eb57806003193601126100eb57546040516001600160a01b039091168152602090f35b50346100eb5760203660031901126100eb5760ff60406020926004358152600484522054166040519015158152f35b9050346107a6576105df366108dc565b909160018060a01b0360055416331480156108c8575b1561088c575081604091810103126107a65780359060ff82168092036107a6576020013590600114610625575080f35b5f8054604051631a7f3c3360e01b8152600481018490529190829060249082906001600160a01b03165afa908115610881575f9161085f575b5060a081015115610827576101e00151801515908161081c575b50156107e357805f52600460205260ff60405f2054166107aa575f818152600460205260408120805460ff19166001908117909155546001600160a01b0316803b156107a6575f80916024604051809481936391c05b0b60e01b83528860048401525af19081610791575b50610789575b825483919082906001600160a01b0316803b1561032057818091602460405180958193636e8faa0b60e11b83528a60048401525af1918261076c575b5050907f4089bb887c83f7f9f5eb4a2ae07012fcf8267ea21ac02ff4a2e69b731dbce92d92604092610764575b8251911515825215156020820152a280f35b506001610752565b8161077991949394610957565b6107855790845f610725565b8480fd5b5060016106e9565b61079e9194505f90610957565b5f925f6106e3565b5f80fd5b60405162461bcd60e51b8152602060048201526011602482015270105b1c9958591e48199a5b985b1a5e9959607a1b6044820152606490fd5b60405162461bcd60e51b8152602060048201526011602482015270151c9a585b081b9bdd08195e1c1a5c9959607a1b6044820152606490fd5b90504210155f610678565b60405162461bcd60e51b815260206004820152601060248201526f547269616c206e6f742061637469766560801b6044820152606490fd5b61087b91503d805f833e6108738183610957565b810190610a0d565b5f61065e565b6040513d5f823e3d90fd5b62461bcd60e51b815260206004820152601760248201527627b7363c903337b93bb0b93232b91037b91037bbb732b960491b6044820152606490fd5b506002546001600160a01b031633146105f5565b9060206003198301126107a6576004356001600160401b0381116107a657826023820112156107a6576004810135926001600160401b0384116107a657602484830101116107a6576024019190565b6006548110156109435760065f5260205f2001905f90565b634e487b7160e01b5f52603260045260245ffd5b601f909101601f19168101906001600160401b0382119082101761097a57604052565b634e487b7160e01b5f52604160045260245ffd5b81601f820112156107a6578051906001600160401b03821161097a57604051926109c2601f8401601f191660200185610957565b828452602083830101116107a657815f9260208093018386015e8301015290565b519081151582036107a657565b519060ff821682036107a657565b519061ffff821682036107a657565b6020818303126107a6578051906001600160401b0382116107a65701610200818303126107a6576040519161020083016001600160401b0381118482101761097a5760405281516001600160401b0381116107a65781610a6e91840161098e565b835260208201516001600160401b0381116107a65781610a8f91840161098e565b602084015260408201516001600160401b0381116107a65781610ab391840161098e565b60408401526060820151906001600160401b0382116107a657610ad791830161098e565b60608301526080810151906001600160a01b03821682036107a6576101e0916080840152610b0760a082016109e3565b60a0840152610b1860c082016109f0565b60c0840152610b2960e082016109f0565b60e0840152610b3b61010082016109e3565b610100840152610b4e61012082016109fe565b610120840152610b6161014082016109f0565b610140840152610b7461016082016109f0565b610160840152610b8761018082016109fe565b610180840152610b9a6101a082016109e3565b6101a0840152610bad6101c082016109e3565b6101c084015201516101e082015290565b15610bc557565b60405162461bcd60e51b815260206004820152600a60248201526927b7363c9037bbb732b960b11b6044820152606490fd5b6006545f80546001600160a01b031691905b818110610c29575050505f90604051610c23602082610957565b5f815290565b610c328161092b565b90549060031b1c604051631a7f3c3360e01b81528160048201525f81602481885afa908115610881575f91610ceb575b5060a081015115159081610cdc575b81610ccc575b5080610cb5575b610c8b5750600101610c09565b93925050506040519160016020840152604083015260408252610caf606083610957565b60019190565b50805f52600460205260ff60405f20541615610c7e565b6101e0915001514210155f610c77565b6101e081015115159150610c71565b610cff91503d805f833e6108738183610957565b5f610c62565b15610d0c57565b60405162461bcd60e51b815260206004820152600c60248201526b5a65726f206164647265737360a01b6044820152606490fd5b15610d4757565b60405162461bcd60e51b815260206004820152601160248201527027b7363c902a3934b0b626b0b730b3b2b960791b6044820152606490fdfea164736f6c634300081b000a",
  "linkReferences": {},
  "deployedLinkReferences": {}
}