{
  "_format": "hh-sol-artifact-1",
  "contractName": "StakingManager",
  "sourceName": "contracts/StakingManager.sol",
  "abi": [
    {
      "inputs": [
        {
          "internalType": "address payable",
          "name": "_cETH",
          "type": "address"
        }
      ],
      "stateMutability": "nonpayable",
      "type": "constructor"
    },
    {
      "inputs": [
        {
          "internalType": "int32",
          "name": "value",
          "type": "int32"
        }
      ],
      "name": "SecurityZoneOutOfBounds",
      "type": "error"
    },
    {
      "anonymous": false,
      "inputs": [
        {
          "indexed": true,
          "internalType": "address",
          "name": "newOwner",
          "type": "address"
        }
      ],
      "name": "OwnershipAccepted",
      "type": "event"
    },
    {
      "anonymous": false,
      "inputs": [
        {
          "indexed": true,
          "internalType": "address",
          "name": "proposedOwner",
          "type": "address"
        }
      ],
      "name": "OwnershipProposed",
      "type": "event"
    },
    {
      "anonymous": false,
      "inputs": [
        {
          "indexed": true,
          "internalType": "address",
          "name": "user",
          "type": "address"
        },
        {
          "indexed": false,
          "internalType": "uint256",
          "name": "amount",
          "type": "uint256"
        }
      ],
      "name": "Staked",
      "type": "event"
    },
    {
      "anonymous": false,
      "inputs": [
        {
          "indexed": true,
          "internalType": "address",
          "name": "user",
          "type": "address"
        },
        {
          "indexed": false,
          "internalType": "uint256",
          "name": "amount",
          "type": "uint256"
        }
      ],
      "name": "Unstaked",
      "type": "event"
    },
    {
      "inputs": [],
      "name": "AAVE_POOL",
      "outputs": [
        {
          "internalType": "address",
          "name": "",
          "type": "address"
        }
      ],
      "stateMutability": "view",
      "type": "function"
    },
    {
      "inputs": [],
      "name": "AWETH",
      "outputs": [
        {
          "internalType": "address",
          "name": "",
          "type": "address"
        }
      ],
      "stateMutability": "view",
      "type": "function"
    },
    {
      "inputs": [],
      "name": "WETH_GATEWAY",
      "outputs": [
        {
          "internalType": "address",
          "name": "",
          "type": "address"
        }
      ],
      "stateMutability": "view",
      "type": "function"
    },
    {
      "inputs": [],
      "name": "acceptOwnership",
      "outputs": [],
      "stateMutability": "nonpayable",
      "type": "function"
    },
    {
      "inputs": [],
      "name": "cETH",
      "outputs": [
        {
          "internalType": "contract ConfidentialETH",
          "name": "",
          "type": "address"
        }
      ],
      "stateMutability": "view",
      "type": "function"
    },
    {
      "inputs": [
        {
          "internalType": "address",
          "name": "user",
          "type": "address"
        }
      ],
      "name": "getEncryptedTotalStaked",
      "outputs": [
        {
          "internalType": "euint64",
          "name": "",
          "type": "bytes32"
        }
      ],
      "stateMutability": "view",
      "type": "function"
    },
    {
      "inputs": [],
      "name": "owner",
      "outputs": [
        {
          "internalType": "address",
          "name": "",
          "type": "address"
        }
      ],
      "stateMutability": "view",
      "type": "function"
    },
    {
      "inputs": [],
      "name": "pendingOwner",
      "outputs": [
        {
          "internalType": "address",
          "name": "",
          "type": "address"
        }
      ],
      "stateMutability": "view",
      "type": "function"
    },
    {
      "inputs": [
        {
          "internalType": "address",
          "name": "_newOwner",
          "type": "address"
        }
      ],
      "name": "proposeOwnership",
      "outputs": [],
      "stateMutability": "nonpayable",
      "type": "function"
    },
    {
      "inputs": [],
      "name": "stake",
      "outputs": [],
      "stateMutability": "payable",
      "type": "function"
    },
    {
      "inputs": [
        {
          "internalType": "uint256",
          "name": "amount",
          "type": "uint256"
        },
        {
          "internalType": "bytes",
          "name": "balanceSig",
          "type": "bytes"
        },
        {
          "internalType": "uint64",
          "name": "stakedBalance",
          "type": "uint64"
        }
      ],
      "name": "unstake",
      "outputs": [],
      "stateMutability": "nonpayable",
      "type": "function"
    },
    {
      "inputs": [
        {
          "internalType": "address",
          "name": "",
          "type": "address"
        }
      ],
      "name": "unstakeNonces",
      "outputs": [
        {
          "internalType": "uint256",
          "name": "",
          "type": "uint256"
        }
      ],
      "stateMutability": "view",
      "type": "function"
    },
    {
      "stateMutability": "payable",
      "type": "receive"
    }
  ],
  "bytecode": "0x608034607f57601f6111a538819003918201601f19168301916001600160401b03831184841017608357808492602094604052833981010312607f57516001600160a01b03811690819003607f57600180546001600160a01b03199081169290921781555f55600580549091163317905560405161110d90816100988239f35b5f80fd5b634e487b7160e01b5f52604160045260245ffdfe608080604052600436101561001c575b50361561001a575f80fd5b005b5f905f3560e01c9081630199e7f314610d9c5750806308a0167514610d6e5780632fe6ff5514610d405780633a4b66f114610a215780635abcef371461030d578063710bf3221461022f578063749a697d146101ee57806379ba50971461014d5780638da5cb5b14610124578063a1b4d011146100fb578063ae5a98ba146100d35763e30c39780361000f57346100d057806003193601126100d0576006546040516001600160a01b039091168152602090f35b80fd5b50346100d057806003193601126100d05760206040515f5160206110e15f395f51905f528152f35b50346100d057806003193601126100d0576001546040516001600160a01b039091168152602090f35b50346100d057806003193601126100d0576005546040516001600160a01b039091168152602090f35b50346100d057806003193601126100d0576006546001600160a01b03811690338290036101b457600580546001600160a01b03199081168417909155166006557fb27970c1714b28277b78cc17ac2fe9556e7f048cd48358cffe3dc7d547608fdc8280a280f35b60405162461bcd60e51b81526020600482015260126024820152712737ba10383937b837b9b2b21037bbb732b960711b6044820152606490fd5b50346100d05760203660031901126100d0576004356001600160a01b0381169081900361022b578160409160209352600483522054604051908152f35b5080fd5b50346100d05760203660031901126100d0576004356001600160a01b0381169081900361022b576005546001600160a01b031633036102db5780156102a757600680546001600160a01b031916821790557f6ab4d119f23076e8ad491bc65ce85f017fb0591dce08755ba8591059cc51737a8280a280f35b60405162461bcd60e51b815260206004820152600c60248201526b5a65726f206164647265737360a01b6044820152606490fd5b60405162461bcd60e51b815260206004820152600a60248201526927b7363c9037bbb732b960b11b6044820152606490fd5b50346100d05760603660031901126100d0576004356024356001600160401b038111610a1d5736602382011215610a1d576004810135906001600160401b0382116108035760248101906024833692010111610803576044356001600160401b0381169290839003610a195760028554146109d45760028555831561099a57633b9aca0084046001600160401b0316918284106109575733865260046020526040862054936040516020810190848483376103eb60546020838881013360601b838201528c60348201528b8482015203016034810184520182610dd5565b519020808852600360205260ff60408920541661091d578752600360205260408720600160ff19825416179055338752600260205260408720549182156108e75760209260849189856040519761044b82601f19601f840116018a610dd5565b80895280828a01948537880101526040519586948593630135f2c360e61b855260048501526024840152606060448401525180918160648501528484015e81810183018a9052601f01601f191681010301815f5160206110c15f395f51905f525afa9081156107985785916108c8575b501561088b576040516323b872dd60e01b81523360048201523060248201526044810184905260208160648188735b071b590a59395fe4025a0ccc1fcc931eac23235af190811561079857859161086c575b501561082f5760405163095ea7b360e01b81525f5160206110e15f395f51905f5260048201526024810184905260208160448188735b071b590a59395fe4025a0ccc1fcc931eac23235af1801561079857610812575b505f5160206110e15f395f51905f523b156108035783604051630402806960e51b8152736ae43d3271ff6888e7fc43fd7321a503ff73895160048201528460248201523360448201528181606481835f5160206110e15f395f51905f525af18015610807576107ee575b505060405163095ea7b360e01b81525f5160206110e15f395f51905f526004820152602481018590529060208260448188735b071b590a59395fe4025a0ccc1fcc931eac23235af19182156107985761062b926107c1575b50610f83565b9033845260026020526040842054918083156107b1575b156107a3575b60405192610657606085610dd5565b60028452604036602086013761066c8461107f565b52610676836110a0565b526106b2602080936040519061068c8383610dd5565b8782525f368137604051631888debd60e01b815293849283926007600560048601610f3f565b0381885f5160206110c15f395f51905f525af1908115610798578591610767575b50338552600283526040852055338452600282526106f5336040862054610e3d565b338452600282526107096040852054610e9f565b6001810180911161075357907f0f5bb82176feb1b5e747e28471aa92156a04d9f3ab9f45f28e2d704232b93f75913385526004825260408520556040519283523392a26001815580f35b634e487b7160e01b84526011600452602484fd5b90508281813d8311610791575b61077e8183610dd5565b8101031261078d57515f6106d3565b5f80fd5b503d610774565b6040513d87823e3d90fd5b506107ac611045565b610648565b92506107bb611045565b92610642565b6107e29060203d6020116107e7575b6107da8183610dd5565b810190610e0c565b610625565b503d6107d0565b816107f891610dd5565b61080357835f6105cd565b8380fd5b6040513d84823e3d90fd5b61082a9060203d6020116107e7576107da8183610dd5565b610563565b60405162461bcd60e51b81526020600482015260156024820152741855d15512081d1c985b9cd9995c8819985a5b1959605a1b6044820152606490fd5b610885915060203d6020116107e7576107da8183610dd5565b5f61050d565b60405162461bcd60e51b815260206004820152601560248201527424b73b30b634b2103130b630b731b290383937b7b360591b6044820152606490fd5b6108e1915060203d6020116107e7576107da8183610dd5565b5f6104bb565b60405162461bcd60e51b815260206004820152600e60248201526d139bc81cdd185ad948199bdd5b9960921b6044820152606490fd5b60405162461bcd60e51b8152602060048201526012602482015271141c9bdbd988185b1c9958591e481d5cd95960721b6044820152606490fd5b60405162461bcd60e51b815260206004820152601b60248201527a496e73756666696369656e74207374616b65642062616c616e636560281b6044820152606490fd5b60405162461bcd60e51b81526020600482015260126024820152710416d6f756e74206d757374206265203e20360741b6044820152606490fd5b60405162461bcd60e51b815260206004820152601f60248201527f5265656e7472616e637947756172643a207265656e7472616e742063616c6c006044820152606490fd5b8480fd5b8280fd5b505f36600319011261078d573415610d0a57633b9aca003406610cbb57633b9aca0034046001600160401b038111610c7d575f5160206110e15f395f51905f523b1561078d5760405163474cf53d60e01b8152736ae43d3271ff6888e7fc43fd7321a503ff73895160048201523360248201525f6044820181905281606481345f5160206110e15f395f51905f525af18015610c7257610c5b575b50610acf906001600160401b0316610f83565b3382526002602052604082205415610c495733825260026020526040822054610b6791808215610c39575b15610c2b575b60405191610b0f606084610dd5565b600283526040366020850137610b248361107f565b52610b2e826110a0565b526020809160405190610b418383610dd5565b8582525f368137604051631888debd60e01b815294859283926008600560048601610f3f565b0381865f5160206110c15f395f51905f525af1918215610c20578392610bf0575b506002903384525260408220555b3381526002602052610bac336040832054610e3d565b3381526002602052610bc16040822054610e9f565b6040513481527f9e71bc8eea02a63969f509818f2dafb9254532904319f9dbda79b67bd34a5f3d60203392a280f35b9080925081813d8311610c19575b610c088183610dd5565b8101031261078d5751906002610b88565b503d610bfe565b6040513d85823e3d90fd5b50610c34611045565b610b00565b9150610c43611045565b91610afa565b33825260026020526040822055610b96565b610c689192505f90610dd5565b5f90610acf610abc565b6040513d5f823e3d90fd5b60405162461bcd60e51b815260206004820152601660248201527514dd185ad9481bdd995c999b1bdddcc81d5a5b9d0d8d60521b6044820152606490fd5b60405162461bcd60e51b815260206004820152602160248201527f5374616b6520616d6f756e74206d75737420626520612077686f6c65204777656044820152606960f81b6064820152608490fd5b60405162461bcd60e51b815260206004820152600e60248201526d04d757374207374616b65203e20360941b6044820152606490fd5b3461078d575f36600319011261078d576020604051735b071b590a59395fe4025a0ccc1fcc931eac23238152f35b3461078d575f36600319011261078d576020604051736ae43d3271ff6888e7fc43fd7321a503ff7389518152f35b3461078d57602036600319011261078d576004356001600160a01b038116919082900361078d576020915f526002825260405f20548152f35b601f909101601f19168101906001600160401b03821190821017610df857604052565b634e487b7160e01b5f52604160045260245ffd5b9081602091031261078d5751801515810361078d5790565b9081526001600160a01b03909116602082015260400190565b5f5160206110c15f395f51905f523b1561078d57604051631974142760e21b8152915f9183918291610e73919060048401610e24565b0381835f5160206110c15f395f51905f525af18015610c7257610e935750565b5f610e9d91610dd5565b565b5f5160206110c15f395f51905f523b1561078d575f610e739160405180938192631974142760e21b8352309060048401610e24565b90602080835192838152019201905f5b818110610ef15750505090565b8251845260209384019390920191600101610ee4565b91610f2e9060ff610f3c9593168452601a6020850152608060408501526080840190610ed4565b916060818403910152610ed4565b90565b9293919060ff1683526020811015610f6f57610f3c93610f2e916020850152608060408501526080840190610ed4565b634e487b7160e01b5f52602160045260245ffd5b610ff660208092604051610f978382610dd5565b5f81525f36813760405191610fad608084610dd5565b6003835260603685850137610fc18361107f565b526005610fcd836110a0565b525f610fd8836110b0565b52604051631888debd60e01b81529384928392600560048501610f07565b03815f5f5160206110c15f395f51905f525af1918215610c72575f9261101b57505090565b90809250813d831161103e575b6110328183610dd5565b8101031261078d575190565b503d611028565b6020610ff6816040516110588282610dd5565b5f81525f3681376040519061106e608083610dd5565b60038252606036848401375f610fc1835b80511561108c5760200190565b634e487b7160e01b5f52603260045260245ffd5b80516001101561108c5760400190565b80516002101561108c576060019056fe000000000000000000000000ea30c4b8b44078bbf8a6ef5b9f1ec1626c7848d9000000000000000000000000387d311e47e80b498169e6fb51d3193167d89f7da164736f6c634300081b000a",
  "linkReferences": {},
  "deployedLinkReferences": {}
}