{
  "_format": "hh-sol-artifact-1",
  "contractName": "MockAave",
  "sourceName": "contracts/test/MockAave.sol",
  "abi": [
    {
      "inputs": [
        {
          "internalType": "address",
          "name": "spender",
          "type": "address"
        },
        {
          "internalType": "uint256",
          "name": "amount",
          "type": "uint256"
        }
      ],
      "name": "approve",
      "outputs": [
        {
          "internalType": "bool",
          "name": "",
          "type": "bool"
        }
      ],
      "stateMutability": "nonpayable",
      "type": "function"
    },
    {
      "inputs": [
        {
          "internalType": "address",
          "name": "account",
          "type": "address"
        }
      ],
      "name": "balanceOf",
      "outputs": [
        {
          "internalType": "uint256",
          "name": "",
          "type": "uint256"
        }
      ],
      "stateMutability": "view",
      "type": "function"
    },
    {
      "inputs": [
        {
          "internalType": "address",
          "name": "",
          "type": "address"
        }
      ],
      "name": "balances",
      "outputs": [
        {
          "internalType": "uint256",
          "name": "",
          "type": "uint256"
        }
      ],
      "stateMutability": "view",
      "type": "function"
    },
    {
      "inputs": [
        {
          "internalType": "address",
          "name": "pool",
          "type": "address"
        },
        {
          "internalType": "address",
          "name": "onBehalfOf",
          "type": "address"
        },
        {
          "internalType": "uint16",
          "name": "referralCode",
          "type": "uint16"
        }
      ],
      "name": "depositETH",
      "outputs": [],
      "stateMutability": "payable",
      "type": "function"
    },
    {
      "inputs": [
        {
          "internalType": "address",
          "name": "sender",
          "type": "address"
        },
        {
          "internalType": "address",
          "name": "recipient",
          "type": "address"
        },
        {
          "internalType": "uint256",
          "name": "amount",
          "type": "uint256"
        }
      ],
      "name": "transferFrom",
      "outputs": [
        {
          "internalType": "bool",
          "name": "",
          "type": "bool"
        }
      ],
      "stateMutability": "nonpayable",
      "type": "function"
    },
    {
      "inputs": [
        {
          "internalType": "address",
          "name": "pool",
          "type": "address"
        },
        {
          "internalType": "uint256",
          "name": "amount",
          "type": "uint256"
        },
        {
          "internalType": "address",
          "name": "to",
          "type": "address"
        }
      ],
      "name": "withdrawETH",
      "outputs": [],
      "stateMutability": "nonpayable",
      "type": "function"
    },
    {
      "stateMutability": "payable",
      "type": "receive"
    }
  ],
  "bytecode": "0x608080604052346015576102cb908161001a8239f35b5f80fdfe608080604052600436101561001c575b50361561001a575f80fd5b005b5f3560e01c908163095ea7b3146102005750806323b872dd1461017b57806327e235e3146100f9578063474cf53d1461013057806370a08231146100f9576380500d201461006a575f61000f565b346100f55760603660031901126100f557610083610223565b506024356044356001600160a01b038116908190036100f5575f8080938193338352826020526100b9826040852054101561024f565b33835282602052604083206100cf838254610290565b90558282156100ec575bf1156100e157005b6040513d5f823e3d90fd5b506108fc6100d9565b5f80fd5b346100f55760203660031901126100f5576001600160a01b0361011a610223565b165f525f602052602060405f2054604051908152f35b60603660031901126100f557610144610223565b5061014d610239565b60443561ffff8116036100f55760018060a01b03165f525f60205260405f206101773482546102b1565b9055005b346100f55760603660031901126100f557610194610223565b61019c610239565b6044359160018060a01b0316805f525f6020526101bf8360405f2054101561024f565b5f525f60205260405f206101d4838254610290565b905560018060a01b03165f525f6020526101f360405f209182546102b1565b9055602060405160018152f35b346100f55760403660031901126100f55760209061021c610223565b5060018152f35b600435906001600160a01b03821682036100f557565b602435906001600160a01b03821682036100f557565b1561025657565b60405162461bcd60e51b8152602060048201526012602482015271092dce6eaccccd2c6d2cadce840c2ae8aa8960731b6044820152606490fd5b9190820391821161029d57565b634e487b7160e01b5f52601160045260245ffd5b9190820180921161029d5756fea164736f6c634300081b000a",
  "linkReferences": {},
  "deployedLinkReferences": {}
}