{
  "_format": "hh-sol-artifact-1",
  "contractName": "ConfidentialETH",
  "sourceName": "contracts/ConfidentialETH.sol",
  "abi": [
    {
      "inputs": [],
      "stateMutability": "nonpayable",
      "type": "constructor"
    },
    {
      "inputs": [
        {
          "internalType": "int32",
          "name": "value",
          "type": "int32"
        }
      ],
      "name": "SecurityZoneOutOfBounds",
      "type": "error"
    },
    {
      "anonymous": false,
      "inputs": [
        {
          "indexed": true,
          "internalType": "address",
          "name": "user",
          "type": "address"
        },
        {
          "indexed": false,
          "internalType": "uint256",
          "name": "weiAmount",
          "type": "uint256"
        },
        {
          "indexed": false,
          "internalType": "uint64",
          "name": "units",
          "type": "uint64"
        }
      ],
      "name": "Deposit",
      "type": "event"
    },
    {
      "anonymous": false,
      "inputs": [
        {
          "indexed": true,
          "internalType": "address",
          "name": "from",
          "type": "address"
        },
        {
          "indexed": true,
          "internalType": "address",
          "name": "to",
          "type": "address"
        }
      ],
      "name": "EncryptedTransfer",
      "type": "event"
    },
    {
      "anonymous": false,
      "inputs": [
        {
          "indexed": true,
          "internalType": "address",
          "name": "newOwner",
          "type": "address"
        }
      ],
      "name": "OwnershipAccepted",
      "type": "event"
    },
    {
      "anonymous": false,
      "inputs": [
        {
          "indexed": true,
          "internalType": "address",
          "name": "proposedOwner",
          "type": "address"
        }
      ],
      "name": "OwnershipProposed",
      "type": "event"
    },
    {
      "anonymous": false,
      "inputs": [
        {
          "indexed": true,
          "internalType": "address",
          "name": "user",
          "type": "address"
        },
        {
          "indexed": false,
          "internalType": "uint256",
          "name": "weiAmount",
          "type": "uint256"
        }
      ],
      "name": "Withdrawal",
      "type": "event"
    },
    {
      "inputs": [],
      "name": "UNIT_SCALE",
      "outputs": [
        {
          "internalType": "uint256",
          "name": "",
          "type": "uint256"
        }
      ],
      "stateMutability": "view",
      "type": "function"
    },
    {
      "inputs": [],
      "name": "acceptOwnership",
      "outputs": [],
      "stateMutability": "nonpayable",
      "type": "function"
    },
    {
      "inputs": [
        {
          "internalType": "address",
          "name": "_contract",
          "type": "address"
        }
      ],
      "name": "authorizeContract",
      "outputs": [],
      "stateMutability": "nonpayable",
      "type": "function"
    },
    {
      "inputs": [
        {
          "internalType": "address",
          "name": "",
          "type": "address"
        }
      ],
      "name": "authorizedContracts",
      "outputs": [
        {
          "internalType": "bool",
          "name": "",
          "type": "bool"
        }
      ],
      "stateMutability": "view",
      "type": "function"
    },
    {
      "inputs": [
        {
          "internalType": "address",
          "name": "_contract",
          "type": "address"
        }
      ],
      "name": "deauthorizeContract",
      "outputs": [],
      "stateMutability": "nonpayable",
      "type": "function"
    },
    {
      "inputs": [],
      "name": "deposit",
      "outputs": [],
      "stateMutability": "payable",
      "type": "function"
    },
    {
      "inputs": [
        {
          "internalType": "address",
          "name": "_recipient",
          "type": "address"
        }
      ],
      "name": "depositFor",
      "outputs": [],
      "stateMutability": "payable",
      "type": "function"
    },
    {
      "inputs": [
        {
          "internalType": "address",
          "name": "user",
          "type": "address"
        }
      ],
      "name": "getBalance",
      "outputs": [
        {
          "internalType": "euint64",
          "name": "",
          "type": "bytes32"
        }
      ],
      "stateMutability": "view",
      "type": "function"
    },
    {
      "inputs": [],
      "name": "owner",
      "outputs": [
        {
          "internalType": "address",
          "name": "",
          "type": "address"
        }
      ],
      "stateMutability": "view",
      "type": "function"
    },
    {
      "inputs": [],
      "name": "pendingOwner",
      "outputs": [
        {
          "internalType": "address",
          "name": "",
          "type": "address"
        }
      ],
      "stateMutability": "view",
      "type": "function"
    },
    {
      "inputs": [
        {
          "internalType": "address",
          "name": "_newOwner",
          "type": "address"
        }
      ],
      "name": "proposeOwnership",
      "outputs": [],
      "stateMutability": "nonpayable",
      "type": "function"
    },
    {
      "inputs": [
        {
          "internalType": "address",
          "name": "from",
          "type": "address"
        },
        {
          "internalType": "address",
          "name": "to",
          "type": "address"
        },
        {
          "internalType": "euint64",
          "name": "amount",
          "type": "bytes32"
        }
      ],
      "name": "transferEncrypted",
      "outputs": [],
      "stateMutability": "nonpayable",
      "type": "function"
    },
    {
      "inputs": [
        {
          "internalType": "uint64",
          "name": "units",
          "type": "uint64"
        },
        {
          "internalType": "bytes",
          "name": "balanceSig",
          "type": "bytes"
        },
        {
          "internalType": "uint64",
          "name": "balance",
          "type": "uint64"
        }
      ],
      "name": "withdraw",
      "outputs": [],
      "stateMutability": "nonpayable",
      "type": "function"
    },
    {
      "inputs": [
        {
          "internalType": "address",
          "name": "",
          "type": "address"
        }
      ],
      "name": "withdrawNonces",
      "outputs": [
        {
          "internalType": "uint256",
          "name": "",
          "type": "uint256"
        }
      ],
      "stateMutability": "view",
      "type": "function"
    },
    {
      "inputs": [
        {
          "internalType": "address",
          "name": "user",
          "type": "address"
        },
        {
          "internalType": "address",
          "name": "destination",
          "type": "address"
        },
        {
          "internalType": "uint64",
          "name": "units",
          "type": "uint64"
        },
        {
          "internalType": "bytes",
          "name": "balanceSig",
          "type": "bytes"
        },
        {
          "internalType": "uint64",
          "name": "balance",
          "type": "uint64"
        }
      ],
      "name": "withdrawTo",
      "outputs": [],
      "stateMutability": "nonpayable",
      "type": "function"
    },
    {
      "stateMutability": "payable",
      "type": "receive"
    }
  ],
  "bytecode": "0x60808060405234602c57600480546001600160a01b0319163317905560016006556113fa90816100318239f35b5f80fdfe60806040526004361015610067575b3615610018575f80fd5b61002964e8d4a51000341015610e16565b64e8d4a5100034046001600160401b03166100448133611181565b5f5160206113ce5f395f51905f526040518061006233943483610e5f565b0390a2005b5f3560e01c8063132efaa11461080c578063433a9d37146106be57806367561d93146106625780636e861c0e14610614578063710bf3221461059a57806379ba5097146104fb5780638da5cb5b146104d3578063aa67c91914610424578063b158e39a14610405578063d0e30db0146103ef578063d5b9221b146103b2578063e30c39781461038a578063f5aa42bb14610352578063f6554ec51461014b5763f8b2cb4f0361000e5734610147576020366003190112610147576001600160a01b03610131610a73565b165f525f602052602060405f2054604051908152f35b5f80fd5b34610147576060366003190112610147576004356001600160401b03811690818103610147576024356001600160401b0381116101475761028a610196610285923690600401610ab5565b6101a1939193610a9f565b6101b060026006541415610b1f565b600260065561027f8715956101c58715610b6b565b335f52600360205260405f20548098610219603c60206040518094828201968b8989378b8301913360601b8584015260018060c01b03199060c01b166034830152848201520301601c810184520182610bac565b519020805f52600260205261023560ff60405f20541615610be3565b5f52600260205260405f20600160ff19825416179055335f525f60205260405f205493610263851515610c24565b6102786001600160401b0385168b1115610c5d565b3691610cbb565b91610e78565b610cf1565b6102a7610296846112bf565b335f525f60205260405f2054610f38565b335f8181526020819052604090208290556102c19161103e565b335f525f6020526102d560405f20546110ae565b64e8d4a51000830292830464e8d4a5100014171561033e576001810180911161033e57335f52600360205260405f205561031e5f80808085335af1610318610d35565b50610d64565b6040519081525f5160206113ae5f395f51905f5260203392a26001600655005b634e487b7160e01b5f52601160045260245ffd5b34610147576020366003190112610147576001600160a01b03610373610a73565b165f526003602052602060405f2054604051908152f35b34610147575f366003190112610147576005546040516001600160a01b039091168152602090f35b34610147576020366003190112610147576001600160a01b036103d3610a73565b165f526001602052602060ff60405f2054166040519015158152f35b5f36600319011261014757610018341515610b6b565b34610147575f36600319011261014757602060405164e8d4a510008152f35b602036600319011261014757610438610a73565b6004546001600160a01b0316331480156104bb575b61045690610ae2565b610461341515610b6b565b61047264e8d4a51000341015610e16565b64e8d4a5100034046001600160401b0316905f5160206113ce5f395f51905f5290610062906104a18482611181565b6040516001600160a01b0390911693909182913483610e5f565b50335f9081526001602052604090205460ff1661044d565b34610147575f366003190112610147576004546040516001600160a01b039091168152602090f35b34610147575f366003190112610147576005546001600160a01b038116903382900361056057600480546001600160a01b03199081168417909155166005557fb27970c1714b28277b78cc17ac2fe9556e7f048cd48358cffe3dc7d547608fdc5f80a2005b60405162461bcd60e51b81526020600482015260126024820152712737ba10383937b837b9b2b21037bbb732b960711b6044820152606490fd5b34610147576020366003190112610147576105b3610a73565b6105c860018060a01b03600454163314610da2565b6001600160a01b03166105dc811515610ddb565b600580546001600160a01b031916821790557f6ab4d119f23076e8ad491bc65ce85f017fb0591dce08755ba8591059cc51737a5f80a2005b346101475760203660031901126101475761062d610a73565b61064260018060a01b03600454163314610da2565b6001600160a01b03165f908152600160205260409020805460ff19169055005b346101475760203660031901126101475761067b610a73565b61069060018060a01b03600454163314610da2565b6001600160a01b03166106a4811515610ddb565b5f52600160205260405f20600160ff198254161790555f80f35b34610147576060366003190112610147576106d7610a73565b6106df610a89565b906107956044359260018060a01b0360045416331480156107f4575b61070490610ae2565b61078460018060a01b03841693845f525f6020526107268660405f2054610f38565b5f86815260208190526040808220929092556001600160a01b03851680825291902054909690156107e35761076690875f525f60205260405f20546110ea565b865f525f60205260405f20555b845f525f60205260405f205461103e565b835f525f60205260405f205461103e565b805f525f6020526107a960405f20546110ae565b815f525f6020526107bd60405f20546110ae565b7f8fb556326f22f916c68b89ac61b2b94546e36d300cdf1f2398ecaada4b2574005f80a3005b865f525f60205260405f2055610773565b50335f9081526001602052604090205460ff166106fb565b346101475760a036600319011261014757610825610a73565b61082d610a89565b610835610a9f565b6064356001600160401b03811161014757610854903690600401610ab5565b9360843591906001600160401b038316808403610147576004546001600160a01b031633148015610a5b575b61088990610ae2565b6006546002141561089990610b1f565b60026006556001600160401b038516938415936108b68515610b6b565b600160a01b60019003841698895f52600360205260405f20549760405180602081019284868537606089811b6001600160601b0319908116602085890190810191909152918f901b16603482015260c09190911b6001600160c01b031916604882015260508082018d905291900390810182526109369060700182610bac565b519020805f52600260205260405f205460ff161561095390610be3565b5f52600260205260405f2060ff198154166001179055895f525f6020528660405f20549485151561098390610c24565b101561098e90610c5d565b369061099992610cbb565b906109a392610e78565b6109ac90610cf1565b6109b5836112bf565b865f525f60205260405f2054906109cb91610f38565b5f8781526020819052604090208190556109e5919061103e565b845f525f60205260405f20546109fa906110ae565b64e8d4a51000820291820464e8d4a5100014171561033e576001820180921161033e57610a4d5f808080855f5160206113ae5f395f51905f52986020988b845260038a5260408420555af1610318610d35565b604051908152a26001600655005b50335f9081526001602052604090205460ff16610880565b600435906001600160a01b038216820361014757565b602435906001600160a01b038216820361014757565b604435906001600160401b038216820361014757565b9181601f84011215610147578235916001600160401b038311610147576020838186019501011161014757565b15610ae957565b60405162461bcd60e51b815260206004820152600e60248201526d139bdd08185d5d1a1bdc9a5e995960921b6044820152606490fd5b15610b2657565b60405162461bcd60e51b815260206004820152601f60248201527f5265656e7472616e637947756172643a207265656e7472616e742063616c6c006044820152606490fd5b15610b7257565b60405162461bcd60e51b81526020600482015260126024820152710416d6f756e74206d757374206265203e20360741b6044820152606490fd5b601f909101601f19168101906001600160401b03821190821017610bcf57604052565b634e487b7160e01b5f52604160045260245ffd5b15610bea57565b60405162461bcd60e51b8152602060048201526012602482015271141c9bdbd988185b1c9958591e481d5cd95960721b6044820152606490fd5b15610c2b57565b60405162461bcd60e51b815260206004820152600a6024820152694e6f2062616c616e636560b01b6044820152606490fd5b15610c6457565b60405162461bcd60e51b8152602060048201526014602482015273496e73756666696369656e742062616c616e636560601b6044820152606490fd5b6001600160401b038111610bcf57601f01601f191660200190565b929192610cc782610ca0565b91610cd56040519384610bac565b829481845281830111610147578281602093845f960137010152565b15610cf857565b60405162461bcd60e51b815260206004820152601560248201527424b73b30b634b2103130b630b731b290383937b7b360591b6044820152606490fd5b3d15610d5f573d90610d4682610ca0565b91610d546040519384610bac565b82523d5f602084013e565b606090565b15610d6b57565b60405162461bcd60e51b815260206004820152600f60248201526e151c985b9cd9995c8819985a5b1959608a1b6044820152606490fd5b15610da957565b60405162461bcd60e51b815260206004820152600a60248201526927b7363c9037bbb732b960b11b6044820152606490fd5b15610de257565b60405162461bcd60e51b815260206004820152600c60248201526b5a65726f206164647265737360a01b6044820152606490fd5b15610e1d57565b60405162461bcd60e51b815260206004820152601a60248201527909ad2dc40c8cae0dee6d2e840d2e6406240dad2c6e4de5a8aa8960331b6044820152606490fd5b9081526001600160401b03909116602082015260400190565b906084602092836040519586948593630135f2c360e61b8552600485015260018060401b03166024840152606060448401528051918291826064860152018484015e5f828201840152601f01601f1916810103018173ea30c4b8b44078bbf8a6ef5b9f1ec1626c7848d95afa908115610f2d575f91610ef5575090565b90506020813d602011610f25575b81610f1060209383610bac565b81010312610147575180151581036101475790565b3d9150610f03565b6040513d5f823e3d90fd5b908115611015575b8015611007575b60405191610f56606084610bac565b600283526040366020850137610f6b8361136c565b52610f758261138d565b52610fb16020809260405190610f8b8383610bac565b5f82525f368137604051631888debd60e01b81529384928392600760056004860161127b565b03815f73ea30c4b8b44078bbf8a6ef5b9f1ec1626c7848d95af1918215610f2d575f92610fdd57505090565b90809250813d8311611000575b610ff48183610bac565b81010312610147575190565b503d610fea565b50611010611332565b610f47565b905061101f611332565b90610f40565b9081526001600160a01b03909116602082015260400190565b73ea30c4b8b44078bbf8a6ef5b9f1ec1626c7848d93b1561014757604051631974142760e21b8152915f918391829161107b919060048401611025565b03818373ea30c4b8b44078bbf8a6ef5b9f1ec1626c7848d95af18015610f2d576110a25750565b5f6110ac91610bac565b565b73ea30c4b8b44078bbf8a6ef5b9f1ec1626c7848d93b15610147575f61107b9160405180938192631974142760e21b8352309060048401611025565b908115611171575b8015611163575b60405191611108606084610bac565b60028352604036602085013761111d8361136c565b526111278261138d565b52610fb1602080926040519061113d8383610bac565b5f82525f368137604051631888debd60e01b81529384928392600860056004860161127b565b5061116c611332565b6110f9565b905061117b611332565b906110f2565b906111ec90611198906001600160401b03166112bf565b6001600160a01b0383165f8181526020819052604090205490939190156111ff576111ce90845f525f60205260405f20546110ea565b835f525f60205260405f20555b825f525f60205260405f205461103e565b5f525f6020526110ac60405f20546110ae565b835f525f60205260405f20556111db565b90602080835192838152019201905f5b81811061122d5750505090565b8251845260209384019390920191600101611220565b9161126a9060ff6112789593168452601a6020850152608060408501526080840190611210565b916060818403910152611210565b90565b9293919060ff16835260208110156112ab576112789361126a916020850152608060408501526080840190611210565b634e487b7160e01b5f52602160045260245ffd5b610fb1602080926040516112d38382610bac565b5f81525f368137604051916112e9608084610bac565b60038352606036858501376112fd8361136c565b5260056113098361138d565b525f6113148361139d565b52604051631888debd60e01b81529384928392600560048501611243565b6020610fb1816040516113458282610bac565b5f81525f3681376040519061135b608083610bac565b60038252606036848401375f6112fd835b8051156113795760200190565b634e487b7160e01b5f52603260045260245ffd5b8051600110156113795760400190565b805160021015611379576060019056fe7fcf532c15f0a6db0bd6d0e038bea71d30d808c7d98cb3bf7268a95bf5081b65edb91c7cfba21699815cdfbceeeff58063764ec530eb7dfb48aa060443ac0169a164736f6c634300081b000a",
  "linkReferences": {},
  "deployedLinkReferences": {}
}