{
  "_format": "hh-sol-artifact-1",
  "contractName": "ConsentManager",
  "sourceName": "contracts/ConsentManager.sol",
  "abi": [
    {
      "inputs": [
        {
          "internalType": "uint8",
          "name": "got",
          "type": "uint8"
        },
        {
          "internalType": "uint8",
          "name": "expected",
          "type": "uint8"
        }
      ],
      "name": "InvalidEncryptedInput",
      "type": "error"
    },
    {
      "inputs": [
        {
          "internalType": "int32",
          "name": "value",
          "type": "int32"
        }
      ],
      "name": "SecurityZoneOutOfBounds",
      "type": "error"
    },
    {
      "anonymous": false,
      "inputs": [
        {
          "indexed": true,
          "internalType": "address",
          "name": "patient",
          "type": "address"
        },
        {
          "indexed": false,
          "internalType": "uint256",
          "name": "newConsentEpoch",
          "type": "uint256"
        }
      ],
      "name": "AllConsentRevoked",
      "type": "event"
    },
    {
      "anonymous": false,
      "inputs": [
        {
          "indexed": true,
          "internalType": "address",
          "name": "patient",
          "type": "address"
        },
        {
          "indexed": true,
          "internalType": "uint256",
          "name": "trialId",
          "type": "uint256"
        },
        {
          "indexed": false,
          "internalType": "uint256",
          "name": "consentEpoch",
          "type": "uint256"
        },
        {
          "indexed": false,
          "internalType": "uint256",
          "name": "expiresAt",
          "type": "uint256"
        }
      ],
      "name": "ConsentGranted",
      "type": "event"
    },
    {
      "anonymous": false,
      "inputs": [
        {
          "indexed": true,
          "internalType": "address",
          "name": "patient",
          "type": "address"
        },
        {
          "indexed": true,
          "internalType": "uint256",
          "name": "trialId",
          "type": "uint256"
        },
        {
          "indexed": false,
          "internalType": "ebool",
          "name": "oldConsent",
          "type": "bytes32"
        }
      ],
      "name": "ConsentRevoked",
      "type": "event"
    },
    {
      "anonymous": false,
      "inputs": [
        {
          "indexed": true,
          "internalType": "address",
          "name": "patient",
          "type": "address"
        },
        {
          "indexed": true,
          "internalType": "uint256",
          "name": "trialId",
          "type": "uint256"
        },
        {
          "indexed": false,
          "internalType": "ebool",
          "name": "consent",
          "type": "bytes32"
        }
      ],
      "name": "EncryptedConsentGranted",
      "type": "event"
    },
    {
      "inputs": [
        {
          "internalType": "address",
          "name": "_patient",
          "type": "address"
        }
      ],
      "name": "getActiveConsent",
      "outputs": [
        {
          "internalType": "ebool",
          "name": "",
          "type": "bytes32"
        }
      ],
      "stateMutability": "nonpayable",
      "type": "function"
    },
    {
      "inputs": [
        {
          "internalType": "address",
          "name": "_patient",
          "type": "address"
        },
        {
          "internalType": "uint256",
          "name": "_trialId",
          "type": "uint256"
        }
      ],
      "name": "getEncryptedConsent",
      "outputs": [
        {
          "internalType": "ebool",
          "name": "",
          "type": "bytes32"
        }
      ],
      "stateMutability": "view",
      "type": "function"
    },
    {
      "inputs": [
        {
          "internalType": "uint256",
          "name": "_trialId",
          "type": "uint256"
        },
        {
          "components": [
            {
              "internalType": "uint256",
              "name": "ctHash",
              "type": "uint256"
            },
            {
              "internalType": "uint8",
              "name": "securityZone",
              "type": "uint8"
            },
            {
              "internalType": "uint8",
              "name": "utype",
              "type": "uint8"
            },
            {
              "internalType": "bytes",
              "name": "signature",
              "type": "bytes"
            }
          ],
          "internalType": "struct InEbool",
          "name": "_consent",
          "type": "tuple"
        }
      ],
      "name": "grantConsent",
      "outputs": [],
      "stateMutability": "nonpayable",
      "type": "function"
    },
    {
      "inputs": [
        {
          "internalType": "address",
          "name": "_patient",
          "type": "address"
        },
        {
          "internalType": "uint256",
          "name": "_trialId",
          "type": "uint256"
        }
      ],
      "name": "hasConsentRecord",
      "outputs": [
        {
          "internalType": "bool",
          "name": "",
          "type": "bool"
        }
      ],
      "stateMutability": "view",
      "type": "function"
    },
    {
      "inputs": [],
      "name": "revokeAllConsent",
      "outputs": [],
      "stateMutability": "nonpayable",
      "type": "function"
    },
    {
      "inputs": [
        {
          "internalType": "uint256",
          "name": "_trialId",
          "type": "uint256"
        }
      ],
      "name": "revokeConsent",
      "outputs": [],
      "stateMutability": "nonpayable",
      "type": "function"
    },
    {
      "inputs": [
        {
          "internalType": "address",
          "name": "",
          "type": "address"
        },
        {
          "internalType": "uint256",
          "name": "",
          "type": "uint256"
        }
      ],
      "name": "trialConsentEpoch",
      "outputs": [
        {
          "internalType": "uint256",
          "name": "",
          "type": "uint256"
        }
      ],
      "stateMutability": "view",
      "type": "function"
    },
    {
      "inputs": [
        {
          "internalType": "address",
          "name": "",
          "type": "address"
        },
        {
          "internalType": "uint256",
          "name": "",
          "type": "uint256"
        }
      ],
      "name": "trialConsentExpiresAt",
      "outputs": [
        {
          "internalType": "uint256",
          "name": "",
          "type": "uint256"
        }
      ],
      "stateMutability": "view",
      "type": "function"
    }
  ],
  "bytecode": "0x60808060405234601557610936908161001a8239f35b5f80fdfe6080806040526004361015610012575f80fd5b5f3560e01c90816316a0042c14610589575080634780b241146102f757806360c4f5ab146102c15780638990622c1461009357639fd05e1414610053575f80fd5b3461008f57610061366106b0565b9060018060a01b03165f52600160205260405f20905f52602052602060ff60405f2054166040519015158152f35b5f80fd5b3461008f576100a1366106b0565b6001600160a01b039091165f81815260208181526040808320858452825280832054938352600182528083209483529390529182205460ff166102b8575b61014f602080936040516100f383826106f1565b5f81525f368137604051916101096080846106f1565b600383526060368585013761011d836108c8565b525f610128836108e9565b525f610133836108f9565b52604051631888debd60e01b8152938492839260048401610893565b03815f5f51602061090a5f395f51905f525af1908115610262575f9161028b575b5080821561027b575b1561026d575b6040519161018e6060846106f1565b60028352604036858501376101a2836108c8565b526101ac826108e9565b52816101f9604051926101bf83856106f1565b5f84525f36813761020b6040519485938493631888debd60e01b85525f6004860152600a6024860152608060448601526084850190610860565b83810360031901606485015290610860565b03815f5f51602061090a5f395f51905f525af1908115610262575f91610235575b50604051908152f35b90508181813d831161025b575b61024c81836106f1565b8101031261008f57518261022c565b503d610242565b6040513d5f823e3d90fd5b506102766107d2565b61017f565b91506102856107d2565b91610179565b90508281813d83116102b1575b6102a281836106f1565b8101031261008f575183610170565b503d610298565b600191506100df565b3461008f576102cf366106b0565b9060018060a01b03165f525f60205260405f20905f52602052602060405f2054604051908152f35b3461008f57604036600319011261008f576004356024356001600160401b03811161008f576080600319823603011261008f57604051610336816106d6565b8160040135815261034960248301610714565b906020810191825261035d60448401610714565b60408201908152926064810135906001600160401b03821161008f57013660238201121561008f576004810135936001600160401b03851161057557604051946103b1601f8201601f1916602001876106f1565b808652366024848301011161008f576020815f92602460ff9601838a0137870101526060830194855251168061055f57509160e46020928360ff80966060806040516103fc816106d6565b5f81525f868201525f604082015201525192511693516040519261041f846106d6565b835281830194855286604084015f81526060850192835260405198899788966313fce3b160e11b885260406004890152516044880152511660648601525116608484015251608060a484015280519182918260c4860152018484015e5f838284010152336024830152601f801991011681010301815f5f51602061090a5f395f51905f525af1908115610262575f9161052d575b506104bd8161073b565b6104c7338261079c565b335f525f60205260405f20825f526020528060405f2055335f52600160205260405f20825f5260205260405f20600160ff198254161790556040519081527fc5481e706974d35838bec995740680c106b65b6e114f7444e7940a4d17aa3aa060203392a3005b90506020813d602011610557575b81610548602093836106f1565b8101031261008f5751826104b3565b3d915061053b565b6367cf307160e01b5f526004525f60245260445ffd5b634e487b7160e01b5f52604160045260245ffd5b3461008f57602036600319011261008f576004358091335f525f60205260405f20825f5260205260405f205481527fa448379e0917c6826618fdd912df1dea73519ee829a6a0374c1ab16af10f78a860203392a3602061061b816040516105f082826106f1565b5f81525f368137604051906106066080836106f1565b60038252606036848401375f61011d836108c8565b03815f5f51602061090a5f395f51905f525af1908115610262575f91610683575b506106468161073b565b610650338261079c565b335f525f825260405f20835f52825260405f2055335f526001815260405f20915f525260405f2060ff1981541690555f80f35b90508181813d83116106a9575b61069a81836106f1565b8101031261008f57518361063c565b503d610690565b604090600319011261008f576004356001600160a01b038116810361008f579060243590565b608081019081106001600160401b0382111761057557604052565b601f909101601f19168101906001600160401b0382119082101761057557604052565b359060ff8216820361008f57565b9081526001600160a01b03909116602082015260400190565b5f51602061090a5f395f51905f523b1561008f575f6107709160405180938192631974142760e21b8352309060048401610722565b0381835f51602061090a5f395f51905f525af18015610262576107905750565b5f61079a916106f1565b565b5f51602061090a5f395f51905f523b1561008f57604051631974142760e21b8152915f9183918291610770919060048401610722565b6020610811816040516107e582826106f1565b5f81525f368137604051906107fb6080836106f1565b6003825260603684840137600161011d836108c8565b03815f5f51602061090a5f395f51905f525af1918215610262575f9261083657505090565b90809250813d8311610859575b61084d81836106f1565b8101031261008f575190565b503d610843565b90602080835192838152019201905f5b81811061087d5750505090565b8251845260209384019390920191600101610870565b90916108b76108c5935f8452601a6020850152608060408501526080840190610860565b916060818403910152610860565b90565b8051156108d55760200190565b634e487b7160e01b5f52603260045260245ffd5b8051600110156108d55760400190565b8051600210156108d5576060019056fe000000000000000000000000ea30c4b8b44078bbf8a6ef5b9f1ec1626c7848d9a164736f6c634300081b000a",
  "linkReferences": {},
  "deployedLinkReferences": {}
}