{
  "_format": "hh-sol-artifact-1",
  "contractName": "EligibilityEngine",
  "sourceName": "contracts/EligibilityEngine.sol",
  "abi": [
    {
      "inputs": [
        {
          "internalType": "address",
          "name": "_registry",
          "type": "address"
        },
        {
          "internalType": "address",
          "name": "_trialManager",
          "type": "address"
        },
        {
          "internalType": "address",
          "name": "_consentManager",
          "type": "address"
        }
      ],
      "stateMutability": "nonpayable",
      "type": "constructor"
    },
    {
      "inputs": [
        {
          "internalType": "int32",
          "name": "value",
          "type": "int32"
        }
      ],
      "name": "SecurityZoneOutOfBounds",
      "type": "error"
    },
    {
      "anonymous": false,
      "inputs": [
        {
          "indexed": true,
          "internalType": "uint256",
          "name": "nullifier",
          "type": "uint256"
        },
        {
          "indexed": true,
          "internalType": "uint256",
          "name": "trialId",
          "type": "uint256"
        },
        {
          "indexed": false,
          "internalType": "enum EligibilityEngine.ApplicationStatus",
          "name": "status",
          "type": "uint8"
        }
      ],
      "name": "AnonymousApplicationStatusUpdated",
      "type": "event"
    },
    {
      "anonymous": false,
      "inputs": [
        {
          "indexed": true,
          "internalType": "uint256",
          "name": "nullifier",
          "type": "uint256"
        },
        {
          "indexed": true,
          "internalType": "uint256",
          "name": "trialId",
          "type": "uint256"
        },
        {
          "indexed": false,
          "internalType": "bytes32",
          "name": "finalCt",
          "type": "bytes32"
        }
      ],
      "name": "AnonymousEligibilityStaged",
      "type": "event"
    },
    {
      "anonymous": false,
      "inputs": [
        {
          "indexed": true,
          "internalType": "address",
          "name": "patient",
          "type": "address"
        },
        {
          "indexed": true,
          "internalType": "uint256",
          "name": "trialId",
          "type": "uint256"
        },
        {
          "indexed": false,
          "internalType": "enum EligibilityEngine.ApplicationStatus",
          "name": "status",
          "type": "uint8"
        },
        {
          "indexed": false,
          "internalType": "bytes",
          "name": "message",
          "type": "bytes"
        }
      ],
      "name": "ApplicationStatusUpdated",
      "type": "event"
    },
    {
      "anonymous": false,
      "inputs": [
        {
          "indexed": true,
          "internalType": "address",
          "name": "patient",
          "type": "address"
        },
        {
          "indexed": true,
          "internalType": "uint256",
          "name": "trialId",
          "type": "uint256"
        }
      ],
      "name": "AppliedToTrial",
      "type": "event"
    },
    {
      "anonymous": false,
      "inputs": [
        {
          "indexed": true,
          "internalType": "address",
          "name": "patient",
          "type": "address"
        },
        {
          "indexed": true,
          "internalType": "uint256",
          "name": "trialId",
          "type": "uint256"
        }
      ],
      "name": "EligibilityComputed",
      "type": "event"
    },
    {
      "anonymous": false,
      "inputs": [
        {
          "indexed": true,
          "internalType": "uint256",
          "name": "nullifier",
          "type": "uint256"
        },
        {
          "indexed": true,
          "internalType": "uint256",
          "name": "trialId",
          "type": "uint256"
        },
        {
          "indexed": false,
          "internalType": "bytes32",
          "name": "resultHash",
          "type": "bytes32"
        },
        {
          "indexed": false,
          "internalType": "bool",
          "name": "eligible",
          "type": "bool"
        }
      ],
      "name": "EligibilityProofVerified",
      "type": "event"
    },
    {
      "anonymous": false,
      "inputs": [
        {
          "indexed": true,
          "internalType": "address",
          "name": "patient",
          "type": "address"
        },
        {
          "indexed": true,
          "internalType": "uint256",
          "name": "trialId",
          "type": "uint256"
        }
      ],
      "name": "EligibilityScoreComputed",
      "type": "event"
    },
    {
      "anonymous": false,
      "inputs": [
        {
          "indexed": true,
          "internalType": "address",
          "name": "newOwner",
          "type": "address"
        }
      ],
      "name": "OwnershipAccepted",
      "type": "event"
    },
    {
      "anonymous": false,
      "inputs": [
        {
          "indexed": true,
          "internalType": "address",
          "name": "proposedOwner",
          "type": "address"
        }
      ],
      "name": "OwnershipProposed",
      "type": "event"
    },
    {
      "inputs": [],
      "name": "acceptOwnership",
      "outputs": [],
      "stateMutability": "nonpayable",
      "type": "function"
    },
    {
      "inputs": [
        {
          "internalType": "uint256",
          "name": "",
          "type": "uint256"
        },
        {
          "internalType": "uint256",
          "name": "",
          "type": "uint256"
        }
      ],
      "name": "anonymousApplications",
      "outputs": [
        {
          "internalType": "enum EligibilityEngine.ApplicationStatus",
          "name": "",
          "type": "uint8"
        }
      ],
      "stateMutability": "view",
      "type": "function"
    },
    {
      "inputs": [
        {
          "internalType": "uint256",
          "name": "",
          "type": "uint256"
        },
        {
          "internalType": "bool",
          "name": "",
          "type": "bool"
        },
        {
          "internalType": "bytes",
          "name": "",
          "type": "bytes"
        }
      ],
      "name": "applyToTrial",
      "outputs": [],
      "stateMutability": "pure",
      "type": "function"
    },
    {
      "inputs": [],
      "name": "authorizedRegistry",
      "outputs": [
        {
          "internalType": "address",
          "name": "",
          "type": "address"
        }
      ],
      "stateMutability": "view",
      "type": "function"
    },
    {
      "inputs": [],
      "name": "automationContract",
      "outputs": [
        {
          "internalType": "address",
          "name": "",
          "type": "address"
        }
      ],
      "stateMutability": "view",
      "type": "function"
    },
    {
      "inputs": [
        {
          "internalType": "uint256",
          "name": "_commitment",
          "type": "uint256"
        },
        {
          "internalType": "uint256",
          "name": "_trialId",
          "type": "uint256"
        },
        {
          "internalType": "uint256",
          "name": "_nullifier",
          "type": "uint256"
        },
        {
          "internalType": "address",
          "name": "_permitRecipient",
          "type": "address"
        },
        {
          "internalType": "address",
          "name": "_patientAddress",
          "type": "address"
        }
      ],
      "name": "checkAnonymousEligibilityWithConsent",
      "outputs": [
        {
          "internalType": "ebool",
          "name": "",
          "type": "bytes32"
        }
      ],
      "stateMutability": "nonpayable",
      "type": "function"
    },
    {
      "inputs": [
        {
          "internalType": "address",
          "name": "",
          "type": "address"
        },
        {
          "internalType": "uint256",
          "name": "",
          "type": "uint256"
        }
      ],
      "name": "checkEligibility",
      "outputs": [
        {
          "internalType": "ebool",
          "name": "",
          "type": "bytes32"
        }
      ],
      "stateMutability": "pure",
      "type": "function"
    },
    {
      "inputs": [],
      "name": "consentGate",
      "outputs": [
        {
          "internalType": "contract EncryptedConsentGate",
          "name": "",
          "type": "address"
        }
      ],
      "stateMutability": "view",
      "type": "function"
    },
    {
      "inputs": [],
      "name": "consentManager",
      "outputs": [
        {
          "internalType": "contract ConsentManager",
          "name": "",
          "type": "address"
        }
      ],
      "stateMutability": "view",
      "type": "function"
    },
    {
      "inputs": [],
      "name": "dataAccessLog",
      "outputs": [
        {
          "internalType": "contract DataAccessLog",
          "name": "",
          "type": "address"
        }
      ],
      "stateMutability": "view",
      "type": "function"
    },
    {
      "inputs": [],
      "name": "eligibilityVerifier",
      "outputs": [
        {
          "internalType": "contract IHonkVerifier",
          "name": "",
          "type": "address"
        }
      ],
      "stateMutability": "view",
      "type": "function"
    },
    {
      "inputs": [
        {
          "internalType": "uint256",
          "name": "_commitment",
          "type": "uint256"
        },
        {
          "internalType": "uint256",
          "name": "_trialId",
          "type": "uint256"
        },
        {
          "internalType": "uint256",
          "name": "_nullifier",
          "type": "uint256"
        },
        {
          "internalType": "address",
          "name": "_permitRecipient",
          "type": "address"
        },
        {
          "internalType": "bool",
          "name": "_decryptedEligible",
          "type": "bool"
        },
        {
          "internalType": "bytes",
          "name": "_decryptSig",
          "type": "bytes"
        }
      ],
      "name": "finalizeAnonymousEligibility",
      "outputs": [
        {
          "internalType": "ebool",
          "name": "finalResult",
          "type": "bytes32"
        }
      ],
      "stateMutability": "nonpayable",
      "type": "function"
    },
    {
      "inputs": [
        {
          "internalType": "uint256",
          "name": "_nullifier",
          "type": "uint256"
        },
        {
          "internalType": "uint256",
          "name": "_trialId",
          "type": "uint256"
        }
      ],
      "name": "getAnonymousApplicationStatus",
      "outputs": [
        {
          "internalType": "enum EligibilityEngine.ApplicationStatus",
          "name": "",
          "type": "uint8"
        }
      ],
      "stateMutability": "view",
      "type": "function"
    },
    {
      "inputs": [
        {
          "internalType": "uint256",
          "name": "_nullifier",
          "type": "uint256"
        }
      ],
      "name": "getAnonymousResult",
      "outputs": [
        {
          "internalType": "ebool",
          "name": "",
          "type": "bytes32"
        }
      ],
      "stateMutability": "view",
      "type": "function"
    },
    {
      "inputs": [
        {
          "internalType": "uint256",
          "name": "_nullifier",
          "type": "uint256"
        }
      ],
      "name": "getAnonymousScore",
      "outputs": [
        {
          "internalType": "euint8",
          "name": "",
          "type": "bytes32"
        }
      ],
      "stateMutability": "view",
      "type": "function"
    },
    {
      "inputs": [
        {
          "internalType": "address",
          "name": "_patient",
          "type": "address"
        },
        {
          "internalType": "uint256",
          "name": "_trialId",
          "type": "uint256"
        }
      ],
      "name": "getEncryptedResult",
      "outputs": [
        {
          "internalType": "ebool",
          "name": "",
          "type": "bytes32"
        }
      ],
      "stateMutability": "view",
      "type": "function"
    },
    {
      "inputs": [
        {
          "internalType": "address",
          "name": "_patient",
          "type": "address"
        },
        {
          "internalType": "uint256",
          "name": "_trialId",
          "type": "uint256"
        }
      ],
      "name": "getEncryptedScore",
      "outputs": [
        {
          "internalType": "euint8",
          "name": "",
          "type": "bytes32"
        }
      ],
      "stateMutability": "view",
      "type": "function"
    },
    {
      "inputs": [],
      "name": "legacyPatientRegistry",
      "outputs": [
        {
          "internalType": "address",
          "name": "",
          "type": "address"
        }
      ],
      "stateMutability": "view",
      "type": "function"
    },
    {
      "inputs": [
        {
          "internalType": "uint256",
          "name": "",
          "type": "uint256"
        },
        {
          "internalType": "uint256",
          "name": "",
          "type": "uint256"
        }
      ],
      "name": "noirResultHashes",
      "outputs": [
        {
          "internalType": "bytes32",
          "name": "",
          "type": "bytes32"
        }
      ],
      "stateMutability": "view",
      "type": "function"
    },
    {
      "inputs": [
        {
          "internalType": "uint256",
          "name": "",
          "type": "uint256"
        },
        {
          "internalType": "uint256",
          "name": "",
          "type": "uint256"
        }
      ],
      "name": "noirVerifiedResults",
      "outputs": [
        {
          "internalType": "bool",
          "name": "",
          "type": "bool"
        }
      ],
      "stateMutability": "view",
      "type": "function"
    },
    {
      "inputs": [],
      "name": "owner",
      "outputs": [
        {
          "internalType": "address",
          "name": "",
          "type": "address"
        }
      ],
      "stateMutability": "view",
      "type": "function"
    },
    {
      "inputs": [],
      "name": "patientRegistry",
      "outputs": [
        {
          "internalType": "contract IAnonymousPatientRegistry",
          "name": "",
          "type": "address"
        }
      ],
      "stateMutability": "view",
      "type": "function"
    },
    {
      "inputs": [],
      "name": "pendingOwner",
      "outputs": [
        {
          "internalType": "address",
          "name": "",
          "type": "address"
        }
      ],
      "stateMutability": "view",
      "type": "function"
    },
    {
      "inputs": [
        {
          "internalType": "address",
          "name": "_newOwner",
          "type": "address"
        }
      ],
      "name": "proposeOwnership",
      "outputs": [],
      "stateMutability": "nonpayable",
      "type": "function"
    },
    {
      "inputs": [
        {
          "internalType": "address",
          "name": "_registry",
          "type": "address"
        }
      ],
      "name": "setAuthorizedRegistry",
      "outputs": [],
      "stateMutability": "nonpayable",
      "type": "function"
    },
    {
      "inputs": [
        {
          "internalType": "address",
          "name": "_automation",
          "type": "address"
        }
      ],
      "name": "setAutomationContract",
      "outputs": [],
      "stateMutability": "nonpayable",
      "type": "function"
    },
    {
      "inputs": [
        {
          "internalType": "address",
          "name": "_gate",
          "type": "address"
        }
      ],
      "name": "setConsentGate",
      "outputs": [],
      "stateMutability": "nonpayable",
      "type": "function"
    },
    {
      "inputs": [
        {
          "internalType": "address",
          "name": "_log",
          "type": "address"
        }
      ],
      "name": "setDataAccessLog",
      "outputs": [],
      "stateMutability": "nonpayable",
      "type": "function"
    },
    {
      "inputs": [
        {
          "internalType": "address",
          "name": "_verifier",
          "type": "address"
        }
      ],
      "name": "setEligibilityVerifier",
      "outputs": [],
      "stateMutability": "nonpayable",
      "type": "function"
    },
    {
      "inputs": [
        {
          "internalType": "address",
          "name": "_legacy",
          "type": "address"
        }
      ],
      "name": "setLegacyPatientRegistry",
      "outputs": [],
      "stateMutability": "nonpayable",
      "type": "function"
    },
    {
      "inputs": [
        {
          "internalType": "uint256",
          "name": "_commitment",
          "type": "uint256"
        },
        {
          "internalType": "uint256",
          "name": "_trialId",
          "type": "uint256"
        },
        {
          "internalType": "uint256",
          "name": "_nullifier",
          "type": "uint256"
        },
        {
          "internalType": "address",
          "name": "_permitRecipient",
          "type": "address"
        }
      ],
      "name": "stageAnonymousEligibility",
      "outputs": [
        {
          "internalType": "bytes32",
          "name": "finalCt",
          "type": "bytes32"
        }
      ],
      "stateMutability": "nonpayable",
      "type": "function"
    },
    {
      "inputs": [],
      "name": "trialManager",
      "outputs": [
        {
          "internalType": "contract TrialManager",
          "name": "",
          "type": "address"
        }
      ],
      "stateMutability": "view",
      "type": "function"
    },
    {
      "inputs": [
        {
          "internalType": "uint256",
          "name": "_trialId",
          "type": "uint256"
        },
        {
          "internalType": "uint256",
          "name": "_nullifier",
          "type": "uint256"
        },
        {
          "internalType": "enum EligibilityEngine.ApplicationStatus",
          "name": "_status",
          "type": "uint8"
        }
      ],
      "name": "updateAnonymousApplicationStatus",
      "outputs": [],
      "stateMutability": "nonpayable",
      "type": "function"
    },
    {
      "inputs": [
        {
          "internalType": "uint256",
          "name": "_trialId",
          "type": "uint256"
        },
        {
          "internalType": "address",
          "name": "_patient",
          "type": "address"
        },
        {
          "internalType": "enum EligibilityEngine.ApplicationStatus",
          "name": "_status",
          "type": "uint8"
        },
        {
          "internalType": "bytes",
          "name": "_message",
          "type": "bytes"
        }
      ],
      "name": "updateApplicationStatus",
      "outputs": [],
      "stateMutability": "nonpayable",
      "type": "function"
    },
    {
      "inputs": [
        {
          "internalType": "bytes",
          "name": "_proof",
          "type": "bytes"
        },
        {
          "internalType": "bytes32[]",
          "name": "_publicInputs",
          "type": "bytes32[]"
        },
        {
          "internalType": "uint256",
          "name": "_trialId",
          "type": "uint256"
        },
        {
          "internalType": "uint256",
          "name": "_nullifier",
          "type": "uint256"
        },
        {
          "internalType": "bool",
          "name": "_eligible",
          "type": "bool"
        }
      ],
      "name": "verifyEligibilityProof",
      "outputs": [],
      "stateMutability": "nonpayable",
      "type": "function"
    }
  ],
  "bytecode": "0x60803460ad57601f61373438819003918201601f19168301916001600160401b0383118484101760b15780849260609460405283398101031260ad5760428160c5565b906057604060516020840160c5565b920160c5565b600780546001600160a01b031990811633179091555f805482166001600160a01b039586161790556002805482169385169390931790925560038054909216921691909117905560405161365b90816100d98239f35b5f80fd5b634e487b7160e01b5f52604160045260245ffd5b51906001600160a01b038216820360ad5756fe60806040526004361015610011575f80fd5b5f5f3560e01c806303a042fc14611e065780630689d5ed14611dde5780630798230914611db6578063090741a014611d5e5780630a69131914611998578063112476ae1461196f5780632d0391ba146119425780632d7306e0146119195780632e8ff563146118af578063467cd4f0146107ce57806349df1feb146118035780635250c6e2146117dc57806355f8cfdd146117b35780635d73f5441461178a57806362909f0a146117305780636d891f3814611238578063710bf322146111bc57806379ba50971461111b5780637f8c99d7146110e957806382988cba146110bf5780638c7784b314610ebc5780638da5cb5b14610e93578063972a6ddf14610c2c578063a14ea2b814610c03578063ab03380214610805578063b6e4033f146107ce578063b85fe8a214610444578063bbe5d5fc1461041a578063c0b21fd0146103c8578063d350a18f1461030d578063e30c3978146102e4578063e6414e371461028a578063e75bb26614610261578063f520f24f146102075763fda0fbb81461019b575f80fd5b34610204576040366003190112610204576020906040906001600160a01b036101c2611e5e565b1680331480156101f0575b6101d6906120c5565b8152600e8352818120602435825283522054604051908152f35b506006546001600160a01b031633146101cd565b80fd5b503461020457602036600319011261020457610221611e5e565b61023660018060a01b03600754163314611f0c565b6001600160a01b031661024a811515611f45565b600480546001600160a01b03191691909117905580f35b50346102045780600319360112610204576003546040516001600160a01b039091168152602090f35b5034610204576020366003190112610204576102a4611e5e565b6102b960018060a01b03600754163314611f0c565b6001600160a01b03166102cd811515611f45565b600a80546001600160a01b03191691909117905580f35b50346102045780600319360112610204576008546040516001600160a01b039091168152602090f35b503461020457606036600319011261020457610327611e99565b506044356001600160401b0381116103c457610347903690600401611ea8565b505060405162461bcd60e51b815260206004820152604760248201527f446570726563617465643a2075736520616e6f6e796d6f757320666c6f77207660448201527f6961204d65645661756c7452656769737472792e7374616765416e6f6e796d6f60648201526675734170706c7960c81b608482015260a490fd5b5080fd5b5034610204576020366003190112610204576103e2611e5e565b6103f760018060a01b03600754163314611f0c565b600180546001600160a01b0319166001600160a01b039290921691909117905580f35b50346102045760203660031901126102045760406020916004358152601283522054604051908152f35b50346102045760a036600319011261020457600435602435604435610467611e74565b6084356001600160a01b0381169491908590036107ca5761049360018060a01b03600954163314611f80565b6104a76001600160a01b0382161515611fc7565b8554604051633e9d33cb60e11b8152600481018490529061012090829060249082908b906001600160a01b03165af19081156107bf578791610790575b506104f561010082015115156121b9565b600254604051631a7f3c3360e01b81526004810187905288918290829060249082906001600160a01b03165afa80156107855760209361054b928492610761575b5061054660a08301511515612427565b612519565b929097604460018060a01b0360035416916040519485938492632264188b60e21b845260048401528b60248401525af18015610756578390899061071c575b6105da925061059881612482565b6105d0826105a6838c612fc3565b9a6105b081612482565b6105b98c612482565b6105c284612482565b6105cb87612482565b6124e3565b6105cb828a6124e3565b6105e482826124e3565b8387526011602090815260408089208890558589526012825280892092909255848852601381528188208689528152818820805460ff1916600117905584885260149052862080546001600160a01b0319166001600160a01b03928316179055600454169081610675575b50505f51602061362f5f395f51905f5260208095604051905060018152a3604051908152f35b908591604051602081019182528460408201524260608201526b15d2551217d0d3d394d1539560a21b6080820152606c81526106b2608c8261203d565b519020813b156107185782916106df916040519485809481936306cc173360e41b83528a60048401612093565b03925af1801561070d576106f4575b8061064f565b6106ff85809261203d565b610709575f6106ee565b8380fd5b6040513d87823e3d90fd5b8280fd5b50506020813d60201161074e575b816107376020938361203d565b8101031261074a57826105da915161058a565b8780fd5b3d915061072a565b6040513d8a823e3d90fd5b61077e9192503d8086833e610776818361203d565b810190612276565b905f610536565b6040513d84823e3d90fd5b6107b291506101203d81116107b8575b6107aa818361203d565b81019061212e565b5f6104e4565b503d6107a0565b6040513d89823e3d90fd5b8580fd5b50346102045760ff60406020926107e436611ed5565b9082526013855282822090825284522054166108036040518092611eeb565bf35b5034610204576080366003190112610204576004356024356001600160a01b0381169081810361070957604435906004821015610bff576064356001600160401b0381116107ca5761085b903690600401611ea8565b909160248760018060a01b036002541660405192838092631a7f3c3360e01b82528b60048301525afa908115610756578891610be5575b50608001516001600160a01b03163303610ba057858752600f60205260408720855f5260205260ff60405f2054166004811015610b8c5715610b5057858752600f60205260408720855f526020526108ed8460405f2061207b565b858752600f602090815260408089205f888152925290206001016001600160401b038311610b3c578054600181811c91168015610b32575b6020821014610b1e579081601f8a949311610ace575b508383601f8211600114610a69578491610a5e575b508460011b905f198660031b1c19161790555b6004546001600160a01b031690816109c6575b505050916109c06109af927fb8d37bb75e47252fab0d1ead541c50f4b09cf8a0cde18749fa1cca6d7adb33c89460405194858095611eeb565b60406020850152604084019161210e565b0390a380f35b604051602081019160018060601b03199060601b16825260ff60f81b8760f81b16603482015242603582015260358152610a0160558261203d565b51902090803b1561071857610a3091839189836040518096819582946306cc173360e41b8452600484016120ac565b03925af1801561078557610a45575b80610976565b81610a529195939561203d565b6107ca5791855f610a3f565b90508501355f610950565b82855260208520915085601f198116865b818110610ab0575010610a97575b5050600184811b019055610963565b8601355f19600387901b60f8161c191690555f80610a88565b8984013585558d975060019094019360209384019389935001610a7a565b908092935260208920601f850160051c81019160208610610b14575b90601f8b959493920160051c01905b818110610b06575061093b565b8a81558a9450600101610af9565b9091508190610aea565b634e487b7160e01b89526022600452602489fd5b90607f1690610925565b634e487b7160e01b88526041600452602488fd5b60405162461bcd60e51b8152602060048201526014602482015273139bc8185c1c1b1a58d85d1a5bdb88199bdd5b9960621b6044820152606490fd5b634e487b7160e01b88526021600452602488fd5b60405162461bcd60e51b815260206004820152601e60248201527f4f6e6c792073706f6e736f722063616e207570646174652073746174757300006044820152606490fd5b610bf991503d808a833e610776818361203d565b5f610892565b8480fd5b5034610204578060031936011261020457600a546040516001600160a01b039091168152602090f35b503461020457606036600319011261020457600435602435604435600481101561070957600254604051631a7f3c3360e01b815260048101859052908590829060249082906001600160a01b03165afa90811561070d578591610e79575b50608001516001600160a01b031633148015610e65575b15610e025781845260136020526040842083855260205260ff6040852054166004811015610dee5715610da957818452601360205260408420838552602052610ced816040862061207b565b60045484906001600160a01b031680610d25575b505060205f51602061362f5f395f51905f5291610d216040518092611eeb565ba380f35b604051602081019085825260ff60f81b8560f81b16604082015242604182015260418152610d5460618261203d565b51902090803b15610718576040516306cc173360e41b81529183918391829084908290610d85908c600484016120ac565b03925af180156107855715610d015781610d9e9161203d565b61070957835f610d01565b60405162461bcd60e51b815260206004820152601e60248201527f4e6f20616e6f6e796d6f7573206170706c69636174696f6e20666f756e6400006044820152606490fd5b634e487b7160e01b85526021600452602485fd5b60405162461bcd60e51b815260206004820152603560248201527f4f6e6c792073706f6e736f72206f7220617574686f72697a65642072656769736044820152747472792063616e207570646174652073746174757360581b6064820152608490fd5b506009546001600160a01b03163314610ca1565b610e8d91503d8087833e610776818361203d565b5f610c8a565b50346102045780600319360112610204576007546040516001600160a01b039091168152602090f35b50346102045760803660031901126102045760443590602435610edd611e74565b92610ef360018060a01b03600954163314611f80565b610f076001600160a01b0385161515611fc7565b8083526015602052604083208284526020526040832054611089578254604051633e9d33cb60e11b8152600480359082015290610120908290602490829088906001600160a01b03165af190811561107e5790602491859161105f575b50610f7561010082015115156121b9565b600254604051631a7f3c3360e01b81526004810186905292869184919082906001600160a01b03165afa91821561070d576110199260209792610fc892889261104a575061054660a08301511515612427565b9095600160405191610fd98361200e565b88835260408a84019185835288815260158c528181208a82528c5220925183555191015561100686612482565b61100f81612482565b6105cb82876124e3565b7f5e916b26f53cabc8f0fa4b1a7f4acbdb6a0365f5a8f26344613fadba82fc566784604051858152a3604051908152f35b61077e9192503d808a833e610776818361203d565b61107891506101203d81116107b8576107aa818361203d565b5f610f64565b6040513d86823e3d90fd5b60405162461bcd60e51b815260206004820152600e60248201526d105b1c9958591e481cdd1859d95960921b6044820152606490fd5b50346102045760203660031901126102045760406020916004358152601183522054604051908152f35b50346102045760ff60406020926110ff36611ed5565b908252600b855282822090825284522054166040519015158152f35b50346102045780600319360112610204576008546001600160a01b038116903382900361118257600780546001600160a01b03199081168417909155166008557fb27970c1714b28277b78cc17ac2fe9556e7f048cd48358cffe3dc7d547608fdc8280a280f35b60405162461bcd60e51b81526020600482015260126024820152712737ba10383937b837b9b2b21037bbb732b960711b6044820152606490fd5b5034610204576020366003190112610204576111d6611e5e565b6111eb60018060a01b03600754163314611f0c565b6001600160a01b03166111ff811515611f45565b600880546001600160a01b031916821790557f6ab4d119f23076e8ad491bc65ce85f017fb0591dce08755ba8591059cc51737a8280a280f35b50346102045760a0366003190112610204576004356001600160401b0381116103c457611269903690600401611ea8565b90602435906001600160401b0382116107095736602383011215610709576004820135916001600160401b038311610bff5760248101928060051b94366024878501011161154f5760443595606435956112c1611e8a565b9560018060a01b03600a54169081156116f8576003860361169357888b52600b60205260408b208a8c5260205260ff60408c20541661165a578515611606578983350361161a57856001101561160657886044880135036115cc57888b52601360205260408b208a8c5260205260ff60408c20541660048110156115b8571561155f576113679060405195633a94343960e21b875260406004880152604487019161210e565b848103600319016024860152858152926001600160fb1b03861161155b576020858286829694839585809a0137010301915afa9081156107bf57879161151d575b50156114e357600210156114cf576064013590828552600b6020526040852084865260205260408520600160ff19825416179055828552600c602052604085208486526020528160408620558460018060a01b03600454168061143d575b50507f6cfe8ca9a04c3a368fa35dddcaaf5fb9ea44007e0fb5c165f19eea299ff5b98291604091825191825215156020820152a380f35b60405160208101908682528560408201524260608201526d1393d25497d0d15495125192515160921b6080820152606e815261147a608e8261203d565b51902090803b15610718576040516306cc173360e41b815291839183918290849082906114ab908d60048401612093565b03925af18015610785571561140657816114c49161203d565b610bff57845f611406565b634e487b7160e01b85526032600452602485fd5b60405162461bcd60e51b815260206004820152601260248201527124b73b30b634b2102737b4b910383937b7b360711b6044820152606490fd5b90506020813d602011611553575b816115386020938361203d565b8101031261154f5761154990612101565b5f6113a8565b8680fd5b3d915061152b565b8a80fd5b60405162461bcd60e51b815260206004820152602b60248201527f4e6f20464845206170706c69636174696f6e20666f756e6420666f722074686960448201526a3990373ab63634b334b2b960a91b6064820152608490fd5b634e487b7160e01b8c52602160045260248cfd5b60405162461bcd60e51b815260206004820152601260248201527109cead8d8d2ccd2cae440dad2e6dac2e8c6d60731b6044820152606490fd5b634e487b7160e01b8b52603260045260248bfd5b60405162461bcd60e51b815260206004820152601860248201527714d8dbdc19481b5a5cdb585d18da0e881d1c9a585b17da5960421b6044820152606490fd5b60405162461bcd60e51b8152602060048201526011602482015270105b1c9958591e4818d95c9d1a599a5959607a1b6044820152606490fd5b60405162461bcd60e51b815260206004820152603760248201527f45787065637465642033207075626c696320696e707574733a2073636f70652c604482015276040dcead8d8d2ccd2cae45840e4cae6ead8e8bed0c2e6d604b1b6064820152608490fd5b60405162461bcd60e51b815260206004820152601060248201526f15995c9a599a595c881b9bdd081cd95d60821b6044820152606490fd5b50346102045760203660031901126102045761174a611e5e565b61175f60018060a01b03600754163314611f0c565b6001600160a01b0316611773811515611f45565b600680546001600160a01b03191691909117905580f35b50346102045780600319360112610204576001546040516001600160a01b039091168152602090f35b50346102045780600319360112610204576002546040516001600160a01b039091168152602090f35b5034610204578060031936011261020457546040516001600160a01b039091168152602090f35b50346102045760403660031901126102045761181d611e5e565b5060405162461bcd60e51b815260206004820152606060248201527f4c656761637920656c69676962696c69747920636865636b206465707265636160448201527f7465642e2055736520616e6f6e796d6f757320666c6f7720766961204d65645660648201527f61756c7452656769737472792e7374616765416e6f6e796d6f75734170706c79608482015260a490fd5b5034610204576040366003190112610204576020906040906001600160a01b036118d7611e5e565b168033148015611905575b6118eb906120c5565b8152600d8352818120602435825283522054604051908152f35b506006546001600160a01b031633146118e2565b50346102045780600319360112610204576009546040516001600160a01b039091168152602090f35b503461020457604060209161195636611ed5565b908252600c845282822090825283522054604051908152f35b50346102045780600319360112610204576005546040516001600160a01b039091168152602090f35b5034611c5b5760c0366003190112611c5b576044356024356119b8611e74565b916119c1611e8a565b9260a4356001600160401b038111611c5b576119e1903690600401611ea8565b90946119f860018060a01b03600954163314611f80565b611a0c6001600160a01b0384161515611fc7565b835f52601560205260405f20855f5260205260405f2095604051611a2f8161200e565b60018854988983520154976020820198895215611d285751965192611a5381612060565b611a60604051918261203d565b81815260208101913681850111611c5b5789835f60208460849560ff99839937860101528615611d21576001935b6040519687958694630135f2c360e61b86526004860152166024840152606060448401525180918160648501528484015e5f828201840152601f01601f191681010301815f51602061360f5f395f51905f525afa908115611c50575f91611ce7575b5015611ca25715611c5f5781611b5691845f52601560205260405f20865f526020525f6001604082208281550155611b2787612482565b611b3081612482565b845f5260116020528660405f2055845f5260126020528060405f20556105cb82886124e3565b5f82815260146020908152604080832080546001600160a01b0319166001600160a01b03958616179055601382528083208684529091529020805460ff191660011790556004541680611bc9575b505f51602061362f5f395f51905f5260208095604051905060018152a3604051908152f35b936040516020810190600435825283604082015242606082015260608152611bf260808261203d565b51902094803b15611c5b576040516306cc173360e41b8152955f918791829084908290611c23908a60048401612093565b03925af1948515611c5057602095611c3d575b5093611ba4565b611c4991505f9061203d565b5f84611c36565b6040513d5f823e3d90fd5b5f80fd5b60405162461bcd60e51b815260206004820152601b60248201527a139bdd08195b1a59da589b1948199bdc881d1a1a5cc81d1c9a585b602a1b6044820152606490fd5b60405162461bcd60e51b815260206004820152601e60248201527f496e76616c696420656c69676962696c6974792064656372797074696f6e00006044820152606490fd5b90506020813d602011611d19575b81611d026020938361203d565b81010312611c5b57611d1390612101565b5f611af0565b3d9150611cf5565b5f93611a8e565b60405162461bcd60e51b815260206004820152600e60248201526d139bdd1a1a5b99c81cdd1859d95960921b6044820152606490fd5b34611c5b576020366003190112611c5b57611d77611e5e565b611d8c60018060a01b03600754163314611f0c565b6001600160a01b0316611da0811515611f45565b600980546001600160a01b031916919091179055005b34611c5b575f366003190112611c5b576004546040516001600160a01b039091168152602090f35b34611c5b575f366003190112611c5b576006546040516001600160a01b039091168152602090f35b34611c5b576020366003190112611c5b57611e1f611e5e565b611e3460018060a01b03600754163314611f0c565b6001600160a01b0316611e48811515611f45565b600580546001600160a01b031916919091179055005b600435906001600160a01b0382168203611c5b57565b606435906001600160a01b0382168203611c5b57565b608435908115158203611c5b57565b602435908115158203611c5b57565b9181601f84011215611c5b578235916001600160401b038311611c5b5760208381860195010111611c5b57565b6040906003190112611c5b576004359060243590565b906004821015611ef85752565b634e487b7160e01b5f52602160045260245ffd5b15611f1357565b60405162461bcd60e51b815260206004820152600a60248201526927b7363c9037bbb732b960b11b6044820152606490fd5b15611f4c57565b60405162461bcd60e51b815260206004820152600c60248201526b5a65726f206164647265737360a01b6044820152606490fd5b15611f8757565b60405162461bcd60e51b81526020600482015260186024820152774f6e6c7920617574686f72697a656420726567697374727960401b6044820152606490fd5b15611fce57565b60405162461bcd60e51b8152602060048201526018602482015277125b9d985b1a59081c195c9b5a5d081c9958da5c1a595b9d60421b6044820152606490fd5b604081019081106001600160401b0382111761202957604052565b634e487b7160e01b5f52604160045260245ffd5b601f909101601f19168101906001600160401b0382119082101761202957604052565b6001600160401b03811161202957601f01601f191660200190565b906004811015611ef85760ff80198354169116179055565b6040909392919360608101946002825260208201520152565b6040909392919360608101946003825260208201520152565b156120cc57565b60405162461bcd60e51b815260206004820152600d60248201526c1058d8d95cdcc819195b9a5959609a1b6044820152606490fd5b51908115158203611c5b57565b908060209392818452848401375f828201840152601f01601f1916010190565b9081610120910312611c5b576040519061012082016001600160401b03811183821017612029576121b09161010091604052805184526020810151602085015260408101516040850152606081015160608501526080810151608085015260a081015160a085015260c081015160c085015260e081015160e085015201612101565b61010082015290565b156121c057565b60405162461bcd60e51b815260206004820152602560248201527f50617469656e74206e6f7420666f756e6420666f72207468697320636f6d6d696044820152641d1b595b9d60da1b6064820152608490fd5b81601f82011215611c5b5780519061222a82612060565b92612238604051948561203d565b82845260208383010111611c5b57815f9260208093018386015e8301015290565b519060ff82168203611c5b57565b519061ffff82168203611c5b57565b602081830312611c5b578051906001600160401b038211611c5b570161020081830312611c5b576040519161020083016001600160401b038111848210176120295760405281516001600160401b038111611c5b57816122d7918401612213565b835260208201516001600160401b038111611c5b57816122f8918401612213565b602084015260408201516001600160401b038111611c5b578161231c918401612213565b60408401526060820151906001600160401b038211611c5b57612340918301612213565b60608301526080810151906001600160a01b0382168203611c5b576101e091608084015261237060a08201612101565b60a084015261238160c08201612259565b60c084015261239260e08201612259565b60e08401526123a46101008201612101565b6101008401526123b76101208201612267565b6101208401526123ca6101408201612259565b6101408401526123dd6101608201612259565b6101608401526123f06101808201612267565b6101808401526124036101a08201612101565b6101a08401526124166101c08201612101565b6101c084015201516101e082015290565b1561242e57565b60405162461bcd60e51b8152602060048201526013602482015272547269616c206973206e6f742061637469766560681b6044820152606490fd5b9081526001600160a01b03909116602082015260400190565b5f51602061360f5f395f51905f523b15611c5b575f6124b79160405180938192631974142760e21b8352309060048401612469565b0381835f51602061360f5f395f51905f525af18015611c50576124d75750565b5f6124e19161203d565b565b5f51602061360f5f395f51905f523b15611c5b57604051631974142760e21b8152915f91839182916124b7919060048401612469565b80519161252c60ff60c083015116613431565b908315612fb3575b8115612fa3575b60405160609261254b848361203d565b60028252601f1984019586366020850137612565836133f0565b5261256f82613411565b526125ab6020809260405190612585838361203d565b5f82525f368137604051631888debd60e01b8152938492839260156002600486016133c0565b03815f5f51602061360f5f395f51905f525af18015611c50575f90612f74575b61265191508286516125e360ff60e088015116613431565b8115612f64575b8015612f56575b604051916125ff898461203d565b600283528a3685850137612612836133f0565b5261261c82613411565b526040519061262b838361203d565b5f82525f368137604051631888debd60e01b8152948592839260146002600486016133c0565b03815f5f51602061360f5f395f51905f525af1908115611c50575f91612f25575b61267c9250612fc3565b61010083015190959015612f135761272b6126a5608087015161269f60016134ad565b906130ac565b8360a08801516126bd61ffff6101208901511661351e565b8115612f03575b8015612ef5575b604051916126d98a8461203d565b600283528636858501376126ec836133f0565b526126f682613411565b5260405190612705838361203d565b5f82525f368137604051631888debd60e01b8152948592839260126003600486016133c0565b03815f5f51602061360f5f395f51905f525af1918215611c50575f92612ec6575b5061014085015160ff1660018103612e9f57506127708488015161269f60016134ad565b925b6101608601805160ff1615612e8e5761279c9061279660ff8a8c0151925116613431565b90613146565b945b610180870197898b61ffff8b511615155f14612e70575061283b996127cd61ffff60408694015192511661351e565b8115612e60575b8015612e52575b604051916127e9858461203d565b600283528636858501376127fc836133f0565b5261280682613411565b5260405190612815838361203d565b5f82525f368137604051631888debd60e01b81529b8c92839260136003600486016133c0565b03815f5f51602061360f5f395f51905f525af18015611c50578b995f91612e1f575b5086868a87848c95509e8f926101a0905b015115612e0c576101c061288960c083015161269f5f6134ad565b9e5b015115612dcf5760e0015161289f5f6134ad565b6128a8916130ac565b9d612918956128f86128e16128fe976128f86128e16128fe996128f86128e16128f89a6128f86128e16128e19c5b6128f86128e161346f565b916128ea6135cf565b6128f261346f565b916131dd565b906132be565b6128f86129096135cf565b61291161346f565b908d6131dd565b9060405193612927848661203d565b5f85525f36813761299260809285604051612942868261203d565b60038152601f19860198893684840137600c61295d836133f0565b52600261296983613411565b525f61297483613421565b52604051631888debd60e01b81529485928392600260048501613388565b03815f5f51602061360f5f395f51905f525af18015611c505786925f91612d9c575b50612a27938690828215612d8c575b15612d7c575b6129d6604051948561203d565b6002845236858501376129e8836133f0565b526129f282613411565b5260405190612a01838361203d565b5f82525f368137604051631888debd60e01b81529384928392600f6002600486016133c0565b03815f5f51602061360f5f395f51905f525af18015611c50575f90612d4d575b612a84915084604051612a5a828261203d565b5f81525f36813760405190612a6f868361203d565b60038252883684840137600261295d836133f0565b03815f5f51602061360f5f395f51905f525af1918215611c50575f92612d1c575b506128f8612ab883612ac0945086613146565b6128ea6135cf565b612b3084604051612ad1828261203d565b5f81525f36813760405190612ae6868361203d565b600382528836848401376004612afb836133f0565b526002612b0783613411565b525f612b1283613421565b52604051631888debd60e01b81529384928392600260048501613388565b03815f5f51602061360f5f395f51905f525af1908115611c50575f91612ced575b50612ba1916128f8612ab883612b68945087613146565b9184604051612b77828261203d565b5f81525f36813760405190612b8c848361203d565b60038252883684840137600661295d836133f0565b03815f5f51602061360f5f395f51905f525af18015611c505785925f91612cb8575b50612c11936128f8612ab883612bda945088613146565b9560405190612be9848361203d565b5f82525f368137612bfd604051938461203d565b6003835236848401376008612afb836133f0565b03815f5f51602061360f5f395f51905f525af1928315611c50575f93612c70575b505094612c68612c6d9a95612c68612c6896612c62612c689c9b976128f8612ab889612c689e612c689b50613146565b9e612fc3565b612fc3565b91565b90809350819b969998949b9792973d8311612cb1575b612c90818361203d565b81010312611c5b579051939895969195909491939091612c68612c6d612c32565b503d612c86565b8381959492503d8311612ce6575b612cd0818361203d565b81010312611c5b57915190918491612c11612bc3565b503d612cc6565b90508481813d8311612d15575b612d04818361203d565b81010312611c5b5751612ba1612b51565b503d612cfa565b91508482813d8311612d46575b612d33818361203d565b81010312611c5b579051906128f8612aa5565b503d612d29565b508381813d8311612d75575b612d63818361203d565b81010312611c5b57612a849051612a47565b503d612d59565b9150612d8661346f565b916129c9565b9150612d9661346f565b916129c3565b83819492503d8311612dc8575b612db3818361203d565b81010312611c5b579051859190612a276129b4565b503d612da9565b50612dda60016134ad565b9d612918956128f86128e16128fe976128f86128e16128fe996128f86128e16128f89a6128f86128e16128e19c6128d6565b6101c0612e1960016134ad565b9e61288b565b809a50838092503d8311612e4b575b612e38818361203d565b81010312611c5b5797518a98908661285d565b503d612e2e565b50612e5b613591565b6127db565b9050612e6a613591565b906127d4565b9950508686868a87612e8260016134ad565b9e8f926101a09061286e565b50612e9960016134ad565b9461279e565b600203612ebc57612eb68488015161269f5f6134ad565b92612772565b612eb660016134ad565b9091508381813d8311612eee575b612ede818361203d565b81010312611c5b5751905f61274c565b503d612ed4565b50612efe613591565b6126cb565b9050612f0d613591565b906126c4565b61272b612f2060016134ad565b6126a5565b90508282813d8311612f4f575b612f3c818361203d565b81010312611c5b5761267c915190612672565b503d612f32565b50612f5f61346f565b6125f1565b9050612f6e61346f565b906125ea565b508181813d8311612f9c575b612f8a818361203d565b81010312611c5b5761265190516125cb565b503d612f80565b9050612fad61346f565b9061253b565b9250612fbd61346f565b92612534565b90811561309a575b801561308a575b60405191612fe160608461203d565b600283526040366020850137612ff6836133f0565b5261300082613411565b5261303b6020809260405190613016838361203d565b5f82525f368137604051631888debd60e01b81529384928392600a5f600486016133c0565b03815f5f51602061360f5f395f51905f525af1918215611c50575f9261306057505090565b90809250813d8311613083575b613077818361203d565b81010312611c5b575190565b503d61306d565b5061309560016134ad565b612fd2565b90506130a660016134ad565b90612fcb565b908115613134575b8015613124575b604051916130ca60608461203d565b6002835260403660208501376130df836133f0565b526130e982613411565b5261303b60208092604051906130ff838361203d565b5f82525f368137604051631888debd60e01b8152938492839260185f600486016133c0565b5061312f60016134ad565b6130bb565b905061314060016134ad565b906130b4565b9081156131cd575b80156131bf575b6040519161316460608461203d565b600283526040366020850137613179836133f0565b5261318382613411565b5261303b6020809260405190613199838361203d565b5f82525f368137604051631888debd60e01b8152938492839260126002600486016133c0565b506131c861346f565b613155565b90506131d761346f565b9061314e565b919082156132ad575b801561329f575b811561328f575b6040519261320360808561203d565b600384526060366020860137613218846133f0565b5261322283613411565b5261322c82613421565b526020908161327d60405192613242838561203d565b5f84525f36813761303b6040519485938493631888debd60e01b85526002600486015260046024860152608060448601526084850190613355565b83810360031901606485015290613355565b905061329961346f565b906131f4565b506132a861346f565b6131ed565b91506132b85f6134ad565b916131e6565b908115613345575b8015613337575b604051916132dc60608461203d565b6002835260403660208501376132f1836133f0565b526132fb82613411565b5261303b6020809260405190613311838361203d565b5f82525f368137604051631888debd60e01b8152938492839260086002600486016133c0565b5061334061346f565b6132cd565b905061334f61346f565b906132c6565b90602080835192838152019201905f5b8181106133725750505090565b8251845260209384019390920191600101613365565b916133af9060ff6133bd9593168452601a6020850152608060408501526080840190613355565b916060818403910152613355565b90565b9293919060ff1683526020811015611ef8576133bd936133af916020850152608060408501526080840190613355565b8051156133fd5760200190565b634e487b7160e01b5f52603260045260245ffd5b8051600110156133fd5760400190565b8051600210156133fd5760600190565b61303b60208092604051613445838261203d565b5f81525f3681376040519161345b60808461203d565b6003835260603685850137612afb836133f0565b602061303b81604051613482828261203d565b5f81525f3681376040519061349860808361203d565b60038252606036848401375f612afb836133f0565b61303b602080926040516134c1838261203d565b5f81525f368137604051916134d760808461203d565b60038352606036858501376134eb836133f0565b525f6134f683613411565b525f61350183613421565b52604051631888debd60e01b815293849283925f60048501613388565b61303b60208092604051613532838261203d565b5f81525f3681376040519161354860808461203d565b600383526060368585013761355c836133f0565b52600361356883613411565b525f61357383613421565b52604051631888debd60e01b81529384928392600360048501613388565b602061303b816040516135a4828261203d565b5f81525f368137604051906135ba60808361203d565b60038252606036848401375f61355c836133f0565b602061303b816040516135e2828261203d565b5f81525f368137604051906135f860808361203d565b60038252606036848401376001612afb836133f056fe000000000000000000000000ea30c4b8b44078bbf8a6ef5b9f1ec1626c7848d959604682590590d3834bb055beebf179de53952cb5e3bfeef55f68cc91139e9ea164736f6c634300081b000a",
  "linkReferences": {},
  "deployedLinkReferences": {}
}