{
  "_format": "hh-sol-artifact-1",
  "contractName": "EligibilityEngine",
  "sourceName": "contracts/EligibilityEngine.sol",
  "abi": [
    {
      "inputs": [
        {
          "internalType": "address",
          "name": "_registry",
          "type": "address"
        },
        {
          "internalType": "address",
          "name": "_trialManager",
          "type": "address"
        },
        {
          "internalType": "address",
          "name": "_consentManager",
          "type": "address"
        }
      ],
      "stateMutability": "nonpayable",
      "type": "constructor"
    },
    {
      "inputs": [
        {
          "internalType": "int32",
          "name": "value",
          "type": "int32"
        }
      ],
      "name": "SecurityZoneOutOfBounds",
      "type": "error"
    },
    {
      "anonymous": false,
      "inputs": [
        {
          "indexed": true,
          "internalType": "uint256",
          "name": "nullifier",
          "type": "uint256"
        },
        {
          "indexed": true,
          "internalType": "uint256",
          "name": "trialId",
          "type": "uint256"
        },
        {
          "indexed": false,
          "internalType": "enum EligibilityEngine.ApplicationStatus",
          "name": "status",
          "type": "uint8"
        }
      ],
      "name": "AnonymousApplicationStatusUpdated",
      "type": "event"
    },
    {
      "anonymous": false,
      "inputs": [
        {
          "indexed": true,
          "internalType": "uint256",
          "name": "nullifier",
          "type": "uint256"
        },
        {
          "indexed": true,
          "internalType": "uint256",
          "name": "trialId",
          "type": "uint256"
        }
      ],
      "name": "AnonymousEligibilityStageCancelled",
      "type": "event"
    },
    {
      "anonymous": false,
      "inputs": [
        {
          "indexed": true,
          "internalType": "uint256",
          "name": "nullifier",
          "type": "uint256"
        },
        {
          "indexed": true,
          "internalType": "uint256",
          "name": "trialId",
          "type": "uint256"
        },
        {
          "indexed": false,
          "internalType": "bytes32",
          "name": "finalCt",
          "type": "bytes32"
        }
      ],
      "name": "AnonymousEligibilityStaged",
      "type": "event"
    },
    {
      "anonymous": false,
      "inputs": [
        {
          "indexed": true,
          "internalType": "uint256",
          "name": "nullifier",
          "type": "uint256"
        },
        {
          "indexed": true,
          "internalType": "uint256",
          "name": "trialId",
          "type": "uint256"
        }
      ],
      "name": "AnonymousEncryptedPropensityCommitted",
      "type": "event"
    },
    {
      "anonymous": false,
      "inputs": [
        {
          "indexed": true,
          "internalType": "address",
          "name": "patient",
          "type": "address"
        },
        {
          "indexed": true,
          "internalType": "uint256",
          "name": "trialId",
          "type": "uint256"
        },
        {
          "indexed": false,
          "internalType": "enum EligibilityEngine.ApplicationStatus",
          "name": "status",
          "type": "uint8"
        },
        {
          "indexed": false,
          "internalType": "bytes",
          "name": "message",
          "type": "bytes"
        }
      ],
      "name": "ApplicationStatusUpdated",
      "type": "event"
    },
    {
      "anonymous": false,
      "inputs": [
        {
          "indexed": true,
          "internalType": "address",
          "name": "patient",
          "type": "address"
        },
        {
          "indexed": true,
          "internalType": "uint256",
          "name": "trialId",
          "type": "uint256"
        }
      ],
      "name": "AppliedToTrial",
      "type": "event"
    },
    {
      "anonymous": false,
      "inputs": [
        {
          "indexed": true,
          "internalType": "address",
          "name": "patient",
          "type": "address"
        },
        {
          "indexed": true,
          "internalType": "uint256",
          "name": "trialId",
          "type": "uint256"
        }
      ],
      "name": "EligibilityComputed",
      "type": "event"
    },
    {
      "anonymous": false,
      "inputs": [
        {
          "indexed": true,
          "internalType": "uint256",
          "name": "nullifier",
          "type": "uint256"
        },
        {
          "indexed": true,
          "internalType": "uint256",
          "name": "trialId",
          "type": "uint256"
        },
        {
          "indexed": false,
          "internalType": "bytes32",
          "name": "resultHash",
          "type": "bytes32"
        },
        {
          "indexed": false,
          "internalType": "bool",
          "name": "eligible",
          "type": "bool"
        }
      ],
      "name": "EligibilityProofVerified",
      "type": "event"
    },
    {
      "anonymous": false,
      "inputs": [
        {
          "indexed": true,
          "internalType": "address",
          "name": "patient",
          "type": "address"
        },
        {
          "indexed": true,
          "internalType": "uint256",
          "name": "trialId",
          "type": "uint256"
        }
      ],
      "name": "EligibilityScoreComputed",
      "type": "event"
    },
    {
      "anonymous": false,
      "inputs": [
        {
          "indexed": true,
          "internalType": "address",
          "name": "newOwner",
          "type": "address"
        }
      ],
      "name": "OwnershipAccepted",
      "type": "event"
    },
    {
      "anonymous": false,
      "inputs": [
        {
          "indexed": true,
          "internalType": "address",
          "name": "proposedOwner",
          "type": "address"
        }
      ],
      "name": "OwnershipProposed",
      "type": "event"
    },
    {
      "inputs": [],
      "name": "acceptOwnership",
      "outputs": [],
      "stateMutability": "nonpayable",
      "type": "function"
    },
    {
      "inputs": [
        {
          "internalType": "uint256",
          "name": "",
          "type": "uint256"
        },
        {
          "internalType": "uint256",
          "name": "",
          "type": "uint256"
        }
      ],
      "name": "anonymousApplications",
      "outputs": [
        {
          "internalType": "enum EligibilityEngine.ApplicationStatus",
          "name": "",
          "type": "uint8"
        }
      ],
      "stateMutability": "view",
      "type": "function"
    },
    {
      "inputs": [
        {
          "internalType": "uint256",
          "name": "",
          "type": "uint256"
        },
        {
          "internalType": "bool",
          "name": "",
          "type": "bool"
        },
        {
          "internalType": "bytes",
          "name": "",
          "type": "bytes"
        }
      ],
      "name": "applyToTrial",
      "outputs": [],
      "stateMutability": "pure",
      "type": "function"
    },
    {
      "inputs": [],
      "name": "authorizedRegistry",
      "outputs": [
        {
          "internalType": "address",
          "name": "",
          "type": "address"
        }
      ],
      "stateMutability": "view",
      "type": "function"
    },
    {
      "inputs": [],
      "name": "automationContract",
      "outputs": [
        {
          "internalType": "address",
          "name": "",
          "type": "address"
        }
      ],
      "stateMutability": "view",
      "type": "function"
    },
    {
      "inputs": [
        {
          "internalType": "uint256",
          "name": "_nullifier",
          "type": "uint256"
        },
        {
          "internalType": "uint256",
          "name": "_trialId",
          "type": "uint256"
        }
      ],
      "name": "cancelStagedAnonymousEligibility",
      "outputs": [],
      "stateMutability": "nonpayable",
      "type": "function"
    },
    {
      "inputs": [
        {
          "internalType": "uint256",
          "name": "_commitment",
          "type": "uint256"
        },
        {
          "internalType": "uint256",
          "name": "_trialId",
          "type": "uint256"
        },
        {
          "internalType": "uint256",
          "name": "_nullifier",
          "type": "uint256"
        },
        {
          "internalType": "address",
          "name": "_permitRecipient",
          "type": "address"
        },
        {
          "internalType": "address",
          "name": "_patientAddress",
          "type": "address"
        }
      ],
      "name": "checkAnonymousEligibilityWithConsent",
      "outputs": [
        {
          "internalType": "ebool",
          "name": "",
          "type": "bytes32"
        }
      ],
      "stateMutability": "nonpayable",
      "type": "function"
    },
    {
      "inputs": [
        {
          "internalType": "address",
          "name": "",
          "type": "address"
        },
        {
          "internalType": "uint256",
          "name": "",
          "type": "uint256"
        }
      ],
      "name": "checkEligibility",
      "outputs": [
        {
          "internalType": "ebool",
          "name": "",
          "type": "bytes32"
        }
      ],
      "stateMutability": "pure",
      "type": "function"
    },
    {
      "inputs": [],
      "name": "consentGate",
      "outputs": [
        {
          "internalType": "contract EncryptedConsentGate",
          "name": "",
          "type": "address"
        }
      ],
      "stateMutability": "view",
      "type": "function"
    },
    {
      "inputs": [],
      "name": "consentManager",
      "outputs": [
        {
          "internalType": "contract ConsentManager",
          "name": "",
          "type": "address"
        }
      ],
      "stateMutability": "view",
      "type": "function"
    },
    {
      "inputs": [],
      "name": "dataAccessLog",
      "outputs": [
        {
          "internalType": "contract DataAccessLog",
          "name": "",
          "type": "address"
        }
      ],
      "stateMutability": "view",
      "type": "function"
    },
    {
      "inputs": [
        {
          "internalType": "uint256",
          "name": "",
          "type": "uint256"
        }
      ],
      "name": "decryptPermitHolder",
      "outputs": [
        {
          "internalType": "address",
          "name": "",
          "type": "address"
        }
      ],
      "stateMutability": "view",
      "type": "function"
    },
    {
      "inputs": [],
      "name": "eligibilityVerifier",
      "outputs": [
        {
          "internalType": "contract IHonkVerifier",
          "name": "",
          "type": "address"
        }
      ],
      "stateMutability": "view",
      "type": "function"
    },
    {
      "inputs": [
        {
          "internalType": "uint256",
          "name": "_commitment",
          "type": "uint256"
        },
        {
          "internalType": "uint256",
          "name": "_trialId",
          "type": "uint256"
        },
        {
          "internalType": "uint256",
          "name": "_nullifier",
          "type": "uint256"
        },
        {
          "internalType": "address",
          "name": "_permitRecipient",
          "type": "address"
        },
        {
          "internalType": "bool",
          "name": "_decryptedEligible",
          "type": "bool"
        },
        {
          "internalType": "bytes",
          "name": "_decryptSig",
          "type": "bytes"
        }
      ],
      "name": "finalizeAnonymousEligibility",
      "outputs": [
        {
          "internalType": "ebool",
          "name": "finalResult",
          "type": "bytes32"
        }
      ],
      "stateMutability": "nonpayable",
      "type": "function"
    },
    {
      "inputs": [
        {
          "internalType": "uint256",
          "name": "_nullifier",
          "type": "uint256"
        },
        {
          "internalType": "uint256",
          "name": "_trialId",
          "type": "uint256"
        }
      ],
      "name": "getAnonymousApplicationStatus",
      "outputs": [
        {
          "internalType": "enum EligibilityEngine.ApplicationStatus",
          "name": "",
          "type": "uint8"
        }
      ],
      "stateMutability": "view",
      "type": "function"
    },
    {
      "inputs": [
        {
          "internalType": "uint256",
          "name": "_nullifier",
          "type": "uint256"
        },
        {
          "internalType": "uint256",
          "name": "_trialId",
          "type": "uint256"
        }
      ],
      "name": "getAnonymousResult",
      "outputs": [
        {
          "internalType": "ebool",
          "name": "",
          "type": "bytes32"
        }
      ],
      "stateMutability": "view",
      "type": "function"
    },
    {
      "inputs": [
        {
          "internalType": "uint256",
          "name": "_nullifier",
          "type": "uint256"
        },
        {
          "internalType": "uint256",
          "name": "_trialId",
          "type": "uint256"
        }
      ],
      "name": "getAnonymousScore",
      "outputs": [
        {
          "internalType": "euint8",
          "name": "",
          "type": "bytes32"
        }
      ],
      "stateMutability": "view",
      "type": "function"
    },
    {
      "inputs": [
        {
          "internalType": "address",
          "name": "_patient",
          "type": "address"
        },
        {
          "internalType": "uint256",
          "name": "_trialId",
          "type": "uint256"
        }
      ],
      "name": "getEncryptedResult",
      "outputs": [
        {
          "internalType": "ebool",
          "name": "",
          "type": "bytes32"
        }
      ],
      "stateMutability": "view",
      "type": "function"
    },
    {
      "inputs": [
        {
          "internalType": "address",
          "name": "_patient",
          "type": "address"
        },
        {
          "internalType": "uint256",
          "name": "_trialId",
          "type": "uint256"
        }
      ],
      "name": "getEncryptedScore",
      "outputs": [
        {
          "internalType": "euint8",
          "name": "",
          "type": "bytes32"
        }
      ],
      "stateMutability": "view",
      "type": "function"
    },
    {
      "inputs": [],
      "name": "legacyPatientRegistry",
      "outputs": [
        {
          "internalType": "address",
          "name": "",
          "type": "address"
        }
      ],
      "stateMutability": "view",
      "type": "function"
    },
    {
      "inputs": [
        {
          "internalType": "uint256",
          "name": "",
          "type": "uint256"
        },
        {
          "internalType": "uint256",
          "name": "",
          "type": "uint256"
        }
      ],
      "name": "noirResultHashes",
      "outputs": [
        {
          "internalType": "bytes32",
          "name": "",
          "type": "bytes32"
        }
      ],
      "stateMutability": "view",
      "type": "function"
    },
    {
      "inputs": [
        {
          "internalType": "uint256",
          "name": "",
          "type": "uint256"
        },
        {
          "internalType": "uint256",
          "name": "",
          "type": "uint256"
        }
      ],
      "name": "noirVerifiedResults",
      "outputs": [
        {
          "internalType": "bool",
          "name": "",
          "type": "bool"
        }
      ],
      "stateMutability": "view",
      "type": "function"
    },
    {
      "inputs": [],
      "name": "owner",
      "outputs": [
        {
          "internalType": "address",
          "name": "",
          "type": "address"
        }
      ],
      "stateMutability": "view",
      "type": "function"
    },
    {
      "inputs": [],
      "name": "patientRegistry",
      "outputs": [
        {
          "internalType": "contract IAnonymousPatientRegistry",
          "name": "",
          "type": "address"
        }
      ],
      "stateMutability": "view",
      "type": "function"
    },
    {
      "inputs": [],
      "name": "pendingOwner",
      "outputs": [
        {
          "internalType": "address",
          "name": "",
          "type": "address"
        }
      ],
      "stateMutability": "view",
      "type": "function"
    },
    {
      "inputs": [
        {
          "internalType": "address",
          "name": "_newOwner",
          "type": "address"
        }
      ],
      "name": "proposeOwnership",
      "outputs": [],
      "stateMutability": "nonpayable",
      "type": "function"
    },
    {
      "inputs": [],
      "name": "scoreLeaderboard",
      "outputs": [
        {
          "internalType": "address",
          "name": "",
          "type": "address"
        }
      ],
      "stateMutability": "view",
      "type": "function"
    },
    {
      "inputs": [
        {
          "internalType": "address",
          "name": "_registry",
          "type": "address"
        }
      ],
      "name": "setAuthorizedRegistry",
      "outputs": [],
      "stateMutability": "nonpayable",
      "type": "function"
    },
    {
      "inputs": [
        {
          "internalType": "address",
          "name": "_automation",
          "type": "address"
        }
      ],
      "name": "setAutomationContract",
      "outputs": [],
      "stateMutability": "nonpayable",
      "type": "function"
    },
    {
      "inputs": [
        {
          "internalType": "address",
          "name": "_gate",
          "type": "address"
        }
      ],
      "name": "setConsentGate",
      "outputs": [],
      "stateMutability": "nonpayable",
      "type": "function"
    },
    {
      "inputs": [
        {
          "internalType": "address",
          "name": "_log",
          "type": "address"
        }
      ],
      "name": "setDataAccessLog",
      "outputs": [],
      "stateMutability": "nonpayable",
      "type": "function"
    },
    {
      "inputs": [
        {
          "internalType": "address",
          "name": "_verifier",
          "type": "address"
        }
      ],
      "name": "setEligibilityVerifier",
      "outputs": [],
      "stateMutability": "nonpayable",
      "type": "function"
    },
    {
      "inputs": [
        {
          "internalType": "address",
          "name": "_legacy",
          "type": "address"
        }
      ],
      "name": "setLegacyPatientRegistry",
      "outputs": [],
      "stateMutability": "nonpayable",
      "type": "function"
    },
    {
      "inputs": [
        {
          "internalType": "address",
          "name": "_leaderboard",
          "type": "address"
        }
      ],
      "name": "setScoreLeaderboard",
      "outputs": [],
      "stateMutability": "nonpayable",
      "type": "function"
    },
    {
      "inputs": [
        {
          "internalType": "uint256",
          "name": "_commitment",
          "type": "uint256"
        },
        {
          "internalType": "uint256",
          "name": "_trialId",
          "type": "uint256"
        },
        {
          "internalType": "uint256",
          "name": "_nullifier",
          "type": "uint256"
        },
        {
          "internalType": "address",
          "name": "_permitRecipient",
          "type": "address"
        }
      ],
      "name": "stageAnonymousEligibility",
      "outputs": [
        {
          "internalType": "bytes32",
          "name": "finalCt",
          "type": "bytes32"
        }
      ],
      "stateMutability": "nonpayable",
      "type": "function"
    },
    {
      "inputs": [],
      "name": "trialManager",
      "outputs": [
        {
          "internalType": "contract TrialManager",
          "name": "",
          "type": "address"
        }
      ],
      "stateMutability": "view",
      "type": "function"
    },
    {
      "inputs": [
        {
          "internalType": "uint256",
          "name": "_trialId",
          "type": "uint256"
        },
        {
          "internalType": "uint256",
          "name": "_nullifier",
          "type": "uint256"
        },
        {
          "internalType": "enum EligibilityEngine.ApplicationStatus",
          "name": "_status",
          "type": "uint8"
        }
      ],
      "name": "updateAnonymousApplicationStatus",
      "outputs": [],
      "stateMutability": "nonpayable",
      "type": "function"
    },
    {
      "inputs": [
        {
          "internalType": "uint256",
          "name": "_trialId",
          "type": "uint256"
        },
        {
          "internalType": "address",
          "name": "_patient",
          "type": "address"
        },
        {
          "internalType": "enum EligibilityEngine.ApplicationStatus",
          "name": "_status",
          "type": "uint8"
        },
        {
          "internalType": "bytes",
          "name": "_message",
          "type": "bytes"
        }
      ],
      "name": "updateApplicationStatus",
      "outputs": [],
      "stateMutability": "nonpayable",
      "type": "function"
    },
    {
      "inputs": [
        {
          "internalType": "bytes",
          "name": "_proof",
          "type": "bytes"
        },
        {
          "internalType": "bytes32[]",
          "name": "_publicInputs",
          "type": "bytes32[]"
        },
        {
          "internalType": "uint256",
          "name": "_trialId",
          "type": "uint256"
        },
        {
          "internalType": "uint256",
          "name": "_nullifier",
          "type": "uint256"
        },
        {
          "internalType": "bool",
          "name": "_eligible",
          "type": "bool"
        }
      ],
      "name": "verifyEligibilityProof",
      "outputs": [],
      "stateMutability": "nonpayable",
      "type": "function"
    }
  ],
  "bytecode": "0x60803460ad57601f61391e38819003918201601f19168301916001600160401b0383118484101760b15780849260609460405283398101031260ad5760428160c5565b906057604060516020840160c5565b920160c5565b600880546001600160a01b031990811633179091555f805482166001600160a01b039586161790556002805482169385169390931790925560038054909216921691909117905560405161384590816100d98239f35b5f80fd5b634e487b7160e01b5f52604160045260245ffd5b51906001600160a01b038216820360ad5756fe60806040526004361015610011575f80fd5b5f5f3560e01c806303a042fc146120735780630689d5ed1461204b5780630798230914612023578063090741a014611fcb5780630a69131914611bdc578063112476ae14611bb35780631928a51814611b865780632d0391ba14611b595780632d7306e014611b305780632e8ff56314611ac6578063467cd4f01461092b57806349df1feb14611a1a5780635250c6e2146119f357806355f8cfdd146119ca5780635d73f544146119a15780636276c7b31461194757806362909f0a146118ed5780636d891f381461137a578063710bf322146112fe57806379ba50971461125d5780637f8c99d71461122b5780638c7784b3146110335780638da5cb5b1461100a578063972a6ddf14610da3578063a14ea2b814610d7a578063ab03380214610962578063b6e4033f1461092b578063b85fe8a21461055a578063c0b21fd014610508578063d350a18f1461044d578063dfed353214610420578063e1cfaf28146103f7578063e30c3978146103ce578063e6414e3714610374578063e75bb2661461034b578063ec0cd44b14610318578063f46a878b1461028d578063f520f24f146102335763fda0fbb8146101c7575f80fd5b34610230576040366003190112610230576020906040906001600160a01b036101ee6120cb565b16803314801561021c575b6102029061236f565b8152600f8352818120602435825283522054604051908152f35b506007546001600160a01b031633146101f9565b80fd5b50346102305760203660031901126102305761024d6120cb565b61026260018060a01b03600854163314612179565b6001600160a01b03166102768115156121b2565b600480546001600160a01b03191691909117905580f35b50346102305761029c36612142565b906102b260018060a01b03600a541633146121ed565b8083526016602052604083208284526020526102d3604084205415156122cd565b8083526016602052604083208284526020525f60016040852082815501557f531be854624155ace8feaa7624c89efee81e78b0d2fb401c027853d1db61a53d8380a380f35b503461023057602036600319011261023057602090600435815260158252604060018060a01b0391205416604051908152f35b50346102305780600319360112610230576003546040516001600160a01b039091168152602090f35b50346102305760203660031901126102305761038e6120cb565b6103a360018060a01b03600854163314612179565b6001600160a01b03166103b78115156121b2565b600b80546001600160a01b03191691909117905580f35b50346102305780600319360112610230576009546040516001600160a01b039091168152602090f35b50346102305780600319360112610230576006546040516001600160a01b039091168152602090f35b503461023057604060209161043436612142565b9082526012845282822090825283522054604051908152f35b503461023057606036600319011261023057610467612106565b506044356001600160401b03811161050457610487903690600401612115565b505060405162461bcd60e51b815260206004820152604760248201527f446570726563617465643a2075736520616e6f6e796d6f757320666c6f77207660448201527f6961204d65645661756c7452656769737472792e7374616765416e6f6e796d6f60648201526675734170706c7960c81b608482015260a490fd5b5080fd5b5034610230576020366003190112610230576105226120cb565b61053760018060a01b03600854163314612179565b600180546001600160a01b0319166001600160a01b039290921691909117905580f35b50346102305760a0366003190112610230576004359060243560443561057e6120e1565b6084356001600160a01b038116949190859003610504576105aa60018060a01b03600a541633146121ed565b6105be6001600160a01b0382161515612234565b8154604051633e9d33cb60e11b81526004810188905290610120908290602490829087906001600160a01b03165af1908115610920579060249184916108f1575b506106106101008201511515612463565b600254604051631a7f3c3360e01b81526004810188905292859184919082906001600160a01b03165afa9182156108c25760209285926106669284926108cd575b5061066160a083015115156126d1565b6127c3565b929097604460018060a01b0360035416916040519485938492632264188b60e21b845260048401528b60248401525af180156108c2578390859061088c575b6106f592506106b38161272c565b6106eb826106c1838c61318d565b9a6106cb8161272c565b6106d48c61272c565b6106dd8461272c565b6106e68761272c565b61278d565b6106e6828a61278d565b6106ff828261278d565b6006546001600160a01b03168061087c575b50838352601260205260408320858452602052856040842055838352601360205260408320858452602052604083205582825260146020526040822084835260205260408220600160ff198254161790558282526015602052604082209060018060a01b031660018060a01b03198254161790556040519483835f5160206138195f395f51905f528480a36004546001600160a01b031690816107d7575b505060208095505f5160206137f95f395f51905f5291604051905060018152a3604051908152f35b8660208498019182528460408201524260608201526b15d2551217d0d3d394d1539560a21b6080820152606c8152610810608c826122aa565b519020813b1561087857829161083d916040519485809481936306cc173360e41b83528a6004840161233d565b03925af1801561086d57610854575b8085916107af565b61085f8580926122aa565b610869575f61084c565b8380fd5b6040513d87823e3d90fd5b8280fd5b610886908261278d565b5f610711565b50506020813d6020116108ba575b816108a7602093836122aa565b8101031261086957826106f591516106a5565b3d915061089a565b6040513d86823e3d90fd5b6108ea9192503d8086833e6108e281836122aa565b810190612520565b905f610651565b61091391506101203d8111610919575b61090b81836122aa565b8101906123d8565b5f6105ff565b503d610901565b6040513d85823e3d90fd5b50346102305760ff604060209261094136612142565b9082526014855282822090825284522054166109606040518092612158565bf35b5034610230576080366003190112610230576004356024356001600160a01b0381169081810361086957604435906004821015610d76576064356001600160401b038111610bbb576109b8903690600401612115565b909160248760018060a01b036002541660405192838092631a7f3c3360e01b82528b60048301525afa908115610d6b578891610d51575b50608001516001600160a01b03163303610d0c57858752601060205260408720855f5260205260ff60405f2054166004811015610cf85715610cbc57858752601060205260408720855f52602052610a4a8460405f20612325565b8587526010602090815260408089205f888152925290206001016001600160401b038311610ca8578054600181811c91168015610c9e575b6020821014610c8a579081601f8a949311610c3a575b508383601f8211600114610bd5578491610bca575b508460011b905f198660031b1c19161790555b6004546001600160a01b03169081610b23575b50505091610b1d610b0c927fb8d37bb75e47252fab0d1ead541c50f4b09cf8a0cde18749fa1cca6d7adb33c89460405194858095612158565b6040602085015260408401916123b8565b0390a380f35b604051602081019160018060601b03199060601b16825260ff60f81b8760f81b16603482015242603582015260358152610b5e6055826122aa565b51902090803b1561087857610b8d91839189836040518096819582946306cc173360e41b845260048401612356565b03925af18015610bbf57610ba2575b80610ad3565b81610baf919593956122aa565b610bbb5791855f610b9c565b8580fd5b6040513d84823e3d90fd5b90508501355f610aad565b82855260208520915085601f198116865b818110610c1c575010610c03575b5050600184811b019055610ac0565b8601355f19600387901b60f8161c191690555f80610bf4565b8984013585558d975060019094019360209384019389935001610be6565b908092935260208920601f850160051c81019160208610610c80575b90601f8b959493920160051c01905b818110610c725750610a98565b8a81558a9450600101610c65565b9091508190610c56565b634e487b7160e01b89526022600452602489fd5b90607f1690610a82565b634e487b7160e01b88526041600452602488fd5b60405162461bcd60e51b8152602060048201526014602482015273139bc8185c1c1b1a58d85d1a5bdb88199bdd5b9960621b6044820152606490fd5b634e487b7160e01b88526021600452602488fd5b60405162461bcd60e51b815260206004820152601e60248201527f4f6e6c792073706f6e736f722063616e207570646174652073746174757300006044820152606490fd5b610d6591503d808a833e6108e281836122aa565b5f6109ef565b6040513d8a823e3d90fd5b8480fd5b5034610230578060031936011261023057600b546040516001600160a01b039091168152602090f35b503461023057606036600319011261023057600435602435604435600481101561086957600254604051631a7f3c3360e01b815260048101859052908590829060249082906001600160a01b03165afa90811561086d578591610ff0575b50608001516001600160a01b031633148015610fdc575b15610f795781845260146020526040842083855260205260ff6040852054166004811015610f655715610f2057818452601460205260408420838552602052610e648160408620612325565b60045484906001600160a01b031680610e9c575b505060205f5160206137f95f395f51905f5291610e986040518092612158565ba380f35b604051602081019085825260ff60f81b8560f81b16604082015242604182015260418152610ecb6061826122aa565b51902090803b15610878576040516306cc173360e41b81529183918391829084908290610efc908c60048401612356565b03925af18015610bbf5715610e785781610f15916122aa565b61086957835f610e78565b60405162461bcd60e51b815260206004820152601e60248201527f4e6f20616e6f6e796d6f7573206170706c69636174696f6e20666f756e6400006044820152606490fd5b634e487b7160e01b85526021600452602485fd5b60405162461bcd60e51b815260206004820152603560248201527f4f6e6c792073706f6e736f72206f7220617574686f72697a65642072656769736044820152747472792063616e207570646174652073746174757360581b6064820152608490fd5b50600a546001600160a01b03163314610e18565b61100491503d8087833e6108e281836122aa565b5f610e01565b50346102305780600319360112610230576008546040516001600160a01b039091168152602090f35b503461023057608036600319011261023057604435906024356110546120e1565b9261106a60018060a01b03600a541633146121ed565b61107e6001600160a01b0385161515612234565b80835260166020526040832082845260205260408320546111f5578254604051633e9d33cb60e11b8152600480359082015290610120908290602490829088906001600160a01b03165af19081156108c2579060249185916111d6575b506110ec6101008201511515612463565b600254604051631a7f3c3360e01b81526004810186905292869184919082906001600160a01b03165afa91821561086d57611190926020979261113f9288926111c1575061066160a083015115156126d1565b90956001604051916111508361227b565b88835260408a84019185835288815260168c528181208a82528c5220925183555191015561117d8661272c565b6111868161272c565b6106e6828761278d565b7f5e916b26f53cabc8f0fa4b1a7f4acbdb6a0365f5a8f26344613fadba82fc566784604051858152a3604051908152f35b6108ea9192503d808a833e6108e281836122aa565b6111ef91506101203d81116109195761090b81836122aa565b5f6110db565b60405162461bcd60e51b815260206004820152600e60248201526d105b1c9958591e481cdd1859d95960921b6044820152606490fd5b50346102305760ff604060209261124136612142565b908252600c855282822090825284522054166040519015158152f35b50346102305780600319360112610230576009546001600160a01b03811690338290036112c457600880546001600160a01b03199081168417909155166009557fb27970c1714b28277b78cc17ac2fe9556e7f048cd48358cffe3dc7d547608fdc8280a280f35b60405162461bcd60e51b81526020600482015260126024820152712737ba10383937b837b9b2b21037bbb732b960711b6044820152606490fd5b5034610230576020366003190112610230576113186120cb565b61132d60018060a01b03600854163314612179565b6001600160a01b03166113418115156121b2565b600980546001600160a01b031916821790557f6ab4d119f23076e8ad491bc65ce85f017fb0591dce08755ba8591059cc51737a8280a280f35b50346102305760a0366003190112610230576004356001600160401b038111610504576113ab903690600401612115565b90602435906001600160401b0382116108695736602383011215610869576004820135916001600160401b038311610d765760248101928060051b9436602487850101116116b05760443595606435956114036120f7565b9560018060a01b03600b54169081156118b5576004860361184057888b52600c60205260408b208a8c5260205260ff60408c20541661180757851561177957898335036117c7578560011015611779578860448801350361178d5785600310156117795787156117715760ff60015b1660848801350361173857888b52601460205260408b208a8c5260205260ff60408c205416600481101561172457156116cb576114c89060405195633a94343960e21b87526040600488015260448701916123b8565b848103600319016024860152858152926001600160fb1b0386116116c7576020858286829694839585809a0137010301915afa9081156116bc57879161167e575b50156116445760021015611630576064013590828552600c6020526040852084865260205260408520600160ff19825416179055828552600d602052604085208486526020528160408620558460018060a01b03600454168061159e575b50507f6cfe8ca9a04c3a368fa35dddcaaf5fb9ea44007e0fb5c165f19eea299ff5b98291604091825191825215156020820152a380f35b60405160208101908682528560408201524260608201526d1393d25497d0d15495125192515160921b6080820152606e81526115db608e826122aa565b51902090803b15610878576040516306cc173360e41b8152918391839182908490829061160c908d6004840161233d565b03925af18015610bbf57156115675781611625916122aa565b610d7657845f611567565b634e487b7160e01b85526032600452602485fd5b60405162461bcd60e51b815260206004820152601260248201527124b73b30b634b2102737b4b910383937b7b360711b6044820152606490fd5b90506020813d6020116116b4575b81611699602093836122aa565b810103126116b0576116aa906123ab565b5f611509565b8680fd5b3d915061168c565b6040513d89823e3d90fd5b8a80fd5b60405162461bcd60e51b815260206004820152602b60248201527f4e6f20464845206170706c69636174696f6e20666f756e6420666f722074686960448201526a3990373ab63634b334b2b960a91b6064820152608490fd5b634e487b7160e01b8c52602160045260248cfd5b60405162461bcd60e51b815260206004820152601160248201527008ad8d2ced2c4d8ca40dad2e6dac2e8c6d607b1b6044820152606490fd5b60ff8b611472565b634e487b7160e01b8b52603260045260248bfd5b60405162461bcd60e51b815260206004820152601260248201527109cead8d8d2ccd2cae440dad2e6dac2e8c6d60731b6044820152606490fd5b60405162461bcd60e51b815260206004820152601860248201527714d8dbdc19481b5a5cdb585d18da0e881d1c9a585b17da5960421b6044820152606490fd5b60405162461bcd60e51b8152602060048201526011602482015270105b1c9958591e4818d95c9d1a599a5959607a1b6044820152606490fd5b60405162461bcd60e51b815260206004820152604160248201527f45787065637465642034207075626c696320696e707574733a2073636f70652c60448201527f206e756c6c69666965722c20726573756c745f686173682c20656c696769626c6064820152606560f81b608482015260a490fd5b60405162461bcd60e51b815260206004820152601060248201526f15995c9a599a595c881b9bdd081cd95d60821b6044820152606490fd5b5034610230576020366003190112610230576119076120cb565b61191c60018060a01b03600854163314612179565b6001600160a01b03166119308115156121b2565b600780546001600160a01b03191691909117905580f35b5034610230576020366003190112610230576119616120cb565b61197660018060a01b03600854163314612179565b6001600160a01b031661198a8115156121b2565b600680546001600160a01b03191691909117905580f35b50346102305780600319360112610230576001546040516001600160a01b039091168152602090f35b50346102305780600319360112610230576002546040516001600160a01b039091168152602090f35b5034610230578060031936011261023057546040516001600160a01b039091168152602090f35b503461023057604036600319011261023057611a346120cb565b5060405162461bcd60e51b815260206004820152606060248201527f4c656761637920656c69676962696c69747920636865636b206465707265636160448201527f7465642e2055736520616e6f6e796d6f757320666c6f7720766961204d65645660648201527f61756c7452656769737472792e7374616765416e6f6e796d6f75734170706c79608482015260a490fd5b5034610230576040366003190112610230576020906040906001600160a01b03611aee6120cb565b168033148015611b1c575b611b029061236f565b8152600e8352818120602435825283522054604051908152f35b506007546001600160a01b03163314611af9565b5034610230578060031936011261023057600a546040516001600160a01b039091168152602090f35b5034610230576040602091611b6d36612142565b908252600d845282822090825283522054604051908152f35b5034610230576040602091611b9a36612142565b9082526013845282822090825283522054604051908152f35b50346102305780600319360112610230576005546040516001600160a01b039091168152602090f35b5034611eee5760c0366003190112611eee57604435602435611bfc6120e1565b91611c056120f7565b9260a4356001600160401b038111611eee57611c25903690600401612115565b9094611c3c60018060a01b03600a541633146121ed565b611c506001600160a01b0384161515612234565b835f52601660205260405f20855f5260205260405f2095604051611c738161227b565b611c8f60018954998a845201549860208301998a5215156122cd565b51965192611c9c8161230a565b611ca960405191826122aa565b81815260208101913681850111611eee5789835f60208460849560ff99839937860101528615611fc4576001935b6040519687958694630135f2c360e61b86526004860152166024840152606060448401525180918160648501528484015e5f828201840152601f01601f191681010301815f5160206137d95f395f51905f525afa908115611ee3575f91611f8a575b5015611f455715611f0257825f52601660205260405f20845f526020525f6001604082208281550155611d6b8561272c565b611d748161272c565b825f52601260205260405f20845f526020528460405f2055825f52601360205260405f20845f526020528060405f2055611dae828661278d565b611db8828261278d565b6006546001600160a01b031680611ef2575b50505f82815260156020908152604080832080546001600160a01b0319166001600160a01b0390951694909417909355601481528282208583529052818120805460ff1916600117905590519490839083905f5160206138195f395f51905f529080a36004546001600160a01b03169485611e67575b5060208095505f5160206137f95f395f51905f5291604051905060018152a3604051908152f35b6020810190600435825283604082015242606082015260608152611e8c6080826122aa565b51902094803b15611eee576040516306cc173360e41b8152955f918791829084908290611ebd908a6004840161233d565b03925af1948515611ee35760209515611e4057611edc91505f906122aa565b5f84611e40565b6040513d5f823e3d90fd5b5f80fd5b611efb9161278d565b5f80611dca565b60405162461bcd60e51b815260206004820152601b60248201527a139bdd08195b1a59da589b1948199bdc881d1a1a5cc81d1c9a585b602a1b6044820152606490fd5b60405162461bcd60e51b815260206004820152601e60248201527f496e76616c696420656c69676962696c6974792064656372797074696f6e00006044820152606490fd5b90506020813d602011611fbc575b81611fa5602093836122aa565b81010312611eee57611fb6906123ab565b5f611d39565b3d9150611f98565b5f93611cd7565b34611eee576020366003190112611eee57611fe46120cb565b611ff960018060a01b03600854163314612179565b6001600160a01b031661200d8115156121b2565b600a80546001600160a01b031916919091179055005b34611eee575f366003190112611eee576004546040516001600160a01b039091168152602090f35b34611eee575f366003190112611eee576007546040516001600160a01b039091168152602090f35b34611eee576020366003190112611eee5761208c6120cb565b6120a160018060a01b03600854163314612179565b6001600160a01b03166120b58115156121b2565b600580546001600160a01b031916919091179055005b600435906001600160a01b0382168203611eee57565b606435906001600160a01b0382168203611eee57565b608435908115158203611eee57565b602435908115158203611eee57565b9181601f84011215611eee578235916001600160401b038311611eee5760208381860195010111611eee57565b6040906003190112611eee576004359060243590565b9060048210156121655752565b634e487b7160e01b5f52602160045260245ffd5b1561218057565b60405162461bcd60e51b815260206004820152600a60248201526927b7363c9037bbb732b960b11b6044820152606490fd5b156121b957565b60405162461bcd60e51b815260206004820152600c60248201526b5a65726f206164647265737360a01b6044820152606490fd5b156121f457565b60405162461bcd60e51b81526020600482015260186024820152774f6e6c7920617574686f72697a656420726567697374727960401b6044820152606490fd5b1561223b57565b60405162461bcd60e51b8152602060048201526018602482015277125b9d985b1a59081c195c9b5a5d081c9958da5c1a595b9d60421b6044820152606490fd5b604081019081106001600160401b0382111761229657604052565b634e487b7160e01b5f52604160045260245ffd5b601f909101601f19168101906001600160401b0382119082101761229657604052565b156122d457565b60405162461bcd60e51b815260206004820152600e60248201526d139bdd1a1a5b99c81cdd1859d95960921b6044820152606490fd5b6001600160401b03811161229657601f01601f191660200190565b9060048110156121655760ff80198354169116179055565b6040909392919360608101946002825260208201520152565b6040909392919360608101946003825260208201520152565b1561237657565b60405162461bcd60e51b815260206004820152600d60248201526c1058d8d95cdcc819195b9a5959609a1b6044820152606490fd5b51908115158203611eee57565b908060209392818452848401375f828201840152601f01601f1916010190565b9081610120910312611eee576040519061012082016001600160401b038111838210176122965761245a9161010091604052805184526020810151602085015260408101516040850152606081015160608501526080810151608085015260a081015160a085015260c081015160c085015260e081015160e0850152016123ab565b61010082015290565b1561246a57565b60405162461bcd60e51b815260206004820152602560248201527f50617469656e74206e6f7420666f756e6420666f72207468697320636f6d6d696044820152641d1b595b9d60da1b6064820152608490fd5b81601f82011215611eee578051906124d48261230a565b926124e260405194856122aa565b82845260208383010111611eee57815f9260208093018386015e8301015290565b519060ff82168203611eee57565b519061ffff82168203611eee57565b602081830312611eee578051906001600160401b038211611eee570161020081830312611eee576040519161020083016001600160401b038111848210176122965760405281516001600160401b038111611eee57816125819184016124bd565b835260208201516001600160401b038111611eee57816125a29184016124bd565b602084015260408201516001600160401b038111611eee57816125c69184016124bd565b60408401526060820151906001600160401b038211611eee576125ea9183016124bd565b60608301526080810151906001600160a01b0382168203611eee576101e091608084015261261a60a082016123ab565b60a084015261262b60c08201612503565b60c084015261263c60e08201612503565b60e084015261264e61010082016123ab565b6101008401526126616101208201612511565b6101208401526126746101408201612503565b6101408401526126876101608201612503565b61016084015261269a6101808201612511565b6101808401526126ad6101a082016123ab565b6101a08401526126c06101c082016123ab565b6101c084015201516101e082015290565b156126d857565b60405162461bcd60e51b8152602060048201526013602482015272547269616c206973206e6f742061637469766560681b6044820152606490fd5b9081526001600160a01b03909116602082015260400190565b5f5160206137d95f395f51905f523b15611eee575f6127619160405180938192631974142760e21b8352309060048401612713565b0381835f5160206137d95f395f51905f525af18015611ee3576127815750565b5f61278b916122aa565b565b5f5160206137d95f395f51905f523b15611eee57604051631974142760e21b8152915f9183918291612761919060048401612713565b6127de81516127d860ff60c0860151166135fb565b90613276565b8151926127f160ff60e0830151166135fb565b841561317d575b801561316f575b6128706060936040519261281386856122aa565b60028452601f198601978836602087013761282d856135ba565b52612837846135db565b52602080936040519061284a83836122aa565b5f82525f368137604051631888debd60e01b81529485928392601360026004860161358a565b03815f5f5160206137d95f395f51905f525af1908115611ee3575f9161313e575b61289b925061318d565b6101008301519095901561312c5761294a6128c460808701516128be6001613677565b9061330d565b8360a08801516128dc61ffff610120890151166136e8565b811561311c575b801561310e575b604051916128f88a846122aa565b6002835286368585013761290b836135ba565b52612915826135db565b526040519061292483836122aa565b5f82525f368137604051631888debd60e01b81529485928392601260036004860161358a565b03815f5f5160206137d95f395f51905f525af1918215611ee3575f926130df575b5061014085015160ff16600181036130b8575061298f848801516128be6001613677565b925b6101608601805160ff16156130a7576129b5906127d860ff8a8c01519251166135fb565b945b610180870197898b61ffff8b511615155f146130895750612a54996129e661ffff6040869401519251166136e8565b8115613079575b801561306b575b60405191612a0285846122aa565b60028352863685850137612a15836135ba565b52612a1f826135db565b5260405190612a2e83836122aa565b5f82525f368137604051631888debd60e01b81529b8c928392601360036004860161358a565b03815f5f5160206137d95f395f51905f525af18015611ee3578b995f91613038575b5086868a87848c95509e8f926101a0905b015115613025576101c0612aa260c08301516128be5f613677565b9e5b015115612fe85760e00151612ab85f613677565b612ac19161330d565b9d612b3195612b11612afa612b1797612b11612afa612b1799612b11612afa612b119a612b11612afa612afa9c5b612b11612afa613639565b91612b03613799565b612b0b613639565b916133a7565b90613488565b612b11612b22613799565b612b2a613639565b908d6133a7565b9060405193612b4084866122aa565b5f85525f368137612bab60809285604051612b5b86826122aa565b60038152601f19860198893684840137600c612b76836135ba565b526002612b82836135db565b525f612b8d836135eb565b52604051631888debd60e01b81529485928392600260048501613552565b03815f5f5160206137d95f395f51905f525af18015611ee35786925f91612fb5575b50612c40938690828215612fa5575b15612f95575b612bef60405194856122aa565b600284523685850137612c01836135ba565b52612c0b826135db565b5260405190612c1a83836122aa565b5f82525f368137604051631888debd60e01b81529384928392600f60026004860161358a565b03815f5f5160206137d95f395f51905f525af18015611ee3575f90612f66575b612c9d915084604051612c7382826122aa565b5f81525f36813760405190612c8886836122aa565b600382528836848401376002612b76836135ba565b03815f5f5160206137d95f395f51905f525af1918215611ee3575f92612f35575b50612b11612cd183612cd9945086613276565b612b03613799565b612d4984604051612cea82826122aa565b5f81525f36813760405190612cff86836122aa565b600382528836848401376004612d14836135ba565b526002612d20836135db565b525f612d2b836135eb565b52604051631888debd60e01b81529384928392600260048501613552565b03815f5f5160206137d95f395f51905f525af1908115611ee3575f91612f06575b50612dba91612b11612cd183612d81945087613276565b9184604051612d9082826122aa565b5f81525f36813760405190612da584836122aa565b600382528836848401376006612b76836135ba565b03815f5f5160206137d95f395f51905f525af18015611ee35785925f91612ed1575b50612e2a93612b11612cd183612df3945088613276565b9560405190612e0284836122aa565b5f82525f368137612e1660405193846122aa565b6003835236848401376008612d14836135ba565b03815f5f5160206137d95f395f51905f525af1928315611ee3575f93612e89575b505094612e81612e869a95612e81612e8196612e7b612e819c9b97612b11612cd189612e819e612e819b50613276565b9e61318d565b61318d565b91565b90809350819b969998949b9792973d8311612eca575b612ea981836122aa565b81010312611eee579051939895969195909491939091612e81612e86612e4b565b503d612e9f565b8381959492503d8311612eff575b612ee981836122aa565b81010312611eee57915190918491612e2a612ddc565b503d612edf565b90508481813d8311612f2e575b612f1d81836122aa565b81010312611eee5751612dba612d6a565b503d612f13565b91508482813d8311612f5f575b612f4c81836122aa565b81010312611eee57905190612b11612cbe565b503d612f42565b508381813d8311612f8e575b612f7c81836122aa565b81010312611eee57612c9d9051612c60565b503d612f72565b9150612f9f613639565b91612be2565b9150612faf613639565b91612bdc565b83819492503d8311612fe1575b612fcc81836122aa565b81010312611eee579051859190612c40612bcd565b503d612fc2565b50612ff36001613677565b9d612b3195612b11612afa612b1797612b11612afa612b1799612b11612afa612b119a612b11612afa612afa9c612aef565b6101c06130326001613677565b9e612aa4565b809a50838092503d8311613064575b61305181836122aa565b81010312611eee5797518a989086612a76565b503d613047565b5061307461375b565b6129f4565b905061308361375b565b906129ed565b9950508686868a8761309b6001613677565b9e8f926101a090612a87565b506130b26001613677565b946129b7565b6002036130d5576130cf848801516128be5f613677565b92612991565b6130cf6001613677565b9091508381813d8311613107575b6130f781836122aa565b81010312611eee5751905f61296b565b503d6130ed565b5061311761375b565b6128ea565b905061312661375b565b906128e3565b61294a6131396001613677565b6128c4565b90508282813d8311613168575b61315581836122aa565b81010312611eee5761289b915190612891565b503d61314b565b50613178613639565b6127ff565b9350613187613639565b936127f8565b908115613264575b8015613254575b604051916131ab6060846122aa565b6002835260403660208501376131c0836135ba565b526131ca826135db565b5261320560208092604051906131e083836122aa565b5f82525f368137604051631888debd60e01b81529384928392600a5f6004860161358a565b03815f5f5160206137d95f395f51905f525af1918215611ee3575f9261322a57505090565b90809250813d831161324d575b61324181836122aa565b81010312611eee575190565b503d613237565b5061325f6001613677565b61319c565b90506132706001613677565b90613195565b9081156132fd575b80156132ef575b604051916132946060846122aa565b6002835260403660208501376132a9836135ba565b526132b3826135db565b5261320560208092604051906132c983836122aa565b5f82525f368137604051631888debd60e01b81529384928392601260026004860161358a565b506132f8613639565b613285565b9050613307613639565b9061327e565b908115613395575b8015613385575b6040519161332b6060846122aa565b600283526040366020850137613340836135ba565b5261334a826135db565b52613205602080926040519061336083836122aa565b5f82525f368137604051631888debd60e01b8152938492839260185f6004860161358a565b506133906001613677565b61331c565b90506133a16001613677565b90613315565b91908215613477575b8015613469575b8115613459575b604051926133cd6080856122aa565b6003845260603660208601376133e2846135ba565b526133ec836135db565b526133f6826135eb565b52602090816134476040519261340c83856122aa565b5f84525f3681376132056040519485938493631888debd60e01b8552600260048601526004602486015260806044860152608485019061351f565b8381036003190160648501529061351f565b9050613463613639565b906133be565b50613472613639565b6133b7565b91506134825f613677565b916133b0565b90811561350f575b8015613501575b604051916134a66060846122aa565b6002835260403660208501376134bb836135ba565b526134c5826135db565b5261320560208092604051906134db83836122aa565b5f82525f368137604051631888debd60e01b81529384928392600860026004860161358a565b5061350a613639565b613497565b9050613519613639565b90613490565b90602080835192838152019201905f5b81811061353c5750505090565b825184526020938401939092019160010161352f565b916135799060ff6135879593168452601a602085015260806040850152608084019061351f565b91606081840391015261351f565b90565b9293919060ff1683526020811015612165576135879361357991602085015260806040850152608084019061351f565b8051156135c75760200190565b634e487b7160e01b5f52603260045260245ffd5b8051600110156135c75760400190565b8051600210156135c75760600190565b6132056020809260405161360f83826122aa565b5f81525f368137604051916136256080846122aa565b6003835260603685850137612d14836135ba565b60206132058160405161364c82826122aa565b5f81525f368137604051906136626080836122aa565b60038252606036848401375f612d14836135ba565b6132056020809260405161368b83826122aa565b5f81525f368137604051916136a16080846122aa565b60038352606036858501376136b5836135ba565b525f6136c0836135db565b525f6136cb836135eb565b52604051631888debd60e01b815293849283925f60048501613552565b613205602080926040516136fc83826122aa565b5f81525f368137604051916137126080846122aa565b6003835260603685850137613726836135ba565b526003613732836135db565b525f61373d836135eb565b52604051631888debd60e01b81529384928392600360048501613552565b60206132058160405161376e82826122aa565b5f81525f368137604051906137846080836122aa565b60038252606036848401375f613726836135ba565b6020613205816040516137ac82826122aa565b5f81525f368137604051906137c26080836122aa565b60038252606036848401376001612d14836135ba56fe000000000000000000000000ea30c4b8b44078bbf8a6ef5b9f1ec1626c7848d959604682590590d3834bb055beebf179de53952cb5e3bfeef55f68cc91139e9ed14530a3efae4c2f49131f1d8ab2764b33921c328e74cacb80fb2c95cc72ee83a164736f6c634300081b000a",
  "linkReferences": {},
  "deployedLinkReferences": {}
}