{
  "_format": "hh-sol-artifact-1",
  "contractName": "MedVaultRegistry",
  "sourceName": "contracts/MedVaultRegistry.sol",
  "abi": [
    {
      "inputs": [
        {
          "internalType": "address",
          "name": "_semaphore",
          "type": "address"
        },
        {
          "internalType": "address",
          "name": "_patientRegistry",
          "type": "address"
        },
        {
          "internalType": "address",
          "name": "_eligibilityEngine",
          "type": "address"
        }
      ],
      "stateMutability": "nonpayable",
      "type": "constructor"
    },
    {
      "anonymous": false,
      "inputs": [
        {
          "indexed": true,
          "internalType": "uint256",
          "name": "trialId",
          "type": "uint256"
        },
        {
          "indexed": true,
          "internalType": "uint256",
          "name": "nullifierHash",
          "type": "uint256"
        },
        {
          "indexed": true,
          "internalType": "bytes32",
          "name": "blindedRef",
          "type": "bytes32"
        }
      ],
      "name": "AnonymousApplication",
      "type": "event"
    },
    {
      "anonymous": false,
      "inputs": [
        {
          "indexed": true,
          "internalType": "uint256",
          "name": "trialId",
          "type": "uint256"
        },
        {
          "indexed": true,
          "internalType": "uint256",
          "name": "nullifierHash",
          "type": "uint256"
        },
        {
          "indexed": true,
          "internalType": "bytes32",
          "name": "blindedRef",
          "type": "bytes32"
        },
        {
          "indexed": false,
          "internalType": "bytes32",
          "name": "finalCt",
          "type": "bytes32"
        }
      ],
      "name": "AnonymousApplyStaged",
      "type": "event"
    },
    {
      "anonymous": false,
      "inputs": [
        {
          "indexed": true,
          "internalType": "address",
          "name": "newOwner",
          "type": "address"
        }
      ],
      "name": "OwnershipAccepted",
      "type": "event"
    },
    {
      "anonymous": false,
      "inputs": [
        {
          "indexed": true,
          "internalType": "address",
          "name": "proposedOwner",
          "type": "address"
        }
      ],
      "name": "OwnershipProposed",
      "type": "event"
    },
    {
      "anonymous": false,
      "inputs": [
        {
          "indexed": true,
          "internalType": "uint256",
          "name": "commitment",
          "type": "uint256"
        }
      ],
      "name": "PatientRegistered",
      "type": "event"
    },
    {
      "anonymous": false,
      "inputs": [
        {
          "indexed": true,
          "internalType": "uint256",
          "name": "trialId",
          "type": "uint256"
        },
        {
          "indexed": true,
          "internalType": "address",
          "name": "wallet",
          "type": "address"
        },
        {
          "indexed": false,
          "internalType": "bytes32",
          "name": "blindedRef",
          "type": "bytes32"
        }
      ],
      "name": "WalletLinkedApplication",
      "type": "event"
    },
    {
      "inputs": [],
      "name": "MERKLE_TREE_DURATION",
      "outputs": [
        {
          "internalType": "uint256",
          "name": "",
          "type": "uint256"
        }
      ],
      "stateMutability": "view",
      "type": "function"
    },
    {
      "inputs": [],
      "name": "acceptOwnership",
      "outputs": [],
      "stateMutability": "nonpayable",
      "type": "function"
    },
    {
      "inputs": [
        {
          "internalType": "uint256",
          "name": "trialId",
          "type": "uint256"
        },
        {
          "internalType": "uint256",
          "name": "commitment",
          "type": "uint256"
        },
        {
          "internalType": "uint256",
          "name": "nullifier",
          "type": "uint256"
        }
      ],
      "name": "applyToTrialWithConsent",
      "outputs": [],
      "stateMutability": "nonpayable",
      "type": "function"
    },
    {
      "inputs": [],
      "name": "eligibilityEngine",
      "outputs": [
        {
          "internalType": "contract IEligibilityEngine",
          "name": "",
          "type": "address"
        }
      ],
      "stateMutability": "view",
      "type": "function"
    },
    {
      "inputs": [
        {
          "internalType": "uint256",
          "name": "trialId",
          "type": "uint256"
        },
        {
          "components": [
            {
              "internalType": "uint256",
              "name": "merkleTreeDepth",
              "type": "uint256"
            },
            {
              "internalType": "uint256",
              "name": "merkleTreeRoot",
              "type": "uint256"
            },
            {
              "internalType": "uint256",
              "name": "nullifier",
              "type": "uint256"
            },
            {
              "internalType": "uint256",
              "name": "message",
              "type": "uint256"
            },
            {
              "internalType": "uint256",
              "name": "scope",
              "type": "uint256"
            },
            {
              "internalType": "uint256[8]",
              "name": "points",
              "type": "uint256[8]"
            }
          ],
          "internalType": "struct ISemaphore.SemaphoreProof",
          "name": "proof",
          "type": "tuple"
        },
        {
          "internalType": "uint256",
          "name": "commitment",
          "type": "uint256"
        },
        {
          "internalType": "address",
          "name": "permitRecipient",
          "type": "address"
        },
        {
          "internalType": "bool",
          "name": "decryptedEligible",
          "type": "bool"
        },
        {
          "internalType": "bytes",
          "name": "decryptSig",
          "type": "bytes"
        }
      ],
      "name": "finalizeAnonymousApply",
      "outputs": [],
      "stateMutability": "nonpayable",
      "type": "function"
    },
    {
      "inputs": [
        {
          "internalType": "address",
          "name": "wallet",
          "type": "address"
        }
      ],
      "name": "getCommitmentForWallet",
      "outputs": [
        {
          "internalType": "uint256",
          "name": "",
          "type": "uint256"
        }
      ],
      "stateMutability": "view",
      "type": "function"
    },
    {
      "inputs": [],
      "name": "getPatientCount",
      "outputs": [
        {
          "internalType": "uint256",
          "name": "",
          "type": "uint256"
        }
      ],
      "stateMutability": "view",
      "type": "function"
    },
    {
      "inputs": [
        {
          "internalType": "uint256",
          "name": "trialId",
          "type": "uint256"
        },
        {
          "internalType": "uint256",
          "name": "nullifierHash",
          "type": "uint256"
        }
      ],
      "name": "hasAppliedToTrial",
      "outputs": [
        {
          "internalType": "bool",
          "name": "",
          "type": "bool"
        }
      ],
      "stateMutability": "view",
      "type": "function"
    },
    {
      "inputs": [],
      "name": "isRegistered",
      "outputs": [
        {
          "internalType": "bool",
          "name": "",
          "type": "bool"
        }
      ],
      "stateMutability": "view",
      "type": "function"
    },
    {
      "inputs": [
        {
          "internalType": "uint256",
          "name": "identityCommitment",
          "type": "uint256"
        }
      ],
      "name": "isRegisteredMember",
      "outputs": [
        {
          "internalType": "bool",
          "name": "",
          "type": "bool"
        }
      ],
      "stateMutability": "view",
      "type": "function"
    },
    {
      "inputs": [],
      "name": "owner",
      "outputs": [
        {
          "internalType": "address",
          "name": "",
          "type": "address"
        }
      ],
      "stateMutability": "view",
      "type": "function"
    },
    {
      "inputs": [],
      "name": "patientGroupId",
      "outputs": [
        {
          "internalType": "uint256",
          "name": "",
          "type": "uint256"
        }
      ],
      "stateMutability": "view",
      "type": "function"
    },
    {
      "inputs": [],
      "name": "patientRegistry",
      "outputs": [
        {
          "internalType": "contract IAnonymousPatientRegistry",
          "name": "",
          "type": "address"
        }
      ],
      "stateMutability": "view",
      "type": "function"
    },
    {
      "inputs": [],
      "name": "pendingOwner",
      "outputs": [
        {
          "internalType": "address",
          "name": "",
          "type": "address"
        }
      ],
      "stateMutability": "view",
      "type": "function"
    },
    {
      "inputs": [
        {
          "internalType": "address",
          "name": "_newOwner",
          "type": "address"
        }
      ],
      "name": "proposeOwnership",
      "outputs": [],
      "stateMutability": "nonpayable",
      "type": "function"
    },
    {
      "inputs": [
        {
          "internalType": "uint256",
          "name": "identityCommitment",
          "type": "uint256"
        },
        {
          "internalType": "address",
          "name": "_viewPermitRecipient",
          "type": "address"
        },
        {
          "components": [
            {
              "internalType": "uint256",
              "name": "ctHash",
              "type": "uint256"
            },
            {
              "internalType": "uint8",
              "name": "securityZone",
              "type": "uint8"
            },
            {
              "internalType": "uint8",
              "name": "utype",
              "type": "uint8"
            },
            {
              "internalType": "bytes",
              "name": "signature",
              "type": "bytes"
            }
          ],
          "internalType": "struct InEuint8",
          "name": "_age",
          "type": "tuple"
        },
        {
          "components": [
            {
              "internalType": "uint256",
              "name": "ctHash",
              "type": "uint256"
            },
            {
              "internalType": "uint8",
              "name": "securityZone",
              "type": "uint8"
            },
            {
              "internalType": "uint8",
              "name": "utype",
              "type": "uint8"
            },
            {
              "internalType": "bytes",
              "name": "signature",
              "type": "bytes"
            }
          ],
          "internalType": "struct InEbool",
          "name": "_gender",
          "type": "tuple"
        },
        {
          "components": [
            {
              "internalType": "uint256",
              "name": "ctHash",
              "type": "uint256"
            },
            {
              "internalType": "uint8",
              "name": "securityZone",
              "type": "uint8"
            },
            {
              "internalType": "uint8",
              "name": "utype",
              "type": "uint8"
            },
            {
              "internalType": "bytes",
              "name": "signature",
              "type": "bytes"
            }
          ],
          "internalType": "struct InEuint16",
          "name": "_weight",
          "type": "tuple"
        },
        {
          "components": [
            {
              "internalType": "uint256",
              "name": "ctHash",
              "type": "uint256"
            },
            {
              "internalType": "uint8",
              "name": "securityZone",
              "type": "uint8"
            },
            {
              "internalType": "uint8",
              "name": "utype",
              "type": "uint8"
            },
            {
              "internalType": "bytes",
              "name": "signature",
              "type": "bytes"
            }
          ],
          "internalType": "struct InEuint8",
          "name": "_height",
          "type": "tuple"
        },
        {
          "components": [
            {
              "internalType": "uint256",
              "name": "ctHash",
              "type": "uint256"
            },
            {
              "internalType": "uint8",
              "name": "securityZone",
              "type": "uint8"
            },
            {
              "internalType": "uint8",
              "name": "utype",
              "type": "uint8"
            },
            {
              "internalType": "bytes",
              "name": "signature",
              "type": "bytes"
            }
          ],
          "internalType": "struct InEbool",
          "name": "_hasDiabetes",
          "type": "tuple"
        },
        {
          "components": [
            {
              "internalType": "uint256",
              "name": "ctHash",
              "type": "uint256"
            },
            {
              "internalType": "uint8",
              "name": "securityZone",
              "type": "uint8"
            },
            {
              "internalType": "uint8",
              "name": "utype",
              "type": "uint8"
            },
            {
              "internalType": "bytes",
              "name": "signature",
              "type": "bytes"
            }
          ],
          "internalType": "struct InEuint16",
          "name": "_hbLevel",
          "type": "tuple"
        },
        {
          "components": [
            {
              "internalType": "uint256",
              "name": "ctHash",
              "type": "uint256"
            },
            {
              "internalType": "uint8",
              "name": "securityZone",
              "type": "uint8"
            },
            {
              "internalType": "uint8",
              "name": "utype",
              "type": "uint8"
            },
            {
              "internalType": "bytes",
              "name": "signature",
              "type": "bytes"
            }
          ],
          "internalType": "struct InEbool",
          "name": "_isSmoker",
          "type": "tuple"
        },
        {
          "components": [
            {
              "internalType": "uint256",
              "name": "ctHash",
              "type": "uint256"
            },
            {
              "internalType": "uint8",
              "name": "securityZone",
              "type": "uint8"
            },
            {
              "internalType": "uint8",
              "name": "utype",
              "type": "uint8"
            },
            {
              "internalType": "bytes",
              "name": "signature",
              "type": "bytes"
            }
          ],
          "internalType": "struct InEbool",
          "name": "_hasHypertension",
          "type": "tuple"
        }
      ],
      "name": "registerPatient",
      "outputs": [],
      "stateMutability": "nonpayable",
      "type": "function"
    },
    {
      "inputs": [],
      "name": "semaphore",
      "outputs": [
        {
          "internalType": "contract ISemaphore",
          "name": "",
          "type": "address"
        }
      ],
      "stateMutability": "view",
      "type": "function"
    },
    {
      "inputs": [
        {
          "internalType": "uint256",
          "name": "trialId",
          "type": "uint256"
        },
        {
          "components": [
            {
              "internalType": "uint256",
              "name": "merkleTreeDepth",
              "type": "uint256"
            },
            {
              "internalType": "uint256",
              "name": "merkleTreeRoot",
              "type": "uint256"
            },
            {
              "internalType": "uint256",
              "name": "nullifier",
              "type": "uint256"
            },
            {
              "internalType": "uint256",
              "name": "message",
              "type": "uint256"
            },
            {
              "internalType": "uint256",
              "name": "scope",
              "type": "uint256"
            },
            {
              "internalType": "uint256[8]",
              "name": "points",
              "type": "uint256[8]"
            }
          ],
          "internalType": "struct ISemaphore.SemaphoreProof",
          "name": "proof",
          "type": "tuple"
        },
        {
          "internalType": "uint256",
          "name": "commitment",
          "type": "uint256"
        },
        {
          "internalType": "address",
          "name": "permitRecipient",
          "type": "address"
        }
      ],
      "name": "stageAnonymousApply",
      "outputs": [],
      "stateMutability": "nonpayable",
      "type": "function"
    },
    {
      "inputs": [
        {
          "internalType": "uint256",
          "name": "",
          "type": "uint256"
        },
        {
          "internalType": "uint256",
          "name": "",
          "type": "uint256"
        }
      ],
      "name": "trialApplications",
      "outputs": [
        {
          "internalType": "bool",
          "name": "",
          "type": "bool"
        }
      ],
      "stateMutability": "view",
      "type": "function"
    },
    {
      "inputs": [
        {
          "internalType": "uint256",
          "name": "newDuration",
          "type": "uint256"
        }
      ],
      "name": "updateMerkleTreeDuration",
      "outputs": [],
      "stateMutability": "nonpayable",
      "type": "function"
    }
  ],
  "bytecode": "0x6080806040523461011757606081611569803803809161001f828561012e565b8339810103126101175761003281610165565b905f602061004d6040610046838601610165565b9401610165565b82546001600160a01b0319166001600160a01b039095169485178355604051632c88036360e01b815230600482015262278d00602482015290949092839160449183915af1908115610123575f916100ed575b50600155600280546001600160a01b03199081166001600160a01b03938416179091556003805482169390921692909217905560048054909116331790556040516113ef908161017a8239f35b90506020813d60201161011b575b816101086020938361012e565b8101031261011757515f6100a0565b5f80fd5b3d91506100fb565b6040513d5f823e3d90fd5b601f909101601f19168101906001600160401b0382119082101761015157604052565b634e487b7160e01b5f52604160045260245ffd5b51906001600160a01b03821682036101175756fe6080806040526004361015610012575f80fd5b5f905f3560e01c9081631260cd6714610f38575080632236684414610f0c578063243cc49514610b6e57806327543def14610a24578063277da38f14610a06578063303efdab1461083357806334d3f6ff146108155780634f11c690146107ec5780635250c6e2146107c3578063592f316e1461073e578063710bf3221461069357806379ba5097146105f25780637a95787d146103fc5780637b5d2534146103d557806388902dac146102a35780638d23773c146102715780638da5cb5b1461024857806390d7336c146101bd578063c190665b146101255763e30c3978146100fa575f80fd5b346101225780600319360112610122576005546040516001600160a01b039091168152602090f35b80fd5b503461012257806003193601126101225760018060a01b038154166020600154602460405180948193631fb8d68360e21b835260048301525afa9081156101b2578291610178575b602082604051908152f35b90506020813d6020116101aa575b8161019360209383610faa565b810103126101a65760209150515f61016d565b5080fd5b3d9150610186565b6040513d84823e3d90fd5b50346101225760203660031901126101225760018060a01b038154166020600154604460405180948193632414275160e21b8352600483015260043560248301525afa9081156101b2576020929161021b575b506040519015158152f35b61023b9150823d8411610241575b6102338183610faa565b81019061115f565b5f610210565b503d610229565b50346101225780600319360112610122576004546040516001600160a01b039091168152602090f35b50346101225760ff604060209261028736610f67565b9082526008855282822090825284522054166040519015158152f35b5034610122576020366003190112610122576004356102cd60018060a01b03600454163314611126565b610e108110610390576301e13380811161034157815460015483926001600160a01b0390921691823b1561033c5760448492836040519586948593633f3c2dbb60e21b8552600485015260248401525af180156101b25761032b5750f35b8161033591610faa565b6101225780f35b505050fd5b60405162461bcd60e51b815260206004820152602160248201527f4475726174696f6e2061626f7665206d6178696d756d202833363520646179736044820152602960f81b6064820152608490fd5b60405162461bcd60e51b815260206004820152601f60248201527f4475726174696f6e2062656c6f77206d696e696d756d20283120686f757229006044820152606490fd5b5034610122578060031936011261012257546040516001600160a01b039091168152602090f35b50346101225760603660031901126101225760043560243560443590338452600760205260ff604085205416156105b55733845260066020528060408520540361057157839083825260086020526040822083835260205261046560ff60408420541615611082565b8382526008602090815260408084208585529091528220805460ff191660011790556003546001600160a01b0316806104ee575b50505060405160208101918252826040820152604081526104bb606082610faa565b519020906040519182527fb5144410cd0da8013954d13e56ac1ca47b2e32c77c3646cd4ac91e530645653960203393a380f35b60a46020926040519485938492635c2ff45160e11b845260048401528860248401528760448401523360648401523360848401525af1801561056657610537575b808491610499565b6105589060203d60201161055f575b6105508183610faa565b810190611117565b505f61052f565b503d610546565b6040513d86823e3d90fd5b606460405162461bcd60e51b815260206004820152602060248201527f436f6d6d69746d656e7420646f6573206e6f74206d617463682077616c6c65746044820152fd5b60405162461bcd60e51b815260206004820152601560248201527415d85b1b195d081b9bdd081c9959da5cdd195c9959605a1b6044820152606490fd5b50346101225780600319360112610122576005546001600160a01b038116903382900361065957600480546001600160a01b03199081168417909155166005557fb27970c1714b28277b78cc17ac2fe9556e7f048cd48358cffe3dc7d547608fdc8280a280f35b60405162461bcd60e51b81526020600482015260126024820152712737ba10383937b837b9b2b21037bbb732b960711b6044820152606490fd5b5034610122576020366003190112610122576106ad610f94565b6106c260018060a01b03600454163314611126565b6001600160a01b0316801561070a57600580546001600160a01b031916821790557f6ab4d119f23076e8ad491bc65ce85f017fb0591dce08755ba8591059cc51737a8280a280f35b60405162461bcd60e51b815260206004820152600c60248201526b5a65726f206164647265737360a01b6044820152606490fd5b5034610122576020366003190112610122576001600160a01b03610760610f94565b1680330361077e578160409160209352600683522054604051908152f35b60405162461bcd60e51b815260206004820152601d60248201527f43616e206f6e6c79207175657279206f776e20636f6d6d69746d656e740000006044820152606490fd5b50346101225780600319360112610122576002546040516001600160a01b039091168152602090f35b50346101225780600319360112610122576003546040516001600160a01b039091168152602090f35b5034610122578060031936011261012257602060405162278d008152f35b503461012257610240366003190112610122576004356101a03660231901126101a6576101c435610862610f7d565b6102043590811515809203610a025761022435916001600160401b0383116109fe57366023840112156109fe576004830135926001600160401b0384116109fa5736602485830101116109fa57826108bd6020948789611177565b868852600884528760408120966064359788835286526108e460ff60408420541615611082565b6003546001600160a01b03169361094b906109008615156110ce565b60405198899788968795630a69131960e01b875260048701528d60248701528c604487015260018060a01b03166064860152608485015260c060a4850152602460c485019201610fef565b03925af18015610566576109c7575b5081835260086020526040832081845260205260408320600160ff1982541617905560405160208101908282528360408201526040815261099c606082610faa565b519020917f2781aa971870e4ce67772689e03c8f88a41c87389876c835e6beb2ddb4f292688480a480f35b6020813d6020116109f2575b816109e060209383610faa565b810103126109ee575161095a565b5f80fd5b3d91506109d3565b8680fd5b8580fd5b8480fd5b50346101225780600319360112610122576020600154604051908152f35b503461012257610200366003190112610122576004356101a03660231901126101a6576101c43590610a54610f7d565b90610a60828483611177565b808452600860205260206040852092606435938487528252610a8960ff60408820541615611082565b6003546001600160a01b031694608490610aa48715156110ce565b876040519788948593638c7784b360e01b8552600485015287602485015288604485015260018060a01b031660648401525af1928315610566578493610b36575b507fe469eba31f321d8bebe627bfc87b4538c257f6925eb03365632c70c2275abe8160206040518181019085825284604082015260408152610b28606082610faa565b51902094604051908152a480f35b9092506020813d602011610b66575b81610b5260209383610faa565b81010312610b625751915f610ae5565b8380fd5b3d9150610b45565b50346109ee576101403660031901126109ee576024356001600160a01b0381169190600435908390036109ee57604435926001600160401b0384116109ee57608060031985360301126109ee57606435906001600160401b0382116109ee57608060031983360301126109ee57608435946001600160401b0386116109ee57608060031987360301126109ee5760a4356001600160401b0381116109ee57608060031982360301126109ee5760c435926001600160401b0384116109ee57608060031985360301126109ee5760e435916001600160401b0383116109ee57608060031984360301126109ee5761010435986001600160401b038a116109ee5760806003198b360301126109ee57610124356001600160401b0381116109ee57608060031982360301126109ee578315610ecf57335f52600760205260ff60405f205416610e9557335f52600760205260405f20600160ff19825416179055335f5260066020528860405f205560018060a01b035f54169a6001548c3b156109ee57604051809d8192631783efc360e01b835260048301528c60248301525a925f6044928195f18015610e8a57610e72575b8a9b5060018060a09c9b9c1b036002541695863b15610e6e578a9889958d956040519c8d9b8c9a8b9963243cc49560e01b8b5260048b015260248a015260448901610140905261014489019060040190610d789161100f565b8881036003190160648a0152610d909160040161100f565b878103600319016084890152610da89160040161100f565b8681036003190160a4880152610dc09160040161100f565b8581036003190160c4870152610dd89160040161100f565b8481036003190160e4860152610df09160040161100f565b83810360031901610104850152610e099160040161100f565b82810360031901610124840152610e229160040161100f565b03925af180156101b257610e59575b50807f4c5da917c89b368a7c58084e36d80fc37bc7af94d1c6e5fdab59d8c19b9858d991a280f35b81610e6391610faa565b6101a657815f610e31565b8a80fd5b989950995f610e8091610faa565b5f98978a90610d1f565b6040513d5f823e3d90fd5b60405162461bcd60e51b8152602060048201526012602482015271105b1c9958591e481c9959da5cdd195c995960721b6044820152606490fd5b60405162461bcd60e51b815260206004820152601560248201527416995c9bc81c195c9b5a5d081c9958da5c1a595b9d605a1b6044820152606490fd5b346109ee575f3660031901126109ee57335f526007602052602060ff60405f2054166040519015158152f35b346109ee57602090610f4936610f67565b905f526008835260405f20905f52825260ff60405f20541615158152f35b60409060031901126109ee576004359060243590565b6101e435906001600160a01b03821682036109ee57565b600435906001600160a01b03821682036109ee57565b601f909101601f19168101906001600160401b03821190821017610fcd57604052565b634e487b7160e01b5f52604160045260245ffd5b359060ff821682036109ee57565b908060209392818452848401375f828201840152601f01601f1916010190565b8035825260ff61102160208301610fe1565b16602083015260ff61103560408301610fe1565b1660408301526060810135601e19823603018112156109ee57016020810190356001600160401b0381116109ee5780360382136109ee5760808381606061107f9601520191610fef565b90565b1561108957565b60405162461bcd60e51b815260206004820152601d60248201527f416c7265616479206170706c69656420746f207468697320747269616c0000006044820152606490fd5b156110d557565b60405162461bcd60e51b815260206004820152601a602482015279115b1a59da589a5b1a5d1e48195b99da5b99481b9bdd081cd95d60321b6044820152606490fd5b908160209103126109ee575190565b1561112d57565b60405162461bcd60e51b815260206004820152600a60248201526927b7363c9037bbb732b960b11b6044820152606490fd5b908160209103126109ee575180151581036109ee5790565b6001600160a01b038316156113a25760018060a01b035f541692600154604051632414275160e21b8152816004820152846024820152602081604481895afa908115610e8a575f91611383575b501561133357604051906308ade83160e31b825260048201526024356024820152604435604482015260643560648201526020816101c4816084359889608483015260a43560a483015261010060c4808401375afa908115610e8a575f91611314575b50156112d557604080516020810194855290810192909252606090811b6001600160601b031916908201526610d3d394d1539560ca1b6074820152605b8152611271607b82610faa565b5190200361127b57565b60405162461bcd60e51b815260206004820152602c60248201527f50726f6f6620646f6573206e6f7420656e636f646520636f6e73656e7420666f60448201526b1c881d1a1a5cc81d1c9a585b60a21b6064820152608490fd5b60405162461bcd60e51b815260206004820152601760248201527624b73b30b634b21029b2b6b0b83437b93290383937b7b360491b6044820152606490fd5b61132d915060203d602011610241576102338183610faa565b5f611227565b60405162461bcd60e51b815260206004820152602260248201527f436f6d6d69746d656e74206e6f74207265676973746572656420696e2067726f604482015261075760f41b6064820152608490fd5b61139c915060203d602011610241576102338183610faa565b5f6111c4565b60405162461bcd60e51b8152602060048201526018602482015277125b9d985b1a59081c195c9b5a5d081c9958da5c1a595b9d60421b6044820152606490fdfea164736f6c634300081b000a",
  "linkReferences": {},
  "deployedLinkReferences": {}
}