{
  "_format": "hh-sol-artifact-1",
  "contractName": "SponsorIncentiveVault",
  "sourceName": "contracts/SponsorIncentiveVault.sol",
  "abi": [
    {
      "inputs": [
        {
          "internalType": "address payable",
          "name": "_cETH",
          "type": "address"
        },
        {
          "internalType": "address",
          "name": "_trialManager",
          "type": "address"
        },
        {
          "internalType": "address",
          "name": "_eligibilityEngine",
          "type": "address"
        }
      ],
      "stateMutability": "nonpayable",
      "type": "constructor"
    },
    {
      "inputs": [],
      "name": "ZamaProtocolUnsupported",
      "type": "error"
    },
    {
      "anonymous": false,
      "inputs": [
        {
          "indexed": true,
          "internalType": "uint256",
          "name": "trialId",
          "type": "uint256"
        },
        {
          "indexed": true,
          "internalType": "address",
          "name": "sponsor",
          "type": "address"
        },
        {
          "indexed": false,
          "internalType": "uint256",
          "name": "amount",
          "type": "uint256"
        }
      ],
      "name": "IncentiveFunded",
      "type": "event"
    },
    {
      "anonymous": false,
      "inputs": [
        {
          "indexed": true,
          "internalType": "uint256",
          "name": "trialId",
          "type": "uint256"
        },
        {
          "indexed": false,
          "internalType": "uint256",
          "name": "milestoneIndex",
          "type": "uint256"
        },
        {
          "indexed": false,
          "internalType": "uint256",
          "name": "shareWei",
          "type": "uint256"
        }
      ],
      "name": "MilestoneRewardsDistributed",
      "type": "event"
    },
    {
      "anonymous": false,
      "inputs": [
        {
          "indexed": true,
          "internalType": "uint256",
          "name": "trialId",
          "type": "uint256"
        },
        {
          "indexed": true,
          "internalType": "address",
          "name": "participant",
          "type": "address"
        }
      ],
      "name": "ParticipantRegistered",
      "type": "event"
    },
    {
      "anonymous": false,
      "inputs": [
        {
          "indexed": true,
          "internalType": "address",
          "name": "patient",
          "type": "address"
        },
        {
          "indexed": false,
          "internalType": "uint256",
          "name": "amount",
          "type": "uint256"
        }
      ],
      "name": "RewardClaimed",
      "type": "event"
    },
    {
      "anonymous": false,
      "inputs": [
        {
          "indexed": true,
          "internalType": "uint256",
          "name": "trialId",
          "type": "uint256"
        },
        {
          "indexed": false,
          "internalType": "uint256",
          "name": "participantCount",
          "type": "uint256"
        },
        {
          "indexed": false,
          "internalType": "uint256",
          "name": "shareWei",
          "type": "uint256"
        }
      ],
      "name": "RewardsDistributed",
      "type": "event"
    },
    {
      "inputs": [],
      "name": "automationContract",
      "outputs": [
        {
          "internalType": "address",
          "name": "",
          "type": "address"
        }
      ],
      "stateMutability": "view",
      "type": "function"
    },
    {
      "inputs": [],
      "name": "cETH",
      "outputs": [
        {
          "internalType": "contract ConfidentialETH",
          "name": "",
          "type": "address"
        }
      ],
      "stateMutability": "view",
      "type": "function"
    },
    {
      "inputs": [],
      "name": "confidentialProtocolId",
      "outputs": [
        {
          "internalType": "uint256",
          "name": "",
          "type": "uint256"
        }
      ],
      "stateMutability": "view",
      "type": "function"
    },
    {
      "inputs": [],
      "name": "dataAccessLog",
      "outputs": [
        {
          "internalType": "contract DataAccessLog",
          "name": "",
          "type": "address"
        }
      ],
      "stateMutability": "view",
      "type": "function"
    },
    {
      "inputs": [
        {
          "internalType": "uint256",
          "name": "_trialId",
          "type": "uint256"
        }
      ],
      "name": "distribute",
      "outputs": [],
      "stateMutability": "nonpayable",
      "type": "function"
    },
    {
      "inputs": [
        {
          "internalType": "uint256",
          "name": "_trialId",
          "type": "uint256"
        },
        {
          "internalType": "address",
          "name": "_participant",
          "type": "address"
        },
        {
          "internalType": "uint256",
          "name": "_milestoneIndex",
          "type": "uint256"
        }
      ],
      "name": "distributeMilestoneToParticipant",
      "outputs": [],
      "stateMutability": "nonpayable",
      "type": "function"
    },
    {
      "inputs": [
        {
          "internalType": "uint256",
          "name": "_trialId",
          "type": "uint256"
        },
        {
          "internalType": "uint256",
          "name": "_milestoneIndex",
          "type": "uint256"
        }
      ],
      "name": "distributePartial",
      "outputs": [],
      "stateMutability": "nonpayable",
      "type": "function"
    },
    {
      "inputs": [],
      "name": "eligibilityEngine",
      "outputs": [
        {
          "internalType": "contract EligibilityEngine",
          "name": "",
          "type": "address"
        }
      ],
      "stateMutability": "view",
      "type": "function"
    },
    {
      "inputs": [
        {
          "internalType": "uint256",
          "name": "_trialId",
          "type": "uint256"
        }
      ],
      "name": "fundTrial",
      "outputs": [],
      "stateMutability": "payable",
      "type": "function"
    },
    {
      "inputs": [
        {
          "internalType": "uint256",
          "name": "_trialId",
          "type": "uint256"
        }
      ],
      "name": "getParticipantCount",
      "outputs": [
        {
          "internalType": "uint256",
          "name": "",
          "type": "uint256"
        }
      ],
      "stateMutability": "view",
      "type": "function"
    },
    {
      "inputs": [
        {
          "internalType": "uint256",
          "name": "_trialId",
          "type": "uint256"
        }
      ],
      "name": "getTotalDeposited",
      "outputs": [
        {
          "internalType": "uint256",
          "name": "",
          "type": "uint256"
        }
      ],
      "stateMutability": "view",
      "type": "function"
    },
    {
      "inputs": [
        {
          "internalType": "uint256",
          "name": "_trialId",
          "type": "uint256"
        }
      ],
      "name": "isDistributed",
      "outputs": [
        {
          "internalType": "bool",
          "name": "",
          "type": "bool"
        }
      ],
      "stateMutability": "view",
      "type": "function"
    },
    {
      "inputs": [
        {
          "internalType": "uint256",
          "name": "_trialId",
          "type": "uint256"
        }
      ],
      "name": "isPoolFunded",
      "outputs": [
        {
          "internalType": "bool",
          "name": "",
          "type": "bool"
        }
      ],
      "stateMutability": "view",
      "type": "function"
    },
    {
      "inputs": [
        {
          "internalType": "uint256",
          "name": "",
          "type": "uint256"
        },
        {
          "internalType": "uint256",
          "name": "",
          "type": "uint256"
        }
      ],
      "name": "milestoneDistributed",
      "outputs": [
        {
          "internalType": "bool",
          "name": "",
          "type": "bool"
        }
      ],
      "stateMutability": "view",
      "type": "function"
    },
    {
      "inputs": [],
      "name": "milestoneManager",
      "outputs": [
        {
          "internalType": "contract TrialMilestoneManager",
          "name": "",
          "type": "address"
        }
      ],
      "stateMutability": "view",
      "type": "function"
    },
    {
      "inputs": [],
      "name": "owner",
      "outputs": [
        {
          "internalType": "address",
          "name": "",
          "type": "address"
        }
      ],
      "stateMutability": "view",
      "type": "function"
    },
    {
      "inputs": [
        {
          "internalType": "uint256",
          "name": "",
          "type": "uint256"
        },
        {
          "internalType": "address",
          "name": "",
          "type": "address"
        },
        {
          "internalType": "uint256",
          "name": "",
          "type": "uint256"
        }
      ],
      "name": "participantMilestonePaid",
      "outputs": [
        {
          "internalType": "bool",
          "name": "",
          "type": "bool"
        }
      ],
      "stateMutability": "view",
      "type": "function"
    },
    {
      "inputs": [
        {
          "internalType": "uint256",
          "name": "_trialId",
          "type": "uint256"
        }
      ],
      "name": "registerParticipant",
      "outputs": [],
      "stateMutability": "nonpayable",
      "type": "function"
    },
    {
      "inputs": [
        {
          "internalType": "address",
          "name": "_automation",
          "type": "address"
        }
      ],
      "name": "setAutomationContract",
      "outputs": [],
      "stateMutability": "nonpayable",
      "type": "function"
    },
    {
      "inputs": [
        {
          "internalType": "address",
          "name": "_dataAccessLog",
          "type": "address"
        }
      ],
      "name": "setDataAccessLog",
      "outputs": [],
      "stateMutability": "nonpayable",
      "type": "function"
    },
    {
      "inputs": [
        {
          "internalType": "address",
          "name": "_milestoneManager",
          "type": "address"
        }
      ],
      "name": "setMilestoneManager",
      "outputs": [],
      "stateMutability": "nonpayable",
      "type": "function"
    },
    {
      "inputs": [],
      "name": "trialManager",
      "outputs": [
        {
          "internalType": "contract TrialManager",
          "name": "",
          "type": "address"
        }
      ],
      "stateMutability": "view",
      "type": "function"
    },
    {
      "stateMutability": "payable",
      "type": "receive"
    }
  ],
  "bytecode": "0x6080604052346101c757604051601f61200a38819003918201601f19168301916001600160401b038311848410176101cb578084926060946040528339810103126101c75780516001600160a01b03811691908290036101c757610071604061006a602084016101fe565b92016101fe565b9161007a610212565b50466001036101905761008b610212565b506100946101df565b5f81525f60208201525f60408201525b80517f9e7b61f58c47dc699ac88507c4f5bb9f121c03808c5676a8078fe583e464970080546001600160a01b03199081166001600160a01b039384161790915560208301517f9e7b61f58c47dc699ac88507c4f5bb9f121c03808c5676a8078fe583e4649701805483169184169190911790556040928301517f9e7b61f58c47dc699ac88507c4f5bb9f121c03808c5676a8078fe583e464970280548316918416919091179055600680548216331790555f80548216949094179093556001805484169482169490941790935560028054909216939092169290921790915551611d7e908161028c8239f35b4662aa36a7036101a7576101a261022c565b6100a4565b46617a69036101b8576101a261022c565b6373cac13b60e01b5f5260045ffd5b5f80fd5b634e487b7160e01b5f52604160045260245ffd5b60405190606082016001600160401b038111838210176101cb57604052565b51906001600160a01b03821682036101c757565b61021a6101df565b905f82525f60208301525f6040830152565b610234610212565b5061023d6101df565b73f0ffdc93b7e186bc2f8cb3daa75d86d1930a433d81527392c920834ec8941d2c77d188936e1f7a6f49c127602082015273be0e383937d564d7ff0bc3b46c51f0bf8d5c311a60408201529056fe6080604052600436101561001a575b3615610018575f80fd5b005b5f5f3560e01c8062b6cbdf146116f05780630689d5ed146116c857806307982309146116a05780630b7d662f146116785780632ea7ca0b146116285780633b1b84ff146115fe578063477e74b61461115c5780634f11c6901461113357806353703f5c14610e9c57806355f8cfdd14610e7357806362909f0a14610e215780636f62c3a614610def5780637ef4775b14610dc357806386ae5fec14610d965780638927b03014610d735780638da5cb5b14610d4a57806391c05b0b146107e2578063a1b4d011146107bb578063b807420c1461033f578063be26085e1461019c578063c32212271461016a5763f520f24f14610116575061000e565b346101675760203660031901126101675761012f611736565b61014460018060a01b0360065416331461178c565b600480546001600160a01b0319166001600160a01b039290921691909117905580f35b80fd5b50346101675760ff604060209261018036611776565b9082526008855282822090825284522054166040519015158152f35b50602036600319011261016757600154604051631a7f3c3360e01b815260048035908201819052918390829060249082906001600160a01b03165afa908115610334578391610312575b5060808101516001600160a01b031633036102d55760a001511561029d573415610268578082526007602052604082208054903482018092116102545755604051903482527f67ec3e65bfa1c9be3e784341a3b9746d0e6a0cace395c7ff8df13b58106c272960203393a380f35b634e487b7160e01b84526011600452602484fd5b60405162461bcd60e51b815260206004820152600d60248201526c09aeae6e840e6cadcc8408aa89609b1b6044820152606490fd5b60405162461bcd60e51b815260206004820152601060248201526f547269616c206e6f742061637469766560801b6044820152606490fd5b60405162461bcd60e51b815260206004820152601560248201527413db9b1e481cdc1bdb9cdbdc8818d85b88199d5b99605a1b6044820152606490fd5b61032e91503d8085833e610326818361180d565b8101906118d0565b5f6101e6565b6040513d85823e3d90fd5b50346101675761034e36611776565b6005546001600160a01b03163314801561074c575b61036c90611a81565b6003546001600160a01b03166103838115156117c5565b82845260086020526040842082855260205260ff60408520541661070757836024916040519283809263010b152760e61b82528760048301525afa9081156106fc576104289161042e9186916106da575b506103e181518510611bbe565b84865260076020526127106001604088200154938492610402841515611c76565b878952600760205261ffff602061041e8960408d205494611c1d565b5101511690611c45565b04611c58565b908460018401808511915b83811061054157505050838552506008602090815260408086208487529091528420805460ff1916600117905560045484906001600160a01b03168061049c575b50505f516020611d525f395f51905f529160409182519182526020820152a280f35b6040516020810190732820a92a24a0a62fa224a9aa2924a12aaa24a7a760611b8252856034820152426054820152605481526104d960748261180d565b51902090803b1561053d576040516306cc173360e41b8152918391839182908490829061050a908c60048401611cb4565b03925af18015610532571561047a57816105239161180d565b61052e57835f61047a565b8380fd5b6040513d84823e3d90fd5b8280fd5b868852600760205261055981600160408b2001611d0d565b9054600380546040516313981ba960e31b81529390911b9190911c6001600160a01b0390811692916020918391168180610597878f60048401611c04565b03915afa9081156106cf5785908b92610698575b506106845790838a92101580610651575b6105cb575b5050600101610439565b8882526009602090815260408084206001600160a01b038481165f908152918452908290208b86529092528320805460ff1916600117905582541690813b1561053d57879160248492604051948593849263aa67c91960e01b845260048401525af1801561053257156105c157816106429161180d565b61064d57875f6105c1565b8780fd5b5088825260096020526040822060018060a01b0382165f5260205260405f2088835260205260ff604083205416156105bc565b634e487b7160e01b8a52601160045260248afd5b9150506020813d82116106c7575b816106b36020938361180d565b810103126106c35751845f6105ab565b5f80fd5b3d91506106a6565b6040513d8c823e3d90fd5b6106f691503d8088833e6106ee818361180d565b810190611abe565b5f6103d4565b6040513d86823e3d90fd5b60405162461bcd60e51b815260206004820152601d60248201527f4d696c6573746f6e6520616c72656164792064697374726962757465640000006044820152606490fd5b50600154604051631a7f3c3360e01b815260048101849052908490829060249082906001600160a01b03165afa80156106fc5761036c9185916107a1575b50608001516001600160a01b031633149050610363565b6107b591503d8087833e610326818361180d565b5f61078a565b5034610167578060031936011261016757546040516001600160a01b039091168152602090f35b50346101675760203660031901126101675760043560018060a01b036005541633148015610cdb575b61081490611a81565b600154604051631a7f3c3360e01b815260048101839052908390829060249082906001600160a01b03165afa8015610334576101e0918491610cc1575b5001514210610c8657808252600760205261087160408320541515611ccd565b808252600760205260ff600260408420015416610c4157808252600760205260016040832001546108a3811515611c76565b8183526007602052604083205460035482906001600160a01b031680151590869082610bed575b505015610b50575060035460405163010b152760e61b815260048101859052908590829060249082906001600160a01b03165afa908115610b45578591610b2b575b50805115610b17576127106104286109319361ffff6020808896015101511690611c45565b835b828110610a2d57505b828452600760205260408420600201805460ff1916600117905560045484906001600160a01b03168061099f575b50507f6ae8ee960d83517f7fa993ad7a0e16e33d9655a23ff41eefc62bdb289c7a8e5f9160409182519182526020820152a280f35b60405160208101907529a1a922a2a724a723afa224a9aa2924a12aaa24a7a760511b8252426036820152603681526109d860568261180d565b51902090803b1561053d576040516306cc173360e41b81529183918391829084908290610a09908c60048401611cb4565b03925af18015610532571561096a5781610a229161180d565b61052e57835f61096a565b838552600760205284610a468260016040842001611d0d565b60018060a01b0391549060031b1c1685825260096020526040822060018060a01b0382165f5260205260405f2082805260205260ff60408320541615610a91575b5050600101610933565b8582526009602090815260408084206001600160a01b038481165f908152918452908290208580529092528320805460ff1916600117905582541690813b1561053d57849160248492604051948593849263aa67c91960e01b845260048401525af180156105325715610a875781610b089161180d565b610b1357845f610a87565b8480fd5b634e487b7160e01b85526032600452602485fd5b610b3f91503d8087833e6106ee818361180d565b5f61090c565b6040513d87823e3d90fd5b610b5991611c58565b835b828110610b68575061093c565b8460018060a01b038154168582526007602052610b8b8360016040852001611d0d565b905460039190911b1c6001600160a01b0316813b1561053d57849160248492604051948593849263aa67c91960e01b845260048401525af1801561053257610bd8575b5050600101610b5b565b81610be29161180d565b610b1357845f610bce565b909150602492506040519283809263010b152760e61b82528860048301525afa8015610b455783918691610c27575b50511515855f6108ca565b610c3b91503d8088833e6106ee818361180d565b5f610c1c565b60405162461bcd60e51b815260206004820152601d60248201527f53637265656e696e6720616c72656164792064697374726962757465640000006044820152606490fd5b60405162461bcd60e51b8152602060048201526013602482015272151c9a585b081b9bdd081e595d08195b991959606a1b6044820152606490fd5b610cd591503d8086833e610326818361180d565b5f610851565b50600154604051631a7f3c3360e01b815260048101839052908390829060249082906001600160a01b03165afa801561033457610814918491610d30575b50608001516001600160a01b03163314905061080b565b610d4491503d8086833e610326818361180d565b5f610d19565b50346101675780600319360112610167576006546040516001600160a01b039091168152602090f35b50346101675780600319360112610167576020610d8e611d22565b604051908152f35b50346101675760203660031901126101675760016040602092600435815260078452200154604051908152f35b503461016757602036600319011261016757604060209160043581526007835220541515604051908152f35b50346101675760203660031901126101675760ff60026040602093600435815260078552200154166040519015158152f35b503461016757602036600319011261016757610e3b611736565b610e5060018060a01b0360065416331461178c565b600580546001600160a01b0319166001600160a01b039290921691909117905580f35b50346101675780600319360112610167576001546040516001600160a01b039091168152602090f35b5034610167576020366003190112610167576004358082526007602052610ec860408320541515611ccd565b808252600760205260ff6002604084200154166110f05780825260076020526003604083200160018060a01b0333165f5260205260ff60405f2054166110b6576002546040516319a148dd60e21b815290839082906001600160a01b03168180610f36338860048401611c04565b03915afa908115610334578391611053575b50600481101561103f5760020361100757808252600760205260408220600101805490600160401b821015610ff35790610f8791600182018155611d0d565b81546001600160a01b03600392831b90811b19909116339182901b179092558284526007602090815260408086205f85815293019091529020805460ff19166001179055907f78337b3a0cfc36faafab5a292dc7571f6bd68ba681c22e15c97b1e3469b51a028380a380f35b634e487b7160e01b84526041600452602484fd5b60405162461bcd60e51b815260206004820152601060248201526f135d5cdd081899481858d8d95c1d195960821b6044820152606490fd5b634e487b7160e01b83526021600452602483fd5b90503d8084833e611064818361180d565b810160408282031261052e578151916004831015610b13576020810151906001600160401b0382116110b257019080601f83011215610b135781516110ab92602001611844565b505f610f48565b8580fd5b60405162461bcd60e51b8152602060048201526012602482015271105b1c9958591e481c9959da5cdd195c995960721b6044820152606490fd5b60405162461bcd60e51b815260206004820152601b60248201527a14d8dc99595b9a5b99c8185b1c9958591e48199a5b985b1a5e9959602a1b6044820152606490fd5b50346101675780600319360112610167576002546040516001600160a01b039091168152602090f35b50346106c35761116b3661174c565b6003549091906001600160a01b03166111858115156117c5565b6005546001600160a01b03163314801561158f575b6111a390611a81565b835f526007602052600360405f200160018060a01b0383165f5260205260ff60405f2054161561154d5760405163010b152760e61b815260048101859052905f82602481845afa918215611447575f92611531575b5061120582518510611bbe565b602060405180926313981ba960e31b82528180611226888b60048401611c04565b03915afa908115611447575f916114ff575b5060018401908185116114eb571061149757835f52600960205260405f2060018060a01b0383165f5260205260405f20835f5260205260ff60405f205416611452576127106112a06112c292865f52600760205261ffff602061041e8860405f205494611c1d565b04845f526007602052600160405f200154906112bd821515611c76565b611c58565b5f8481526009602090815260408083206001600160a01b0380871685529083528184208785529092528220805460ff19166001179055905491929116803b156106c35760405163aa67c91960e01b81526001600160a01b0383166004820152905f908290602490829087905af1801561144757611432575b5060045485916001600160a01b039091169081611375575b5050505f516020611d525f395f51905f529160409182519182526020820152a280f35b60405160208101917f494e444956494455414c5f4d494c4553544f4e455f444953545249425554494f8352602760f91b604083015260018060601b03199060601b166041820152856055820152426075820152607581526113d760958261180d565b51902090803b1561053d576040516306cc173360e41b81529183918391829084908290611408908c60048401611cb4565b03925af180156105325761141d575b80611352565b816114279161180d565b61052e57835f611417565b61143f9195505f9061180d565b5f935f61133a565b6040513d5f823e3d90fd5b60405162461bcd60e51b815260206004820152601f60248201527f416c7265616479207061696420666f722074686973206d696c6573746f6e65006044820152606490fd5b60405162461bcd60e51b815260206004820152602660248201527f4d696c6573746f6e65206e6f7420636f6d706c6574656420627920706172746960448201526518da5c185b9d60d21b6064820152608490fd5b634e487b7160e01b5f52601160045260245ffd5b90506020813d602011611529575b8161151a6020938361180d565b810103126106c357515f611238565b3d915061150d565b6115469192503d805f833e6106ee818361180d565b905f6111f8565b60405162461bcd60e51b815260206004820152601a60248201527914185c9d1a58da5c185b9d081b9bdd081c9959da5cdd195c995960321b6044820152606490fd5b50600154604051631a7f3c3360e01b815260048101869052905f90829060249082906001600160a01b03165afa8015611447576111a3915f916115e4575b50608001516001600160a01b03163314905061119a565b6115f891503d805f833e610326818361180d565b5f6115cd565b346106c35760203660031901126106c3576004355f526007602052602060405f2054604051908152f35b346106c35760203660031901126106c357611641611736565b61165660018060a01b0360065416331461178c565b600380546001600160a01b0319166001600160a01b0392909216919091179055005b346106c3575f3660031901126106c3576003546040516001600160a01b039091168152602090f35b346106c3575f3660031901126106c3576004546040516001600160a01b039091168152602090f35b346106c3575f3660031901126106c3576005546040516001600160a01b039091168152602090f35b346106c3576116fe3661174c565b915f52600960205260405f209060018060a01b03165f5260205260405f20905f52602052602060ff60405f2054166040519015158152f35b600435906001600160a01b03821682036106c357565b60609060031901126106c357600435906024356001600160a01b03811681036106c3579060443590565b60409060031901126106c3576004359060243590565b1561179357565b60405162461bcd60e51b815260206004820152600a60248201526927b7363c9037bbb732b960b11b6044820152606490fd5b156117cc57565b60405162461bcd60e51b8152602060048201526019602482015278135a5b195cdd1bdb99481b585b9859d95c881b9bdd081cd95d603a1b6044820152606490fd5b601f909101601f19168101906001600160401b0382119082101761183057604052565b634e487b7160e01b5f52604160045260245ffd5b9192916001600160401b038211611830576040519161186d601f8201601f19166020018461180d565b8294818452818301116106c3578281602093845f96015e010152565b9080601f830112156106c35781516118a392602001611844565b90565b519081151582036106c357565b519060ff821682036106c357565b519061ffff821682036106c357565b6020818303126106c3578051906001600160401b0382116106c35701610200818303126106c3576040519161020083016001600160401b038111848210176118305760405281516001600160401b0381116106c35781611931918401611889565b835260208201516001600160401b0381116106c35781611952918401611889565b602084015260408201516001600160401b0381116106c35781611976918401611889565b60408401526060820151906001600160401b0382116106c35761199a918301611889565b60608301526080810151906001600160a01b03821682036106c3576101e09160808401526119ca60a082016118a6565b60a08401526119db60c082016118b3565b60c08401526119ec60e082016118b3565b60e08401526119fe61010082016118a6565b610100840152611a1161012082016118c1565b610120840152611a2461014082016118b3565b610140840152611a3761016082016118b3565b610160840152611a4a61018082016118c1565b610180840152611a5d6101a082016118a6565b6101a0840152611a706101c082016118a6565b6101c084015201516101e082015290565b15611a8857565b60405162461bcd60e51b815260206004820152600e60248201526d139bdd08185d5d1a1bdc9a5e995960921b6044820152606490fd5b6020818303126106c3578051906001600160401b0382116106c357019080601f830112156106c3578151916001600160401b038311611830578260051b9160405193611b0d602085018661180d565b8452602080850193830101918183116106c35760208101935b838510611b3557505050505090565b84516001600160401b0381116106c35782016060818503601f1901126106c35760405191606083016001600160401b03811184821017611830576040526020820151926001600160401b0384116106c357606083611b9a886020809881980101611889565b8352611ba8604082016118c1565b8584015201516040820152815201940193611b26565b15611bc557565b60405162461bcd60e51b8152602060048201526017602482015276092dcecc2d8d2c840dad2d8cae6e8dedcca40d2dcc8caf604b1b6044820152606490fd5b9081526001600160a01b03909116602082015260400190565b8051821015611c315760209160051b010190565b634e487b7160e01b5f52603260045260245ffd5b818102929181159184041417156114eb57565b8115611c62570490565b634e487b7160e01b5f52601260045260245ffd5b15611c7d57565b60405162461bcd60e51b815260206004820152600f60248201526e4e6f207061727469636970616e747360881b6044820152606490fd5b6040909392919360608101946005825260208201520152565b15611cd457565b60405162461bcd60e51b8152602060048201526011602482015270139bc81a5b98d95b9d1a5d99481c1bdbdb607a1b6044820152606490fd5b8054821015611c31575f5260205f2001905f90565b46600103611d2f57600190565b4662aa36a703611d3f5761271190565b617a694614611d4c575f90565b5f199056feab3d35e987d7948966df55f2917cc7abfc0e48b46f79c6b8603de3ee7c95aac7a164736f6c634300081b000a",
  "linkReferences": {},
  "deployedLinkReferences": {}
}