{
  "_format": "hh-sol-artifact-1",
  "contractName": "SponsorIncentiveVault",
  "sourceName": "contracts/SponsorIncentiveVault.sol",
  "abi": [
    {
      "inputs": [
        {
          "internalType": "address payable",
          "name": "_cETH",
          "type": "address"
        },
        {
          "internalType": "address",
          "name": "_trialManager",
          "type": "address"
        },
        {
          "internalType": "address",
          "name": "_eligibilityEngine",
          "type": "address"
        }
      ],
      "stateMutability": "nonpayable",
      "type": "constructor"
    },
    {
      "inputs": [
        {
          "internalType": "int32",
          "name": "value",
          "type": "int32"
        }
      ],
      "name": "SecurityZoneOutOfBounds",
      "type": "error"
    },
    {
      "anonymous": false,
      "inputs": [
        {
          "indexed": true,
          "internalType": "uint256",
          "name": "trialId",
          "type": "uint256"
        },
        {
          "indexed": true,
          "internalType": "address",
          "name": "sponsor",
          "type": "address"
        },
        {
          "indexed": false,
          "internalType": "uint256",
          "name": "amount",
          "type": "uint256"
        }
      ],
      "name": "IncentiveFunded",
      "type": "event"
    },
    {
      "anonymous": false,
      "inputs": [
        {
          "indexed": true,
          "internalType": "uint256",
          "name": "trialId",
          "type": "uint256"
        },
        {
          "indexed": false,
          "internalType": "uint256",
          "name": "milestoneIndex",
          "type": "uint256"
        },
        {
          "indexed": false,
          "internalType": "uint256",
          "name": "shareWei",
          "type": "uint256"
        }
      ],
      "name": "MilestoneRewardsDistributed",
      "type": "event"
    },
    {
      "anonymous": false,
      "inputs": [
        {
          "indexed": true,
          "internalType": "address",
          "name": "newOwner",
          "type": "address"
        }
      ],
      "name": "OwnershipAccepted",
      "type": "event"
    },
    {
      "anonymous": false,
      "inputs": [
        {
          "indexed": true,
          "internalType": "address",
          "name": "proposedOwner",
          "type": "address"
        }
      ],
      "name": "OwnershipProposed",
      "type": "event"
    },
    {
      "anonymous": false,
      "inputs": [
        {
          "indexed": true,
          "internalType": "uint256",
          "name": "trialId",
          "type": "uint256"
        },
        {
          "indexed": true,
          "internalType": "address",
          "name": "participant",
          "type": "address"
        }
      ],
      "name": "ParticipantRegistered",
      "type": "event"
    },
    {
      "anonymous": false,
      "inputs": [
        {
          "indexed": true,
          "internalType": "address",
          "name": "patient",
          "type": "address"
        },
        {
          "indexed": false,
          "internalType": "uint256",
          "name": "amount",
          "type": "uint256"
        }
      ],
      "name": "RewardClaimed",
      "type": "event"
    },
    {
      "anonymous": false,
      "inputs": [
        {
          "indexed": true,
          "internalType": "uint256",
          "name": "trialId",
          "type": "uint256"
        },
        {
          "indexed": false,
          "internalType": "uint256",
          "name": "participantCount",
          "type": "uint256"
        },
        {
          "indexed": false,
          "internalType": "uint256",
          "name": "shareWei",
          "type": "uint256"
        }
      ],
      "name": "RewardsDistributed",
      "type": "event"
    },
    {
      "inputs": [],
      "name": "MAX_PARTICIPANTS",
      "outputs": [
        {
          "internalType": "uint256",
          "name": "",
          "type": "uint256"
        }
      ],
      "stateMutability": "view",
      "type": "function"
    },
    {
      "inputs": [],
      "name": "acceptOwnership",
      "outputs": [],
      "stateMutability": "nonpayable",
      "type": "function"
    },
    {
      "inputs": [],
      "name": "automationContract",
      "outputs": [
        {
          "internalType": "address",
          "name": "",
          "type": "address"
        }
      ],
      "stateMutability": "view",
      "type": "function"
    },
    {
      "inputs": [],
      "name": "cETH",
      "outputs": [
        {
          "internalType": "contract ConfidentialETH",
          "name": "",
          "type": "address"
        }
      ],
      "stateMutability": "view",
      "type": "function"
    },
    {
      "inputs": [
        {
          "internalType": "uint256",
          "name": "_trialId",
          "type": "uint256"
        },
        {
          "internalType": "uint256",
          "name": "_nullifier",
          "type": "uint256"
        },
        {
          "internalType": "address",
          "name": "_destination",
          "type": "address"
        },
        {
          "internalType": "uint64",
          "name": "units",
          "type": "uint64"
        },
        {
          "internalType": "bytes",
          "name": "balanceSig",
          "type": "bytes"
        },
        {
          "internalType": "uint64",
          "name": "balance",
          "type": "uint64"
        }
      ],
      "name": "claimParticipantRewards",
      "outputs": [],
      "stateMutability": "nonpayable",
      "type": "function"
    },
    {
      "inputs": [],
      "name": "dataAccessLog",
      "outputs": [
        {
          "internalType": "contract DataAccessLog",
          "name": "",
          "type": "address"
        }
      ],
      "stateMutability": "view",
      "type": "function"
    },
    {
      "inputs": [
        {
          "internalType": "uint256",
          "name": "_trialId",
          "type": "uint256"
        }
      ],
      "name": "distribute",
      "outputs": [],
      "stateMutability": "nonpayable",
      "type": "function"
    },
    {
      "inputs": [
        {
          "internalType": "uint256",
          "name": "_trialId",
          "type": "uint256"
        },
        {
          "internalType": "address",
          "name": "_participant",
          "type": "address"
        },
        {
          "internalType": "uint256",
          "name": "_milestoneIndex",
          "type": "uint256"
        }
      ],
      "name": "distributeMilestoneToParticipant",
      "outputs": [],
      "stateMutability": "nonpayable",
      "type": "function"
    },
    {
      "inputs": [
        {
          "internalType": "uint256",
          "name": "_trialId",
          "type": "uint256"
        },
        {
          "internalType": "uint256",
          "name": "_milestoneIndex",
          "type": "uint256"
        }
      ],
      "name": "distributePartial",
      "outputs": [],
      "stateMutability": "nonpayable",
      "type": "function"
    },
    {
      "inputs": [
        {
          "internalType": "uint256",
          "name": "_trialId",
          "type": "uint256"
        },
        {
          "internalType": "uint256",
          "name": "_milestoneIndex",
          "type": "uint256"
        },
        {
          "internalType": "uint256",
          "name": "_startIndex",
          "type": "uint256"
        },
        {
          "internalType": "uint256",
          "name": "_batchSize",
          "type": "uint256"
        }
      ],
      "name": "distributePartialPaginated",
      "outputs": [],
      "stateMutability": "nonpayable",
      "type": "function"
    },
    {
      "inputs": [],
      "name": "eligibilityEngine",
      "outputs": [
        {
          "internalType": "contract EligibilityEngine",
          "name": "",
          "type": "address"
        }
      ],
      "stateMutability": "view",
      "type": "function"
    },
    {
      "inputs": [
        {
          "internalType": "uint256",
          "name": "_trialId",
          "type": "uint256"
        }
      ],
      "name": "fundTrial",
      "outputs": [],
      "stateMutability": "payable",
      "type": "function"
    },
    {
      "inputs": [
        {
          "internalType": "uint256",
          "name": "_trialId",
          "type": "uint256"
        }
      ],
      "name": "getEncryptedPoolSize",
      "outputs": [
        {
          "internalType": "euint64",
          "name": "",
          "type": "bytes32"
        }
      ],
      "stateMutability": "view",
      "type": "function"
    },
    {
      "inputs": [
        {
          "internalType": "uint256",
          "name": "_trialId",
          "type": "uint256"
        }
      ],
      "name": "getParticipantCount",
      "outputs": [
        {
          "internalType": "uint256",
          "name": "",
          "type": "uint256"
        }
      ],
      "stateMutability": "view",
      "type": "function"
    },
    {
      "inputs": [
        {
          "internalType": "uint256",
          "name": "_trialId",
          "type": "uint256"
        }
      ],
      "name": "getTotalDeposited",
      "outputs": [
        {
          "internalType": "uint256",
          "name": "",
          "type": "uint256"
        }
      ],
      "stateMutability": "view",
      "type": "function"
    },
    {
      "inputs": [
        {
          "internalType": "uint256",
          "name": "_trialId",
          "type": "uint256"
        }
      ],
      "name": "isDistributed",
      "outputs": [
        {
          "internalType": "bool",
          "name": "",
          "type": "bool"
        }
      ],
      "stateMutability": "view",
      "type": "function"
    },
    {
      "inputs": [
        {
          "internalType": "uint256",
          "name": "_trialId",
          "type": "uint256"
        },
        {
          "internalType": "address",
          "name": "_participant",
          "type": "address"
        }
      ],
      "name": "isParticipantRegistered",
      "outputs": [
        {
          "internalType": "bool",
          "name": "",
          "type": "bool"
        }
      ],
      "stateMutability": "view",
      "type": "function"
    },
    {
      "inputs": [
        {
          "internalType": "uint256",
          "name": "_trialId",
          "type": "uint256"
        }
      ],
      "name": "isPoolFunded",
      "outputs": [
        {
          "internalType": "bool",
          "name": "",
          "type": "bool"
        }
      ],
      "stateMutability": "view",
      "type": "function"
    },
    {
      "inputs": [
        {
          "internalType": "uint256",
          "name": "",
          "type": "uint256"
        },
        {
          "internalType": "uint256",
          "name": "",
          "type": "uint256"
        }
      ],
      "name": "lastProcessedIndex",
      "outputs": [
        {
          "internalType": "uint256",
          "name": "",
          "type": "uint256"
        }
      ],
      "stateMutability": "view",
      "type": "function"
    },
    {
      "inputs": [
        {
          "internalType": "uint256",
          "name": "",
          "type": "uint256"
        },
        {
          "internalType": "uint256",
          "name": "",
          "type": "uint256"
        }
      ],
      "name": "milestoneDistributed",
      "outputs": [
        {
          "internalType": "bool",
          "name": "",
          "type": "bool"
        }
      ],
      "stateMutability": "view",
      "type": "function"
    },
    {
      "inputs": [],
      "name": "milestoneManager",
      "outputs": [
        {
          "internalType": "contract TrialMilestoneManager",
          "name": "",
          "type": "address"
        }
      ],
      "stateMutability": "view",
      "type": "function"
    },
    {
      "inputs": [],
      "name": "owner",
      "outputs": [
        {
          "internalType": "address",
          "name": "",
          "type": "address"
        }
      ],
      "stateMutability": "view",
      "type": "function"
    },
    {
      "inputs": [
        {
          "internalType": "uint256",
          "name": "",
          "type": "uint256"
        },
        {
          "internalType": "uint256",
          "name": "",
          "type": "uint256"
        }
      ],
      "name": "paginationStarted",
      "outputs": [
        {
          "internalType": "bool",
          "name": "",
          "type": "bool"
        }
      ],
      "stateMutability": "view",
      "type": "function"
    },
    {
      "inputs": [
        {
          "internalType": "uint256",
          "name": "",
          "type": "uint256"
        },
        {
          "internalType": "address",
          "name": "",
          "type": "address"
        },
        {
          "internalType": "uint256",
          "name": "",
          "type": "uint256"
        }
      ],
      "name": "participantMilestonePaid",
      "outputs": [
        {
          "internalType": "bool",
          "name": "",
          "type": "bool"
        }
      ],
      "stateMutability": "view",
      "type": "function"
    },
    {
      "inputs": [],
      "name": "pendingOwner",
      "outputs": [
        {
          "internalType": "address",
          "name": "",
          "type": "address"
        }
      ],
      "stateMutability": "view",
      "type": "function"
    },
    {
      "inputs": [
        {
          "internalType": "address",
          "name": "_newOwner",
          "type": "address"
        }
      ],
      "name": "proposeOwnership",
      "outputs": [],
      "stateMutability": "nonpayable",
      "type": "function"
    },
    {
      "inputs": [
        {
          "internalType": "uint256",
          "name": "",
          "type": "uint256"
        }
      ],
      "name": "reclaimFinalized",
      "outputs": [
        {
          "internalType": "bool",
          "name": "",
          "type": "bool"
        }
      ],
      "stateMutability": "view",
      "type": "function"
    },
    {
      "inputs": [
        {
          "internalType": "uint256",
          "name": "_trialId",
          "type": "uint256"
        }
      ],
      "name": "reclaimUndistributed",
      "outputs": [],
      "stateMutability": "nonpayable",
      "type": "function"
    },
    {
      "inputs": [
        {
          "internalType": "uint256",
          "name": "_trialId",
          "type": "uint256"
        },
        {
          "internalType": "uint256",
          "name": "_nullifier",
          "type": "uint256"
        }
      ],
      "name": "registerAnonymousParticipant",
      "outputs": [],
      "stateMutability": "nonpayable",
      "type": "function"
    },
    {
      "inputs": [
        {
          "internalType": "uint256",
          "name": "",
          "type": "uint256"
        },
        {
          "internalType": "address",
          "name": "",
          "type": "address"
        }
      ],
      "name": "registerParticipant",
      "outputs": [],
      "stateMutability": "pure",
      "type": "function"
    },
    {
      "inputs": [
        {
          "internalType": "uint256",
          "name": "_trialId",
          "type": "uint256"
        }
      ],
      "name": "requestEncryptedPoolAccess",
      "outputs": [],
      "stateMutability": "nonpayable",
      "type": "function"
    },
    {
      "inputs": [
        {
          "internalType": "uint256",
          "name": "_trialId",
          "type": "uint256"
        },
        {
          "internalType": "uint256",
          "name": "_milestoneIndex",
          "type": "uint256"
        }
      ],
      "name": "resetPaginationState",
      "outputs": [],
      "stateMutability": "nonpayable",
      "type": "function"
    },
    {
      "inputs": [
        {
          "internalType": "address",
          "name": "_automation",
          "type": "address"
        }
      ],
      "name": "setAutomationContract",
      "outputs": [],
      "stateMutability": "nonpayable",
      "type": "function"
    },
    {
      "inputs": [
        {
          "internalType": "address",
          "name": "_dataAccessLog",
          "type": "address"
        }
      ],
      "name": "setDataAccessLog",
      "outputs": [],
      "stateMutability": "nonpayable",
      "type": "function"
    },
    {
      "inputs": [
        {
          "internalType": "address",
          "name": "_milestoneManager",
          "type": "address"
        }
      ],
      "name": "setMilestoneManager",
      "outputs": [],
      "stateMutability": "nonpayable",
      "type": "function"
    },
    {
      "inputs": [],
      "name": "trialManager",
      "outputs": [
        {
          "internalType": "contract TrialManager",
          "name": "",
          "type": "address"
        }
      ],
      "stateMutability": "view",
      "type": "function"
    },
    {
      "stateMutability": "payable",
      "type": "receive"
    }
  ],
  "bytecode": "0x60803460b257601f613ff038819003918201601f19168301916001600160401b0383118484101760b65780849260609460405283398101031260b25780516001600160a01b038116919082900360b25760636040605d6020840160ca565b920160ca565b600680546001600160a01b031990811633179091555f805482169094179093556001805484166001600160a01b03938416179055600280549093169116179055604051613f1290816100de8239f35b5f80fd5b634e487b7160e01b5f52604160045260245ffd5b51906001600160a01b038216820360b25756fe60806040526004361015610075575b3615610018575f80fd5b60405162461bcd60e51b815260206004820152602f60248201527f5573652066756e64547269616c28747269616c49642920746f2066756e64206160448201526e081cdc1958da599a58c81d1c9a585b608a1b6064820152608490fd5b5f5f3560e01c8062b6cbdf146134b85780630689d5ed1461349057806307982309146134685780630aed4661146131ac5780630b7d662f14613184578063289e2e90146130d05780632ea7ca0b14613078578063350289ff1461304b5780633b1b84ff14613021578063477e74b614612b205780634f11c69014612af757806355f8cfdd14612ace57806362909f0a14612a745780636f62c3a614612a43578063710bf322146129c75780637439e2dd14612773578063754ad0de1461223957806379ba5097146121985780637ef4775b1461216c57806386ae5fec1461213f5780638da5cb5b1461211657806391c05b0b14611aaa5780639a5c845514611a78578063a1b4d01114611a51578063a768f28514611a22578063b807420c14611301578063be26085e14610d8a578063c322122714610d58578063cb84e53714610d0b578063d84df05b14610cde578063d898ef8b14610c07578063e30c397814610bde578063e3b39cfd14610326578063ef22621214610283578063f3baf070146102675763f520f24f1461020b575061000e565b34610264576020366003190112610264576102246134fe565b61023960018060a01b03600654163314613836565b6001600160a01b031661024d81151561386f565b600480546001600160a01b03191691909117905580f35b80fd5b5034610264578060031936011261026457602060405160c88152f35b50346102645760403660031901126102645761029d613514565b5060405162461bcd60e51b815260206004820152605460248201527f4c656761637920726567697374726174696f6e20646570726563617465642e2060448201527f557365207265676973746572416e6f6e796d6f75735061727469636970616e7460648201527314373ab63634b334b2b9149034b739ba32b0b21760611b608482015260a490fd5b503461026457608036600319011261026457600435602435602460443560643560018060a01b036005541633148015610b65575b610363906138f2565b848652600c60205261037c60ff6040882054161561392f565b60035486906001600160a01b03166103958115156138aa565b8682526009602052604082208683526020526103b860ff60408420541615613cb2565b6040519485809263010b152760e61b82528960048301525afa928315610b5a578693610b36575b506103ec83518510613a87565b8486526008602052600360408720015490610408821515613b79565b81831015610afb5782610a9d57858752600d6020526040872085885260205260408720600160ff198254161790555b816104428285613ae6565b1115610a87575061271061047882945b878952600860205261ffff602061046e8960408d205494613b34565b5101511690613b48565b04928693879086158015925b838b8b888410610950575050505086156108f757908995949392916104ec6104d86104c26104bc6104b58c87613b5b565b9b8c613b48565b85613829565b938c8a526008602052600160408b200154613ae6565b8b8952600860205260408920541015613d0c565b86928791875b8b8d8883106106f95793505050508752600e60205260408720898852602052836040882055811515806106e7575b806106de575b610658575b5050878552600860205261054760016040872001918254613ae6565b905514610632575b6004546001600160a01b03169081610585575b5050505f516020613ee65f395f51905f529160409182519182526020820152a280f35b6040516020810191701410549512505317d41051d25390551151607a1b83528660318301526051820152426071820152607181526105c460918261356a565b51902090803b1561062e576040516306cc173360e41b815291839183918290849082906105f5908c60048401613bff565b03925af180156106235761060a575b80610562565b816106149161356a565b61061f57835f610604565b8380fd5b6040513d84823e3d90fd5b8280fd5b84825260096020526040822084835260205260408220600160ff1982541617905561054f565b86546001600160a01b031690813b156106da5760405163aa67c91960e01b81526001600160a01b0390911660048201529087908290602490829086905af19081156106cf5787916106b6575b50506106af91613ae6565b5f8061052b565b816106c09161356a565b6106cb57855f6106a4565b8580fd5b6040513d89823e3d90fd5b8780fd5b50848414610526565b506001600160a01b0381161515610520565b909192938b82829798999a9b9c9d52600860205261071d8560036040842001613c9d565b905460039190911b1c6001600160a01b03169386928590610847575b5082610812575b5050905061075c575b50600101908c98979695949392916104f2565b959093508b8d52600a60205260408d2060018060a01b0387165f526020528c8b60405f20915260205260408d20600160ff1982541617905560018060a01b038d54168d813b1561026457808c9260246040518095819363aa67c91960e01b83528d60048401525af1918215610805578c926107e8575b50506107e090600192613ae6565b959390610749565b819250906107f59161356a565b61080157898d5f6107d2565b8c80fd5b50604051903d90823e3d90fd5b6040925060ff938252600a60205282822060018060a01b0386165f52602052825f20908252602052205416158d908f8e610740565b6003546040516313981ba960e31b815293959394506020938593506001600160a01b03909116918391829161087f9160048401613acd565b03915afa908115610623578e92916108bf575b50600182018092116108aa578e9111158f8e84610739565b50634e487b7160e01b8f52601160045260248ffd5b9150506020813d82116108ef575b816108da6020938361356a565b810103126108eb578c90515f610892565b5f80fd5b3d91506108cd565b60405162461bcd60e51b815260206004820152602b60248201527f4e6f20656c696769626c65207061727469636970616e747320666f722074686960448201526a73206d696c6573746f6e6560a81b6064820152608490fd5b60036040838693610968955260086020522001613c9d565b9054849260039290921b1c6001600160a01b0316906109df575b816109aa575b50610996575b600101610484565b966109a2600191613cfe565b97905061098e565b90508a8c52600a60205260408c209060018060a01b03165f5260205260405f20898c5260205260ff60408c205416155f610988565b9050610a106020828d60018060a01b0360035416906040518095819482936313981ba960e31b845260048401613acd565b03915afa908115610a7c578d91610a4b575b5060018b0190818c11610a3757101590610982565b634e487b7160e01b8e52601160045260248efd5b90506020813d8211610a74575b81610a656020938361356a565b810103126108eb57515f610a22565b3d9150610a58565b6040513d8f823e3d90fd5b610478610a976127109285613ae6565b94610452565b858752600e6020526040872085885260205260408720548303156104375760405162461bcd60e51b815260206004820152601860248201527710985d18da081b5d5cdd081899481cd95c5d595b9d1a585b60421b6044820152606490fd5b60405162461bcd60e51b8152602060048201526013602482015272092dcecc2d8d2c840e6e8c2e4e840d2dcc8caf606b1b6044820152606490fd5b610b539193503d8088833e610b4b818361356a565b810190613986565b915f6103df565b6040513d88823e3d90fd5b50600154604051631a7f3c3360e01b81526004810187905293879185919082906001600160a01b03165afa928315610b5a57602493610363918891610bbc575b50608001516001600160a01b03163314905061035a565b610bd891503d808a833e610bd0818361356a565b810190613640565b5f610ba5565b50346102645780600319360112610264576007546040516001600160a01b039091168152602090f35b503461026457602036600319011261026457600154604051631a7f3c3360e01b815260048035908201819052918390829060249082906001600160a01b03165afa908115610cd3578391610cb9575b50608001516001600160a01b03163303610c855781526008602052610c82336002604084200154613d54565b80f35b60405162461bcd60e51b815260206004820152600c60248201526b27b7363c9039b837b739b7b960a11b6044820152606490fd5b610ccd91503d8085833e610bd0818361356a565b5f610c56565b6040513d85823e3d90fd5b5034610264576040602091610cf236613554565b908252600e845282822090825283522054604051908152f35b50346102645760403660031901126102645760056040610d29613514565b926004358152600860205220019060018060a01b03165f52602052602060ff60405f2054166040519015158152f35b50346102645760ff6040602092610d6e36613554565b9082526009855282822090825284522054166040519015158152f35b5060203660031901126102645760246004358260018060a01b036001541660405193848092631a7f3c3360e01b82528560048301525afa918215610cd35783926112e5575b506080820180519092906001600160a01b031633036112a85760a081015115611270576101e0015142101561123557341561120057808352600860205260ff600460408520015460081c166111ab57808352600860205260408320610e35348254613ae6565b905582546040516358ac71cd60e11b815290602090829060049082906001600160a01b03165afa9081156111a057849161116e575b506001600160401b0390610e7e9034613b5b565b1691610ef360208094604051610e94838261356a565b8781525f36813760405191610eaa60808461356a565b6003835260603685850137610ebe83613af3565b526005610eca83613b14565b5287610ed583613b24565b52604051631888debd60e01b81529384928392600560048501613de9565b0381885f516020613ec65f395f51905f525af1908115611104578591611141575b508285526008845260408520600201541561112d578285526008845260026040862001549080821561111d575b1561110f575b60405191610f5660608461356a565b6002835260403687850137610f6a83613af3565b52610f7482613b14565b5283610fc260405192610f87838561356a565b8784525f368137610fd46040519485938493631888debd60e01b85526005600486015260086024860152608060448601526084850190613db6565b83810360031901606485015290613db6565b0381885f516020613ec65f395f51905f525af19081156111045785916110d7575b508285526008845260026040862001555b818452600883528360026040822001545f516020613ec65f395f51905f523b156110d3578161104b9160405180938192631974142760e21b8352309060048401613acd565b0381835f516020613ec65f395f51905f525af18015610623576110be575b508290526008835260408420600201549051611090916001600160a01b0390911690613d54565b7f67ec3e65bfa1c9be3e784341a3b9746d0e6a0cace395c7ff8df13b58106c2729604051923484523393a380f35b816110c89161356a565b61061f57835f611069565b5080fd5b90508381813d83116110fd575b6110ee818361356a565b810103126108eb57515f610ff5565b503d6110e4565b6040513d87823e3d90fd5b50611118613e21565b610f47565b9150611127613e21565b91610f41565b828552600884526002604086200155611006565b90508381813d8311611167575b611158818361356a565b810103126108eb57515f610f14565b503d61114e565b90506020813d602011611198575b816111896020938361356a565b810103126108eb57515f610e6a565b3d915061117c565b6040513d86823e3d90fd5b60405162461bcd60e51b815260206004820152602760248201527f46756e64696e67206c6f636b656420616674657220726567697374726174696f60448201526637103132b3b0b760c91b6064820152608490fd5b60405162461bcd60e51b815260206004820152600d60248201526c09aeae6e840e6cadcc8408aa89609b1b6044820152606490fd5b60405162461bcd60e51b8152602060048201526013602482015272151c9a585b08185b1c9958591e48195b991959606a1b6044820152606490fd5b60405162461bcd60e51b815260206004820152601060248201526f547269616c206e6f742061637469766560801b6044820152606490fd5b60405162461bcd60e51b815260206004820152601560248201527413db9b1e481cdc1bdb9cdbdc8818d85b88199d5b99605a1b6044820152606490fd5b6112fa9192503d8085833e610bd0818361356a565b905f610dcf565b50346102645761131036613554565b6005546001600160a01b0316331480156119b3575b61132e906138f2565b818352600c60205261134760ff6040852054161561392f565b818352600d6020526040832081845260205260ff604084205416611976576003546001600160a01b031661137c8115156138aa565b82845260096020526040842082855260205261139f60ff60408620541615613cb2565b60405163010b152760e61b815260048101849052908482602481845afa91821561110457859261195a575b506113d782518410613a87565b83855260086020526127106114156003604088200154936113f9851515613b79565b868852600860205261ffff602061046e8860408c205494613b34565b0461142281471015613bb7565b859286908515938415925b838a8a85841061183157505050505084156117f15790879161149261147e61146861146261145b8a89613b5b565b998a613b48565b87613829565b958a865260086020526001604087200154613ae6565b898552600860205260408520541015613d0c565b82948392845b8a84821061163e5750505050508215158061162c575b6115bb575b508591505260086020526114cf60016040872001918254613ae6565b90558284526009602090815260408086208487529091528420805460ff1916600117905560045484906001600160a01b031680611529575b50505f516020613ee65f395f51905f529160409182519182526020820152a280f35b6040516020810190732820a92a24a0a62fa224a9aa2924a12aaa24a7a760611b82528560348201524260548201526054815261156660748261356a565b51902090803b1561062e576040516306cc173360e41b81529183918391829084908290611597908c60048401613bff565b03925af18015610623571561150757816115b09161356a565b61061f57835f611507565b81546001600160a01b031690813b1561062e5760405163aa67c91960e01b81526001600160a01b0390911660048201529082908290602490829087905af1801561062357611617575b505061160f91613ae6565b5f85816114b3565b816116219161356a565b6106cb57855f611604565b506001600160a01b03811615156114ae565b90600360408861165b9484969798999a5260086020522001613c9d565b905460039190911b1c6001600160a01b0316838361176a575b80611737575b61168e575b50600101908a94939291611498565b96909450898b52600a60205260408b2060018060a01b0388165f5260205260405f20898c5260205260408b20600160ff1982541617905560018060a01b038b54168b813b1561026457808a9260248b604051958693849263aa67c91960e01b845260048401525af1918215610805578a9261171a575b505061171290600192613ae6565b96949061167f565b819250906117279161356a565b61173357878b5f611704565b8a80fd5b508a8c52600a60205260408c2060018060a01b0382165f5260205260405f208a8d5260205260ff60408d2054161561167a565b5061179a6020828d60018060a01b0360035416906040518095819482936313981ba960e31b845260048401613acd565b03915afa908115610a7c578d916117c0575b5060018b0190818c11610a37571015611674565b90506020813d82116117e9575b816117da6020938361356a565b810103126108eb57515f6117ac565b3d91506117cd565b60405162461bcd60e51b81526020600482015260186024820152774e6f20656c696769626c65207061727469636970616e747360401b6044820152606490fd5b60036040838693611849955260086020522001613c9d565b9054889260039290921b1c6001600160a01b0316906118c0575b8161188b575b50611877575b60010161142d565b95611883600191613cfe565b96905061186f565b9050898b52600a60205260408b209060018060a01b03165f5260205260405f20888b5260205260ff60408b205416155f611869565b6040516313981ba960e31b8152909150602081806118e2858f60048401613acd565b0381875afa90811561194f578c9161191e575b5060018a0190818b1161190a57101590611863565b634e487b7160e01b8d52601160045260248dfd5b90506020813d8211611947575b816119386020938361356a565b810103126108eb57515f6118f5565b3d915061192b565b6040513d8e823e3d90fd5b61196f9192503d8087833e610b4b818361356a565b905f6113ca565b60405162461bcd60e51b81526020600482015260156024820152742ab9b2903830b3b4b730ba32b2103b32b939b4b7b760591b6044820152606490fd5b50600154604051631a7f3c3360e01b815260048101849052908490829060249082906001600160a01b03165afa80156111a05761132e918591611a08575b50608001516001600160a01b031633149050611325565b611a1c91503d8087833e610bd0818361356a565b5f6119f1565b50346102645760203660031901126102645760ff60406020926004358152600c84522054166040519015158152f35b5034610264578060031936011261026457546040516001600160a01b039091168152602090f35b50346102645760ff6040602092611a8e36613554565b908252600d855282822090825284522054166040519015158152f35b50346102645760203660031901126102645760043560018060a01b0360055416331480156120a7575b611adc906138f2565b808252600c602052611af560ff6040842054161561392f565b600154604051631a7f3c3360e01b815260048101839052908390829060249082906001600160a01b03165afa8015610cd3576101e091849161208d575b500180511561205157611b4890514210156137e7565b8082526008602052611b5f60408320541515613c5d565b808252600860205260ff60046040842001541661200c5780825260086020526003604083200154611b91811515613b79565b81835260086020526040832054611baa81471015613bb7565b6003546001600160a01b03168015159190859083611fba575b50508115611edf5760035460405163010b152760e61b81526004810186905291908690839060249082906001600160a01b03165afa908115610b5a5761ffff602061046e611c1c94612710968b91611ec5575b50613af3565b0490611c288383613b5b565b91611c3c611c368585613b48565b82613829565b865b858110611d9d5750505b8486526008602052611c6260016040882001918254613ae6565b9055838552600860205260408520600401805460ff19166001179055611d5a575b60045484906001600160a01b031680611ccc575b50507f6ae8ee960d83517f7fa993ad7a0e16e33d9655a23ff41eefc62bdb289c7a8e5f9160409182519182526020820152a280f35b60405160208101907529a1a922a2a724a723afa224a9aa2924a12aaa24a7a760511b825242603682015260368152611d0560568261356a565b51902090803b1561062e576040516306cc173360e41b81529183918391829084908290611d36908c60048401613bff565b03925af180156106235715611c975781611d4f9161356a565b61061f57835f611c97565b82845260096020526040842084805260205260408420600160ff19825416179055825f516020613ee65f395f51905f5260408051878152846020820152a2611c83565b8688526008602052611db581600360408b2001613c9d565b60018060a01b0391549060031b1c16878952600a6020526040892060018060a01b0382165f5260205260405f2089805260205260ff60408a20541615611dff575b50600101611c3e565b878952600a6020526040892060018060a01b0382165f5260205260405f2089805260205260408920600160ff1982541617905585905f198801888111611eb157908a92918414611e9f575b82546001600160a01b0316803b1561061f5760248492604051948593849263aa67c91960e01b845260048401525af1801561062357611e8a575b50611df6565b81611e949161356a565b6106da57875f611e84565b9050611eab8488613ae6565b90611e4a565b634e487b7160e01b8b52601160045260248bfd5b611ed991503d808d833e610b4b818361356a565b5f611c16565b90611eea8383613b5b565b91611ef8611c368585613b48565b5f1985019085821190885b878110611f135750505050611c48565b8683611eb1578a90858314611faa575b60018060a01b038254168b83526008602052611f458460036040862001613c9d565b905460039190911b1c6001600160a01b031690803b1561061f5760248492604051948593849263aa67c91960e01b845260048401525af1801561062357611f91575b5050600101611f03565b81611f9b9161356a565b611fa657895f611f87565b8980fd5b50611fb58389613ae6565b611f23565b60249293506040519283809263010b152760e61b82528860048301525afa908115611104578591611ff2575b5051151590845f611bc3565b61200691503d8087833e610b4b818361356a565b5f611fe6565b60405162461bcd60e51b815260206004820152601d60248201527f53637265656e696e6720616c72656164792064697374726962757465640000006044820152606490fd5b60405162461bcd60e51b8152602060048201526014602482015273151c9a585b08191bd95cc81b9bdd08195e1a5cdd60621b6044820152606490fd5b6120a191503d8086833e610bd0818361356a565b5f611b32565b50600154604051631a7f3c3360e01b815260048101839052908390829060249082906001600160a01b03165afa8015610cd357611adc9184916120fc575b50608001516001600160a01b031633149050611ad3565b61211091503d8086833e610bd0818361356a565b5f6120e5565b50346102645780600319360112610264576006546040516001600160a01b039091168152602090f35b50346102645760203660031901126102645760036040602092600435815260088452200154604051908152f35b503461026457602036600319011261026457604060209160043581526008835220541515604051908152f35b50346102645780600319360112610264576007546001600160a01b03811690338290036121ff57600680546001600160a01b03199081168417909155166007557fb27970c1714b28277b78cc17ac2fe9556e7f048cd48358cffe3dc7d547608fdc8280a280f35b60405162461bcd60e51b81526020600482015260126024820152712737ba10383937b837b9b2b21037bbb732b960711b6044820152606490fd5b50346102645761224836613554565b9080835260086020526040832061226181541515613c5d565b600481019060ff8254166127305760025460405163ec0cd44b60e01b81526004810186905292906001600160a01b0316602084602481845afa9384156106cf5787946126f0575b506001600160a01b038416956122bf871515613c18565b6005840193875f528460205260ff60405f2054166126b6576003019160c88354101561267e57868952600b60205260408920828a5260205260ff60408a2054166126295760206044916040519283809263b6e4033f60e01b82528660048301528b60248301525afa9081156125775789916125ea575b5060048110156125d65760020361258257600154604051631a7f3c3360e01b815260048101889052908990829060249082906001600160a01b03165afa90811561257757899161255d575b50873314908115612546575b50156124f557858852600b6020526040882090885260205260408720600160ff1982541617905580549182156124e2575b50600160401b8210156124ce57816123dd91600189969594018155613c9d565b81549060031b9087821b9160018060a01b03901b1916179055845f5260205260405f20600160ff1982541617905560018060a01b03600454169081612446575b5050807f78337b3a0cfc36faafab5a292dc7571f6bd68ba681c22e15c97b1e3469b51a0291a380f35b604051602081019160018060601b03199060601b1682524260348201526034815261247260548261356a565b519020813b1561062e5782916064839260405194859384926306cc173360e41b84526006600485015289602485015260448401525af18015610623576124b9575b8061241d565b816124c39161356a565b61062e57825f6124b3565b634e487b7160e01b87526041600452602487fd5b805461ff0019166101001790555f6123bd565b60405162461bcd60e51b8152602060048201526024808201527f4f6e6c792070617469656e74206f722073706f6e736f722063616e207265676960448201526339ba32b960e11b6064820152608490fd5b608001516001600160a01b0316331490505f61238c565b61257191503d808b833e610bd0818361356a565b5f612380565b6040513d8b823e3d90fd5b60405162461bcd60e51b815260206004820152602660248201527f416e6f6e796d6f7573206170706c69636174696f6e206d75737420626520616360448201526518d95c1d195960d21b6064820152608490fd5b634e487b7160e01b89526021600452602489fd5b90506020813d602011612621575b816126056020938361356a565b8101031261261d5751600481101561261d575f612335565b8880fd5b3d91506125f8565b60405162461bcd60e51b815260206004820152602760248201527f4e756c6c696669657220616c7265616479207573656420666f722072656769736044820152663a3930ba34b7b760c91b6064820152608490fd5b60405162461bcd60e51b815260206004820152601060248201526f506f6f6c20617420636170616369747960801b6044820152606490fd5b60405162461bcd60e51b8152602060048201526012602482015271105b1c9958591e481c9959da5cdd195c995960721b6044820152606490fd5b9093506020813d602011612728575b8161270c6020938361356a565b810103126127245761271d90613602565b925f6122a8565b8680fd5b3d91506126ff565b60405162461bcd60e51b815260206004820152601b60248201527a14d8dc99595b9a5b99c8185b1c9958591e48199a5b985b1a5e9959602a1b6044820152606490fd5b50346102645760c0366003190112610264576044356001600160a01b038116908190036110d3576064356001600160401b038116919082900361062e57608435906001600160401b03821161061f573660238301121561061f576004820135926001600160401b0384116129c35736602485850101116129c35760a4356001600160401b038116908190036106cb5760025460405163ec0cd44b60e01b81526024803560048301529091602091839182906001600160a01b03165afa9081156106cf578791612989575b506001600160a01b031692612853841515613c18565b6004358752600860205260056040882001845f5260205260ff60405f2054161561294b57801561290b57865487966001600160a01b0390911692833b156106da5787958260c492889460246040519b8c9a8b998a9763132efaa160e01b8952600489015283880152604487015260a060648701528260a4870152018585013782820184018590526084830152601f01601f191681010301925af18015610623576128fa5750f35b816129049161356a565b6102645780f35b60405162461bcd60e51b81526020600482015260186024820152775a65726f2064657374696e6174696f6e206164647265737360401b6044820152606490fd5b60405162461bcd60e51b815260206004820152601660248201527514185d1a595b9d081b9bdd081c9959da5cdd195c995960521b6044820152606490fd5b90506020813d6020116129bb575b816129a46020938361356a565b81010312612724576129b590613602565b5f61283d565b3d9150612997565b8480fd5b5034610264576020366003190112610264576129e16134fe565b6129f660018060a01b03600654163314613836565b6001600160a01b0316612a0a81151561386f565b600780546001600160a01b031916821790557f6ab4d119f23076e8ad491bc65ce85f017fb0591dce08755ba8591059cc51737a8280a280f35b50346102645760203660031901126102645760ff600460406020938235815260088552200154166040519015158152f35b503461026457602036600319011261026457612a8e6134fe565b612aa360018060a01b03600654163314613836565b6001600160a01b0316612ab781151561386f565b600580546001600160a01b03191691909117905580f35b50346102645780600319360112610264576001546040516001600160a01b039091168152602090f35b50346102645780600319360112610264576002546040516001600160a01b039091168152602090f35b50346108eb57612b2f3661352a565b6003549091906001600160a01b0316612b498115156138aa565b6005546001600160a01b031633148015612fb2575b612b67906138f2565b835f52600c602052612b8060ff60405f2054161561392f565b835f526008602052600560405f200160018060a01b0383165f5260205260ff60405f20541615612f705760405163010b152760e61b815260048101859052905f82602481845afa918215612e06575f92612f54575b50612be282518510613a87565b602060405180926313981ba960e31b82528180612c03888b60048401613acd565b03915afa908115612e06575f91612f22575b508315908115612ef9575b5015612ea557835f52600a60205260405f2060018060a01b0383165f5260205260405f20835f5260205260ff60405f205416612e6057612710612c7c612c9e92865f52600860205261ffff602061046e8860405f205494613b34565b04845f526008602052600360405f20015490612c99821515613b79565b613b5b565b90612cab82471015613bb7565b835f526008602052600160405f2001612cc5838254613ae6565b90555f8481526008602052604090206001810154905410612e11575f848152600a602090815260408083206001600160a01b0385811685529083528184208785529092528220805460ff19166001179055905416803b156108eb5760405163aa67c91960e01b81526001600160a01b0383166004820152905f908290602490829087905af18015612e0657612df1575b5060045485916001600160a01b039091169081612d8f575050505f516020613ee65f395f51905f529160409182519182526020820152a280f35b60405160208101917f494e444956494455414c5f4d494c4553544f4e455f444953545249425554494f8352602760f91b604083015260018060601b03199060601b166041820152856055820152426075820152607581526105c460958261356a565b612dfe9195505f9061356a565b5f935f612d55565b6040513d5f823e3d90fd5b60405162461bcd60e51b815260206004820152602160248201527f446973747269627574696f6e206578636565647320706f6f6c2062616c616e636044820152606560f81b6064820152608490fd5b60405162461bcd60e51b815260206004820152601f60248201527f416c7265616479207061696420666f722074686973206d696c6573746f6e65006044820152606490fd5b60405162461bcd60e51b815260206004820152602660248201527f4d696c6573746f6e65206e6f7420636f6d706c6574656420627920706172746960448201526518da5c185b9d60d21b6064820152608490fd5b600185019150818511612f0e5710155f612c20565b634e487b7160e01b5f52601160045260245ffd5b90506020813d602011612f4c575b81612f3d6020938361356a565b810103126108eb57515f612c15565b3d9150612f30565b612f699192503d805f833e610b4b818361356a565b905f612bd5565b60405162461bcd60e51b815260206004820152601a60248201527914185c9d1a58da5c185b9d081b9bdd081c9959da5cdd195c995960321b6044820152606490fd5b50600154604051631a7f3c3360e01b815260048101869052905f90829060249082906001600160a01b03165afa8015612e0657612b67915f91613007575b50608001516001600160a01b031633149050612b5e565b61301b91503d805f833e610bd0818361356a565b5f612ff0565b346108eb5760203660031901126108eb576004355f526008602052602060405f2054604051908152f35b346108eb5760203660031901126108eb576004355f5260086020526020600260405f200154604051908152f35b346108eb5760203660031901126108eb576130916134fe565b6130a660018060a01b03600654163314613836565b6001600160a01b03166130ba81151561386f565b600380546001600160a01b031916919091179055005b346108eb576130de36613554565b906130f460018060a01b03600654163314613836565b805f52600960205260405f20825f5260205260ff60405f20541661314b57805f52600d60205260405f20825f5260205260405f2060ff1981541690555f52600e60205260405f20905f526020525f60408120555f80f35b60405162461bcd60e51b8152602060048201526011602482015270105b1c9958591e4818dbdb5c1b195d1959607a1b6044820152606490fd5b346108eb575f3660031901126108eb576003546040516001600160a01b039091168152602090f35b346108eb5760203660031901126108eb57600154604051631a7f3c3360e01b815260048035908201819052915f90829060249082906001600160a01b03165afa908115612e06575f9161344e575b506006546001600160a01b031633148015613438575b156133e5576132266101e08201514210156137e7565b5f828152600860205260409020600381015460049091015460ff16901581156133dd575b501561339857815f52600c60205260ff60405f20541661335f575f828152600860205260409020805460019091015461328291613829565b908115613325575f838152600c60205260408120805460ff1916600117905560809091015190918291829182916001600160a01b03165af13d15613320573d6132ca816135a1565b906132d8604051928361356a565b81525f60203d92013e5b156132e957005b60405162461bcd60e51b815260206004820152600f60248201526e151c985b9cd9995c8819985a5b1959608a1b6044820152606490fd5b6132e2565b60405162461bcd60e51b81526020600482015260126024820152714e6f7468696e6720746f207265636c61696d60701b6044820152606490fd5b60405162461bcd60e51b8152602060048201526011602482015270105b1c9958591e481c9958db185a5b5959607a1b6044820152606490fd5b60405162461bcd60e51b815260206004820152601d60248201527f53637265656e696e67206e6f74207965742064697374726962757465640000006044820152606490fd5b90508361324a565b60405162461bcd60e51b815260206004820152602560248201527f4e6f7420617574686f72697a65643a206f6e6c79206f776e6572206f7220737060448201526437b739b7b960d91b6064820152608490fd5b5060808101516001600160a01b03163314613210565b61346291503d805f833e610bd0818361356a565b826131fa565b346108eb575f3660031901126108eb576004546040516001600160a01b039091168152602090f35b346108eb575f3660031901126108eb576005546040516001600160a01b039091168152602090f35b346108eb576134c63661352a565b915f52600a60205260405f209060018060a01b03165f5260205260405f20905f52602052602060ff60405f2054166040519015158152f35b600435906001600160a01b03821682036108eb57565b602435906001600160a01b03821682036108eb57565b60609060031901126108eb57600435906024356001600160a01b03811681036108eb579060443590565b60409060031901126108eb576004359060243590565b601f909101601f19168101906001600160401b0382119082101761358d57604052565b634e487b7160e01b5f52604160045260245ffd5b6001600160401b03811161358d57601f01601f191660200190565b81601f820112156108eb578051906135d3826135a1565b926135e1604051948561356a565b828452602083830101116108eb57815f9260208093018386015e8301015290565b51906001600160a01b03821682036108eb57565b519081151582036108eb57565b519060ff821682036108eb57565b519061ffff821682036108eb57565b6020818303126108eb578051906001600160401b0382116108eb570190610200828203126108eb576040519161020083016001600160401b0381118482101761358d5760405280516001600160401b0381116108eb57826136a29183016135bc565b835260208101516001600160401b0381116108eb57826136c39183016135bc565b602084015260408101516001600160401b0381116108eb57826136e79183016135bc565b604084015260608101516001600160401b0381116108eb576101e09261370e9183016135bc565b606084015261371f60808201613602565b608084015261373060a08201613616565b60a084015261374160c08201613623565b60c084015261375260e08201613623565b60e08401526137646101008201613616565b6101008401526137776101208201613631565b61012084015261378a6101408201613623565b61014084015261379d6101608201613623565b6101608401526137b06101808201613631565b6101808401526137c36101a08201613616565b6101a08401526137d66101c08201613616565b6101c084015201516101e082015290565b156137ee57565b60405162461bcd60e51b8152602060048201526013602482015272151c9a585b081b9bdd081e595d08195b991959606a1b6044820152606490fd5b91908203918211612f0e57565b1561383d57565b60405162461bcd60e51b815260206004820152600a60248201526927b7363c9037bbb732b960b11b6044820152606490fd5b1561387657565b60405162461bcd60e51b815260206004820152600c60248201526b5a65726f206164647265737360a01b6044820152606490fd5b156138b157565b60405162461bcd60e51b8152602060048201526019602482015278135a5b195cdd1bdb99481b585b9859d95c881b9bdd081cd95d603a1b6044820152606490fd5b156138f957565b60405162461bcd60e51b815260206004820152600e60248201526d139bdd08185d5d1a1bdc9a5e995960921b6044820152606490fd5b1561393657565b60405162461bcd60e51b815260206004820152602260248201527f446973747269627574696f6e20626c6f636b6564206166746572207265636c61604482015261696d60f01b6064820152608490fd5b6020818303126108eb578051906001600160401b0382116108eb57019080601f830112156108eb578151916001600160401b03831161358d578260051b9160208301936139d6604051958661356a565b8452602080850193830101918183116108eb5760208101935b8385106139fe57505050505090565b84516001600160401b0381116108eb5782016060818503601f1901126108eb5760405191606083016001600160401b0381118482101761358d576040526020820151926001600160401b0384116108eb57606083613a638860208098819801016135bc565b8352613a7160408201613631565b85840152015160408201528152019401936139ef565b15613a8e57565b60405162461bcd60e51b8152602060048201526017602482015276092dcecc2d8d2c840dad2d8cae6e8dedcca40d2dcc8caf604b1b6044820152606490fd5b9081526001600160a01b03909116602082015260400190565b91908201809211612f0e57565b805115613b005760200190565b634e487b7160e01b5f52603260045260245ffd5b805160011015613b005760400190565b805160021015613b005760600190565b8051821015613b005760209160051b010190565b81810292918115918404141715612f0e57565b8115613b65570490565b634e487b7160e01b5f52601260045260245ffd5b15613b8057565b60405162461bcd60e51b815260206004820152600f60248201526e4e6f207061727469636970616e747360881b6044820152606490fd5b15613bbe57565b60405162461bcd60e51b8152602060048201526019602482015278125b9cdd59999a58da595b9d08115512081a5b881d985d5b1d603a1b6044820152606490fd5b6040909392919360608101946005825260208201520152565b15613c1f57565b60405162461bcd60e51b8152602060048201526016602482015275139bc81c195c9b5a5d081a1bdb19195c88199bdd5b9960521b6044820152606490fd5b15613c6457565b60405162461bcd60e51b8152602060048201526011602482015270139bc81a5b98d95b9d1a5d99481c1bdbdb607a1b6044820152606490fd5b8054821015613b00575f5260205f2001905f90565b15613cb957565b60405162461bcd60e51b815260206004820152601d60248201527f4d696c6573746f6e6520616c72656164792064697374726962757465640000006044820152606490fd5b5f198114612f0e5760010190565b15613d1357565b60405162461bcd60e51b8152602060048201526019602482015278576f756c642065786365656420706f6f6c2062616c616e636560381b6044820152606490fd5b5f516020613ec65f395f51905f523b156108eb57604051631974142760e21b8152915f9183918291613d8a919060048401613acd565b0381835f516020613ec65f395f51905f525af18015612e0657613daa5750565b5f613db49161356a565b565b90602080835192838152019201905f5b818110613dd35750505090565b8251845260209384019390920191600101613dc6565b91613e109060ff613e1e9593168452601a6020850152608060408501526080840190613db6565b916060818403910152613db6565b90565b6020613e7681604051613e34828261356a565b5f81525f36813760405190613e4a60808361356a565b60038252606036848401375f613e5f83613af3565b526005613e6b83613b14565b525f610ed583613b24565b03815f5f516020613ec65f395f51905f525af1918215612e06575f92613e9b57505090565b90809250813d8311613ebe575b613eb2818361356a565b810103126108eb575190565b503d613ea856fe000000000000000000000000ea30c4b8b44078bbf8a6ef5b9f1ec1626c7848d9ab3d35e987d7948966df55f2917cc7abfc0e48b46f79c6b8603de3ee7c95aac7a164736f6c634300081b000a",
  "linkReferences": {},
  "deployedLinkReferences": {}
}