{
  "_format": "hh-sol-artifact-1",
  "contractName": "SponsorIncentiveVault",
  "sourceName": "contracts/SponsorIncentiveVault.sol",
  "abi": [
    {
      "inputs": [
        {
          "internalType": "address payable",
          "name": "_cETH",
          "type": "address"
        },
        {
          "internalType": "address",
          "name": "_trialManager",
          "type": "address"
        },
        {
          "internalType": "address",
          "name": "_eligibilityEngine",
          "type": "address"
        }
      ],
      "stateMutability": "nonpayable",
      "type": "constructor"
    },
    {
      "inputs": [
        {
          "internalType": "int32",
          "name": "value",
          "type": "int32"
        }
      ],
      "name": "SecurityZoneOutOfBounds",
      "type": "error"
    },
    {
      "anonymous": false,
      "inputs": [
        {
          "indexed": true,
          "internalType": "uint256",
          "name": "trialId",
          "type": "uint256"
        },
        {
          "indexed": true,
          "internalType": "address",
          "name": "sponsor",
          "type": "address"
        },
        {
          "indexed": false,
          "internalType": "uint256",
          "name": "amount",
          "type": "uint256"
        }
      ],
      "name": "IncentiveFunded",
      "type": "event"
    },
    {
      "anonymous": false,
      "inputs": [
        {
          "indexed": true,
          "internalType": "uint256",
          "name": "trialId",
          "type": "uint256"
        },
        {
          "indexed": false,
          "internalType": "uint256",
          "name": "milestoneIndex",
          "type": "uint256"
        },
        {
          "indexed": false,
          "internalType": "uint256",
          "name": "shareWei",
          "type": "uint256"
        }
      ],
      "name": "MilestoneRewardsDistributed",
      "type": "event"
    },
    {
      "anonymous": false,
      "inputs": [
        {
          "indexed": true,
          "internalType": "address",
          "name": "newOwner",
          "type": "address"
        }
      ],
      "name": "OwnershipAccepted",
      "type": "event"
    },
    {
      "anonymous": false,
      "inputs": [
        {
          "indexed": true,
          "internalType": "address",
          "name": "proposedOwner",
          "type": "address"
        }
      ],
      "name": "OwnershipProposed",
      "type": "event"
    },
    {
      "anonymous": false,
      "inputs": [
        {
          "indexed": true,
          "internalType": "uint256",
          "name": "trialId",
          "type": "uint256"
        },
        {
          "indexed": true,
          "internalType": "address",
          "name": "participant",
          "type": "address"
        }
      ],
      "name": "ParticipantRegistered",
      "type": "event"
    },
    {
      "anonymous": false,
      "inputs": [
        {
          "indexed": true,
          "internalType": "address",
          "name": "patient",
          "type": "address"
        },
        {
          "indexed": false,
          "internalType": "uint256",
          "name": "amount",
          "type": "uint256"
        }
      ],
      "name": "RewardClaimed",
      "type": "event"
    },
    {
      "anonymous": false,
      "inputs": [
        {
          "indexed": true,
          "internalType": "uint256",
          "name": "trialId",
          "type": "uint256"
        },
        {
          "indexed": false,
          "internalType": "uint256",
          "name": "participantCount",
          "type": "uint256"
        },
        {
          "indexed": false,
          "internalType": "uint256",
          "name": "shareWei",
          "type": "uint256"
        }
      ],
      "name": "RewardsDistributed",
      "type": "event"
    },
    {
      "inputs": [],
      "name": "MAX_PARTICIPANTS",
      "outputs": [
        {
          "internalType": "uint256",
          "name": "",
          "type": "uint256"
        }
      ],
      "stateMutability": "view",
      "type": "function"
    },
    {
      "inputs": [],
      "name": "acceptOwnership",
      "outputs": [],
      "stateMutability": "nonpayable",
      "type": "function"
    },
    {
      "inputs": [],
      "name": "automationContract",
      "outputs": [
        {
          "internalType": "address",
          "name": "",
          "type": "address"
        }
      ],
      "stateMutability": "view",
      "type": "function"
    },
    {
      "inputs": [],
      "name": "cETH",
      "outputs": [
        {
          "internalType": "contract ConfidentialETH",
          "name": "",
          "type": "address"
        }
      ],
      "stateMutability": "view",
      "type": "function"
    },
    {
      "inputs": [],
      "name": "dataAccessLog",
      "outputs": [
        {
          "internalType": "contract DataAccessLog",
          "name": "",
          "type": "address"
        }
      ],
      "stateMutability": "view",
      "type": "function"
    },
    {
      "inputs": [
        {
          "internalType": "uint256",
          "name": "_trialId",
          "type": "uint256"
        }
      ],
      "name": "distribute",
      "outputs": [],
      "stateMutability": "nonpayable",
      "type": "function"
    },
    {
      "inputs": [
        {
          "internalType": "uint256",
          "name": "_trialId",
          "type": "uint256"
        },
        {
          "internalType": "address",
          "name": "_participant",
          "type": "address"
        },
        {
          "internalType": "uint256",
          "name": "_milestoneIndex",
          "type": "uint256"
        }
      ],
      "name": "distributeMilestoneToParticipant",
      "outputs": [],
      "stateMutability": "nonpayable",
      "type": "function"
    },
    {
      "inputs": [
        {
          "internalType": "uint256",
          "name": "_trialId",
          "type": "uint256"
        },
        {
          "internalType": "uint256",
          "name": "_milestoneIndex",
          "type": "uint256"
        }
      ],
      "name": "distributePartial",
      "outputs": [],
      "stateMutability": "nonpayable",
      "type": "function"
    },
    {
      "inputs": [
        {
          "internalType": "uint256",
          "name": "_trialId",
          "type": "uint256"
        },
        {
          "internalType": "uint256",
          "name": "_milestoneIndex",
          "type": "uint256"
        },
        {
          "internalType": "uint256",
          "name": "_startIndex",
          "type": "uint256"
        },
        {
          "internalType": "uint256",
          "name": "_batchSize",
          "type": "uint256"
        }
      ],
      "name": "distributePartialPaginated",
      "outputs": [],
      "stateMutability": "nonpayable",
      "type": "function"
    },
    {
      "inputs": [],
      "name": "eligibilityEngine",
      "outputs": [
        {
          "internalType": "contract EligibilityEngine",
          "name": "",
          "type": "address"
        }
      ],
      "stateMutability": "view",
      "type": "function"
    },
    {
      "inputs": [
        {
          "internalType": "uint256",
          "name": "_trialId",
          "type": "uint256"
        }
      ],
      "name": "fundTrial",
      "outputs": [],
      "stateMutability": "payable",
      "type": "function"
    },
    {
      "inputs": [
        {
          "internalType": "uint256",
          "name": "_trialId",
          "type": "uint256"
        }
      ],
      "name": "getEncryptedPoolSize",
      "outputs": [
        {
          "internalType": "euint64",
          "name": "",
          "type": "bytes32"
        }
      ],
      "stateMutability": "view",
      "type": "function"
    },
    {
      "inputs": [
        {
          "internalType": "uint256",
          "name": "_trialId",
          "type": "uint256"
        }
      ],
      "name": "getParticipantCount",
      "outputs": [
        {
          "internalType": "uint256",
          "name": "",
          "type": "uint256"
        }
      ],
      "stateMutability": "view",
      "type": "function"
    },
    {
      "inputs": [
        {
          "internalType": "uint256",
          "name": "_trialId",
          "type": "uint256"
        }
      ],
      "name": "getTotalDeposited",
      "outputs": [
        {
          "internalType": "uint256",
          "name": "",
          "type": "uint256"
        }
      ],
      "stateMutability": "view",
      "type": "function"
    },
    {
      "inputs": [
        {
          "internalType": "uint256",
          "name": "_trialId",
          "type": "uint256"
        }
      ],
      "name": "isDistributed",
      "outputs": [
        {
          "internalType": "bool",
          "name": "",
          "type": "bool"
        }
      ],
      "stateMutability": "view",
      "type": "function"
    },
    {
      "inputs": [
        {
          "internalType": "uint256",
          "name": "_trialId",
          "type": "uint256"
        },
        {
          "internalType": "address",
          "name": "_participant",
          "type": "address"
        }
      ],
      "name": "isParticipantRegistered",
      "outputs": [
        {
          "internalType": "bool",
          "name": "",
          "type": "bool"
        }
      ],
      "stateMutability": "view",
      "type": "function"
    },
    {
      "inputs": [
        {
          "internalType": "uint256",
          "name": "_trialId",
          "type": "uint256"
        }
      ],
      "name": "isPoolFunded",
      "outputs": [
        {
          "internalType": "bool",
          "name": "",
          "type": "bool"
        }
      ],
      "stateMutability": "view",
      "type": "function"
    },
    {
      "inputs": [
        {
          "internalType": "uint256",
          "name": "",
          "type": "uint256"
        },
        {
          "internalType": "uint256",
          "name": "",
          "type": "uint256"
        }
      ],
      "name": "lastProcessedIndex",
      "outputs": [
        {
          "internalType": "uint256",
          "name": "",
          "type": "uint256"
        }
      ],
      "stateMutability": "view",
      "type": "function"
    },
    {
      "inputs": [
        {
          "internalType": "uint256",
          "name": "",
          "type": "uint256"
        },
        {
          "internalType": "uint256",
          "name": "",
          "type": "uint256"
        }
      ],
      "name": "milestoneDistributed",
      "outputs": [
        {
          "internalType": "bool",
          "name": "",
          "type": "bool"
        }
      ],
      "stateMutability": "view",
      "type": "function"
    },
    {
      "inputs": [],
      "name": "milestoneManager",
      "outputs": [
        {
          "internalType": "contract TrialMilestoneManager",
          "name": "",
          "type": "address"
        }
      ],
      "stateMutability": "view",
      "type": "function"
    },
    {
      "inputs": [],
      "name": "owner",
      "outputs": [
        {
          "internalType": "address",
          "name": "",
          "type": "address"
        }
      ],
      "stateMutability": "view",
      "type": "function"
    },
    {
      "inputs": [
        {
          "internalType": "uint256",
          "name": "",
          "type": "uint256"
        },
        {
          "internalType": "uint256",
          "name": "",
          "type": "uint256"
        }
      ],
      "name": "paginationStarted",
      "outputs": [
        {
          "internalType": "bool",
          "name": "",
          "type": "bool"
        }
      ],
      "stateMutability": "view",
      "type": "function"
    },
    {
      "inputs": [
        {
          "internalType": "uint256",
          "name": "",
          "type": "uint256"
        },
        {
          "internalType": "address",
          "name": "",
          "type": "address"
        },
        {
          "internalType": "uint256",
          "name": "",
          "type": "uint256"
        }
      ],
      "name": "participantMilestonePaid",
      "outputs": [
        {
          "internalType": "bool",
          "name": "",
          "type": "bool"
        }
      ],
      "stateMutability": "view",
      "type": "function"
    },
    {
      "inputs": [],
      "name": "pendingOwner",
      "outputs": [
        {
          "internalType": "address",
          "name": "",
          "type": "address"
        }
      ],
      "stateMutability": "view",
      "type": "function"
    },
    {
      "inputs": [
        {
          "internalType": "address",
          "name": "_newOwner",
          "type": "address"
        }
      ],
      "name": "proposeOwnership",
      "outputs": [],
      "stateMutability": "nonpayable",
      "type": "function"
    },
    {
      "inputs": [
        {
          "internalType": "uint256",
          "name": "",
          "type": "uint256"
        }
      ],
      "name": "reclaimFinalized",
      "outputs": [
        {
          "internalType": "bool",
          "name": "",
          "type": "bool"
        }
      ],
      "stateMutability": "view",
      "type": "function"
    },
    {
      "inputs": [
        {
          "internalType": "uint256",
          "name": "_trialId",
          "type": "uint256"
        }
      ],
      "name": "reclaimUndistributed",
      "outputs": [],
      "stateMutability": "nonpayable",
      "type": "function"
    },
    {
      "inputs": [
        {
          "internalType": "uint256",
          "name": "_trialId",
          "type": "uint256"
        },
        {
          "internalType": "uint256",
          "name": "_nullifier",
          "type": "uint256"
        }
      ],
      "name": "registerAnonymousParticipant",
      "outputs": [],
      "stateMutability": "nonpayable",
      "type": "function"
    },
    {
      "inputs": [
        {
          "internalType": "uint256",
          "name": "",
          "type": "uint256"
        },
        {
          "internalType": "address",
          "name": "",
          "type": "address"
        }
      ],
      "name": "registerParticipant",
      "outputs": [],
      "stateMutability": "pure",
      "type": "function"
    },
    {
      "inputs": [
        {
          "internalType": "uint256",
          "name": "_trialId",
          "type": "uint256"
        }
      ],
      "name": "requestEncryptedPoolAccess",
      "outputs": [],
      "stateMutability": "nonpayable",
      "type": "function"
    },
    {
      "inputs": [
        {
          "internalType": "uint256",
          "name": "_trialId",
          "type": "uint256"
        },
        {
          "internalType": "uint256",
          "name": "_milestoneIndex",
          "type": "uint256"
        }
      ],
      "name": "resetPaginationState",
      "outputs": [],
      "stateMutability": "nonpayable",
      "type": "function"
    },
    {
      "inputs": [
        {
          "internalType": "address",
          "name": "_automation",
          "type": "address"
        }
      ],
      "name": "setAutomationContract",
      "outputs": [],
      "stateMutability": "nonpayable",
      "type": "function"
    },
    {
      "inputs": [
        {
          "internalType": "address",
          "name": "_dataAccessLog",
          "type": "address"
        }
      ],
      "name": "setDataAccessLog",
      "outputs": [],
      "stateMutability": "nonpayable",
      "type": "function"
    },
    {
      "inputs": [
        {
          "internalType": "address",
          "name": "_milestoneManager",
          "type": "address"
        }
      ],
      "name": "setMilestoneManager",
      "outputs": [],
      "stateMutability": "nonpayable",
      "type": "function"
    },
    {
      "inputs": [],
      "name": "trialManager",
      "outputs": [
        {
          "internalType": "contract TrialManager",
          "name": "",
          "type": "address"
        }
      ],
      "stateMutability": "view",
      "type": "function"
    },
    {
      "stateMutability": "payable",
      "type": "receive"
    }
  ],
  "bytecode": "0x60803460b257601f613c1d38819003918201601f19168301916001600160401b0383118484101760b65780849260609460405283398101031260b25780516001600160a01b038116919082900360b25760636040605d6020840160ca565b920160ca565b600680546001600160a01b031990811633179091555f805482169094179093556001805484166001600160a01b03938416179055600280549093169116179055604051613b3f90816100de8239f35b5f80fd5b634e487b7160e01b5f52604160045260245ffd5b51906001600160a01b038216820360b25756fe60806040526004361015610075575b3615610018575f80fd5b60405162461bcd60e51b815260206004820152602f60248201527f5573652066756e64547269616c28747269616c49642920746f2066756e64206160448201526e081cdc1958da599a58c81d1c9a585b608a1b6064820152608490fd5b5f5f3560e01c8062b6cbdf146131345780630689d5ed1461310c57806307982309146130e45780630aed466114612e425780630b7d662f14612e1a578063289e2e9014612d665780632ea7ca0b14612d0e578063350289ff14612ce15780633b1b84ff14612cb7578063477e74b6146127b65780634f11c6901461278d57806355f8cfdd1461276457806362909f0a1461270a5780636f62c3a6146126d9578063710bf3221461265d578063754ad0de1461228657806379ba5097146121e55780637ef4775b146121b957806386ae5fec1461218c5780638da5cb5b1461216357806391c05b0b14611b415780639a5c845514611b0f578063a1b4d01114611ae8578063a768f28514611ab9578063b807420c14611379578063be26085e14610e02578063c322122714610dd0578063cb84e53714610d83578063d84df05b14610d56578063d898ef8b14610c7f578063e30c397814610c56578063e3b39cfd1461031b578063ef22621214610278578063f3baf0701461025c5763f520f24f14610200575061000e565b346102595760203660031901126102595761021961317a565b61022e60018060a01b036006541633146134a8565b6001600160a01b03166102428115156134e1565b600480546001600160a01b03191691909117905580f35b80fd5b5034610259578060031936011261025957602060405160c88152f35b503461025957604036600319011261025957610292613190565b5060405162461bcd60e51b815260206004820152605460248201527f4c656761637920726567697374726174696f6e20646570726563617465642e2060448201527f557365207265676973746572416e6f6e796d6f75735061727469636970616e7460648201527314373ab63634b334b2b9149034b739ba32b0b21760611b608482015260a490fd5b503461025957608036600319011261025957600435602435602460443560643560018060a01b036005541633148015610bdd575b61035890613564565b848652600c60205261037160ff604088205416156135a1565b60035486906001600160a01b031661038a81151561351c565b8682526009602052604082208683526020526103ad60ff604084205416156138df565b6040519485809263010b152760e61b82528960048301525afa928315610bd2578693610bae575b506103e1835185106136f9565b84865260086020526003604087200154906103fd8215156137eb565b81831015610b735782610b1557858752600d6020526040872085885260205260408720600160ff198254161790555b816104378285613758565b1115610aff575061271061046d82945b878952600860205261ffff60206104638960408d2054946137a6565b51015116906137ba565b04928693879088918715908115935b848c8c89841061099c57505050501561094d5786156108f457908995949392916104e96104d56104bf6104b96104b28c876137cd565b9b8c6137ba565b8561349b565b938c8a526008602052600160408b200154613758565b8b8952600860205260408920541015613939565b86928791875b8b8d8883106106f65793505050508752600e60205260408720898852602052836040882055811515806106e4575b806106db575b610655575b5050878552600860205261054460016040872001918254613758565b90551461062f575b6004546001600160a01b03169081610582575b5050505f516020613b135f395f51905f529160409182519182526020820152a280f35b6040516020810191701410549512505317d41051d25390551151607a1b83528660318301526051820152426071820152607181526105c16091826131e6565b51902090803b1561062b576040516306cc173360e41b815291839183918290849082906105f2908c60048401613871565b03925af1801561062057610607575b8061055f565b81610611916131e6565b61061c57835f610601565b8380fd5b6040513d84823e3d90fd5b8280fd5b84825260096020526040822084835260205260408220600160ff1982541617905561054c565b86546001600160a01b031690813b156106d75760405163aa67c91960e01b81526001600160a01b0390911660048201529087908290602490829086905af19081156106cc5787916106b3575b50506106ac91613758565b5f80610528565b816106bd916131e6565b6106c857855f6106a1565b8580fd5b6040513d89823e3d90fd5b8780fd5b50848414610523565b506001600160a01b038116151561051d565b909192938b82829798999a9b9c9d52600860205261071a85600360408420016138ca565b905460039190911b1c6001600160a01b03169386928590610844575b508261080f575b50509050610759575b50600101908c98979695949392916104ef565b959093508b8d52600a60205260408d2060018060a01b0387165f526020528c8b60405f20915260205260408d20600160ff1982541617905560018060a01b038d54168d813b1561025957808c9260246040518095819363aa67c91960e01b83528d60048401525af1918215610802578c926107e5575b50506107dd90600192613758565b959390610746565b819250906107f2916131e6565b6107fe57898d5f6107cf565b8c80fd5b50604051903d90823e3d90fd5b6040925060ff938252600a60205282822060018060a01b0386165f52602052825f20908252602052205416158d908f8e61073d565b6003546040516313981ba960e31b815293959394506020938593506001600160a01b03909116918391829161087c916004840161373f565b03915afa908115610620578e92916108bc575b50600182018092116108a7578e9111158f8e84610736565b50634e487b7160e01b8f52601160045260248ffd5b9150506020813d82116108ec575b816108d7602093836131e6565b810103126108e8578c90515f61088f565b5f80fd5b3d91506108ca565b60405162461bcd60e51b815260206004820152602b60248201527f4e6f20656c696769626c65207061727469636970616e747320666f722074686960448201526a73206d696c6573746f6e6560a81b6064820152608490fd5b60405162461bcd60e51b815260206004820152602160248201527f4e6f20656c696769626c65207061727469636970616e747320696e20626174636044820152600d60fb1b6064820152608490fd5b600360408386936109b49552600860205220016138ca565b60018060a01b0391549060031b1c168d8d8693610a4e575b505081610a19575b506109e2575b60010161047c565b976109ec9061392b565b978781101580610a10575b156109da5790610a0860019161392b565b9190506109da565b508581106109f7565b90508b8d52600a60205260408d209060018060a01b03165f5260205260405f208a8d5260205260ff60408d205416155f6109d4565b6003546040516313981ba960e31b815293945091929160209183916001600160a01b03169082908190610a869089906004840161373f565b03915afa918215610af35791610ac2575b5060018c0190818d11610aae571015908d8d6109cc565b634e487b7160e01b8f52601160045260248ffd5b90506020813d8211610aeb575b81610adc602093836131e6565b810103126108e857515f610a97565b3d9150610acf565b604051903d90823e3d90fd5b61046d610b0f6127109285613758565b94610447565b858752600e60205260408720858852602052604087205483031561042c5760405162461bcd60e51b815260206004820152601860248201527710985d18da081b5d5cdd081899481cd95c5d595b9d1a585b60421b6044820152606490fd5b60405162461bcd60e51b8152602060048201526013602482015272092dcecc2d8d2c840e6e8c2e4e840d2dcc8caf606b1b6044820152606490fd5b610bcb9193503d8088833e610bc381836131e6565b8101906135f8565b915f6103d4565b6040513d88823e3d90fd5b50600154604051631a7f3c3360e01b81526004810187905293879185919082906001600160a01b03165afa928315610bd257602493610358918891610c34575b50608001516001600160a01b03163314905061034f565b610c5091503d808a833e610c4881836131e6565b8101906132a8565b5f610c1d565b50346102595780600319360112610259576007546040516001600160a01b039091168152602090f35b503461025957602036600319011261025957600154604051631a7f3c3360e01b815260048035908201819052918390829060249082906001600160a01b03165afa908115610d4b578391610d31575b50608001516001600160a01b03163303610cfd5781526008602052610cfa336002604084200154613981565b80f35b60405162461bcd60e51b815260206004820152600c60248201526b27b7363c9039b837b739b7b960a11b6044820152606490fd5b610d4591503d8085833e610c4881836131e6565b5f610cce565b6040513d85823e3d90fd5b5034610259576040602091610d6a366131d0565b908252600e845282822090825283522054604051908152f35b50346102595760403660031901126102595760056040610da1613190565b926004358152600860205220019060018060a01b03165f52602052602060ff60405f2054166040519015158152f35b50346102595760ff6040602092610de6366131d0565b9082526009855282822090825284522054166040519015158152f35b5060203660031901126102595760246004358260018060a01b036001541660405193848092631a7f3c3360e01b82528560048301525afa918215610d4b57839261135d575b506080820180519092906001600160a01b031633036113205760a0810151156112e8576101e001514210156112ad57341561127857808352600860205260ff600460408520015460081c1661122357808352600860205260408320610ead348254613758565b905582546040516358ac71cd60e11b815290602090829060049082906001600160a01b03165afa9081156112185784916111e6575b506001600160401b0390610ef690346137cd565b1691610f6b60208094604051610f0c83826131e6565b8781525f36813760405191610f226080846131e6565b6003835260603685850137610f3683613765565b526005610f4283613786565b5287610f4d83613796565b52604051631888debd60e01b81529384928392600560048501613a16565b0381885f516020613af35f395f51905f525af190811561117c5785916111b9575b50828552600884526040852060020154156111a55782855260088452600260408620015490808215611195575b15611187575b60405191610fce6060846131e6565b6002835260403687850137610fe283613765565b52610fec82613786565b528361103a60405192610fff83856131e6565b8784525f36813761104c6040519485938493631888debd60e01b855260056004860152600860248601526080604486015260848501906139e3565b838103600319016064850152906139e3565b0381885f516020613af35f395f51905f525af190811561117c57859161114f575b508285526008845260026040862001555b818452600883528360026040822001545f516020613af35f395f51905f523b1561114b57816110c39160405180938192631974142760e21b835230906004840161373f565b0381835f516020613af35f395f51905f525af1801561062057611136575b508290526008835260408420600201549051611108916001600160a01b0390911690613981565b7f67ec3e65bfa1c9be3e784341a3b9746d0e6a0cace395c7ff8df13b58106c2729604051923484523393a380f35b81611140916131e6565b61061c57835f6110e1565b5080fd5b90508381813d8311611175575b61116681836131e6565b810103126108e857515f61106d565b503d61115c565b6040513d87823e3d90fd5b50611190613a4e565b610fbf565b915061119f613a4e565b91610fb9565b82855260088452600260408620015561107e565b90508381813d83116111df575b6111d081836131e6565b810103126108e857515f610f8c565b503d6111c6565b90506020813d602011611210575b81611201602093836131e6565b810103126108e857515f610ee2565b3d91506111f4565b6040513d86823e3d90fd5b60405162461bcd60e51b815260206004820152602760248201527f46756e64696e67206c6f636b656420616674657220726567697374726174696f60448201526637103132b3b0b760c91b6064820152608490fd5b60405162461bcd60e51b815260206004820152600d60248201526c09aeae6e840e6cadcc8408aa89609b1b6044820152606490fd5b60405162461bcd60e51b8152602060048201526013602482015272151c9a585b08185b1c9958591e48195b991959606a1b6044820152606490fd5b60405162461bcd60e51b815260206004820152601060248201526f547269616c206e6f742061637469766560801b6044820152606490fd5b60405162461bcd60e51b815260206004820152601560248201527413db9b1e481cdc1bdb9cdbdc8818d85b88199d5b99605a1b6044820152606490fd5b6113729192503d8085833e610c4881836131e6565b905f610e47565b503461025957611388366131d0565b6005546001600160a01b031633148015611a4a575b6113a690613564565b818352600c6020526113bf60ff604085205416156135a1565b818352600d6020526040832081845260205260ff604084205416611a0d576003546001600160a01b03166113f481151561351c565b82845260096020526040842082855260205261141760ff604086205416156138df565b60405163010b152760e61b815260048101849052908482602481845afa91821561117c5785926119f1575b5061144f825184106136f9565b838552600860205261271061148d6003604088200154936114718515156137eb565b868852600860205261ffff60206104638860408c2054946137a6565b0461149a81471015613829565b859286908515938415925b838a8a8584106118c857505050505084156118885790879161150a6114f66114e06114da6114d38a896137cd565b998a6137ba565b8761349b565b958a865260086020526001604087200154613758565b898552600860205260408520541015613939565b82948392845b8a8482106116b6575050505050821515806116a4575b611633575b5085915052600860205261154760016040872001918254613758565b90558284526009602090815260408086208487529091528420805460ff1916600117905560045484906001600160a01b0316806115a1575b50505f516020613b135f395f51905f529160409182519182526020820152a280f35b6040516020810190732820a92a24a0a62fa224a9aa2924a12aaa24a7a760611b8252856034820152426054820152605481526115de6074826131e6565b51902090803b1561062b576040516306cc173360e41b8152918391839182908490829061160f908c60048401613871565b03925af18015610620571561157f5781611628916131e6565b61061c57835f61157f565b81546001600160a01b031690813b1561062b5760405163aa67c91960e01b81526001600160a01b0390911660048201529082908290602490829087905af180156106205761168f575b505061168791613758565b5f858161152b565b81611699916131e6565b6106c857855f61167c565b506001600160a01b0381161515611526565b9060036040886116d39484969798999a52600860205220016138ca565b905460039190911b1c6001600160a01b031683836117e2575b806117af575b611706575b50600101908a94939291611510565b96909450898b52600a60205260408b2060018060a01b0388165f5260205260405f20898c5260205260408b20600160ff1982541617905560018060a01b038b54168b813b1561025957808a9260248b604051958693849263aa67c91960e01b845260048401525af1918215610802578a92611792575b505061178a90600192613758565b9694906116f7565b8192509061179f916131e6565b6117ab57878b5f61177c565b8a80fd5b508a8c52600a60205260408c2060018060a01b0382165f5260205260405f208a8d5260205260ff60408d205416156116f2565b506118126020828d60018060a01b0360035416906040518095819482936313981ba960e31b84526004840161373f565b03915afa90811561187d578d9161184c575b5060018b0190818c116118385710156116ec565b634e487b7160e01b8e52601160045260248efd5b90506020813d8211611875575b81611866602093836131e6565b810103126108e857515f611824565b3d9150611859565b6040513d8f823e3d90fd5b60405162461bcd60e51b81526020600482015260186024820152774e6f20656c696769626c65207061727469636970616e747360401b6044820152606490fd5b600360408386936118e09552600860205220016138ca565b9054889260039290921b1c6001600160a01b031690611957575b81611922575b5061190e575b6001016114a5565b9561191a60019161392b565b969050611906565b9050898b52600a60205260408b209060018060a01b03165f5260205260405f20888b5260205260ff60408b205416155f611900565b6040516313981ba960e31b815290915060208180611979858f6004840161373f565b0381875afa9081156119e6578c916119b5575b5060018a0190818b116119a1571015906118fa565b634e487b7160e01b8d52601160045260248dfd5b90506020813d82116119de575b816119cf602093836131e6565b810103126108e857515f61198c565b3d91506119c2565b6040513d8e823e3d90fd5b611a069192503d8087833e610bc381836131e6565b905f611442565b60405162461bcd60e51b81526020600482015260156024820152742ab9b2903830b3b4b730ba32b2103b32b939b4b7b760591b6044820152606490fd5b50600154604051631a7f3c3360e01b815260048101849052908490829060249082906001600160a01b03165afa8015611218576113a6918591611a9f575b50608001516001600160a01b03163314905061139d565b611ab391503d8087833e610c4881836131e6565b5f611a88565b50346102595760203660031901126102595760ff60406020926004358152600c84522054166040519015158152f35b5034610259578060031936011261025957546040516001600160a01b039091168152602090f35b50346102595760ff6040602092611b25366131d0565b908252600d855282822090825284522054166040519015158152f35b50346102595760203660031901126102595760043560018060a01b0360055416331480156120f4575b611b7390613564565b808252600c602052611b8c60ff604084205416156135a1565b600154604051631a7f3c3360e01b815260048101839052908390829060249082906001600160a01b03165afa8015610d4b576101e09184916120da575b500180511561209e57611bdf9051421015613459565b8082526008602052611bf66040832054151561388a565b808252600860205260ff6004604084200154166120595780825260086020526003604083200154611c288115156137eb565b81835260086020526040832054611c4181471015613829565b6003546001600160a01b031680151590859082612009575b505015611f2f5760035460405163010b152760e61b81526004810185905291908590839060249082906001600160a01b03165afa90811561117c5761ffff6020610463611cb194612710968a91611f15575b50613765565b04611cbc82826137cd565b90611cd0611cca84846137ba565b8261349b565b855b848110611de95750505b8385526008602052611cf660016040872001918254613758565b90558284526008602052604084206004908101805460ff191660011790555484906001600160a01b031680611d5b575b50507f6ae8ee960d83517f7fa993ad7a0e16e33d9655a23ff41eefc62bdb289c7a8e5f9160409182519182526020820152a280f35b60405160208101907529a1a922a2a724a723afa224a9aa2924a12aaa24a7a760511b825242603682015260368152611d946056826131e6565b51902090803b1561062b576040516306cc173360e41b81529183918391829084908290611dc5908c60048401613871565b03925af180156106205715611d265781611dde916131e6565b61061c57835f611d26565b8587526008602052611e0181600360408a20016138ca565b60018060a01b0391549060031b1c16868852600a6020526040882060018060a01b0382165f5260205260405f2088805260205260ff60408920541615611e4b575b50600101611cd2565b868852600a6020526040882060018060a01b0382165f5260205260405f2088805260205260408820600160ff1982541617905584905f198701878111611f0157908992918414611eef575b82546001600160a01b0316803b1561061c5760248492604051948593849263aa67c91960e01b845260048401525af1801561062057611ed6575b50611e42565b81611ee0916131e6565b611eeb57865f611ed0565b8680fd5b9050611efb8487613758565b90611e96565b634e487b7160e01b8a52601160045260248afd5b611f2991503d808c833e610bc381836131e6565b5f611cab565b611f3982826137cd565b90611f47611cca84846137ba565b5f1984019084821190875b868110611f625750505050611cdc565b8583611f01578990858314611ff9575b60018060a01b038254168a83526008602052611f9484600360408620016138ca565b905460039190911b1c6001600160a01b031690803b1561061c5760248492604051948593849263aa67c91960e01b845260048401525af1801561062057611fe0575b5050600101611f52565b81611fea916131e6565b611ff557885f611fd6565b8880fd5b506120048388613758565b611f72565b602492506040519283809263010b152760e61b82528860048301525afa90811561117c57859161203f575b50511515845f611c59565b61205391503d8087833e610bc381836131e6565b5f612034565b60405162461bcd60e51b815260206004820152601d60248201527f53637265656e696e6720616c72656164792064697374726962757465640000006044820152606490fd5b60405162461bcd60e51b8152602060048201526014602482015273151c9a585b08191bd95cc81b9bdd08195e1a5cdd60621b6044820152606490fd5b6120ee91503d8086833e610c4881836131e6565b5f611bc9565b50600154604051631a7f3c3360e01b815260048101839052908390829060249082906001600160a01b03165afa8015610d4b57611b73918491612149575b50608001516001600160a01b031633149050611b6a565b61215d91503d8086833e610c4881836131e6565b5f612132565b50346102595780600319360112610259576006546040516001600160a01b039091168152602090f35b50346102595760203660031901126102595760036040602092600435815260088452200154604051908152f35b503461025957602036600319011261025957604060209160043581526008835220541515604051908152f35b50346102595780600319360112610259576007546001600160a01b038116903382900361224c57600680546001600160a01b03199081168417909155166007557fb27970c1714b28277b78cc17ac2fe9556e7f048cd48358cffe3dc7d547608fdc8280a280f35b60405162461bcd60e51b81526020600482015260126024820152712737ba10383937b837b9b2b21037bbb732b960711b6044820152606490fd5b503461025957612295366131d0565b818352600860205260408320906122ae8254151561388a565b600482019060ff82541661261a57600583019260018060a01b0333165f528360205260ff60405f2054166125e0576003019060c8825410156125a857848652600b6020526040862081875260205260ff60408720541661255357848652600b602090815260408088208389528252808820805460ff19166001179055600254905163b6e4033f60e01b8152600481019390935260248301879052829060449082906001600160a01b03165afa908115610bd2578691612518575b506004811015612504576002036124b057805491821561249d575b50600160401b82101561248957906123a0916001820181556138ca565b81546001600160a01b0360039290921b82811b19909116339182901b179092555f91825260209290925260409020805460ff1916600117905560045483911680612410575b505033907f78337b3a0cfc36faafab5a292dc7571f6bd68ba681c22e15c97b1e3469b51a028380a380f35b60405160208101903360601b8252426034820152603481526124336054826131e6565b519020813b1561062b5782916064839260405194859384926306cc173360e41b84526006600485015289602485015260448401525af1801561062057156123e5578161247e916131e6565b61114b57815f6123e5565b634e487b7160e01b85526041600452602485fd5b805461ff0019166101001790555f612383565b60405162461bcd60e51b815260206004820152602660248201527f416e6f6e796d6f7573206170706c69636174696f6e206d75737420626520616360448201526518d95c1d195960d21b6064820152608490fd5b634e487b7160e01b86526021600452602486fd5b90506020813d60201161254b575b81612533602093836131e6565b810103126106c8575160048110156106c8575f612368565b3d9150612526565b60405162461bcd60e51b815260206004820152602760248201527f4e756c6c696669657220616c7265616479207573656420666f722072656769736044820152663a3930ba34b7b760c91b6064820152608490fd5b60405162461bcd60e51b815260206004820152601060248201526f506f6f6c20617420636170616369747960801b6044820152606490fd5b60405162461bcd60e51b8152602060048201526012602482015271105b1c9958591e481c9959da5cdd195c995960721b6044820152606490fd5b60405162461bcd60e51b815260206004820152601b60248201527a14d8dc99595b9a5b99c8185b1c9958591e48199a5b985b1a5e9959602a1b6044820152606490fd5b50346102595760203660031901126102595761267761317a565b61268c60018060a01b036006541633146134a8565b6001600160a01b03166126a08115156134e1565b600780546001600160a01b031916821790557f6ab4d119f23076e8ad491bc65ce85f017fb0591dce08755ba8591059cc51737a8280a280f35b50346102595760203660031901126102595760ff600460406020938235815260088552200154166040519015158152f35b50346102595760203660031901126102595761272461317a565b61273960018060a01b036006541633146134a8565b6001600160a01b031661274d8115156134e1565b600580546001600160a01b03191691909117905580f35b50346102595780600319360112610259576001546040516001600160a01b039091168152602090f35b50346102595780600319360112610259576002546040516001600160a01b039091168152602090f35b50346108e8576127c5366131a6565b6003549091906001600160a01b03166127df81151561351c565b6005546001600160a01b031633148015612c48575b6127fd90613564565b835f52600c60205261281660ff60405f205416156135a1565b835f526008602052600560405f200160018060a01b0383165f5260205260ff60405f20541615612c065760405163010b152760e61b815260048101859052905f82602481845afa918215612a9c575f92612bea575b50612878825185106136f9565b602060405180926313981ba960e31b82528180612899888b6004840161373f565b03915afa908115612a9c575f91612bb8575b508315908115612b8f575b5015612b3b57835f52600a60205260405f2060018060a01b0383165f5260205260405f20835f5260205260ff60405f205416612af65761271061291261293492865f52600860205261ffff60206104638860405f2054946137a6565b04845f526008602052600360405f2001549061292f8215156137eb565b6137cd565b9061294182471015613829565b835f526008602052600160405f200161295b838254613758565b90555f8481526008602052604090206001810154905410612aa7575f848152600a602090815260408083206001600160a01b0385811685529083528184208785529092528220805460ff19166001179055905416803b156108e85760405163aa67c91960e01b81526001600160a01b0383166004820152905f908290602490829087905af18015612a9c57612a87575b5060045485916001600160a01b039091169081612a25575050505f516020613b135f395f51905f529160409182519182526020820152a280f35b60405160208101917f494e444956494455414c5f4d494c4553544f4e455f444953545249425554494f8352602760f91b604083015260018060601b03199060601b166041820152856055820152426075820152607581526105c16095826131e6565b612a949195505f906131e6565b5f935f6129eb565b6040513d5f823e3d90fd5b60405162461bcd60e51b815260206004820152602160248201527f446973747269627574696f6e206578636565647320706f6f6c2062616c616e636044820152606560f81b6064820152608490fd5b60405162461bcd60e51b815260206004820152601f60248201527f416c7265616479207061696420666f722074686973206d696c6573746f6e65006044820152606490fd5b60405162461bcd60e51b815260206004820152602660248201527f4d696c6573746f6e65206e6f7420636f6d706c6574656420627920706172746960448201526518da5c185b9d60d21b6064820152608490fd5b600185019150818511612ba45710155f6128b6565b634e487b7160e01b5f52601160045260245ffd5b90506020813d602011612be2575b81612bd3602093836131e6565b810103126108e857515f6128ab565b3d9150612bc6565b612bff9192503d805f833e610bc381836131e6565b905f61286b565b60405162461bcd60e51b815260206004820152601a60248201527914185c9d1a58da5c185b9d081b9bdd081c9959da5cdd195c995960321b6044820152606490fd5b50600154604051631a7f3c3360e01b815260048101869052905f90829060249082906001600160a01b03165afa8015612a9c576127fd915f91612c9d575b50608001516001600160a01b0316331490506127f4565b612cb191503d805f833e610c4881836131e6565b5f612c86565b346108e85760203660031901126108e8576004355f526008602052602060405f2054604051908152f35b346108e85760203660031901126108e8576004355f5260086020526020600260405f200154604051908152f35b346108e85760203660031901126108e857612d2761317a565b612d3c60018060a01b036006541633146134a8565b6001600160a01b0316612d508115156134e1565b600380546001600160a01b031916919091179055005b346108e857612d74366131d0565b90612d8a60018060a01b036006541633146134a8565b805f52600960205260405f20825f5260205260ff60405f205416612de157805f52600d60205260405f20825f5260205260405f2060ff1981541690555f52600e60205260405f20905f526020525f60408120555f80f35b60405162461bcd60e51b8152602060048201526011602482015270105b1c9958591e4818dbdb5c1b195d1959607a1b6044820152606490fd5b346108e8575f3660031901126108e8576003546040516001600160a01b039091168152602090f35b346108e85760203660031901126108e857600154604051631a7f3c3360e01b815260048035908201819052915f90829060249082906001600160a01b03165afa908115612a9c575f916130ca575b506006546001600160a01b0316331480156130b4575b1561306157612ebc6101e0820151421015613459565b815f52600860205260ff600460405f200154161561301c57815f52600c60205260ff60405f205416612fe3575f8281526008602052604090208054600190910154612f069161349b565b908115612fa9575f838152600c60205260408120805460ff1916600117905560809091015190918291829182916001600160a01b03165af13d15612fa4573d612f4e8161321d565b90612f5c60405192836131e6565b81525f60203d92013e5b15612f6d57005b60405162461bcd60e51b815260206004820152600f60248201526e151c985b9cd9995c8819985a5b1959608a1b6044820152606490fd5b612f66565b60405162461bcd60e51b81526020600482015260126024820152714e6f7468696e6720746f207265636c61696d60701b6044820152606490fd5b60405162461bcd60e51b8152602060048201526011602482015270105b1c9958591e481c9958db185a5b5959607a1b6044820152606490fd5b60405162461bcd60e51b815260206004820152601d60248201527f53637265656e696e67206e6f74207965742064697374726962757465640000006044820152606490fd5b60405162461bcd60e51b815260206004820152602560248201527f4e6f7420617574686f72697a65643a206f6e6c79206f776e6572206f7220737060448201526437b739b7b960d91b6064820152608490fd5b5060808101516001600160a01b03163314612ea6565b6130de91503d805f833e610c4881836131e6565b82612e90565b346108e8575f3660031901126108e8576004546040516001600160a01b039091168152602090f35b346108e8575f3660031901126108e8576005546040516001600160a01b039091168152602090f35b346108e857613142366131a6565b915f52600a60205260405f209060018060a01b03165f5260205260405f20905f52602052602060ff60405f2054166040519015158152f35b600435906001600160a01b03821682036108e857565b602435906001600160a01b03821682036108e857565b60609060031901126108e857600435906024356001600160a01b03811681036108e8579060443590565b60409060031901126108e8576004359060243590565b601f909101601f19168101906001600160401b0382119082101761320957604052565b634e487b7160e01b5f52604160045260245ffd5b6001600160401b03811161320957601f01601f191660200190565b81601f820112156108e85780519061324f8261321d565b9261325d60405194856131e6565b828452602083830101116108e857815f9260208093018386015e8301015290565b519081151582036108e857565b519060ff821682036108e857565b519061ffff821682036108e857565b6020818303126108e8578051906001600160401b0382116108e85701610200818303126108e8576040519161020083016001600160401b038111848210176132095760405281516001600160401b0381116108e85781613309918401613238565b835260208201516001600160401b0381116108e8578161332a918401613238565b602084015260408201516001600160401b0381116108e8578161334e918401613238565b60408401526060820151906001600160401b0382116108e857613372918301613238565b60608301526080810151906001600160a01b03821682036108e8576101e09160808401526133a260a0820161327e565b60a08401526133b360c0820161328b565b60c08401526133c460e0820161328b565b60e08401526133d6610100820161327e565b6101008401526133e96101208201613299565b6101208401526133fc610140820161328b565b61014084015261340f610160820161328b565b6101608401526134226101808201613299565b6101808401526134356101a0820161327e565b6101a08401526134486101c0820161327e565b6101c084015201516101e082015290565b1561346057565b60405162461bcd60e51b8152602060048201526013602482015272151c9a585b081b9bdd081e595d08195b991959606a1b6044820152606490fd5b91908203918211612ba457565b156134af57565b60405162461bcd60e51b815260206004820152600a60248201526927b7363c9037bbb732b960b11b6044820152606490fd5b156134e857565b60405162461bcd60e51b815260206004820152600c60248201526b5a65726f206164647265737360a01b6044820152606490fd5b1561352357565b60405162461bcd60e51b8152602060048201526019602482015278135a5b195cdd1bdb99481b585b9859d95c881b9bdd081cd95d603a1b6044820152606490fd5b1561356b57565b60405162461bcd60e51b815260206004820152600e60248201526d139bdd08185d5d1a1bdc9a5e995960921b6044820152606490fd5b156135a857565b60405162461bcd60e51b815260206004820152602260248201527f446973747269627574696f6e20626c6f636b6564206166746572207265636c61604482015261696d60f01b6064820152608490fd5b6020818303126108e8578051906001600160401b0382116108e857019080601f830112156108e8578151916001600160401b038311613209578260051b91602083019361364860405195866131e6565b8452602080850193830101918183116108e85760208101935b83851061367057505050505090565b84516001600160401b0381116108e85782016060818503601f1901126108e85760405191606083016001600160401b03811184821017613209576040526020820151926001600160401b0384116108e8576060836136d5886020809881980101613238565b83526136e360408201613299565b8584015201516040820152815201940193613661565b1561370057565b60405162461bcd60e51b8152602060048201526017602482015276092dcecc2d8d2c840dad2d8cae6e8dedcca40d2dcc8caf604b1b6044820152606490fd5b9081526001600160a01b03909116602082015260400190565b91908201809211612ba457565b8051156137725760200190565b634e487b7160e01b5f52603260045260245ffd5b8051600110156137725760400190565b8051600210156137725760600190565b80518210156137725760209160051b010190565b81810292918115918404141715612ba457565b81156137d7570490565b634e487b7160e01b5f52601260045260245ffd5b156137f257565b60405162461bcd60e51b815260206004820152600f60248201526e4e6f207061727469636970616e747360881b6044820152606490fd5b1561383057565b60405162461bcd60e51b8152602060048201526019602482015278125b9cdd59999a58da595b9d08115512081a5b881d985d5b1d603a1b6044820152606490fd5b6040909392919360608101946005825260208201520152565b1561389157565b60405162461bcd60e51b8152602060048201526011602482015270139bc81a5b98d95b9d1a5d99481c1bdbdb607a1b6044820152606490fd5b8054821015613772575f5260205f2001905f90565b156138e657565b60405162461bcd60e51b815260206004820152601d60248201527f4d696c6573746f6e6520616c72656164792064697374726962757465640000006044820152606490fd5b5f198114612ba45760010190565b1561394057565b60405162461bcd60e51b8152602060048201526019602482015278576f756c642065786365656420706f6f6c2062616c616e636560381b6044820152606490fd5b5f516020613af35f395f51905f523b156108e857604051631974142760e21b8152915f91839182916139b791906004840161373f565b0381835f516020613af35f395f51905f525af18015612a9c576139d75750565b5f6139e1916131e6565b565b90602080835192838152019201905f5b818110613a005750505090565b82518452602093840193909201916001016139f3565b91613a3d9060ff613a4b9593168452601a60208501526080604085015260808401906139e3565b9160608184039101526139e3565b90565b6020613aa381604051613a6182826131e6565b5f81525f36813760405190613a776080836131e6565b60038252606036848401375f613a8c83613765565b526005613a9883613786565b525f610f4d83613796565b03815f5f516020613af35f395f51905f525af1918215612a9c575f92613ac857505090565b90809250813d8311613aeb575b613adf81836131e6565b810103126108e8575190565b503d613ad556fe000000000000000000000000ea30c4b8b44078bbf8a6ef5b9f1ec1626c7848d9ab3d35e987d7948966df55f2917cc7abfc0e48b46f79c6b8603de3ee7c95aac7a164736f6c634300081b000a",
  "linkReferences": {},
  "deployedLinkReferences": {}
}